:020000040800F2
:10000000783301209503000809880008B903000827
:10001000E9870008F90C0008C5AF000800000000DF
:10002000000000000000000000000000C502000801
:1000300025110008000000002103000805A00008A9
:10004000AF030008AF030008AF030008AF030008C8
:10005000AF030008AF030008AF030008AF030008B8
:10006000AF030008AF030008AF030008490E000803
:10007000AF030008AF030008AF030008AF03000898
:10008000AF030008550E0008AF030008AF030008D7
:10009000AF030008AF030008AF030008AF03000878
:1000A000AF030008AF030008AF030008AF03000868
:1000B000AF030008AF030008AF030008AF03000858
:1000C000AF030008AF030008AF030008AF03000848
:1000D000AF030008AF030008AF030008AF03000838
:1000E000AF030008AF030008AF030008AF03000828
:1000F000AF030008AF030008AF030008AF03000818
:10010000AF030008818F0008AF030008AF030008A9
:10011000BDA10008AF030008AF030008AF0300084B
:10012000AF030008AF030008AF030008AF030008E7
:10013000AF0300080000000000000000AF0300084B
:10014000AF030008AF030008AF030008AF030008C7
:10015000AF030008C10E0008AF030008AF0300089A
:10016000AF030008AF030008AF030008AF030008A7
:10017000AF030008AF030008C50D0008AF03000877
:10018000AF030008AF030008C9A10008AF030008CF
:10019000AF030008AF030008AF030008AF03000877
:1001A000AF030008AF030008610E0008F18E0008DD
:1001B000AF030008AF030008AF030008AF03000857
:1001C000AF030008AF0300080000000000000000BB
:1001D0000000000000000000AF0300080000000065
:1001E000000000000000000000000000000000000F
:1001F0000000000000000000AF030008AF0300088B
:10020000AF030008AF03000800000000AF030008C0
:10021000AF030008AF030008AF030008AF030008F6
:10022000AF030008AF030008AF03000800000000A0
:10023000AF030008AF03000800000000AF03000890
:10024000AF030008AF030008AF030008AF030008C6
:10025000AF030008AF030008AF030008AF030008B6
:10026000AF030008AF030008AF030008AF030008A6
:10027000AF030008AF030008AF0300080000000050
:10028000AF030008AF03000800000000AF03000840
:1002900000000000AF030008AF030008AF03000830
:1002A000AF030008AF030008AF030008DFF810D069
:1002B00000F0B0FB00480047415C0108AFF300804C
:1002C000783301202C4B19680868B0E8F04F80F3B0
:1002D0000988BFF36F8F4FF0000080F311887047DB
:1002E0000000000008480068006880F308884FF0AC
:1002F000000080F3148862B661B6BFF34F8FBFF37E
:100300006F8F00DF00BF00BF08ED00E0DFF80C00DA
:10031000016841F470010160704700BF88ED00E0A2
:10032000EFF30980BFF36F8F134B1A681EF0100FA5
:1003300008BF20ED108A20E9F04F106009B44FF09B
:10034000500080F31188BFF34F8FBFF36F8F18F009
:1003500061FE4FF0000080F3118809BC196808683D
:10036000B0E8F04F1EF0100F08BFB0EC108A80F319
:100370000988BFF36F8F704730020020EFF30580CC
:1003800070470000EFF308807047EFF30980704773
:10039000684670470648804706480047FEE7FEE784
:1003A000FEE7FEE7FEE7FEE7FEE7FEE7FEE7FEE725
:1003B000E5A00008AD020008704669460CF0D6FFC3
:1003C000FFF7FEFF2DE9F05F0546002092469B46B1
:1003D00088460646814640241BE02846414647465B
:1003E000224600F02FF853465A46C01A914110D3C6
:1003F00011461846224600F016F82D1A67EB010840
:100400004F4622460120002100F00DF817EB0009AD
:100410004E41201EA4F10104DFDC484631462A4645
:100420004346BDE8F09F202A04DB203A00FA02F19F
:10043000002070479140C2F1200320FA03F31943D2
:1004400090407047202A04DB203A21FA02F0002174
:10045000704721FA02F3D040C2F1200291400843D4
:100460001946704710B5431A934209D28318881869
:1004700003E010F8011D03F8011D521EF9D210BD52
:1004800040EA01039B0703D009E008C9121F08C016
:10049000042AFAD203E011F8013B00F8013B521E96
:1004A000F9D210BDD2B201E000F8012B491EFBD2F7
:1004B00070470022F6E710B513460A46044619466F
:1004C000FFF7F0FF204610BD421E12F8013F002B3F
:1004D000FBD111F8013B02F8013B002BF9D1704729
:1004E00010B5044604E00B7800F8013B03B1491C49
:1004F000521EF8D2204610BDCAB2401E10F8011F8D
:100500008A4202D00029F9D100207047421C10F81D
:10051000011B0029FBD1801A704710B5002200E0B2
:10052000521C835C8C5CA34201D1002BF8D1D8B261
:10053000E1B2401A10BD30B504460020034600E089
:100540005B1C934203D2E05CCD5C401BF8D030BD15
:10055000034611F8012B00F8012B002AF9D11846A7
:10056000704730B505460020034600E05B1C93420F
:1005700005D2EC5CC85C201A01D1002CF6D130BD4C
:1005800030B503461D783DB10A4612F8014B1CB147
:10059000AC42FAD15B1CF5E7181A30BD30B5054600
:1005A000002008E00A4602E0A34207D0521C13785C
:1005B000002BF9D1401C2C5C002CF3D130BD30B5A0
:1005C0000B46014600202022012409E021FA02F511
:1005D0009D4205D303FA02F5491B04FA02F52844AB
:1005E000151EA2F10102F1DC30BD10B5141E73F12D
:1005F000000408DA401C41F1000192185B411A43E3
:1006000001D120F0010010BD2DE9F04D92469B462E
:1006100011B1B1FA81F202E0B0FA80F220329046D4
:10062000FFF701FF04460F4640EA0A0041EA0B01CA
:1006300053465A46084313D0114653EA010019D0D5
:10064000C8F140025046FFF7FDFE05460E465046F3
:1006500059464246FFF7E7FE084305D0012004E073
:1006600020463946BDE8F08D0020054346EAE07695
:100670002C4337430A986305E40AA0EB08000022E4
:10068000FD0A44EA47540A3002D500200146E9E752
:10069000010510196941DDE9084500196941BDE806
:1006A000F04DA2E72DE9FE4F804681EA0300C00F1E
:1006B0000C46009021F0004123F00045B8EB020009
:1006C000A94105D24046214690461C460B460246AB
:1006D00023F00040104347D0270DC7F30A00C3F3AF
:1006E0000A510290401A019040286BDAC3F31300BC
:1006F00040F4801B0098924620B10023D2EB030AFD
:1007000063EB0B0B01985946C0F140025046FFF7CE
:100710008AFE06460D4650465946019A00F08CF96D
:1007200010EB08006141002487EA115284EAE77364
:100730001A4340D0009A62B3019A012A4FEA075245
:1007400015DC001B61EB02014FF0004202EA075288
:10075000CDE90042001C41F5801132462B46FFF7DF
:1007600053FF03B0BDE8F08F40462146F9E7001B78
:1007700061EB0201001C41F5801300185B41201859
:10078000A2F5001747EB030140EAD570B6196D4199
:1007900011E06D084FEA360645EAC0754FEA075288
:1007A000001B61EB0201001C41F5801149084FEA72
:1007B00030000019514132462B4603B0BDE8F04FDE
:1007C000FFF713BF0098012240000023D0EB020284
:1007D00063EBE073009821464FEAE074B8EB000049
:1007E00061EB0401E9E783F000435BE781F000413E
:1007F00058E72DE9FE4F81EA030404F0004421F09C
:10080000004100944FF0000B23F0004350EA010434
:100810005ED052EA03045BD0C3F30A54C1F30A5515
:100820002C44A4F2F3340194A0FB0254C1F313014D
:1008300041F48011C3F3130343F4801301FB02441A
:1008400000FB034E840A970A44EA815447EA83571F
:10085000A4FB076802958D0A05FB07854FEA932CD8
:1008600004FB0C542705029D4FEA065847EA163749
:10087000B5EB08056EEB070C870E920E47EA811761
:1008800042EA8312A7FB0201B6EB0B0164EB000402
:100890002B0D43EA0C335E1844EB1C50DA465146EC
:1008A000E7FB0201C5F313044FEA0B3343EA145389
:1008B0004FEA0432019C43EA0603A4F10C040294BB
:1008C000009CCDE900B4FFF79FFE03B0BDE8F08FB8
:1008D00000200146F9E72DE9F04D81EA030404F018
:1008E000004B21F0004514464FF0000A23F0004170
:1008F00050EA050220D054EA01021DD0C5F30A5780
:100900000246C5F31303C1F31300C1F30A5640F4C2
:10091000801543F48013A7EB0608101BD64608F297
:10092000FD3873EB050002D308F1010801E09218CD
:100930005B41B8F1000F03DA00200146BDE8F08DFD
:1009400000204FF48011064684460EE0171B73EB1F
:10095000050705D3121B63EB050306434CEA010CA4
:1009600049084FEA300092185B4150EA0107EDD187
:1009700052EA030012D082EA040083EA0501084328
:1009800005D0101BAB4106D20122002306E0002255
:100990004FF0004302E06FF0010253101AEB060023
:1009A0004CEB085110EB0A0041EB0B01BDE8F04D98
:1009B000FFF71BBEC1F30A52C1F3130140F2FF332C
:1009C00041F480119A4202DA00200146704740F259
:1009D00033439A42A2F2334202DC5242FFF732BD65
:1009E000FFF721BD30B5041E71F1000404DB4FF0A8
:1009F0000044404264EB0101141E73F1000405DB66
:100A00001C464FF00043524263EB0403994208BF77
:100A1000904230BD064C074D06E0E06840F001030F
:100A200094E8070098471034AC42F6D3FFF742FC35
:100A30000CC901083CC90108202A06DBCB17203A63
:100A400041FA02F043EAE07306E041FA02F3D040D3
:100A5000C2F12002914008431946704770B58C18C6
:100A600010F8015B15F0070301D110F8013B2A11C2
:100A700006D110F8012B03E010F8016B01F8016BAF
:100A80005B1EF9D12B0705D40023521E0DD401F8AB
:100A9000013BFAE710F8013BCB1A921C03E013F874
:100AA000015B01F8015B521EF9D5A142D8D30020A9
:100AB00070BD47F6197CC9F2020C604740F2D13C88
:100AC000C9F2000C604749F22D3CC9F2010C6047A5
:100AD0004FF67D3CC9F2010C60474FF6C93CC9F2A4
:100AE000010C604744F28D3CC9F2010C604742F6AC
:100AF000952CC9F2020C604710B504462F480068D7
:100B000010F4403F12D004F0CFFD6168B1F5803F92
:100B100006D0B1F5003F03D0B1F5403F28D103E046
:100B2000090CB0FBF1F023E0800821E000214FF434
:100B3000002003F017FD61688A03920B18D18A1414
:100B40000C2A15D2DFE802F0140606060606060B8C
:100B50000D0F1113890C4900B0FBF1F008E00009FA
:100B600006E0400904E0800902E0C00900E0000A54
:100B700040081349884205D82068816821F44071F3
:100B8000816010BD0F49884207D82068816821F430
:100B9000407141F48071816010BD0B49884207D8D3
:100BA0002068816821F4407141F40071816010BDBA
:100BB0002068816841F44071816010BD08230240C3
:100BC000105E5F0020BCBE0040787D0110B500249F
:100BD000002801D0A41E05E0034805F0DBFD08B1A4
:100BE0006FF00304204610BDB432002010B5064952
:100BF000C0EB401001EB800005F0DEFD042801D0C1
:100C0000012010BD002010BDB432002070B50024BA
:100C1000002801D0A41E1EE000F022F8012802D016
:100C20006FF0060417E00D4D284608F077FE2846C1
:100C300007F034FD6FF0030608B134460BE04FF4C3
:100C40008041284605F032FC08B1344603E0022119
:100C5000284605F0ADFB204670BD0000B4320020F0
:100C6000002802D06FF0010070470120704700009B
:100C7000F8B505460024C82603FB06F0002D01D078
:100C8000A41E0AE00090064805F0DEFF014621B1EF
:100C900004A017F093FE6FF003042046F8BD000097
:100CA000B4320020727265733A25640D0A000000A8
:100CB00070470000F8B505460024C82603FB06F07F
:100CC000002D01D0A41E0AE00090064806F0CAF8E4
:100CD000014621B104A017F071FE6FF00304204615
:100CE000F8BD0000B4320020777265733A25640DB8
:100CF0000A0000007047000001A017F05FFEFEE749
:100D00000D0A4275734661756C745F48616E646C60
:100D100065720D0A00000000F0B5204E30688103B6
:100D20004FF0000011D4BFF34F8FBFF36F8F1C49FA
:100D30000860BFF34F8FBFF36F8F316841F400310C
:100D40003160BFF34F8FBFF36F8F3168C90324D475
:100D5000124970310860BFF34F8F081F0068C0F35D
:100D60004E310F4A43F6FF771032C0F3C9052846CB
:100D700007EA411343EA80741460401E441CF9D111
:100D8000491E481CF3D1BFF34F8F306840F48030C8
:100D90003060BFF34F8FBFF36F8FF0BD14ED00E0F5
:100DA00050EF00E010B5806B816C496D022906D0D0
:100DB000012180F83510C16C41F04001C16400F0A0
:100DC0000DFE10BD014800F00BBE00001C07002006
:100DD000F0B585B01A4E01220821304602F029FAFA
:100DE000184F4FF4005500222946384602F021FAE8
:100DF000009500240294039401946946384602F059
:100E0000FFF808200090029403940194694630464C
:100E100002F0F6F80A2002F0E1F80022304608213C
:100E200002F007FA0A2002F0D9F8012229463846D2
:100E300002F0FFF90A2002F0D1F805B0F0BD000081
:100E40000010025800080258014801F0B7BA00002B
:100E5000A0090020014801F0B1BA0000C00B002039
:100E6000014800F005BF0000180A0020F0B5059FFA
:100E7000114C256825F00105256000252560022616
:100E8000E66166632561C2F548752564E76001EB9C
:100E9000C10505EB011100EB4110084901EB4000D1
:100EA000E06343EA02406064206840F00100206093
:100EB0002068C007FCD1F0BD001000520090012452
:100EC0000248D0F8800001F079BA0000280B002019
:100ED00010B52C4A016891423AD02A4A1832914200
:100EE00036D0284A3032914232D0264A4832914296
:100EF0002ED0244A603291422AD0224A783291423E
:100F000026D0204A9032914222D01E4AA8329142E5
:100F10001ED01D4A91421BD01B4A1832914217D055
:100F2000194A3032914213D0174A483291420FD0B9
:100F3000154A603291420BD0134A7832914207D061
:100F4000114A9032914203D00F4AA832914214D1F3
:100F5000CAB2103A1823B2FBF3F20C4C02F00703AA
:100F6000E35CC365032A04D96FF30901091D816598
:100F700006E06FF30901816502E021F0FF01816560
:100F8000806D10BD10000240100402406CAA0108E0
:100F900010B501680123224CCAB2A1421BD0204CDB
:100FA0001434A14217D01E4C2834A14213D01C4C3B
:100FB0003C34A1420FD01A4C5034A1420BD0184CF3
:100FC0006434A14207D0164C7834A14203D0144CAB
:100FD0008C34A1420FD1083A1421B2FBF1F1114A2D
:100FE00002EB810202660F4A8032426601F01F0165
:100FF0008B40836610BD103A1824B2FBF4F20A4C01
:101000002144A82900D80832084901EB8201016671
:1010100006498031416602F01F018B40836610BD96
:101020000854025800580258F0FBFDBF0008024067
:101030000279521E072A31D8194B016899421BD0F8
:10104000174B1433994217D0154B2833994213D0BC
:10105000134B3C3399420FD0114B503399420BD074
:101060000F4B6433994207D00D4B7833994203D02C
:101070000B4B8C33994207D10A4901EB8201C166BF
:1010800008494031016706E0074901EB8201C1666A
:1010900005494031016701219140416770470000D7
:1010A000085402580059025800090240014610B580
:1010B00000208B694FF0C0748A6A002B0ED0B3F504
:1010C000005F1AD062B3012A2AD0022A28D0032A4C
:1010D00003D1C96AC90100D5012010BD1AB1012A86
:1010E00006D0022AF9D1C96AC901F6D5012010BD7E
:1010F000C96AA142FBD1012010BD52B1012A0AD018
:10110000022A06D0032AF7D1C96AA142F4D10120EC
:1011100010BD012010BDC96AC901FBD5012010BD59
:10112000012010BD01A017F049BC00000D0A446564
:101130006275674D6F6E5F48616E646C65720D0A13
:101140000000000003490A68104448600A689042A1
:10115000FCD87047B000002070B506460D4632211D
:1011600030460EF0F5FD00242946012230460EF0EF
:1011700001FE6D1C641CE4B21E2CF5D370BD72B66A
:10118000FEE70022AFF30080034610B50120097886
:101190003039C9B2022908D204480024445400EB73
:1011A0008104636008440273002010BD1C1B0120F1
:1011B000F8B5002441A017F001FC52480A224CA1C6
:1011C0000FF00CFC504E307038B150A017F0F6FB09
:1011D0004C480EF0EEFF0120F8BD4EA017F0EEFBDC
:1011E0004948401CFFF792F94749024645486B467B
:1011F000491C0FF0C8FD307038B144A017F0DEFB79
:1012000040480EF0D6FF0120F8BD46A017F0D6FBEF
:101210003D4946A0491C17F0D1FB3A480EF0C9FFE2
:1012200044A017F0CBFB3848401CFFF76FF985B29C
:10123000344801222EA10FF0D1FB30706B463149AA
:101240002A46304820390FF0A4FC307038B12FA066
:1012500017F0B4FB2B480EF0ACFF0120F8BD40A006
:1012600017F0ACFB27481022294620380EF0CEFE9E
:101270002548244A401C203A0DE0015D135D994247
:1012800007D022A017F09AFB1E480EF092FF012013
:10129000F8BD641CE4B2AC42EFD335A017F08EFB6E
:1012A000184922A0203917F089FB16480EF081FF5B
:1012B00031A017F083FB0020F8BD00002D2D2D2D4F
:1012C0002D2D2D2D2D2D2D2D2D4661744673206F26
:1012D00070656E20262077726974652D2D2D2D2D59
:1012E0002D2D2D2D2D2D2D2D2D2D0D0A0000000025
:1012F000303A2F46617446735F546573742E747868
:10130000740000008C2E002088000020657272217D
:101310000D0A00006F6B2C77726974652E2E2E0DEE
:101320000A0000006F6B200D0A00000025730D0AF3
:10133000000000002D2D2D2D2D2D2D2D2D2D2D2D91
:101340002D466174467320726561642D2D2D2D2DFF
:101350002D2D2D2D2D2D2D2D2D2D0D0A00000000B4
:101360006F6B2C207665726966792E2E2E0D0A0021
:101370006F6B0D0A0000000073646D6D6320616E79
:101380006420666174667320746573742066696E88
:10139000697368210D0A0D0A0D0A0D0A000000008C
:1013A0007CB501AA69460CA00EF013FF0198816973
:1013B0004089891E4143009A5043CC0AC50A07A0C0
:1013C00017F0FCFA10A0214617F0F8FA0EA02946F3
:1013D00017F0F4FA7CBD0000303A00002D2D2D2DC1
:1013E0002D2D2D2D2D2D2D2D2D2D2D2D2D2D2D70EA
:1013F00072612D2D2D2D2D2D2D2D2D2D2D2D2D2DA4
:101400002D2D2D0D0A00000053442025644D420D62
:101410000A0000002DE9FC5F04460D460026B14697
:10142000CDF80490DFF850B3DFF850A3DFF8508315
:1014300094F85000012810D0012784F850702068DB
:1014400006F0A2FE58B1606D40F0200060650126F4
:1014500084F850903046BDE8FC9F0220FBE72168ED
:10146000CA692868030329D090FAA0F0B0FA80F086
:1014700000F01F0007FA00F00243CA61A988206843
:101480002A6801F4407300EB9310036B01F01F0115
:101490004FF01F0CC2F384620CFA01FC8A4023EA6D
:1014A0000C0313430363206806F06EFE009020686F
:1014B00006F062FE0099014303D077E0C0F3846038
:1014C000D6E7AA682968206806F062FE2068C1682D
:1014D000C90606D46969C268C2F38202520091400B
:1014E00005E06969C26802F01002520891402A6959
:1014F000042A2CD02B6800EB8200026E03F0F84324
:101500000B4302F000421A430266697E20682A6992
:10151000012916D0002100EB8200026E22F0004269
:101520000A430266297E20682A6901290CD000211D
:10153000036902F01F0223F4F04391400B4303615F
:1015400034E04FF00041E6E74FF40061F0E7016E50
:101550002A7801F0F841B1EB826F03D1016E21F0DE
:10156000004101662068416E2A7801F0F841B1EB34
:10157000826F03D1416E21F0004141662068816E87
:101580002A7801F0F841B1EB826F03D1816E21F02E
:10159000004181662068C16E2A7801F0F841B1EB04
:1015A000826F03D1C16E21F00041C166206806F050
:1015B000E7FD00287FF44CAF20682A7B296850F8AB
:1015C000C03FC1F3130C23EA0C0302F0180C6D4A60
:1015D00022FA0CF20A4013430360E868584574D1BC
:1015E0002868010319D090FAA0F1B1FA81F1491CE1
:1015F00001F01F01092931D80103002910D090FA08
:10160000A0F1B1FA81F101F1010101F01F0107FA26
:1016100001F708D1C0F3846109E0C0F38461E6E713
:10162000C0F38461EFE790FAA0F1B1FA81F101F122
:10163000010101F01F0147EA816102D1C0F384601A
:1016400003E090FAA0F0B0FA80F000F1010000F0A1
:101650001F0000EB400041EA005132E04FEA003148
:1016600000290DD090FAA0F1B1FA81F101F1010148
:1016700001F01F0107FA01F705D1C0F3846106E00C
:10168000C0F38461F2E790FAA0F1B1FA81F101F1BF
:10169000010101F01F0147EA816102D1C0F38460BA
:1016A00003E090FAA0F0B0FA80F000F1010000F041
:1016B0001F00A0F10A0000EB400041EA005040F09A
:1016C0000071AA68206806F063FD29680029BFF64A
:1016D000BFAE2D4A906800F0E070DAF80830C3F32E
:1016E0000003D8F80850C5F300052B4305D0606D02
:1016F00040F0200060650126AAE6244B99421BD1E8
:10170000030219D421684145F6D140F400009168E4
:1017100021F0E071014391601D481E490068B0FB53
:10172000F1F0401C4000019002E00198401E019041
:1017300001980028F9D18BE6174B99420CD1C301CF
:101740000AD421684145D7D140F08070916821F0DA
:10175000E071014391607BE6104B9942CCD141028C
:10176000CAD421684145C7D140F48000916821F076
:10177000E071014391606BE60000FF4700200240EA
:1017800000210240FFFF0F0000230240000084CB35
:1017900000000020400D03000040C0BA0000B8CF98
:1017A000F8B50446002500260096002C02D0606D96
:1017B00010B107E00120F8BD204600F0DBF8A66577
:1017C00084F8506020688168C1F3407119B1816864
:1017D0005F4A1140816020688168C1F3007199B946
:1017E00081685C4A114041F0805181605A485B49F0
:1017F0000068B0FBF1F0401C009002E00098401E31
:10180000009000980028F9D120688168C1F3007128
:1018100041B9616D41F010016165A16D41F00101B7
:10182000A165012506F0B0FC616DC90600D430B198
:10183000606D40F01000606501252846F8BD606DC0
:1018400020F4807040F002006065206806F098FC8B
:1018500080B943488068C0F3000042498968C1F3F9
:101860000001084306D160683F498A6822F47C126F
:1018700002438A60A168206B0843617D4A03217F8F
:1018800042EA01421043012903D1218C491E40EA5A
:101890004140616A29B1A26A01F47871014342EAC8
:1018A00001002168CA68314B1A400243CA602068AF
:1018B00006F06AFC0646206806F05EFC06431DD171
:1018C000217DE06A40EA81312068C26844F2030366
:1018D0009A430A43C26094F8380001281DD020685A
:1018E000016921F00101016120680169626B21F049
:1018F0007041114301612046FFF7FEF8E0680128BE
:101900001DD02068016B21F00F010163606D20F094
:10191000020040F0010060658FE7A28F0123D4E947
:101920001010521E0143A06C03EB0242104301430E
:10193000206802690E4B1A4011430161D4E7206808
:10194000016BA26921F00F01521E11430163DDE713
:10195000C0FFFF5FC0FFFF7F00000020400D0300BD
:1019600000200240002102400023024003C0F0FF9B
:101970001EF800FC10B5B2B00446C02102A8FEF764
:1019800098FD14492068884221D100204FF400219D
:10199000CDE90210022004900B2105910821069147
:1019A00007900890C020099000200A900B902D907D
:1019B00002A803F06DF808B1FFF7E1FB06480168E3
:1019C00041F020010160006800F02000019032B079
:1019D00010BD000000210240384502587047704792
:1019E0002DE9F0410446206805694FF00406234FB5
:1019F00069070BD54661E06C40F00200E06484F8B2
:101A00003560A06C0765A06C00F080FBA8070DD5C1
:101A1000216802204861E06C40F00100E06484F835
:101A20003560A06C0765A06C00F070FBE80605D57A
:101A3000216810204861204600F070F8280705D57D
:101A4000216808204861204600F010F9E80712D00C
:101A500020680168890703D5C16821F01E01C160B3
:101A60002068C16821F00101C1602168012048613E
:101A70002046FFF7B4FFBDE8F0810000A50D000887
:101A800010B50446002C03D094F8350010B104E0E2
:101A9000012010BD204600F043F8022084F83500F4
:101AA000A069002200B16262206801681A4B1940E7
:101AB0000160616860690143D4E90303184301438D
:101AC000A0680143A0690143206A0143606A0143A1
:101AD000A06A0143E06A0143206B01432068036868
:101AE00019430160606810280BD1617F207FE37F7C
:101AF00040EA0120A17F090441EA0361084321680B
:101B000088612068C16841F01E01C160E264012063
:101B100084F83500002010BD07F0E0FF704700009A
:101B20002DE9F04186B00646142101A8FEF7C1FC5C
:101B30004649306888427DD14548016841F001013D
:101B40000160006800F0010000904149091D08682B
:101B500040F010000860086800F01000009008686D
:101B600040F001000860086800F00100009008687B
:101B700040F008000860086800F00800009008685D
:101B800040F002000860086800F002000090732036
:101B900001900224029400250395032704974FF037
:101BA0000D08CDF814802B4801A901F029FA4FF453
:101BB000CA600190029403950497CDF8148001A99E
:101BC000254801F01DFA082001900294039504971E
:101BD000CDF8148001A9214801F012FA802001906B
:101BE000029403950497CDF8148001A91C4801F0D4
:101BF00007FA1D4C1B4820604B206060A560E56023
:101C00004FF480602061800060618000A0618011DD
:101C1000E0614002206265620120A062E562256306
:101C2000204600F0C1FF08B1FFF7A9FAB464A6632B
:101C3000002200E006E005214E2001F017FD4E20B5
:101C400001F006FD06B0BDE8F0810000000002488A
:101C50003C4502580010025800000258000C02587F
:101C60000004025810000240A0090020704770478D
:101C70002DE9F04704462068456806684FF00409DE
:101C80004FF000074FF00108E90714D0F10512D515
:101C9000016821F480710160606E40F001006066AF
:101CA0002068C0F8088084F8619084F86070616AE8
:101CB00009B120468847A80615D5B00413D5206879
:101CC000016821F400510160216820208860606E65
:101CD00040F00200606684F8619084F86070616A88
:101CE00009B120468847280715D5300513D5206847
:101CF000016821F400610160216808208860606E3D
:101D000040F00400606684F8619084F86070616A55
:101D100009B12046884768070CD570050AD52068A8
:101D2000016821F4806101602068C0F808902046B5
:101D300000F02DF8A80713D5B00511D5206801686B
:101D400021F400710160216802208860606E606685
:101D500084F8618084F86070216A09B12046884760
:101D6000E80612D5F00410D52068016821F48051EE
:101D70000160216810208860606E606684F8618070
:101D800084F860702046FFF772FFBDE8F087704767
:101D90002DE9F84F044601F053FA00905CB194F835
:101DA0003500022809D080206065002084F83400C6
:101DB0000120BDE8F88F0120FBE7D14ED04FD0497C
:101DC0001836DFF83C833037DFF83493DFF830A380
:101DD00008F14808DFF828B309F1600920680AF122
:101DE000780A0BF1900B88422ED0B0422CD0B8422A
:101DF0002AD0404528D0484526D0504524D05845C3
:101E000022D0BF4AA83290421ED0BE4A90421BD078
:101E1000BC4A1832904217D0BA4A3032904213D09E
:101E2000B84A483290420FD0B64A603290420BD046
:101E3000B44A7832904207D0B24A9032904203D0EE
:101E4000B04AA83290420AD1026822F01E02026013
:101E50002068426922F080024261256804E002683D
:101E600022F00E0202602568206888424DD0B04200
:101E70004BD0B84249D0404547D0484545D0504561
:101E800043D0584541D09E4AA83290423DD09D4A09
:101E900090423AD09B4A1832904236D0994A30321A
:101EA000904232D0974A483290422ED0954A6032C2
:101EB00090422AD0934A7832904226D0914A90326A
:101EC000904222D08F4AA83290421ED08E4A904231
:101ED0001BD08D4A1432904217D08B4A2832904240
:101EE00013D0894A3C3290420FD0874A50329042F8
:101EF0000BD0854A6432904207D0834A78329042B0
:101F000003D0814A8C32904204D1206E026822F4C0
:101F1000807202607A49206888422ED0B0422CD06C
:101F2000B8422AD0404528D0484526D0504524D034
:101F3000584522D07249A83188421ED07149884242
:101F40001BD070491831884217D06E493031884211
:101F500013D06C49483188420FD06A4960318842B9
:101F60000BD068497831884207D066499031884261
:101F700003D06449A831884204D1016821F00101ED
:101F8000016013E0016821F0010101600EE001F041
:101F900057F90099401A052808D9202034342062C6
:101FA0000320607000202070012002E72868C0072D
:101FB000EDD1534A0121206890422ED0B0422CD05E
:101FC000B8422AD0404528D0484526D0504524D094
:101FD000584522D04A4BA83398421ED0494B9842CC
:101FE0001BD0484B1833984217D0464B3033984299
:101FF00013D0444B483398420FD0424B6033984241
:102000000BD0404B7833984207D03E4B90339842E8
:1020100003D03C4BA833984208D1A06D94F85C30B3
:1020200003F01F053F23AB40836007E0A06D94F8E9
:102030005C3003F01F0301FA03F343602068904211
:102040004DD0B0424BD0B84249D0404547D048452A
:1020500045D0504543D0584541D0294AA8329042F6
:102060003DD0284A90423AD0264A1832904236D083
:10207000244A3032904232D0224A483290422ED006
:10208000204A603290422AD01E4A7832904226D0AE
:102090001C4A9032904222D01A4AA83290421ED056
:1020A000194A90421BD0184A1432904217D0164A4F
:1020B0002832904213D0144A3C3290420FD0124A38
:1020C000503290420BD0104A6432904207D00E4AF0
:1020D0007832904203D00C4A8C3290420BD1D4E932
:1020E00019205060E06E30B1026822F48072026004
:1020F000D4E91C205060343461700020207058E610
:102100001000024010040240085402582DE9F05F0C
:10211000002808D090F83510022906D080214165AA
:102120000120BDE8F09F0120FBE7A14AA04BA04C95
:1021300018329F4D30339E4E4834DFF874B260350C
:10214000DFF870C27836DFF86C82DFF868920CF145
:10215000300CDFF860A208F16008016809F1780925
:10216000944F0AF1900A594531D091422FD09942AB
:102170002DD0A1422BD0A94229D0B14227D0DFF8DF
:1021800030E20EF1900E714521D0DFF824E20EF11D
:10219000A80E71451BD0DFF81CE2AEF1180E714598
:1021A00015D0B94213D0DFF80CE20EF1180E7145CC
:1021B0000DD061450BD0DFF8FCE10EF1480E714502
:1021C00005D0414503D0494501D0514537D14FF0A5
:1021D000040E80F835E0594527D0914225D0994228
:1021E00023D0A14221D0A9421FD0B1421DD07048B6
:1021F0009030814219D06E48A830814215D06D4888
:102200001838814211D0B9420FD06A481830814243
:102210000BD0614509D067484830814205D041451F
:1022200003D0494501D0514504D1086820F0010090
:102230000860BAE0086820F001000860B5E0D1F855
:1022400000E02EF00E0EC1F800E00168DE465945B0
:1022500031D091422FD099422DD0A1422BD0A9420A
:1022600029D0B14227D0DFF848B10BF1900B594586
:1022700021D0DFF83CB10BF1A80B59451BD0DFF89A
:1022800034B1ABF1180B594515D0B94213D0DFF872
:1022900024B10BF1180B59450DD061450BD0DFF877
:1022A00014B10BF1480B594505D0414503D04945C0
:1022B00001D0514506D1D1F800B02BF0010BC1F887
:1022C00000B005E0D1F800B02BF0010BC1F800B070
:1022D00001684FF0010B714546D0914244D09942BC
:1022E00042D0A14240D0A9423ED0B1423CD0304A77
:1022F0009032914238D02E4AA832914234D02D4AA1
:10230000183A914230D0B9422ED02A4A183291421E
:102310002AD0614528D0274A4832914224D04145ED
:1023200022D0494520D051451ED0234A91421BD08E
:10233000214A1432914217D01F4A2832914213D0B9
:102340001D4A3C3291420FD01B4A503291420BD071
:10235000194A6432914207D0174A7832914203D029
:10236000154A8C32914218D1016E0A6822F48072AB
:102370000A60816D90F85C2002F01F020BFA02F2F5
:102380004A60D0E919215160C16E31B10A6822F466
:1023900080720A60D0E91C21516080F835B00021BC
:1023A00080F83410016D01B188470020B9E60000C3
:1023B0001000024028040240085402582DE9FF5F33
:1023C0000446002001904FF41651FD480068B0FB10
:1023D000F1F00090A56D2E682968FA4FDFF8E4B39C
:1023E000DFF8E083DFF8DC930BF1180BDFF8D4A300
:1023F00008F13008206809F148090AF1600AB8427A
:102400003BD05A46904238D0404536D0484534D02B
:10241000504532D0EB4A783290422ED0E94A903281
:1024200090422AD0E74AA832904226D0E64A90420B
:1024300023D0E54A183290421FD0E34B3033984204
:102440001BD0E14B4833984217D0DFF87CC30CF126
:10245000600C604511D0DFF870C30CF1780C60455A
:102460000BD0DFF864C30CF1900C604505D0DFF8A9
:1024700058E30EF1A80E70457ED194F85C10082345
:1024800001F01F0103FA01F232424BD0B84232D0C0
:10249000584530D040452ED048452CD050452AD004
:1024A000C8497831884226D0C6499031884222D026
:1024B000C449A83188421ED0C34988421BD0C249B2
:1024C0001831884217D0C0493031884213D0BE49F4
:1024D000483188420FD0BC49603188420BD0BA499C
:1024E0007831884207D0B8499031884203D0B64944
:1024F000A831884203D1016801F0040102E00168BB
:1025000001F0080171B1016821F00401016094F843
:102510005C0000F01F0003FA00F2AA60606D40F05A
:102520000100606594F85C00012100F01F0081400B
:10253000314240D02068B84234D0584532D040456E
:1025400030D048452ED050452CD09E4A783290420B
:1025500028D09C4A9032904224D09A4AA832904285
:1025600020D0994A90421DD0974A1832904219D0F3
:10257000954A3032904200E0D2E113D0924A48327C
:1025800090420FD0904A603290420BD08E4A7832FF
:10259000904207D08C4A9032904203D08A4AA832A7
:1025A00090427DD1406910F0800F04D0A960606D29
:1025B00040F00200606594F85C00042100F01F0008
:1025C000814031423ED02068B84232D0584530D0A8
:1025D00040452ED048452CD050452AD0794A7832F3
:1025E000904226D0774A9032904222D0754AA83243
:1025F00090421ED0744A90421BD0734A18329042C7
:1026000017D0714A3032904213D06F4A483290420C
:102610000FD06D4A603290420BD06B4A78329042B4
:1026200007D0694A9032904203D0674AA83290425C
:102630004ED1006810F0020F04D0A960606D40F028
:102640000400606594F85C00102100F01F008140D8
:10265000314260D02068B84234D0584532D040452D
:1026600030D048452ED050452CD0564A7832904232
:1026700028D0544A9032904224D0524AA8329042F4
:1026800020D0514A90421DD04F4A1832904219D062
:102690004D4A3032904215D04B4A4832904200E0C9
:1026A00014E00FD0484A603290420BD0464A78324C
:1026B000904207D0444A9032904203D0424AA83216
:1026C000904207D1006800F0080006E0006872E759
:1026D0000068B7E7006800F0040058B1A9602068FE
:1026E000016849030CD50068000304D4216C09B1CA
:1026F000204688470FE0A16C69B1204688470AE070
:102700000168C90503D4016821F008010160216C4A
:1027100009B12046884794F85C00202100F01F0092
:10272000814031427BD02068B84232D0584530D009
:1027300040452ED048452CD050452AD0214A7832E9
:10274000904226D01F4A9032904222D01D4AA83291
:1027500090421ED01C4A90421BD01B4A1832904215
:1027600017D0194A3032904213D0174A483290425B
:102770000FD0154A603290420BD0134A7832904203
:1027800007D0114A9032904203D00F4AA8329042AB
:1027900003D1006800F0100002E0006800F00200C1
:1027A000E8B3A96094F83500042812D020680168C5
:1027B00049033DD50068000335D4616C79B305E069
:1027C000000000201000024010040240204688470C
:1027D0003FE02068016821F016010160206841692E
:1027E00021F080014161206C08B9A06C20B1206803
:1027F000016821F00801016094F85C0000F01F01FD
:102800003F208840A860012084F83500002084F82B
:102810003400216D002974D004B0204600E018E097
:10282000BDE8F05F0847E16B99B12046884710E0AA
:102830000168C90509D4016821F010010160012077
:1028400084F83500002084F83400E16B09B120469B
:102850008847606D002854D0606DC00758D00420B0
:1028600084F835002068B84231D058452FD0404513
:102870002DD048452BD0504529D0C749884226D075
:10288000C5491831884222D0C349303188421ED010
:10289000C24988421BD0C1491831884217D0BF496C
:1028A0003031884213D0BD49483188420FD0BB49EE
:1028B000603188420BD0B9497831884207D0B74996
:1028C0009031884203D0B549A831884204D10168CB
:1028D00021F00101016003E0016821F001010160C4
:1028E00021680198009A401C0190904202D8086823
:1028F000C007F6D10868C00704D0032084F835006B
:1029000003E087E0012084F83500002084F83400DB
:10291000E16C00297ED004B02046BDE8F05F084796
:102920009F4EB0423AD09E4E1436B04236D09C4EA6
:102930002836B04232D09A4E3C36B0422ED0984E15
:102940005036B0422AD0964E6436B04226D0944ECD
:102950007836B04222D0924E8C36B0421ED0914E84
:10296000B0421BD08F4E1436B04217D08D4E283651
:10297000B04213D08B4E3C36B0420FD0894E503609
:10298000B0420BD0874E6436B04207D0854E7836C1
:10299000B04203D0834E8C36B0423BD106684FF034
:1029A000040E94F85CB00BF01F0B0EFA0BFE1EEA3F
:1029B000010FCDF80CE05ED05FEA467E5BD5039850
:1029C0006860300411D5F00307D4A16C002921D030
:1029D00004B02046BDE8F05F0847216C002919D0FB
:1029E00004B02046BDE8F05F0847B0063BD420683D
:1029F000B8422FD06849603988422BD0404529D051
:102A0000484527D0504525D06349884222D06249A5
:102A1000183100E09BE088421CD05F493031884289
:102A200018D05E49884215D0904213D05B493031AE
:102A300088420FD098420DD058496031884209D061
:102A400056497831884205D0604503D05349A831B2
:102A5000884204D1016821F00801016003E00168A7
:102A600021F004010160216C002970D004B02046DF
:102A7000BDE8F05F08474FF0020E0EFA0BFE1EEAAB
:102A8000010FCDF808E063D05FEA867E60D502983A
:102A90006860300411D5F00307D4616C002978D048
:102AA00004B02046BDE8F05F0847E16B002970D014
:102AB00004B02046BDE8F05F0847B0063FD4206868
:102AC000B8422DD034496039884229D0404527D0BA
:102AD000484525D0504523D02F49884220D02E4943
:102AE000183188421CD02C493031884218D02B49EB
:102AF000884215D0904213D02849303188420FD0F7
:102B000098420DD025496031884209D02349783157
:102B1000884205D0604503D02049A831884204D1BD
:102B2000016821F01401016003E0016821F00A014D
:102B30000160012084F83500002084F83400E16B46
:102B4000002926D004B02046BDE8F05F084720E009
:102B5000082202FA0BF20A421BD0310719D501688C
:102B600021F00E01016094F85C0000F01F010120CB
:102B700000FA01F16960606584F83500002084F88E
:102B80003400E16C002904D004B02046BDE8F05FB9
:102B90000847BDE8FF9F0000880002401004024083
:102BA000082C0248085402582DE9F05F044600F052
:102BB00047FB0646002C7DD0FD4F0222DFF8F08354
:102BC0000025DFF8EC93DFF8E8A308F13008DFF820
:102BD000E0B309F1480920680AF1600A0BF1780BAB
:102BE000B84232D0F249183188422ED040452CD01C
:102BF00048452AD0504528D0584526D0EC49903138
:102C0000884222D0EA49A83188421ED0E949884248
:102C10001BD0E8491831884217D0E6493031884244
:102C200013D0E449483188420FD0E24960318842EC
:102C30000BD0E0497831884207D0DE499031884294
:102C400003D0DC49A83188427ED184F8352084F84D
:102C50003450B84234D0D6491831884230D040453B
:102C60002ED048452CD050452AD0584528D0D049A0
:102C70009031884224D0CE49A831884220D0CD4915
:102C800088421DD0CB491831884219D0C94930310A
:102C9000884215D0C7494831884211D0C5496031B2
:102CA00088420DD0C3497831884209D0C14990315A
:102CB000884200E009E003D0BE49A831884207D12C
:102CC000016821F00101016013E00120BDE8F09FDF
:102CD000016821F0010101600BE000F0B1FA801BF6
:102CE000052806D920206065032084F835000120DE
:102CF000ECE720680068C007EFD122681168AE4891
:102D00000140D4E902031843D4E90436334318439D
:102D1000A3691843E3691843236A18430843616AA7
:102D2000042903D1D4E90B13194308436168A1F1C5
:102D30002903052B0DD9163B032B0AD9083B012B80
:102D400007D9083B032B00E02AE002D97439032994
:102D500001D840F4801010602068406920F007011D
:102D6000606A40EA010604280DD1A06A0643E06AC1
:102D700048B12046FEF79AF928B14020606501204D
:102D800084F83500A2E7206846612046FEF7A0F8E7
:102D900094F85C1001F01F023F219140816086E0B1
:102DA000864988423AD085491431884236D08349D1
:102DB0002831884232D081493C3188422ED07F4927
:102DC000503188422AD07D496431884226D07B49DF
:102DD0007831884222D079498C3188421ED0784996
:102DE00088421BD076491431884217D07449283163
:102DF000884213D072493C3188420FD0704950311B
:102E000088420BD06E496431884207D06C497831D2
:102E1000884203D06A498C3188427DD16849884212
:102E200011D06749143188420DD065492831884254
:102E300009D063493C31884205D06149503188420C
:102E400001D05F49643184F8352084F83450026839
:102E50005C490A40A16840297ED080297DD00021AC
:102E6000E36841EAD301236941EAD301636941EA96
:102E7000D301A36941EAD301E36941EAD301236A9B
:102E800041EA1311114301604D4920684942084449
:102E90001421B0FBF1F08000E0652046FEF718F841
:102EA00094F85C1001F01F020121914041602068FC
:102EB000B84256D03E491831884252D0404550D091
:102EC00048454ED050454CD058454AD038499031AD
:102ED000884246D03649A831884242D03549884296
:102EE0003FD03449183188423BD032493031884292
:102EF00037D030494831884233D02E49603188423A
:102F00002FD02C49783188422BD02A4990318842E1
:102F100027D02849A83100E02FE0884221D0284955
:102F200088421ED02649143188421AD024492831BB
:102F3000884216D022493C31884212D02049503173
:102F400088420ED01E49643188420AD01C4978312B
:102F5000884206D01A4901E00AE00BE08C31884231
:102F600035D12046FEF714F8A06880280CD00CE07C
:102F7000102175E74FF4804172E74020606503201F
:102F800084F835000120A1E66560216E2079086093
:102F9000D4E9191048606068401E072814D82046FC
:102FA000FEF746F8E06E0560D4E91C1048600EE0BC
:102FB00010000240100402403F8010FE082C02481E
:102FC000085402580F00FEFFE566256765676565D2
:102FD000012084F83500002078E6000070B5044632
:102FE00000F02EF90546601C02D004480078044425
:102FF00000F026F9401BA042FAD370BD0800002063
:103000002DE9F84F00227B4D03264FF001080F27D2
:103010004FF0B04CE6E008FA02F31C409A46002C50
:103020007ED00B7903F00303012B01D0022B1BD1BF
:10303000D0F80890530006FA03FB29EA0B09D1F8EF
:103040000CB00BFA03FB4BEA090BC0F808B043685D
:1030500023EA0A0391F80490C9F3001909FA02F966
:1030600049EA0309C0F804900B79DB439B070ED0B3
:10307000D0F80C90530006FA03FA29EA0A09D1F8AD
:1030800008A00AFA03FA4AEA090AC0F80CA00B7968
:1030900003F00303022B14D1D30800EB8303D3F80E
:1030A00020A04FEA42794FEAD96907FA09FB2AEAD8
:1030B0000B0AD1F810B00BFA09FB4BEA0A0BC3F864
:1030C00020B0D0F80090530006FA03FA29EA0A0962
:1030D00091F804A00AF0030A0AFA03FA4AEA090A74
:1030E000C0F800A04B6813F4403F7AD0424BD3F8AD
:1030F000009049F00209C3F800901B6803F0020336
:10310000009322F0030909F1B049D9F808B49307F4
:103110004FEA137A07FA0AF32BEA030B374B00E066
:103120005FE0984201D100232DE0354B984201D158
:10313000012328E0334B984201D1022323E0324B94
:10314000984201D103231EE0304B984201D1042361
:1031500019E02F4B984201D1052314E02D4B9842E2
:1031600001D106230FE02C4B984201D107230AE03E
:103170002A4B984201D1082305E0294B984201D1FE
:10318000092300E00A2303FA0AF343EA0B03C9F810
:103190000834DCF80030A343D1F804905FEAC92971
:1031A00000D52343CCF80030DCF80430A343D1F839
:1031B00004905FEA892900D52343CCF804306B687A
:1031C000A343D1F804905FEA893900D523436B60AB
:1031D0002B68A343D1F804905FEAC93900D5234393
:1031E0002B60521C0C6834FA02F37FF414AFBDE874
:1031F000F88F000080000058544502580000025823
:103200000004025800080258000C0258001002582E
:103210000014025800180258001C025800200258DE
:10322000002402580069084201D0012070470020A4
:103230007047002A01D0816170470904816170479D
:10324000014880687047000008000020024881683B
:1032500002781144816070470800002010B50320F7
:1032600000F024FA02F066FA0F490A68C2F3032359
:103270000E4AD35C03F01F03D840096801F00F0128
:10328000515C0B4A01F01F0120FA01F1116009495C
:103290000860002000F010F808B1012010BD00F017
:1032A000C5F9002010BD0000184402585CAA0108AE
:1032B000040000200000002070B504460F4D2A785D
:1032C000002A0CD04FF47A700D49B0FBF2F0096877
:1032D000B1FBF0F004F03FFB18B1012070BD0120FC
:1032E00070BD102C07D200222146501E00F0BEF9FE
:1032F0006C60002070BD012070BD0000080000203F
:10330000000000202DE9F04104460F46154694F8D0
:10331000A00001281ED0012684F8A060022084F8B5
:10332000A10005EB8500394600EBC500342204EB13
:1033300080003830FDF796F82A463946204604F0DA
:1033400036FF2068466284F8A160002084F8A0005F
:10335000BDE8F0810220FBE770B50446002C04D0E4
:1033600094F8A100002510B106E0012070BD84F89A
:10337000A050204600F06AF8022084F8A1002068DE
:10338000816921F070418161D4E901100143D4E9E0
:103390000302104301432068826911438161206860
:1033A000826829490A408260A08A020420688368F2
:1033B000A6693343134383602068C2680A40C26031
:1033C000A08B02042068C368266A33431343C3609A
:1033D000206802690A400261A08C02042068036927
:1033E000A66A334313430361206842690A4042617D
:1033F000A08D010420684269236B1A430A4342618D
:1034000094F83500020294F8360001042068C36A7B
:1034100003F07F43C3622068C36A114394F83460A9
:1034200033430B43C3622068416B41F006014163A3
:103430002068816941F001018161C4F8A450012034
:1034400084F8A100002070BD00F800F0F0B5B7B01E
:103450000446142132A8FDF72CF8C02102A8FDF77C
:1034600028F84549206888427ED14448016841F0E7
:1034700008010160006800F0080001903F48001F4B
:10348000016841F004010160016801F0040101914B
:10349000016841F001010160016801F00101019141
:1034A000016841F002010160016801F0020101912F
:1034B000016841F010010160016801F01001019103
:1034C000016841F008010160006800F00800019007
:1034D00001203290022433940025349535940B203A
:1034E000369032A9264F3846FFF78AFDE220329007
:1034F0003394349535940E26369632A93846FFF724
:103500007FFD41F688003290339434953594369699
:1035100032A91C48FFF774FD032032903394349590
:1035200035940920369032A9174F3846FFF768FDC9
:103530004FF418403290339434953594369632A92E
:103540001248FFF75DFD4FF44740329033943495B5
:103550003594369632A93846FFF752FD6002329014
:1035600033943495359400E004E0369632A9084847
:10357000FFF746FD37B0F0BD00100050444502583B
:1035800000080258000002580004025800100258B7
:10359000000C0258144A41781160111D03780A1D6D
:1035A000002B1CD043680B60017BC37A090741EAFA
:1035B0000361837A41EAC341437B41EA8341837BD0
:1035C00041EA4341C37B41EA0341437A41EA032193
:1035D000037A007841EA43010143116070470020FB
:1035E000086010607047000098ED00E0BFF35F8F47
:1035F0000448016821F480310160024900207031E3
:103600000860704724ED00E0074940F001000860C1
:1036100005487038016841F480310160BFF34F8F75
:10362000BFF36F8F7047000094ED00E082B0074851
:10363000016841F002010160006800F002000190A1
:1036400000220F21901E02B000F010B8544502581D
:10365000002809DB012100F01F0291404009800091
:1036600000F1E020C0F8001170470000F0B40D46F2
:103670000D4B1B68C3F30223C3F10704042C00D9CC
:103680000424191D072901D2002300E0DB1E0126B6
:1036900006FA04F1491E294099409E40761E1640C4
:1036A0003143F0BC07F05DBE0CED00E000F0070117
:1036B000054A10684FF6FF03184040EA012003490D
:1036C00008431060704700000CED00E00000FA05B0
:1036D0002DE9F04F8DB082460C464FF000080027D0
:1036E000F948DAF80010814203D100254FF00109B2
:1036F00002E001254FF000090026EB4606EB4600EC
:10370000761C0BEBC001F0B205F08AF820B14FF047
:1037100001080820CAF85400F6B2022EEED3B8F120
:10372000000F7CD1E84E3068C00705D0306820F02B
:103730000100306047F00107E4480068C00706D088
:10374000E248016821F00101016047F00207E04B07
:1037500005EB45020BEBC2018868401E03EB8000BD
:10376000D0F804C42CF4807CC0F804C4DFF864C32F
:10377000DCF800005FEAC07A4FF0010039D0DCF8D5
:10378000001021F00101CCF80010B9F1010F61D156
:103790000699491E03EB8101D1F8042442F002028C
:1037A000C1F80424079949B10799491E03EB810127
:1037B000D1F8042442F02002C1F80424099951B13F
:1037C000099920EA010103EB8101D1F8042442F4B4
:1037D0008022C1F804240A99E1B30A9920EA010180
:1037E00003EB8101D1F8042442F08062C1F8042483
:1037F00030E05BF832206AB3521E03EB8202D2F84B
:1038000004A42AF0010AC2F804A44A6852B1521E64
:1038100003EB8202D2F804A42AF0100A00E076E159
:10382000C2F804A4CA684AB120EA020203EB820289
:10383000D2F804A42AF4803AC2F804A4096949B170
:1038400020EA010103EB8101D1F8042422F0807207
:10385000C1F8042409EB490122680C925BF831900D
:103860004A4518D00BEBC102D4F804A0D2F804E00A
:10387000F24510D0D4F808A0D2F808E0F2450AD0FA
:10388000D4F80CA0D2F80CE0F24504D0D4F810A083
:103890001269924555D10C9A4A4519D10BEBC102D8
:1038A000D4F804A0D2F804E0F24511D1D4F80CA069
:1038B000D2F80CE0F2450BD1D4F810A01269924571
:1038C00006D1DCF8001041F00101CCF8001038E01E
:1038D000A9F1010903EB8902D2F8049429F0010946
:1038E000C2F804940BEBC1014A6842B1521E03EBCB
:1038F0008202D2F8049429F01009C2F804948A686C
:10390000521E03EB8202D2F8049429F48079C2F8A3
:103910000494CA684AB120EA020203EB8202D2F898
:10392000049429F48039C2F80494096949B120EA61
:10393000010103EB8101D1F8042422F08072C1F867
:103940000424A168491E03EB8101D1F8042422F468
:10395000407242EA452242F48072C1F8042461694F
:10396000DCF80020491EC2F30742914207D9DCF877
:10397000002022F47F0242EA0141CCF80010DCF87A
:103980000010C90750D02168491E03EB8101D1F80E
:10399000042422F00302521CC1F80424616851B1CE
:1039A000491E03EB8101D1F8042422F0300242F0D9
:1039B0001002C1F80424E168CA030CD520EA010111
:1039C00003EB8101D1F8042422F4E02242F4803296
:1039D000C1F804240CE059B120EA010103EB810194
:1039E000D1F8042422F0E06242F08072C1F804248D
:1039F0002169CA030BD5884303EB8000D0F8041477
:103A000021F4E02141F44031C0F8041472E0D1B354
:103A1000884303EB8000D0F8041421F0E06141F00A
:103A20004071C0F8041465E02168491E03EB810170
:103A3000D1F8042400EB450C22F0030242EA0C0208
:103A4000C1F80424616861B1491E03EB8101D1F81A
:103A5000042422F0300242EA451242F01002C1F87A
:103A60000424E168CA030FD520EA010103EB8101B8
:103A7000D1F8042422F4E02242EA854242F4803262
:103A8000C1F804240FE035E069B120EA010103EB3D
:103A90008101D1F8042422F0E06242EA856242F01A
:103AA0008072C1F804242169CA0315D5884303EB49
:103AB0008000D0F8041421F4E02141EA854141F46A
:103AC0004031C0F8041415E00050005200A000522C
:103AD00000B0005200B4005261B1884303EB800093
:103AE000D0F8041421F0E06141EA856141F04071B1
:103AF000C0F80414F80703D0306840F001003060CB
:103B0000B80704D50448016841F0010101600DB017
:103B10004046BDE8F08F000000A00052F8B5044612
:103B20000D461646FFF78CFB0746A86B206D022852
:103B300003D1E168B1F1806F11D1142804D1296853
:103B400002290CD003290AD0242804D1286801288E
:103B500005D0032803D0012010216165F8BD0022A3
:103B60003B4620212046009604F0AEFF0028F5D108
:103B700060652946204604F0C3FE0028EED1A96BFB
:103B800061B129680422A1B1012914D00229E5D12B
:103B9000216D142917D024212165F8BD01223B464F
:103BA00002212046009604F08FFF22680221516214
:103BB000F8BD2265F8BD216D242902D014212165AC
:103BC000F8BD2265F8BD2265F8BD0000F8B50446D1
:103BD0000025FFF735FB064624B100206065206D07
:103BE00010B16DE001256BE0204600F0A3F841F232
:103BF0008831204600F083F9E168606B0143208A38
:103C0000401E02046069401E42EA00200143E06950
:103C10000143206882682D4B1A401143816020685F
:103C2000C168226A21F4E0211143C160218EA06B9A
:103C300040EA0140216808612168E06B4861206822
:103C4000016821F4F8526168491E42EA01210160CD
:103C5000A06D0022202133460090204604F034FF5E
:103C6000054628002CD12068C168626A21F0FF0156
:103C7000521E1143C16020680168A26821F0400112
:103C800011430160D4E90A1001432068D0F80821EB
:103C900022F0A0421143C0F808112068016841F0E9
:103CA00001010160A069022804D12068816841F007
:103CB00002018160E068B0F1806F03D002202065CE
:103CC0002846F8BD01202065FAE70000F4F8E0F886
:103CD000F8B504460D46FFF7B3FA0346206D1026EB
:103CE000042802D001206665F8BDA06D00222021C5
:103CF0000090204604F0E8FE0028F5D188212165D7
:103D0000296808290AD122686968C2F83011216837
:103D10004E6221680A6842F480120A6021682A68AB
:103D20000B68034C234043F040531A430A60F8BD2C
:103D3000F7FFFFCF2DE9F041B8B00446142132A8B7
:103D4000FCF7B7FBC02102A8FCF7B3FB374920689A
:103D5000884268D100204FF00071CDE902100024A4
:103D6000159402A800F094FE08B1FDF708FA304857
:103D7000016841F400110160016801F40011019132
:103D8000016841F480410160006800F480400190C6
:103D900027480C30016841F010010160016801F012
:103DA00010010191016841F002010160016801F018
:103DB00002010191016841F008010160006800F012
:103DC000080001904FF00408CDF8C8800226339611
:103DD0003494032535950927369732A91548FFF7FE
:103DE0000FF9CDF8C880339634943595369732A9BB
:103DF000DFF844804046FFF703F94FF460503290FB
:103E0000339634943595369732A90C48FFF7F8F875
:103E1000402032903396349435950A20369032A95A
:103E20004046FFF7EDF838B0BDE8F0810050005291
:103E3000344502580010025800040258000C025881
:103E40002DE9F843044688461546FFF7F9F906467A
:103E5000206800F15007816CD0F81021B8F1000FF4
:103E600007D0236D042B08D0012010216165BDE827
:103E7000F883012008216165F9E7036C5B1CA364EA
:103E8000A36C6364C4F84080036823F0405343F09C
:103E900080530360E068B0F1806F07D02068D0F8ED
:103EA000003113F4E06F04D0816404E02068816481
:103EB00001E0C0F81021012206213346204600957A
:103EC00004F002FE58B93978226C1170216C491C3B
:103ED0002164A16C491EA164A16C0029EBD10028CA
:103EE000C5D10122334602212046009504F0ECFDA5
:103EF0000028BCD12268022151622165B7E78165A3
:103F0000002070472DE9F843044689461746FFF71D
:103F100097F98046256805F15006B9F1000F07D0E2
:103F2000206D042808D0012010216165BDE8F883C8
:103F3000012008216165F9E7286C401CA064A06C91
:103F40006064C4F84090286820F040502860012246
:103F5000434604212046009704F0B6FD58B9216C71
:103F600009783170216C491C2164A16C491EA1643F
:103F7000A16C0029EBD10028D8D1012243460221AF
:103F80002046009704F0A0FD0028CFD1226802212E
:103F900051622165CAE7000070B514490A68D2432E
:103FA000520708D5096801F00701814201D00120BC
:103FB00070BD002070BD0A6822F0070202430A604B
:103FC000FFF73EF90446094D4FF47A76083D06E0C6
:103FD000FFF736F9001BB04201D9012070BD2868F7
:103FE000C0438004F4D4002070BD00000C48025887
:103FF0000248016841F4807101607047004802582E
:1040000010B501F051FB05490968054AC1F30211D9
:10401000515C01F01F01C84010BD0000204402584F
:104020005CAA010810B569490A6802F00302096830
:10403000C1F30511654B1B1D1B6803F00103634CA5
:104040000C342468C4F3CC0414FB03F300EE103AE0
:10405000B8EE400A002971D09FED5D1A9FED5D2AF0
:104060005A4BF7EE000A0833F2B3012A7DD0022A38
:104070007AD001EE901A1968F8EE611AC2EE212A80
:10408000C1F3080101EE901AF8EE611A40EE011A30
:1040900031EEA00A22EE800A1968C1F3462101EE32
:1040A000101AB8EE411A31EE201AC0EE011ABCEE19
:1040B000E11A80ED001A1968C1F3064101EE101AE9
:1040C000B8EE411A31EE201AC0EE011ABCEEE11A28
:1040D00080ED011A1968C1F3066101EE101AB8EEFD
:1040E000411A71EE200A00E006E080EE201ABCEED4
:1040F000C10A80ED020A10BD344A283A1468A406A9
:104100001ED51268C2F3C104334AE24001EE902A80
:10411000F8EE612A01EE901A1968F8EE611A82EE43
:10412000A12AC1F3080101EE901AF8EE611A40EEDF
:10413000011A31EEA00A22EE000AADE741E014E0D8
:1041400001EE901A1968F8EE611AC2EE212AC1F345
:10415000080101EE901AF8EE611A40EE011A31EEF4
:10416000A00A22EE800A97E715E001EE901ADFED33
:104170001B2A1968F8EE611A82EEA12AC1F3080120
:1041800001EE901AF8EE611A40EE011A31EEA00A23
:1041900022EE000A80E701EE901ADFED112A19687D
:1041A000F8EE611A82EEA12AC1F3080101EE901A1D
:1041B000F8EE611A40EE011A31EEA00A22EE000A72
:1041C0006AE7002101604160816010BD2844025807
:1041D000000000390024744C0090D0030024744A7D
:1041E00020BCBE4B10B569490A6802F00302096899
:1041F000C1F30531654B1B1D1B68C3F30013634CF2
:1042000014342468C4F3CC0414FB03F300EE103A16
:10421000B8EE400A002971D09FED5D1A5B4BF7EEB6
:10422000000A1033F2B39FED5B2A012A7FD0022AE5
:104230007CD001EE901A1968F8EE611AC2EE212ABC
:10424000C1F3080101EE901AF8EE611A40EE011A6E
:1042500031EEA00A22EE800A1968C1F3462101EE70
:10426000101AB8EE411A31EE201AC0EE011ABCEE57
:10427000E11A80ED001A1968C1F3064101EE101A27
:10428000B8EE411A31EE201AC0EE011ABCEEE11A66
:1042900080ED011A1968C1F3066101EE101AB8EE3B
:1042A000411A00E008E071EE200A80EE201ABCEE10
:1042B000C10A80ED020A10BD344A283A1468A406E7
:1042C0001ED51268C2F3C104334AE24001EE902ABF
:1042D000F8EE612A01EE901A1968F8EE611A82EE82
:1042E000A12AC1F3080101EE901AF8EE611A40EE1E
:1042F000011A31EEA00A22EE000AADE741E016E015
:1043000001EE901ADFED252A1968F8EE611A82EEA7
:10431000A12AC1F3080101EE901AF8EE611A40EEED
:10432000011A31EEA00A22EE000A95E713E001EE31
:10433000901A1968F8EE611AC2EE212AC1F3080139
:1043400001EE901AF8EE611A40EE011A31EEA00A61
:1043500022EE800A80E701EE901ADFED112A19683B
:10436000F8EE611A82EEA12AC1F3080101EE901A5B
:10437000F8EE611A40EE011A31EEA00A22EE000AB0
:104380006AE7002101604160816010BD2844025845
:10439000000000390024744A0090D0030024744CBB
:1043A00020BCBE4B10B569490A6802F003020968D7
:1043B000C1F30551654B1B1D1B68C3F30023634C00
:1043C0001C342468C4F3CC0414FB03F300EE103A4D
:1043D000B8EE400A002971D09FED5D1A5B4BF7EEF5
:1043E000000A1833F2B39FED5B2A012A7FD0022A1C
:1043F0007CD001EE901A1968F8EE611AC2EE212AFB
:10440000C1F3080101EE901AF8EE611A40EE011AAC
:1044100031EEA00A22EE800A1968C1F3462101EEAE
:10442000101AB8EE411A31EE201AC0EE011ABCEE95
:10443000E11A80ED001A1968C1F3064101EE101A65
:10444000B8EE411A31EE201AC0EE011ABCEEE11AA4
:1044500080ED011A1968C1F3066101EE101AB8EE79
:10446000411A00E008E071EE200A80EE201ABCEE4E
:10447000C10A80ED020A10BD344A283A1468A40625
:104480001ED51268C2F3C104334AE24001EE902AFD
:10449000F8EE612A01EE901A1968F8EE611A82EEC0
:1044A000A12AC1F3080101EE901AF8EE611A40EE5C
:1044B000011A31EEA00A22EE000AADE741E016E053
:1044C00001EE901ADFED252A1968F8EE611A82EEE6
:1044D000A12AC1F3080101EE901AF8EE611A40EE2C
:1044E000011A31EEA00A22EE000A95E713E001EE70
:1044F000901A1968F8EE611AC2EE212AC1F3080178
:1045000001EE901AF8EE611A40EE011A31EEA00A9F
:1045100022EE800A80E701EE901ADFED112A196879
:10452000F8EE611A82EEA12AC1F3080101EE901A99
:10453000F8EE611A40EE011A31EEA00A22EE000AEE
:104540006AE7002101604160816010BD2844025883
:10455000000000390024744A0090D0030024744CF9
:1045600020BCBE4B2DE9F04F89B0FC4CFA4E80F4D4
:10457000807AF94A4FF0805C371FF94B2511DFF83C
:10458000E493503A5AEA010A4FF000582FD080F4D1
:10459000007A5AEA010A76D080F4806A5AEA010A5F
:1045A0006BD080F4805A5AEA010A67D080F4005B2D
:1045B0005BEA010B4FF4803A6FD0DFF89CE380F4A4
:1045C000002B5BEA010B0EF1080E67D080F4803BF4
:1045D0005BEA010B72D080F480470F436FD080F408
:1045E000004008436CD0002009B0BDE8F08F30686F
:1045F00000F00700052844D2DFE800F0030D174162
:1046000021001068800104D506A8FFF70BFD07986C
:10461000EAE70020E8E71068000104D503A8FFF7E7
:10462000E1FD0398E0E70020DEE71068800004D594
:104630006846FFF7B7FE0098D6E70020D4E7386851
:1046400000F040501168490700D530B11168C90524
:1046500009D5604507D12846C6E71068C0F3C100F8
:1046600024FA00F0C0E71168890303D5404501D161
:104670001846B9E70020B7E705E057E0A7E048464D
:10468000B2E70020B0E7306800F4E070802824D062
:1046900005DC58B1402807D115E0E9E02EE1C0283B
:1046A00042D0B0F5807F22D000209DE710688001C5
:1046B00007D506A8FFF7B6FC079895E763E17EE10A
:1046C000C1E1002090E71068000104D503A8FFF7BE
:1046D00089FD039888E7002086E71068800004D5EC
:1046E0006846FFF75FFE00987EE700207CE73868A9
:1046F00000F040501168490700D530B11168C90574
:1047000009D5604507D128466EE71068C0F3C1009F
:1047100024FA00F068E71168890303D5404501D108
:10472000184661E700205FE748465DE7306800F41F
:104730006060B0F5806F21D004DC58B1B0F5007F27
:1047400006D111E0B0F5C06F3FD0B0F5006F1FD0BB
:10475000002049E71068800104D506A8FFF762FC35
:10476000079841E700203FE71068000104D503A83F
:10477000FFF738FD039837E7002035E71068800021
:1047800004D56846FFF70EFE00982DE700202BE7C2
:10479000386800F040501168490700D530B1116801
:1047A000C90509D5604507D128461DE71068C0F343
:1047B000C10024FA00F017E71168890303D54045CA
:1047C00001D1184610E700200EE748460CE7306894
:1047D00000F4E040B0F5005F21D004DC58B1B0F542
:1047E000805F06D111E0B0F5405F3FD0B0F5804F5B
:1047F0001FD00020F8E61068800104D506A8FFF756
:1048000011FC0798F0E60020EEE61068000104D5E0
:1048100003A8FFF7E7FC0398E6E60020E4E610684B
:10482000800004D56846FFF7BDFD0098DCE6002057
:10483000DAE6386800F040501168490700D530B119
:104840001168C90509D5604507D12846CCE610682E
:10485000C0F3C10024FA00F0C6E61168890303D54D
:10486000404501D11846BFE60020BDE64846BBE6FC
:10487000306800F4E020B0F5403F26D006DC68B197
:1048800050450ED0B0F5003F06D114E0B0F5802FB2
:1048900026D0B0F5A02F2AD00020A5E600F026FFF4
:1048A000A2E61068000104D503A8FFF79BFC04985A
:1048B0009AE6002098E61068800004D56846FFF765
:1048C00071FD019890E600208EE61068400705D53E
:1048D0001068C0F3C10024FA00F085E6002083E6EA
:1048E0001068C00501D528467EE600207CE61068E9
:1048F000800301D5184677E6002075E6DEF8000053
:1049000000F4403030B150450ED0B0F5003F15D026
:10491000002069E61068000104D503A8FFF762FCD7
:10492000039861E600205FE61068800004D56846C1
:10493000FFF738FD029857E6002055E6386800F08A
:1049400040501168490700D570B11168C90511D5EB
:1049500060450FD1284647E6504402580090D003E6
:1049600040787D010080BB001068C0F3C10024FACC
:1049700000F039E61168890303D5404501D1184696
:1049800032E6002030E6386800F4803048B1504507
:1049900013D1106800010ED503A8FFF723FC05987A
:1049A00022E61068800104D506A8FFF73BFB0798B4
:1049B0001AE6002018E6002016E6002014E6DEF8CD
:1049C000000000F0E04030F070413AD100170728B5
:1049D00037D2DFE800F00407111B262D3400FFF763
:1049E0000FFB01E61068000104D503A8FFF7FAFBEE
:1049F0000498F9E50020F7E51068800004D56846C2
:104A0000FFF7D0FC0198EFE50020EDE510684007C6
:104A100005D51068C0F3C10024FA00F0E4E50020D9
:104A2000E2E51068C00501D52846DDE50020DBE59C
:104A30001068800301D51846D6E50020D4E5484625
:104A4000D2E50020D0E5306800F0405058B1604514
:104A500010D040451AD11068000115D503A8FFF702
:104A6000C1FB0498C0E51068800301D51846BBE57A
:104A70000020B9E51068800104D506A8FFF7D2FA36
:104A80000798B1E50020AFE50020ADE50020ABE5DB
:104A90002DE9FC5F0446002500262068C043010183
:104AA000FE4FDFF8FC8304F10800019004F12800B8
:104AB00000900DD4E06EB8B1B0F5801F19D0B0F5FC
:104AC000001F1CD0B0F5401F00D00125EDB12E46CF
:104AD0002088C043C00535D4A06D05282FD2DFE85B
:104AE00000F01D22282F2F00386840F40030386075
:104AF000ECE70198022104F089F80546E6E7009802
:104B0000022104F015F90546E0E7D8F80000E16E4F
:104B100020F440100843C8F80000D9E7386840F492
:104B2000003038600CE00198002104F06FF8054671
:104B300006E00098002104F0FBF8054600E001259E
:104B400075B12E462088C04380051BD4E06DC02877
:104B500016D00EDC38B340282AD080280FD12DE0A3
:104B6000D8F80000A16D20F007000843C8F8000045
:104B7000E8E7B0F5807F03D0B0F5A07F00D0012535
:104B800015B32E462088C04340052FD4206EB0F5C3
:104B9000C06F29D021DCE8B3B0F5007F4AD0B0F572
:104BA000806F20D14CE0386840F400303860E7E78F
:104BB0000198002104F02AF80546E1E70098002159
:104BC00004F0B6F80546DBE7D8F80000E16D20F404
:104BD000E0700843C8F80000D4E7B0F5006F03D0D8
:104BE000B0F5206F00D0012585B32E462068C04364
:104BF00080010AD4E06C30B1102831D0202835D0A3
:104C0000302800D0012585B32E462088C043C0043B
:104C100045D400E009E0606EB0F5005F5BD035DCA4
:104C200098B3B0F5805F37D14FE0386840F400307A
:104C30003860D9E70198002103F0E8FF0546D3E783
:104C40000098002104F074F80546CDE7FFE7D8F896
:104C50000000216E20F460600843C8F80000C5E73A
:104C6000386840F400303860CDE705E00198022153
:104C700003F0CCFF0546C6E78948001F0168E26CD7
:104C800021F0300111430160BFE719E0B0F5405F4A
:104C900003D0B0F5804F00D0012515B32E462088F3
:104CA000C04380042FD4A06EB0F5403F29D021DC52
:104CB00038B3B0F5803F32D0B0F5003F20D134E0BA
:104CC000386840F400303860E7E70198002103F0CD
:104CD0009DFF0546E1E70098002104F029F805460C
:104CE000DBE7D8F80000616E20F4E0400843C8F824
:104CF0000000D4E7B0F5802F03D0B0F5A02F00D08E
:104D00000125C5B12E462088DFF89891C0434004A4
:104D100032D4D4F8B00030F0704115D029E00198B9
:104D2000012103F073FF0546EBE70098012103F032
:104D3000FFFF0546E5E7D8F80000A16E20F4E0206B
:104D40000843C8F80000DEE70017072811D2DFE8A3
:104D500000F011040A11111111000198012103F052
:104D600055FF054606E00098012103F0E1FF0546E6
:104D700000E0012575B32E462088C04300040AD404
:104D8000A06F30B1B0F1805F2ED0B0F1005F31D0B4
:104D9000012575B32E462068C043C0010AD4A06C1B
:104DA00030B1012836D0022839D0032800D001259F
:104DB0007DB32E462068C04340024DD4DFF8E8B0F2
:104DC000DBF8000040F48070CBF80000FEF738FA02
:104DD00082463BE0D9F80000D4F8B01020F0E04063
:104DE0000843C9F80000C7E7386840F4003038606D
:104DF000CFE705E00198012103F008FF0546C8E769
:104E0000D8F80000A16F20F040500843C8F8000017
:104E1000C1E70AE0386840F400303860C8E701981C
:104E2000022103F0F3FE0546C2E71D48001F01689A
:104E3000A26C21F0030111430160BBE7FEF700FA09
:104E4000A0EB0A00642801D9032503E0DBF8000089
:104E5000C005F3D53DB12E462078DFF850A0C04301
:104E6000C00764D075E0DFF83CB00BF1180BDBF83D
:104E70000000B4F8B41000F4407001F440718842AE
:104E80001CD0DBF8000020F44070DBF8001041F487
:104E90008031CBF80010DBF8001009E02C440258F8
:104EA000504402585844025800480258544402588A
:104EB00021F48031CBF80010CBF80000D4F8B40016
:104EC000B0F5807F11D1FEF7BBF9824609E0FEF70D
:104ED000B7F9A0EB0A0141F28830814201D90325DC
:104EE00003E0DBF800008007F1D50DB12E46B3E7F3
:104EF000D4F8B400C0F3012103290ED0FD480168A5
:104F000021F47C510160DBF80000B4F8B410C1F367
:104F10000B010843CBF800009EE7F6490A68F64B00
:104F200022F47C52184042EA10100860EBE7D4F8F3
:104F3000840018280BD005DC48B1082816D01028AA
:104F400004D119E0202802D0282800D00125CDB1B5
:104F50002E462078C04380072DD4D4F88000062840
:104F600026D2DFE800F026191F2626260198012107
:104F700003F04CFE0546EAE70098012103F0D8FE55
:104F80000546E4E7DAF80000D4F8841020F0380091
:104F90000843CAF80000DCE70198012103F036FE5F
:104FA000054606E00098012103F0C2FE054600E038
:104FB00001256DB12E462078C043400721D4D4F896
:104FC0009C0006281AD2DFE800F01A0D131A1A1AEC
:104FD000DAF80000D4F8801020F007000843CAF87F
:104FE0000000E8E70198012103F010FE054606E005
:104FF0000098012103F09CFE054600E0012595B1D3
:105000002E462078C043800620D4D4F89800B0F112
:10501000405F19D011DCB8B1B0F1805F28D0B0F199
:10502000005F10D12AE0D9F80000D4F89C1020F0DD
:1050300007000843C9F80000E3E7B0F1804F03D050
:10504000B0F1A04F00D00125F5B12E462078C04325
:1050500040062CD4D4F8A400B0F5406F25D01DDC58
:1050600018B3B0F5806F34D0B0F5006F1CD136E0C6
:105070000198002103F0CAFD0546E5E700980221EA
:1050800003F056FE0546DFE7DAF80000D4F8981082
:1050900020F0E0400843CAF80000D7E7B0F5805F91
:1050A00003D0B0F5A05F00D00125F5B12E462078E1
:1050B000C04300062CD4D4F8A800B0F5C04F25D0CA
:1050C0001DDC18B3B0F5005F2CD0B0F5804F1CD1BB
:1050D0002EE00198002103F099FD0546E5E70098D0
:1050E000022103F025FE0546DFE7D9F80000D4F8D9
:1050F000A41020F4E0500843C9F80000D7E7B0F549
:10510000004F03D0B0F5204F00D00125B5B12E4699
:105110002078C04300072AD4D4F88C00B0F5805F13
:1051200016D01BE00198002103F070FD0546EDE765
:105130000098022103F0FCFD0546E7E7D9F80000DE
:10514000D4F8A81020F460400843C9F80000DFE755
:105150000098022103F0ECFD00B10126DAF800000E
:10516000D4F88C1020F440500843CAF8000020788E
:10517000C043C00613D4D4F8A000B0F5807F05D199
:105180000098022103F0D4FD00B10126D9F80000F7
:10519000D4F8A01020F440700843C9F8000020683B
:1051A000C04300030BD4D4F8AC00E8B3B0F5803FA3
:1051B0007ED0B0F5003F00D00125B5B32E46206863
:1051C000C04340030DD4D4F89000B0F5801F71D0D7
:1051D000B0F5001F6FD0B0F5401F00D00125EDB332
:1051E0002E462068C043C00307D4206DB8B3B0F585
:1051F000803F7DD001259DB32E462068C0438000AE
:1052000005D40098022103F093FD00B10126206827
:10521000C043800311D4D4F8880060B1B0F5807F1A
:1052200067D0B0F5007F01E068E073E003D0B0F52F
:10523000407F00D00125E5B32E462068C043C00260
:1052400007D4D8F80000E16F20F000400843C8F808
:1052500000002068C04380020BD402E06FE078E0D9
:1052600082E0D8F80000216F20F080700843C8F871
:1052700000002088C043000507D4D9F80000616F02
:1052800020F000600843C9F800002068C0434000D7
:1052900009D41848016821F4004101600168D4F87C
:1052A000B820114301602068C0430CD4114803E0CA
:1052B0002AE066E038E03CE03C300168626D21F0B5
:1052C0004051114301602068C043000208D4DAF85D
:1052D0000000D4F8941020F440000843CAF80000FD
:1052E00020790025C04300F00100284353D058E046
:1052F00034E041E010440258FFFCFF0F0198002108
:1053000003F084FC054658E70098022103F010FDE5
:10531000054652E7D9F80000D4F8AC1020F440302C
:105320000843C9F800004AE7386840F400303860A4
:1053300055E70098012103F0FBFC05464FE7DAF83A
:105340000000D4F8901020F440100843CAF8000080
:1053500047E7386840F4003038604CE70198022194
:1053600003F054FC054646E72F480168226D21F4FE
:1053700080311143016040E7386840F40030386004
:1053800059E7DAF80000D4F8881020F44070084398
:10539000CAF8000051E70198002103F037FC00B182
:1053A00006462079C04300F00200284305D1019849
:1053B000012103F02BFC00B106462079C04300F028
:1053C0000400284305D10198022103F01FFC00B11D
:1053D00006462079C04300F00800284305D1009814
:1053E000002103F0A5FC00B106462079C04300F07F
:1053F0001000284305D10098012103F099FC00B169
:1054000006462079C04300F02000054305D10098EE
:10541000022103F08DFC00B1064616B10120BDE863
:10542000FC9F0020FBE700004C4402582DE9F05F90
:1054300004460D46002C17D0DFF84C82D8F8000047
:1054400000F00F00A84211D2D8F8000020F00F00A1
:105450002843C8F80000D8F8000000F00F00A84268
:1054600004D00120BDE8F09F0120FBE72078874EA3
:1054700040070AD52069316801F07001884204D9DB
:10548000316821F07001014331602078804F0007BE
:105490000AD56069396801F07001884204D9396819
:1054A00021F07001014339602078C0060AD5A06957
:1054B000396801F4E061884204D9396821F4E06177
:1054C000014339602078DFF8CC9180060DD5E06982
:1054D000D9F8001001F07001884206D9D9F80010FF
:1054E00021F070010143C9F80010207880070AD527
:1054F000E068316801F00F01884204D9316821F079
:105500000F01014331602078C00743D03068A168A3
:1055100020F47060084330605C49606818390228E4
:1055200008D003280BD001280ED00968490710D4F1
:10553000012097E7096889030BD4012092E70968E5
:10554000890106D401208DE70968C90501D401202D
:1055500088E7DFF838A1AAF1080ADAF8001021F08C
:1055600007010143CAF80010FDF76AFE834609E00F
:10557000FDF766FEA0EB0B0141F28830814201D9B4
:1055800003206FE7DAF80000616800F03800B0EB44
:10559000C10FEDD1207880070AD5E068316801F0AD
:1055A0000F01884204D2316821F00F0101433160BC
:1055B000D8F8000000F00F00A8420ED9D8F800007B
:1055C00020F00F002843C8F80000D8F8000000F0D1
:1055D0000F00A84201D0012044E7207840070AD5F7
:1055E0002069316801F07001884204D2316821F0ED
:1055F000700101433160207800070AD5606939687D
:1056000001F07001884204D2396821F07001014331
:1056100039602078C0060AD5A069396801F4E061D4
:10562000884204D2396821F4E0610143396020786E
:1056300080060DD5E069D9F8001001F070018842AC
:1056400006D2D9F8001021F070010143C9F800100A
:1056500000F070F83168C1F303220F498A5C02F050
:105660001F02D040326802F00F02895C0B4A01F041
:105670001F0120FA01F1116009490860094800681A
:10568000BDE8F05FFDF718BE002000521844025834
:105690001C440258204402585CAA0108040000205F
:1056A000000000200C00002000B500F043F80B497A
:1056B0000A68C2F303230A4AD35C03F01F03D840ED
:1056C000096801F00F01515C064A01F01F0120FA40
:1056D00001F11160044A1060084600BD18440258E8
:1056E0005CAA0108040000200000002000B5FFF7BC
:1056F000DBFF05490968054AC1F30211515C01F05D
:105700001F01C84000BD00001C4402585CAA0108EB
:1057100000B5FFF7C9FF05490968054AC1F3022131
:10572000515C01F01F01C84000BD00001C4402583C
:105730005CAA010830B564480068654C10F0380177
:10574000624808D0021108290DD010290DD018295F
:105750000DD0104630BD21688906FBD52168C1F304
:10576000C101C84030BD104630BD5A4830BD564911
:1057700018310A6802F003020968C1F30511524B9F
:105780001C331B6803F001034F4D24352D68C5F30E
:10579000CC0515FB03F300EE103AB8EE400A0029E1
:1057A00077D0DFED4D0A484BB7EE001A20333AB3FD
:1057B0009FED4A2A012A58D0022A6CD001EE901A95
:1057C0001868F8EE611AC2EE212AC0F3080001EE53
:1057D000900AF8EE611A40EE201A31EE810A22EEAC
:1057E000800A1868C0F34620401C00EE900AF8EECC
:1057F000600A80EE201ABCEEC10A10EE100A30BD1D
:10580000226892061BD52268C2F3C102D04001EE85
:10581000900A1868F8EE612A01EE901AF8EE611A03
:1058200082EEA12AC0F3080001EE900AF8EE611A98
:1058300040EE201A31EE810A22EE000AD1E701EE95
:10584000901ADFED272A1868F8EE611A82EEA12A75
:10585000C0F3080001EE900AF8EE611A40EE201A3B
:1058600031EE810A22EE000ABBE701EE901A1868B9
:10587000F8EE611AC2EE212AC0F3080001EE900A88
:10588000F8EE611A40EE201A31EE810A22EE800A0B
:10589000A7E716E0FFE701EE901ADFED122A18687D
:1058A000F8EE611A82EEA12AC0F3080001EE900A18
:1058B000F8EE611A40EE201A31EE810A22EE000A5B
:1058C0008FE7002030BD0000104402580090D00344
:1058D0000044025840787D01000000390024744AD9
:1058E0000024744C20BCBE4BF0B587B00C46154666
:1058F0001D4B1E4E00210222032700281AD01868D3
:1059000040F004001860186800F0040001901002D4
:105910000290039205970491069102A91448FDF79D
:105920006FFB306844EAC51120F07E4008433060C8
:1059300007B0F0BD186840F001001860186800F06A
:10594000010001904FF4807002900392059704913A
:10595000069102A90748FDF753FB30682C4320F05D
:10596000FE7020433060E3E740450258104402587F
:1059700000080258000002582DE9F05F0446002C90
:1059800010D02078DFF8E883FA4EFB4DC0077BD0BB
:10599000D8F8000000F038003168102826D0182808
:1059A00003D006E00120BDE8F09F01F003000228CB
:1059B0001CD06068B0F5803F1FD018B3B0F5A02FA1
:1059C0002DD0B0F5A81F37D0286820F4803028608B
:1059D000286820F480202860286820F4801028603F
:1059E0006068B0B3FDF72CFC07463BE028688003F5
:1059F0004AD5606870BB0120D5E7286840F4803044
:105A00002860EDE7286820F480302860286820F4BA
:105A100080102860286820F480202860E0E728684B
:105A200040F480202860286820F4801028602868CE
:105A300040F480302860D3E7286840F48020286054
:105A4000286840F480102860286840F4803028607E
:105A5000C6E70BE018E0FDF7F3FBC01B642801D993
:105A60000320A0E728688003F5D50DE0FDF7E8FBEB
:105A7000074606E0FDF7E4FBC01B642801D90320BC
:105A800091E728688003F5D42078800764D5D8F89A
:105A9000000000F038003168DFF8DC9209F10409F9
:105AA00070B1182801D188070AD0E068A0B329682E
:105AB00021F0190101432960FDF7C2FB07462CE0E4
:105AC0002868400701D5E06848B12868E16820F0FF
:105AD000190008432860FDF7B3FB074608E00120E2
