:020000040800F2
:10000000E09E0020810300085D710008956A0008E9
:100010003D710008550C0008C58C00080000000068
:10002000000000000000000000000000C102000805
:10003000D90F0008000000001D0300080D8500080E
:100040009B0300089B0300089B0300089B03000818
:100050009B0300089B0300089B0300089B03000808
:100060009B0300089B0300089B030008290D000860
:100070009B0300089B0300089B0300089B030008E8
:100080009B030008350D00089B0300089B03000834
:100090009B0300089B0300089B0300089B030008C8
:1000A0009B0300089B0300089B0300089B030008B8
:1000B0009B0300089B0300089B0300089B030008A8
:1000C0009B0300089B0300089B0300089B03000898
:1000D0009B0300089B0300089B0300089B03000888
:1000E0009B0300089B0300089B0300089B03000878
:1000F0009B0300089B0300089B0300089B03000868
:100100009B030008ED7700089B0300089B03000891
:100110009B0300089B0300089B0300089B03000847
:100120009B0300089B0300089B0300089B03000837
:100130009B03000800000000000000009B03000873
:100140009B0300089B0300089B0300089B03000817
:100150009B030008A10D00089B0300089B030008F7
:100160009B0300089B0300089B0300089B030008F7
:100170009B0300089B0300081D0D00089B0300085B
:100180009B0300089B0300089B0300089B030008D7
:100190009B0300089B0300089B0300089B030008C7
:1001A0009B0300089B030008410D00085D770008D1
:1001B0009B0300089B0300089B0300089B030008A7
:1001C0009B0300089B0300080000000000000000E3
:1001D00000000000000000009B0300080000000079
:1001E000000000000000000000000000000000000F
:1001F00000000000000000009B0300089B030008B3
:100200009B0300089B030008000000009B030008FC
:100210009B0300089B0300089B0300089B03000846
:100220009B0300089B0300089B03000800000000DC
:100230009B0300089B030008000000009B030008CC
:100240009B0300089B0300089B0300089B03000816
:100250009B0300089B0300089B0300089B03000806
:100260009B0300089B0300089B0300089B030008F6
:100270009B0300089B0300089B030008000000008C
:100280009B0300089B030008000000009B0300087C
:10029000000000009B0300089B0300089B0300086C
:1002A0009B0300089B0300089B030008DFF80CD0A9
:1002B00000F0D8FA00480047D5C70008E09E0020AB
:1002C0002C4B19680868B0E8F04F80F30988BFF339
:1002D0006F8F4FF0000080F311887047000000001E
:1002E00008480068006880F308884FF0000080F339
:1002F000148862B661B6BFF34F8FBFF36F8F00DF14
:1003000000BF00BF08ED00E0DFF80C00016841F419
:1003100070010160704700BF88ED00E0EFF30980D5
:10032000BFF36F8F134B1A681EF0100F08BF20ED3C
:10033000108A20E9F04F106009B44FF0500080F3AC
:100340001188BFF34F8FBFF36F8F0EF005F84FF09A
:10035000000080F3118809BC19680868B0E8F04F04
:100360001EF0100F08BFB0EC108A80F30988BFF3AD
:100370006F8F704788000020EFF305807047000002
:100380000648804706480047FEE7FEE7FEE7FEE72F
:10039000FEE7FEE7FEE7FEE7FEE7FEE7ED85000885
:1003A000AD0200082DE9F05F0546002092469B460D
:1003B00088460646814640241BE02846414647467B
:1003C000224600F087F853465A46C01A914110D38E
:1003D00011461846224600F06EF82D1A67EB010808
:1003E0004F4622460120002100F065F817EB000976
:1003F0004E41201EA4F10104DFDC484631462A4666
:100400004346BDE8F09F40EA01039B0703D009E0A3
:1004100008C9121F08C0042AFAD203E011F8013BF0
:1004200000F8013B521EF9D27047D2B201E000F849
:10043000012B491EFBD270470022F6E710B5134688
:100440000A4604461946FFF7F0FF204610BD421C3D
:1004500010F8011B0029FBD1801A704710B500224B
:1004600000E0521C835C8C5CA34201D1002BF8D1CC
:10047000D8B2E1B2401A10BD034611F8012B00F8C2
:10048000012B002AF9D11846704730B50B460146BA
:1004900000202022012409E021FA02F59D4205D323
:1004A00003FA02F5491B04FA02F52844151EA2F1CD
:1004B0000102F1DC30BD202A04DB203A00FA02F10F
:1004C000002070479140C2F1200320FA03F3194342
:1004D00090407047202A04DB203A21FA02F00021E4
:1004E000704721FA02F3D040C2F120029140084344
:1004F000194670472DE9FE4F804681EA0300C00F80
:100500000C46009021F0004123F00045B8EB0200BA
:10051000A94105D24046214690461C460B4602465C
:1005200023F00040104347D0270DC7F30A00C3F360
:100530000A510290401A019040286BDAC3F313006D
:1005400040F4801B0098924620B10023D2EB030AAE
:1005500063EB0B0B01985946C0F140025046FFF780
:10056000AAFF06460D4650465946019A00F08CF9FE
:1005700010EB08006141002487EA115284EAE77316
:100580001A4340D0009A62B3019A012A4FEA0752F7
:1005900015DC001B61EB02014FF0004202EA07523A
:1005A000CDE90042001C41F5801132462B4600F097
:1005B0008CF903B0BDE8F08F40462146F9E7001BF7
:1005C00061EB0201001C41F5801300185B4120180B
:1005D000A2F5001747EB030140EAD570B6196D414B
:1005E00011E06D084FEA360645EAC0754FEA07523A
:1005F000001B61EB0201001C41F5801149084FEA24
:1006000030000019514132462B4603B0BDE8F04F8F
:1006100000F04CB90098012240000023D0EB020208
:1006200063EBE073009821464FEAE074B8EB0000FA
:1006300061EB0401E9E783F000435BE781F00041EF
:1006400058E72DE9FE4F81EA030404F0004421F04D
:10065000004100944FF0000B23F0004350EA0104E6
:100660005ED052EA03045BD0C3F30A54C1F30A55C7
:100670002C44A4F2F3340194A0FB0254C1F31301FF
:1006800041F48011C3F3130343F4801301FB0244CC
:1006900000FB034E840A970A44EA815447EA8357D1
:1006A000A4FB076802958D0A05FB07854FEA932C8A
:1006B00004FB0C542705029D4FEA065847EA1637FB
:1006C000B5EB08056EEB070C870E920E47EA811713
:1006D00042EA8312A7FB0201B6EB0B0164EB0004B4
:1006E0002B0D43EA0C335E1844EB1C50DA4651469E
:1006F000E7FB0201C5F313044FEA0B3343EA14533B
:100700004FEA0432019C43EA0603A4F10C0402946C
:10071000009CCDE900B400F0D8F803B0BDE8F08F3C
:1007200000200146F9E72DE9F04D81EA030404F0C9
:10073000004B21F0004514464FF0000A23F0004121
:1007400050EA050220D054EA01021DD0C5F30A5731
:100750000246C5F31303C1F31300C1F30A5640F474
:10076000801543F48013A7EB0608101BD64608F249
:10077000FD3873EB050002D308F1010801E092187F
:100780005B41B8F1000F03DA00200146BDE8F08DAF
:1007900000204FF48011064684460EE0171B73EBD1
:1007A000050705D3121B63EB050306434CEA010C56
:1007B00049084FEA300092185B4150EA0107EDD139
:1007C00052EA030012D082EA040083EA05010843DA
:1007D00005D0101BAB4106D20122002306E0002207
:1007E0004FF0004302E06FF0010253101AEB0600D5
:1007F0004CEB085110EB0A0041EB0B01BDE8F04D4A
:1008000000F054B8C1F30A52C1F3130140F2FF33B0
:1008100041F480119A4202DA00200146704740F20A
:1008200033439A42A2F2334202DC5242FFF752BEF5
:10083000FFF741BE30B5041E71F1000404DB4FF038
:100840000044404264EB0101141E73F1000405DB17
:100850001C464FF00043524263EB0403994208BF29
:10086000904230BD064C074D06E0E06840F00103C1
:1008700094E8070098471034AC42F6D3FFF71AFD0E
:10088000B8FE0008F8FE0008202A06DBCB17203A45
:1008900041FA02F043EAE07306E041FA02F3D04085
:1008A000C2F12002914008431946704710B5141E4A
:1008B00073F1000408DA401C41F1000192185B4119
:1008C0001A4301D120F0010010BD2DE9F04D9246F0
:1008D0009B4611B1B1FA81F202E0B0FA80F2203207
:1008E0009046FFF7E8FD04460F4640EA0A0041EA59
:1008F0000B0153465A46084313D0114653EA0100F0
:1009000019D0C8F140025046FFF7E4FD05460E46F7
:10091000504659464246FFF7CEFD084305D0012018
:1009200004E020463946BDE8F08D0020054346EA44
:10093000E0762C4337430A986305E40AA0EB0800ED
:100940000022FD0A44EA47540A3002D5002001463D
:10095000E9E7010510196941DDE908450019694118
:10096000BDE8F04DA2E770B58C1810F8015B15F0EA
:10097000070301D110F8013B2A1106D110F8012B11
:1009800003E010F8016B01F8016B5B1EF9D12B0736
:1009900005D40023521E0DD401F8013BFAE710F8EC
:1009A000013BCB1A921C03E013F8015B01F8015BD9
:1009B000521EF9D5A142D8D3002070BD47F2395C50
:1009C000C9F2010C60474DF2557CC9F2010C604739
:1009D0004DF29D7CC9F2010C604742F6A51CC9F29C
:1009E000010C604740F2FD2CC9F2020C604745F251
:1009F000793CC9F2020C604710B504462C48D0F887
:100A0000080310F4403F10D004F044FA6168B1F5D7
:100A1000803F06D0B1F5003F03D0B1F5403F25D16E
:100A200001E0090C16E0800820E04FF4002003F0FC
:100A3000A9FB61688A03920B18D18A140C2A15D27B
:100A4000DFE802F0140606060606060B0D0F11136A
:100A5000890C4900B0FBF1F008E0000906E040090C
:100A600004E0800902E0C00900E0000A11494008E2
:100A7000884204D82068816821F4407108E00E495A
:100A8000884207D82068816821F4407141F4807160
:100A9000816010BD094988422068816804D821F42A
:100AA000407141F40071F3E741F44071F0E7000058
:100AB00000200240105E5F0020BCBE0040787D0137
:100AC00070B50446006806F07DF8B8BB2068816800
:100AD0001E4A114228D18168D6433140491C8160A9
:100AE00002F0C0FA05461A4880681A4900F01F0251
:100AF0002068884201D1184900E0014681421ED099
:100B0000EAB121E006F05EF820B920688168314042
:100B1000491C816002F0A6FA401B02280FD9206808
:100B20000068C043C0070AD0606D40F010006065E7
:100B3000A06D40F00100A065012070BD04E02068B8
:100B40000168C943C907DDD10020F6E73F000080F6
:100B500000230240002102400020024010B5002482
:100B600008B1A41E05E0044805F014F908B16FF0BF
:100B70000304204610BD0000381600200649C0EBD3
:100B8000401010B501EB800005F016F9042801D0E3
:100B9000012010BD002010BD3816002070B50024C3
:100BA00008B1A41E1CE000F01FF8012802D06FF06D
:100BB000060415E00B4D284607F012FB284606F008
:100BC0007DFA6FF0030628B94FF48041284604F0FF
:100BD0003FFF08B1344603E00221284604F0E0FE5E
:100BE000204670BD3816002010B16FF0010070472C
:100BF00001207047F8B54FF064064FF0000405007F
:100C000003FB06F001D0A41E06E00090034805F0A7
:100C10000DFB08B16FF003042046F8BD3816002024
:100C200070470000F8B54FF064064FF0000405006F
:100C300003FB06F001D0A41E06E00090034805F077
:100C4000DDFB08B16FF003042046F8BD3816002024
:100C50007047000001A00DF039F9FEE70D0A42755A
:100C6000734661756C745F48616E646C65720D0AE1
:100C700000000000F0B51F4C206881034FF0000019
:100C800011D4BFF34F8FBFF36F8F1B490860BFF3C1
:100C90004F8FBFF36F8F216841F400312160BFF3A4
:100CA0004F8FBFF36F8F2168C90322D41149703170
:100CB0000860BFF34F8F081F006843F6FF750E4EA4
:100CC0001036C0F34E31C0F3C90305EA411218468D
:100CD00042EA80773760401EFAD2491EF5D2BFF350
:100CE0004F8F206840F480302060BFF34F8FBFF3F8
:100CF0006F8FF0BD14ED00E050EF00E010B5806B99
:100D0000816C496D022906D0012180F83510C16C33
:100D100041F04001C16400F065FE10BD014800F0E3
:100D200063BE000028020024014801F005BB00005A
:100D300088030024014801F0FFBA0000C404002029
:100D4000014800F085BF000000040024F0B5124CFB
:100D5000059F256825F001052560002626600225EF
:100D6000E56165632661C2F548752564E76001EBBE
:100D7000C10505EB011100EB4110084901EB4000F2
:100D8000E06343EA02406064206840F001002060B4
:100D90002068C007FCD1F0BD00100052F8A5002467
:100DA0000248D0F8800001F0C7BA00002C040020EF
:100DB00010B52A4A016891423AD0284A1832914225
:100DC00036D0264A3032914232D0244A48329142BB
:100DD0002ED0224A603291422AD0204A7832914263
:100DE00026D01E4A9032914222D01C4AA83291420B
:100DF0001ED01B4A91421BD0194A1832914217D07B
:100E0000174A3032914213D0154A483291420FD0DE
:100E1000134A603291420BD0114A7832914207D086
:100E20000F4A9032914203D00D4AA832914211D11B
:100E3000CAB20C4C1823103AB2FBF3F26FF309015B
:100E400002F00703032AE35CC36500D9091D81652D
:100E5000084610BD21F0FF01F9E700001000024034
:100E6000100402407CF5000810B501680123224CF3
:100E7000CAB2A1421BD0204C1434A14217D01E4C40
:100E80002834A14213D01C4C3C34A1420FD01A4C40
:100E90005034A1420BD0184C6434A14207D0164CF8
:100EA0007834A14203D0144C8C34A1420FD11421C8
:100EB000083AB2FBF1F1114A02EB810202660F4AD5
:100EC00001F01F0180328B40C0E9192310BD1824A6
:100ED000103AB2FBF4F20A4C2144A82900D8083297
:100EE000084901EB8201016606498031416602F042
:100EF0001F018B40836610BD0854025800580258E9
:100F0000F0FBFDBF0008024010B50279531E072B0D
:100F100030D8194C0168A1421BD0174C1434A1429F
:100F200017D0154C2834A14213D0134C3C34A142A5
:100F30000FD0114C5034A1420BD00F4C6434A1425D
:100F400007D00D4C7834A14203D00B4C8C34A14215
:100F500006D10A4901EB8201C1660849443105E026
:100F6000074901EB8201C16605494431016701214E
:100F70009940416710BD000008540258FC580258BF
:100F8000FC080240014610B500208B694FF0C07488
:100F90008A6A53B1B3F5005F15D072B1012A0CD043
:100FA000022A0AD0032A09D104E01AB1012A06D084
:100FB000022A03D1C96AC90100D5012010BDC96A3E
:100FC000A142FAD010BD002AF7D0012AF2D0022A9D
:100FD000F3D0032AF3D010BD01A00CF077BF0000BE
:100FE0000D0A44656275674D6F6E5F48616E646C93
:100FF00065720D0A0000000072B6FEE7002200F0E4
:1010000001B8000010B50978034601203039C9B293
:10101000022908D204480024445400EB8104084407
:1010200063600273002010BDCC8E0020F8B5002450
:1010300033A00CF04BFF44480A223EA10AF086F987
:10104000424E0028307052D141A00CF03FFF701D7D
:10105000FFF7FDF9711D02463B486B460AF02FFB76
:101060000028307043D13EA00CF030FF711D3EA02F
:101070000CF02CFF344809F02BFE3DA00CF026FFAD
:10108000701DFFF7E4F985B22F48012229A10AF06B
:101090005DF92D496B4630702A462B4820390AF0FD
:1010A0002AFA307018BB3DA00CF010FF26482946E4
:1010B000203806F0CDF92449701D203905E0025D85
:1010C0000B5D9A4213D1641CE4B2AC42F7D337A053
:1010D0000CF0FCFE1C4924A020390CF0F7FE1A4845
:1010E00009F0F6FD33A00CF0F1FE0020F8BD39A0A8
:1010F0000CF0ECFE144809F0EBFD0120F8BD0000F7
:101100002D2D2D2D2D2D2D2D2D2D2D2D2D4661747B
:101110004673206F70656E20262077726974652D86
:101120002D2D2D2D2D2D2D2D2D2D2D2D2D2D0D0A32
:1011300000000000303A46617446735F5465737472
:101140002E7478740000000090070020280000240E
:101150006F6B2C77726974652E2E2E0D0A000000BD
:101160006F6B200D0A00000025730D0A00000000BF
:101170002D2D2D2D2D2D2D2D2D2D2D2D2D4661740B
:10118000467320726561642D2D2D2D2D2D2D2D2D55
:101190002D2D2D2D2D2D0D0A000000006F6B2C2004
:1011A0007665726966792E2E2E0D0A006F6B0D0A18
:1011B0000000000073646D6D6320616E64206661E1
:1011C00074667320746573742066696E6973682130
:1011D0000D0A0000657272210D0A00007CB50D48F1
:1011E00001A96A4609F083FD0098019A8169408946
:1011F000891E41435043CC0AC50A07A00CF066FE85
:1012000010A021460CF062FE0EA029460CF05EFEF6
:101210007CBD0000290000242D2D2D2D2D2D2D2DE0
:101220002D2D2D2D2D2D2D2D2D2D2D7072612D2D32
:101230002D2D2D2D2D2D2D2D2D2D2D2D2D2D2D0DFE
:101240000A00000053442025644D420D0A000000AE
:101250002DE9F84F00260446DFF834930D4600963A
:10126000B04690F85000DFF82CA3DFF82CB301282B
:1012700007D0012784F85070206805F0A7FC18B14A
:1012800046E10220BDE8F88F2168CA692868030397
:1012900029D090FAA0F0B0FA80F000F01F0007FA11
:1012A00000F00243CA61D5E9002120680C2303EA5B
:1012B00091131844036B01F01F014FF01F0CC2F390
:1012C00084620CFA01FC8A4023EA0C031343036393
:1012D000206805F07BFC0090206805F06FFC009909
:1012E000014303D074E0C0F38460D6E7AA6829689C
:1012F000206805F077FC2068C168C268C906696982
:1013000003D4C2F38202520002E002F0100252083B
:1013100091402A69042A2CD000EB82002B68026ECF
:1013200003F0F8430B4302F000421A430266697E61
:1013300022682869012916D0002102EB8000026E84
:1013400022F000420A430266297E20682A690129A8
:101350000CD00021036902F01F0223F4F0439140F6
:101360000B43036134E04FF00041E6E74FF40061C6
:10137000F0E7016E2A7801F0F841B1EB826F03D1FA
:10138000016E21F0004101662068416E2A7801F06B
:10139000F841B1EB826F03D1416E21F0004141660B
:1013A0002068816E2A7801F0F841B1EB826F03D199
:1013B000816E21F0004181662068C16E2A7801F0BB
:1013C000F841B1EB826F03D1C16E21F00041C166DB
:1013D000206805F0F7FB002873D121682A7B286874
:1013E00051F8C03FC0F3130C23EA0C0302F0180CB1
:1013F0006A4A22FA0CF2024013430B60E96849453D
:1014000075D1286801031AD090FAA0F1B1FA81F1E0
:10141000491C01F01F0109294FEA003130D8002989
:1014200010D090FAA0F1B1FA81F101F1010101F0BF
:101430001F0107FA01F708D1C0F3846109E0C0F386
:101440008461E5E7C0F38461EFE790FAA0F1B1FAB7
:1014500081F101F1010101F01F0147EA816102D12F
:10146000C0F3846003E090FAA0F0B0FA80F000F1DD
:10147000010000F01F0000EB400041EA005132E0A3
:1014800000290DD090FAA0F1B1FA81F101F101012A
:1014900001F01F0107FA01F705D1C0F3846106E0EE
:1014A000C0F38461F2E790FAA0F1B1FA81F101F1A1
:1014B000010101F01F0147EA816103D1C0F384609B
:1014C00004E02AE090FAA0F0B0FA80F0344A00F18B
:1014D000010000F01F0000EB400002EB005041EA69
:1014E000000141F00071AA68206805F07BFB2968C3
:1014F000002912DA2B4A9068DAF8083000F0E07020
:10150000DBF80870C3F30005C7F300073D4308D0BC
:10151000606D40F020006065012684F85080304600
:10152000B0E6214DA94218D1050216D421685945CB
:10153000F3D1916840F4000021F0E0710143916023
:101540001A481B490068B0FBF1F04000801C00E025
:10155000401E00900028FBD1DFE7164DA94207D1BD
:10156000C50105D421685945D7D140F0807009E004
:10157000114DA942D1D14102CFD421685945CCD1D6
:1015800040F48000916821F0E07101439160C4E76C
:101590000000FF470020024000210240FFFF0F0033
:1015A000000020FE00230240000084CB0000002049
:1015B000400D03000040C0BA0000B8CF0068006CC6
:1015C00070470000F8B54FF0000504002E46009566
:1015D00002D0606D10B107E00120F8BD204600F098
:1015E000D7F8A66584F8506020688168C1F340711F
:1015F00019B181685B4A1140816020688168C1F33C
:10160000007181B98168584A114041F08051816070
:10161000564857490068B0FBF1F0401C00E0401EFE
:1016200000900028FBD120688168C1F3007141B9A6
:10163000616D41F010016165A16D41F00101A1658D
:10164000012505F0C3FA616DC90600D430B1606DA3
:1016500040F01000606501252846F8BD606D20F45B
:10166000807040F002006065206805F0ABFA80B938
:10167000404880684049C0F300008968C1F3000118
:10168000084306D13D4960688A6822F47C1202430F
:101690008A60A168206B0843617D4A03217F42EA8A
:1016A00001421043012904D1218C354A02EB41410A
:1016B0000843616A29B1A26A01F47871014342EAE0
:1016C00001002168CA682F4B1A400243CA60206893
:1016D00005F07CFA0646206805F070FA06431DD135
:1016E000217DE06A40EA81312068C26844F2030348
:1016F0009A430A43C26094F83800012816D0206843
:10170000016921F00101016120680169626B21F02A
:101710007041114301612046FFF76EF9E06801282E
:101720002068016B21F00F0110D012E0D4E91010F5
:10173000A28F154B0143A06C03EB024210430143FF
:1017400020680269114B1A401143DCE7A269521E5E
:1017500011430163606D20F0020040F001006065FC
:101760007AE70000C0FFFF5FC0FFFF7F000000209E
:10177000400D0300002002400021024000230240EF
:101780000000FEFF03C0F0FF0100FFFF1EF800FC99
:1017900010B5B0B00446B8216846FEF74DFE1349B7
:1017A000206888421FD10B214FF4002000900220B6
:1017B000CDE901010821CDE903100590C020069074
:1017C0000020079008902A90684602F0F5FD08B1C5
:1017D000FFF712FC0648016841F020010160006833
:1017E00000F020002E9030B010BD0000002102401B
:1017F000384502582DE9F04104463A480F468168C1
:1018000001F01F06216908290FD086B1052E0ED0E0
:10181000092E0CD0806800F4404060B1606D40F04B
:10182000200060650120BDE8F081082504E0206803
:10183000C068C007F1E7042501F014FC804615E0FC
:10184000781C13D001F00EFCA0EB0800B84200D8C1
:1018500067B920680068284208D1606D40F0040034
:101860006065002084F850000320DCE720680068F1
:101870002842E5D0606D40F400706065206805F096
:10188000A9F980B1607D70B92068006800070AD5A9
:10189000606D20F480706065606DC00403D4606D7D
:1018A00040F001006065104B20681049984201D15A
:1018B0000A4600E00246824210D07EB1052E0DD0CD
:1018C000092E0BD0984200D00146C968082D07D0D8
:1018D000490401D40C2101600020A4E7C168F5E7A8
:1018E0000821F8E7002302400021024000200240C6
:1018F0002DE9F04104463748806800F01F05206854
:1019000005F064F918B102210846BDE8F08194F8A9
:10191000500001280CD0012084F850002046FFF729
:10192000CFF801004FF0000704D084F85070EBE7C7
:101930000220EAE7606D40F60162904340F4807057
:101940006065254E2068254BB04201D11A4600E063
:101950000246824200D01DB9626D22F48012626597
:10196000626DD20404D5A26D22F00602A26500E0E9
:10197000A7651C22026084F850702068B04201D133
:101980001A4600E00246824215D0A5B1052D12D0BC
:10199000092D10D0626D42F480126265B04200D110
:1019A0001846C0688001AFD5606D20F4005040F447
:1019B00080506065A8E7C268920105D5626D22F487
:1019C000005242F4805262658268054B1A40121D33
:1019D000826099E70023024000210240002002407B
:1019E000C0FFFF7F704770472DE9F0410446006853
:1019F00005694FF00406234F69070BD54661E06C7B
:101A000040F00200E06484F83560A06C0765A06CCB
:101A100000F060FBA8070DD5216802204861E06C4A
:101A200040F00100E06484F83560A06C0765A06CAC
:101A300000F050FBE80605D52168102048612046DB
:101A400000F06AF8280705D521680820486120467B
:101A500000F0FCF8E80712D020680168890703D578
:101A6000C16821F01E01C1602068C16821F0010138
:101A7000C1602168012048612046FFF7B4FFBDE83E
:101A8000F0810000FD0C000810B5040003D094F8AC
:101A9000350010B104E0012010BD204600F03EF8F2
:101AA000022084F83500A069002200B1626220683B
:101AB0000168184B19400160616860690143D4E90D
:101AC000030318430143A0680143A0690143206A4E
:101AD0000143606A0143A06A0143E06A0143206B4D
:101AE000014320680368194301606068102805D12C
:101AF000E17FE06961F31F60216888612068C16847
:101B000041F01E01C160E264012084F8350000202C
:101B100010BD000007F0E0FF704700002DE9F04124
:101B200086B0064614216846FEF786FC3F493068B9
:101B3000884277D13E48016841F0010101600068A8
:101B40003B4900F001000590091D086840F01000B5
:101B50000860086800F010000590086840F0010077
:101B60000860086800F001000590086840F008006F
:101B70000860086800F008000590086840F002005E
:101B800008600868022400254FF0030800F00200F6
:101B90000590732069460D2704978DE8310125488B
:101BA00001F06EF94FF4CA6004978DE831012248C4
:101BB000694601F065F9082004978DE831011F4856
:101BC000694601F05DF9802004978DE831011C48D9
:101BD000694601F055F91C4C1A4820604B20C4E9B5
:101BE00001054FF48060C4E903508000606180000B
:101BF000C4E90605C0002062042060620120C4E937
:101C00000A052046256300F035FF08B1FFF7F4F917
:101C1000B46400220521A6634E2001F029FC4E2069
:101C200001F018FC06B0BDE8F08100000000024899
:101C30003C4502580010025800000258000C02589F
:101C400000040258100002408803002470477047C7
:101C50002DE9F04704460068466805684FF004081F
:101C60004FF000074FF00109F10714D0E90512D534
:101C7000016821F480710160606E40F001006066CF
:101C80002168C1F8089084F8618084F86070616A06
:101C900009B120468847B00615D5A80413D5206899
:101CA000016821F400510160216820208860606E85
:101CB00040F00200606684F8618084F86070616AB8
:101CC00009B120468847300715D5280513D5206867
:101CD000016821F400610160216808208860606E5D
:101CE00040F00400606684F8618084F86070616A86
:101CF00009B12046884770070CD568050AD52068C9
:101D0000016821F4806101602168C1F808802046E3
:101D100000F02DF8B00713D5A80511D5206801688B
:101D200021F400710160216802208860606E6066A5
:101D300084F8619084F86070216A09B12046884770
:101D4000F00612D5E80410D52068016821F480510E
:101D50000160216810208860606E606684F8619080
:101D6000204684F86070FFF772FFBDE8F087704787
:101D70002DE9F84F044601F075F9002C009008D0C9
:101D800094F83500022805D080206065002084F892
:101D90003400EBE0CC4ECC4FCB491836DFF828832B
:101DA0003037DFF82493DFF820A308F14808DFF884
:101DB00018B309F1600920680AF1780A0BF1900B59
:101DC00088422ED0B0422CD0B8422AD0404528D0EC
:101DD000484526D0504524D0584522D0BA4AA8328A
:101DE00090421ED0B94A90421BD0B84A1832904255
:101DF00017D0B64A3032904213D0B44A483290429B
:101E00000FD0B24A603290420BD0B04A7832904242
:101E100007D0AE4A9032904203D0AC4AA8329042EA
:101E200009D1026822F01E0202602068426922F095
:101E30008002426103E0026822F00E02026025681F
:101E40008D4228464DD0B0424BD0B84249D0404593
:101E500047D0484545D0504543D0584541D09A4A8F
:101E6000A83290423DD0994A90423AD0974A1832CF
:101E7000904236D0954A3032904232D0934A48321E
:101E800090422ED0914A603290422AD08F4A7832C6
:101E9000904226D08D4A9032904222D08B4AA8326E
:101EA00090421ED08A4A90421BD0894A14329042F6
:101EB00017D0874A2832904213D0854A3C3290424C
:101EC0000FD0834A503290420BD0814A6432904204
:101ED00007D07F4A7832904203D07D4A8C329542B7
:101EE00004D1206E026822F4807202607649206874
:101EF000884228D0B04226D0B84224D0404522D0D3
:101F0000484520D050451ED058451CD06E49A831B8
:101F1000884218D06D49884215D06C4918318842E2
:101F200011D06A49303188420DD068494831884221
:101F300009D066496031884205D0644978318842C9
:101F400001D062499031016821F00101016010E087
:101F500001F088F80099401A05280AD92020606508
:101F6000002084F83400032084F835000120BDE807
:101F7000F88F2868C007EBD1534A012120689042AE
:101F80002ED0B0422CD0B8422AD0404528D0484567
:101F900026D0504524D0584522D04B4BA8339842E8
:101FA0001ED04A4B98421BD0484B1833984217D04A
:101FB000464B3033984213D0444B483398420FD0AD
:101FC000424B603398420BD0404B7833984207D055
:101FD0003E4B9033984203D03C4BA833984208D1F3
:101FE00094F85C30A06D03F01F053F23AB40836085
:101FF00007E094F85C30A06D03F01F0301FA03F3CF
:102000004360206890424DD0B0424BD0B84249D096
:10201000404547D0484545D0504543D0584541D02C
:10202000294AA83290423DD0284A90423AD0274AC5
:102030001832904236D0254A3032904232D0234A6C
:10204000483290422ED0214A603290422AD01F4A14
:102050007832904226D01D4A9032904222D01B4ABC
:10206000A83290421ED01A4A90421BD0184A14320D
:10207000904217D0164A2832904213D0144A3C326C
:1020800090420FD0124A503290420BD0104A643224
:10209000904207D00E4A7832904203D00C4A8C32DC
:1020A00090420BD1D4E919024260E06E30B102686F
:1020B00022F480720260D4E91C024260002084F89D
:1020C000340084F8351052E710000240100402403A
:1020D000085402582DE9F05F28B190F83510022914
:1020E00004D0802141650120BDE8F09F8F4A8F4BCD
:1020F0008E4C18328D4D48338C4E60348B4F783572
:10210000DFF828829036DFF82492A837DFF820E243
:10211000DFF81CA209F13009DFF814C20EF1780EC5
:1021200001680AF1900ADFF808B20CF1A80C4145E9
:102130002DD091422BD0494529D0994227D0A14298
:1021400025D0A94223D0B14221D0B9421FD0594550
:102150001DD0DFF8DC8108F11808414517D0DFF801
:10216000D08108F13008414511D0DFF8C48108F171
:10217000480841450BD0DFF8B88108F160084145B7
:1021800005D0714503D0514501D0614529D14FF0AB
:10219000040880F83580654881421DD091421BD0EB
:1021A000494519D0994217D0A14215D0A94213D060
:1021B000B14211D0B9420FD059450DD05C4818300A
:1021C000814209D05A483030814205D058484830C1
:1021D000814201D056486030086820F00100086054
:1021E000A2E0D1F8008028F00E08C1F80080DFF8E6
:1021F0003C810168414525D0914223D0494521D0F9
:1022000099421FD0A1421DD0A9421BD0B14219D082
:10221000B94217D0594515D0DFF8148108F11808D4
:1022200041450FD0DFF8088108F13008414509D059
:10223000DFF8FC8008F14808414503D0DFF8F08062
:1022400008F16008D1F8008028F00108C1F800808A
:10225000DFF8D8800168414544D0914242D04945D9
:1022600040D099423ED0A1423CD0A9423AD0B1429E
:1022700038D0B94236D0594534D02D4A183291421F
:1022800030D02B4A303291422CD0294A48329142E8
:1022900028D0274A6032914224D0714522D051453E
:1022A00020D061451ED0234A91421BD0214A1432CE
:1022B000914217D01F4A2832914213D01D4A3C3216
:1022C00091420FD01B4A503291420BD0194A6432CE
:1022D000914207D0174A7832914203D0154A8C3286
:1022E000914218D1016E0A6822F480720A6090F857
:1022F0005C20816D02F01F0301229A404A60D0E900
:1023000019124A60C16E31B10A6822F480720A6003
:10231000D0E91C124A60002180F83410012180F8B5
:102320003510016D01B188470020DDE61000024044
:1023300010040240085402582DE9FC5F04460020B6
:1023400000904FF41651F9480068B0FBF1F001908D
:10235000A56D2E682A68F64FDFF8D483DFF8D0A386
:10236000DFF8CCB308F1180820680AF1300ADFF86A
:10237000C4930BF1480BB84238D04146884235D05F
:10238000504533D0584531D0E949603188422DD08D
:10239000E7497831884229D0E5499031884225D0F3
:1023A000E349A831884221D048451FD0E14918317E
:1023B00088421BD0DF493031884217D0DD4948318F
:1023C000884213D0DFF86CE30EF1600E70450DD03B
:1023D000D84B7833984209D0DFF858C30CF1900CF1
:1023E000604503D0D349A83188427DD194F85C1070
:1023F000082301F01F0103FA01F232424CD0B84227
:1024000033D0404531D050452FD058452DD0C84904
:102410006031884229D0C6497831884225D0C449E4
:102420009031884221D0C249A83188421DD0484508
:102430001BD0C0491831884217D0BE49303188427C
:1024400013D0BC49483188420FD0BA496031884224
:102450000BD0B8497831884207D0B64990318842CC
:1024600003D0B449A831884203D1016801F00401C6
:1024700002E0016801F0080171B1016821F0040176
:10248000016094F85C0000F01F0003FA00F2AA60FB
:10249000606D40F00100606594F85C00012100F07F
:1024A0001F008140314241D02068B84235D04045BC
:1024B00033D0504531D058452FD09D4A603290429C
:1024C0002BD09B4A7832904227D0994A9032904242
:1024D00023D0974AA83290421FD048451DD0954A34
:1024E0001832904219D000E0B4E1924A3032904262
:1024F00013D0904A483290420FD08E4A60329042B8
:102500000BD08C4A7832904207D08A4A903290425F
:1025100003D0884AA83290427ED1406910F0800FE3
:1025200004D0A960606D40F00200606594F85C0022
:10253000042100F01F00814031423FD02068B842A2
:1025400033D0404531D050452FD058452DD0784A12
:102550006032904229D0764A7832904225D0744A2F
:102560009032904221D0724AA83290421DD0484504
:102570001BD0704A1832904217D06E4A30329042C7
:1025800013D06C4A483290420FD06A4A603290426F
:102590000BD0684A7832904207D0664A9032904217
:1025A00003D0644AA83290424FD1006810F0020F65
:1025B00004D0A960606D40F00400606594F85C0090
:1025C000102100F01F008140314259D02068B842EC
:1025D00035D0404533D0504531D058452FD0544A9E
:1025E000603290422BD0524A7832904227D0504AE3
:1025F0009032904223D04E4AA83290421FD0484594
:102600001DD04C4A1832904219D04A4A303290427A
:1026100015D0484A483200E015E090420FD0454AB4
:10262000603290420BD0434A7832904207D0414A00
:102630009032904203D03F4AA832904207D10068BE
:1026400000F0080006E0006870E70068B6E7006880
:1026500000F00400A0B1A96020680168490304D516
:102660000068000308D5A16C07E00168C90503D420
:10267000016821F008010160216C09B120468847FA
:1026800094F85C00202100F01F008140314278D096
:102690002068B84233D0404531D050452FD05845FE
:1026A0002DD0234A6032904229D0214A783290427C
:1026B00025D01F4A9032904221D01D4AA832904224
:1026C0001DD048451BD01B4A1832904217D0194ADA
:1026D0003032904213D0174A483290420FD0154AF8
:1026E000603290420BD0134A7832904207D0114AA0
:1026F0009032904203D00F4AA832904203D1006832
:1027000000F0100002E0006800F00200A0B3A96031
:1027100094F835000428206801680DD049037DD560
:102720000068000329D4616C28E00000000000204C
:10273000100002401004024021F0160101602068E0
:10274000416921F080014161206C08B9A06C20B181
:102750002068016821F00801016094F85C0000F035
:102760001F013F208840A860002084F83400012029
:1027700084F83500216D66E003E0E16B09B1204685
:102780008847606D00287DD0606DC0075AD0042056
:1027900084F835002068B8422BD0404529D05045F8
:1027A00027D0584525D0AF49884222D0AD491831AD
:1027B00088421ED0AB49303188421AD0A9494831ED
:1027C000884216D0484514D0A749884211D0A6495E
:1027D000183188420DD0A4493031884209D0A2492D
:1027E0004831884205D0A0496031884201D09E49D5
:1027F0007831016821F00101016021680098019A97
:10280000401C0090904202D80868C007F6D1002012
:1028100084F834000868C00711D000E001E003200C
:102820000EE00168C905A8D4016821F0100101601B
:10283000002084F83400012084F835009DE7012051
:1028400084F83500E16C00291CD002B02046BDE8B8
:10285000F05F0847854988423CD08449143188425A
:1028600038D082492831884234D080493C3188426E
:1028700030D07E49503188422CD07C496431884226
:1028800028D000E0A4E079497831884222D0774905
:102890008C3188421ED0764988421BD0744914314D
:1028A000884217D072492831884213D070493C3190
:1028B00088420FD06E49503188420BD06C49643148
:1028C000884207D06A497831884203D068498C3100
:1028D00088427DD101684FF0040894F85C6006F0EE
:1028E0001F0608FA06F818EA020FCDF8008047D054
:1028F0005FEA417844D500986860080403D5C803AE
:102900003CD4A16C9FE7880638D42068B8422DD00B
:1029100054494839884229D0504527D0584525D0B8
:102920005049884222D04F49183188421ED04D4923
:10293000303188421AD04B494831884216D0484538
:1029400014D04949884211D04749183188420DD0E6
:1029500045493031884209D0704507D0984205D0AA
:10296000604503D040499031884203D1016821F08D
:10297000080102E0016821F004010160216C62E7B6
:102980004FF0020808FA06F818EA020FCDF80080A6
:102990004FD05FEA81784CD500986860080403D571
:1029A000C80344D4616C4EE7880640D42068B8421E
:1029B0002FD02C49483988422BD0504529D0584532
:1029C00027D02849884224D026491831884200E07F
:1029D00046E01ED02349303188421AD0214948317F
:1029E000884216D0484514D01F49884211D01E494C
:1029F000183188420DD01C493031884209D07045C9
:102A000007D0984205D0604503D0174990318842DD
:102A100003D1016821F0140102E0016821F00A01EC
:102A20000160002084F83400012084F83500E16B57
:102A300009E70823B340134212D0090710D50168F3
:102A400021F00E01016094F85C0000F01F010120EC
:102A500000FA01F169606065002184F83410EFE646
:102A6000BDE8FC9F7000024028040240082C024888
:102A7000085402582DE9F05F044600F0F3FA0646C8
:102A8000F4B3F04F0222DFF8BC830025DFF8B493E3
:102A9000DFF8B0A308F13008DFF8A8B309F148095E
:102AA00020680AF1600A0BF1780BB84234D0E5498E
:102AB0001831884230D040452ED048452CD0504562
:102AC0002AD0584528D0DF499031884224D0DD49AA
:102AD000A831884220D0DC4988421DD0DA4918311B
:102AE000884219D0D8493031884215D0D64948316A
:102AF000884211D0D449603188420DD0D24900E0DB
:102B000042E07831884207D0CF499031884203D0E3
:102B1000CD49A83188427DD184F8345084F83520DD
:102B2000B8422CD0C7491831884228D0404526D019
:102B3000484524D0504522D0584520D0C149903135
:102B400088421CD0BF49A831884218D0BE4988426B
:102B500015D0BD491831884211D0BB493031884267
:102B60000DD0B9494831884209D0B749603188420F
:102B700005D0B5497831884201D0B3499031016818
:102B800021F00101016009E00120BDE8F09F00F0A3
:102B900069FA801B052801D9202031E120680068EE
:102BA000C007F4D122681168A8480140D4E90203A3
:102BB0001843D4E9043633431843A3691843E3693F
:102BC0001843236A18430843616A042903D1D4E9EE
:102BD0000B13194308436168A1F12903052B0BD995
:102BE000163B032B08D9083B012B05D9083B032BC7
:102BF00002D97439032901D840F48010106020688C
:102C0000406920F00701606A042840EA01060DD1FE
:102C1000A06A00E017E00643E06A38B12046FEF7FC
:102C2000B1F918B1402060650120EBE020684661F1
:102C30002046FEF7BDF894F85C1001F01F023F211A
:102C40009140816076E0824988423AD080491431CF
:102C5000884236D07E492831884232D07C493C3186
:102C600088422ED07A49503188422AD0784964313E
:102C7000884226D076497831884222D074498C31F6
:102C800088421ED0734988421BD072491431884251
:102C900017D070492831884213D06E493C318842A0
:102CA0000FD06C49503188420BD06A496431884258
:102CB00007D068497831884203D066498C31884210
:102CC0007ED16449884201D06249143184F834507D
:102CD00084F83520026860490A40A168402970D014
:102CE00080296FD00021E36841EAD301236941EADA
:102CF000D301636941EAD301A36941EAD301E369DE
:102D000041EAD301236A41EA131111430160514999
:102D10002068494208441421B0FBF1F08000E065CE
:102D20002046FEF745F894F85C1001F01F020121DF
:102D3000914041602068B84255D0424918318842DC
:102D400051D040454FD048454DD050454BD05845C7
:102D500049D03C499031884245D03A49A83188420F
:102D600041D0394988423ED03749183188423AD05B
:102D700035493031884236D033494831884232D0E3
:102D80003149603188422ED02F49783188422AD08B
:102D90002D499031884226D02B49A831884222D033
:102DA0002C4988421FD02B49143188421BD0294915
:102DB0002831884217D027493C31884213D002E09D
:102DC0001DE017E018E02349503188420BD021491B
:102DD0006431884207D01F497831884203D01D49A9
:102DE0008C31884228D12046FEF73EF8A068802822
:102DF0000BD00BE0102176E74FF4804173E74020C1
:102E00006065032084F83500BEE66560216E207998
:102E10000860D4E9190141606068401E072808D89D
:102E20002046FEF771F8E06E0560D4E91C014160B0
:102E300002E0E566256765676565012084F8350071
:102E40000020A2E610000240100402403F8010FE65
:102E5000082C0248085402580F00FEFF70B50446C3
:102E600000F000F90546601C02D0044800780444D4
:102E700000F0F8F8401BA042FAD370BD0000002417
:102E80002DE9F84F664C00224FF0B04E4FF0030A88
:102E90004FF00F0BBDE001269640334070D04D68D7
:102EA000012D05D0022D03D0112D01D0122D15D1E9
:102EB000876855000AFA05FC27EA0C07D1F80CC010
:102EC0000CFA05FC4CEA070CC0F808C04568B5438D
:102ED0000E79C6F3001696402E434660C66857002A
:102EE0008D680AFA07F926EA0906BD403543C56030
:102EF0004D68022D01D0122D12D1D50800EB850CA2
:102F0000DCF820605507ED0E0BFA05F826EA0806F6
:102F1000D1F8108008FA05F848EA0608CCF82080B5
:102F200005680E7925EA090506F00306BE402E4322
:102F300006604D68ED006BD53A4D2E6846F00206EE
:102F40002E602D6822F0030606F1B04605F002055A
:102F50000095D6F808C495072F0F0BFA07F52CEA51
:102F6000050C314DA84201D100252EE02F4DA8427D
:102F700001D1012529E02E4DA84202D1022524E0ED
:102F800046E02C4DA84201D103251EE02A4DA8425F
:102F900001D1042519E0294DA84201D1052514E0ED
:102FA000274DA84201D106250FE0264DA84201D1A8
:102FB00007250AE0244DA84201D1082505E0234D4C
:102FC000A84201D1092500E00A25BD4045EA0C05CB
:102FD000C6F8085425684E689D43F60300D51D4386
:102FE000256065684E689D43B60300D51D43656046
:102FF000DEF8005076464F689D43FF0200D51D4322
:10300000356075684F689D43BF0200D51D437560EC
:10301000521C0B6833FA02F57FF43DAFBDE8F88F20
:10302000800000585445025800000258000402581D
:1030300000080258000C02580010025800140258F0
:1030400000180258001C02580020025800240258A0
:103050000069084000D0012070470AB181617047C3
:103060000904FBE701488068704700000000002465
:103070000248816802781144816070470000002492
:10308000032010B500F014FA01F04AFF0F4A11684E
:103090001268C1F303230E49CB5C03F01F03D84031
:1030A00002F00F02895C0B4A01F01F0120FA01F1C6
:1030B000116009490860002000F010F808B10120F3
:1030C00010BD00F0B5F9002010BD000018440258F2
:1030D0006CF50008040000200000002070B50D4DC4
:1030E00004462A78A2B14FF47A700B49B0FBF2F093
:1030F0000968B1FBF0F003F051FB48B9102C07D27E
:1031000000222146501E00F0B3F900206C6070BD13
:10311000012070BD00000024000000202DE9F041D6
:10312000044690F8A00015460F4601281DD0012640
:1031300084F8A060022084F8A10005EB850000EB74
:10314000C500342204EB80003830FDF75CF92A46D4
:103150003946204603F055FD2068466284F8A16098
:10316000002084F8A000BDE8F0810220FBE7000009
:1031700070B5040004D094F8A100002510B106E059
:10318000012070BD204684F8A05000F06BF80220AA
:1031900084F8A1002068816921F070418161D4E93F
:1031A00001100143D4E903021043014320688269FE
:1031B000114381612068826829490A408260A08A9F
:1031C000020420688368A669334313438360206840
:1031D000C2680A40C260A08B02042068C368266AE5
:1031E00033431343C360206802690A400261A08C24
:1031F000020420680369A66A33431343036120680D
:1032000042690A404261A08D010420684269236B33
:103210001A430A43426194F83500020294F83600DA
:1032200001042068C36A03F07F43C3622068C36A55
:10323000114394F8346033430B43C3622068416BFD
:1032400041F0060141632068816941F0010181611B
:10325000C4F8A450012084F8A100002070BD000033
:1032600000F800F0F0B5B5B0044614216846FDF74B
:10327000E3F8B82105A8FDF7DFF841492068884246
:103280007BD14048016841F008010160006800F00E
:10329000080033903B48001F016841F004010160C1
:1032A000016801F004013391016841F001010160FE
:1032B000016801F001013391016841F002010160F0
:1032C000016801F002013391016841F010010160D1
:1032D000016801F010013391016841F008010160BB
:1032E000006802240025284F00F0080033900120D8
:1032F00069468DE831000B20CDE903403846FFF7E1
:10330000BFFDE22069460E268DE83100CDE9034677
:103310003846FFF7B5FD41F6880069468DE8310073
:103320001A48CDE90346FFF7ABFD0320184F8DE89F
:10333000310009206946CDE903403846FFF7A0FD7A
:103340004FF4184069468DE831001248CDE9034634
:10335000FFF796FD4FF4474069468DE83100CDE90F
:1033600003463846FFF78CFD600269468DE8310060
:103370000948CDE90346FFF783FD35B0F0BD0000F5
:10338000001000504445025800080258000002583E
:103390000004025800100258000C0258134A4178E9
:1033A0001160111D03780A1DE3B143680B60017BB6
:1033B000C37A090741EA0361837A41EAC341437B47
:1033C00041EA8341837B41EA4341C37B41EA0341B4
:1033D000437A41EA0321037A007841EA4301014339
:1033E00011607047002008601060704798ED00E0A1
:1033F000BFF35F8F0448016821F480310160024906
:10340000002070310860704724ED00E0074940F06B
:103410000100086005487038016841F4803101609E
:10342000BFF34F8FBFF36F8F7047000094ED00E044
:10343000074882B0016841F0020101600068002283
:103440000F2100F002000090901E02B000F010B8B2
:1034500054450258002809DB012100F01F02914069
:103460004009800000F1E020C0F800117047000022
:103470000E4BF0B41B68C3F30223C3F10704042C02
:1034800000D904241D1D072D01D2002300E0DB1EFE
:10349000012606FA04F56D1E0D409D409E40761EE5
:1034A000164045EA0601F0BC05F0B4BD0CED00E0A5
:1034B000064A00F0070110684FF6FF03184040EA83
:1034C0000120034908431060704700000CED00E044
:1034D0000000FA052DE9F04F0C4601688246FB48D2
:1034E0004FF0000981424F468DB002D100250120E6
:1034F00001E001250020EB460026804606EB460150
:10350000761C0BEBC101F0B203F034FE20B10820B1
:103510004FF00109CAF85800F6B2022EEED3B9F105
:10352000000F7DD1DFF8A4E3DEF80000C00707D06C
:10353000DEF8001021F00101CEF8001047F001077D
:10354000E3480068C00706D0E148016821F00101A6
:10355000016047F00207DF4B05EB45025E460BEBCF
:10356000C201886803EB8000D0F800C42CF4807C92
:10357000C0F800C4DFF860A3DAF800005FEAC07C9E
:103580004FF0010032D0DAF8002022F00102CAF830
:103590000020B8F1000F58D0069903EB8101D1F853
:1035A000002442F00202C1F80024079939B103EB6C
:1035B0008101D1F8002442F02002C1F800240999C9
:1035C00049B120EA010103EB8101D1F8042442F45E
:1035D0008022C1F804240A99B9B320EA010103EB5F
:1035E0008101D1F8042442F080622CE056F83220A8
:1035F0005AB303EB8202D2F800C42CF0010CC2F8DB
:1036000000C44A683AB103EB8202D2F800C42CF03D
:10361000100CC2F800C4CA685AB120EA020200E0E5
:103620004FE103EB8202D2F804C42CF4803CC2F8D0
:1036300004C4096949B120EA010103EB8101D1F811
:10364000042422F08072C1F8042408EB4802D4F864
:1036500000C0CDF830C05BF83260B44518D00BEB39
:10366000C201D4F804C0D1F80480C44510D0D4F805
:1036700008C0D1F80880C4450AD0D4F80CC0D1F8ED
:103680000C80C44504D0D4F810C009698C4551D1D0
:103690000C99B14219D10BEBC201D4F804C0D1F896
:1036A0000480C44511D1D4F80CC0D1F80C80C445B5
:1036B0000BD1D4F810C009698C4506D1DAF8002086
:1036C00042F00102CAF8002034E003EB8601D1F891
:1036D000006426F00106C1F800640BEBC2014A68E1
:1036E0003AB103EB8202D2F8006426F01006C2F869
:1036F00000648A6803EB8202D2F8006426F48076C4
:10370000C2F80064CA684AB120EA020203EB8202EE
:10371000D2F8046426F48036C2F80464096949B119
:1037200020EA010103EB8101D1F8042422F0807228
:10373000C1F80424A16803EB8101D1F8002422F42C
:10374000407242EA452242F48072C1F80024616965
:103750005246DAF800C04E1ECCF3074C664508D935
:103760001668DFF878C126F47F060CEB01410E43A2
:1037700016601168C907216803EB8101D1F80024A4
:1037800022F003023DD0521CC1F80024616849B107
:1037900003EB8101D1F8002422F0300242F0100244
:1037A000C1F80024E168CA030AD520EA010103EB4D
:1037B0008101D1F8042422F4E02242F480320AE0AC
:1037C00059B120EA010103EB8101D1F8042422F070
:1037D000E06242F08072C1F804242169CA0307D56F
:1037E000884303EB8000D0F8041421F4E02148E082
:1037F000F1B3884303EB8000D0F8041421F0E061BA
:103800004CE000EB45063243C1F80024616859B131
:1038100003EB8101D1F8002422F0300242EA451284
:1038200042F01002C1F80024E168CA030CD520EA76
:10383000010103EB8101D1F8042422F4E02242EAE1
:10384000854242F480320CE069B120EA010103EBC9
:103850008101D1F8042422F0E06242EA856242F05C
:103860008072C1F804242169CA030DD5884300E0A1
:1038700018E003EB8000D0F8041421F4E02141EAC1
:10388000854141F440310BE061B1884303EB800096
:10389000D0F8041421F0E06141EA856141F0407103
:1038A000C0F80414F80705D0DEF8001041F001015B
:1038B000CEF80010B80704D50548016841F00101B1
:1038C00001600DB04846BDE8F08F00000050005286
:1038D00000A0005200B0005200B400520000FFFFF0
:1038E000F8B516460D460446FFF7BCFB0746606D6B
:1038F000022804D0142807D0242809D00DE0E0685D
:10390000B0F1806F0DD108E02868022809D002E0EC
:103910002868012805D0032803D001201021A165C3
:10392000F8BD00223B4620212046009603F06CFDA6
:103930000028F5D1A0652946204603F089FC00281F
:10394000EED1A96B61B129680422A1B1012914D07B
:103950000229E5D1616D14290DD024216165F8BDDE
:1039600001223B4602212046009603F04DFD2268CD
:1039700002215162F8BD6265F8BD616D2429FAD05B
:103980001421EBE7F8B500250446FFF76BFB06466C
:1039900024B10020A065606D10B16FE001256DE0DD
:1039A000204600F0A5F841F28830E065208A354ACB
:1039B000E16802EB0040636B01436069121202EBA5
:1039C000002040EA03100143A06B0143E06901437A
:1039D000206883682C4D2B40194381602068C168A2
:1039E000236A21F4E0211943C160218EE06B40EA93
:1039F0000140216808612168206C486120680168E5
:103A0000636821F4F85102EB032211430160E06D79
:103A10000022202133460090204603F0F5FC0500EB
:103A20002CD12068C168626A21F0FF01521E114347
:103A3000C16020680168A26821F040011143016063
:103A4000D4E90A1001432068D0F8082122F0A042EE
:103A50001143C0F808112068016841F001010160BC
:103A6000A069022804D12068816841F002018160C8
:103A7000E068B0F1806F03D0022060652846F8BD91
:103A80000120FAE70000FFFF84F8E0F8F8B50D46E2
:103A90000446FFF7E7FA0346606D1026042802D0BB
:103AA0000120A665F8BDE06D00222021009020468F
:103AB00003F0AAFC0028F5D188216165296808294E
:103AC0000AD122686968C2F8301121684E62216803
:103AD0000A6842F480120A6021682A680B68034C65
:103AE000234043F040531A430A60F8BDF7FFFFCF6D
:103AF0002DE9F041B4B0044614212EA8FCF79CFC3B
:103B0000B8216846FCF798FC36492068884265D1A0
:103B10004FF00070009000246846129400F04CFCB6
:103B200008B1FDF769FA3048016841F400110160FD
:103B3000016801F400113391016841F48041016092
:103B4000006800F48040339027480C30016841F051
:103B500010010160016801F010013391016841F02A
:103B600002010160016801F002013391016841F036
:103B700008010160006809274FF00408CDF8B880FB
:103B800000F00800022503263196CDE9327017486F
:103B90002EA9CDE92F54FFF773F9CDE92E8530AA70
:103BA000DFF84C802EA9404682E8D000FFF768F984
:103BB0004FF4605030AACDE92E050E482EA982E8B8
:103BC000D000FFF75DF940203094CDE92E050A20A2
:103BD0002EA9CDE931604046FFF752F934B0BDE877
:103BE000F081000000500052344502580010025885
:103BF00000040258000C02582DE9F84316460F46FF
:103C00000446FFF72FFA8046206800F15005816CCA
:103C1000D0F810213FB1636D042B07D00120102193
:103C2000A165BDE8F88301200821F9E7036C5B1C5E
:103C3000E364E36CA3646764036823F0405343F0D8
:103C400080530360E068B0F1806F206804D0D0F842
:103C5000003113F4E06F01D0816401E0C0F810215D
:103C60000122062143462046009603F0CDFB0028A2
:103C7000D7D12878616C0870606C401C6064E06C7F
:103C8000401EE064E06C0028EAD101224346022194
:103C90002046009603F0B8FB0028C2D1226802211A
:103CA00051626165BDE72DE9F84316460F460446AB
:103CB000FFF7D8F98046206800F150053FB1616DEB
:103CC000042907D001201021A165BDE8F883012057
:103CD0000821F9E7016C491CE164E16CA1646764A7
:103CE000016821F040510160012243460421204631
:103CF000009603F089FB0028E7D1606C00782870FB
:103D0000606C401C6064E06C401EE064E06C002865
:103D1000EAD10122434602212046009603F074FBBB
:103D20000028D2D12268022151626165CDE70000EE
:103D3000124970B50A68D243520705D5096801F0E7
:103D40000701814212D117E00A6822F007020243FC
:103D50000A60FFF787F9094D4FF47A760446083D6B
:103D600006E0FFF77FF9001BB04201D9012070BDCA
:103D70002868C0438004F4D4002070BD0C48025869
:103D80000248016841F480710160704700480258A0
:103D900010B501F07FF805490968054AC1F3021121
:103DA000515C01F01F01C84010BD000020440258C2
:103DB0006CF500084F4910B50A68096802F0030263
:103DC0004C4B1B1DC1F305111B684A4C03F001034A
:103DD0000C3424680029C4F3CC0414FB03F300EE74
:103DE000103AB8EE400A7FD09FED431A9FED432A68
:103DF000404BF7EE000A083322B1012A66D0022AAE
:103E000022D16AE03B4A283A1468A4061CD51268FD
:103E1000C2F3C1043A4AE24001EE902AF8EE612A68
:103E200001EE901AF8EE611A196882EEA12AC1F328
:103E3000080101EE901AF8EE611A40EE011A31EE17
:103E4000A00A22EE000A12E001EE901A1968F8EEBC
:103E5000611AC2EE212AC1F3080101EE901AF8EEB0
:103E6000611A40EE011A31EEA00A22EE800A1968AA
:103E7000C1F3462101EE101AB8EE411A31EE201AB4
:103E8000C0EE011ABCEEE11A80ED001A1968C1F308
:103E9000064101EE101AB8EE411A31EE201AC0EEBA
:103EA000011ABCEEE11A80ED011A1968C1F306612E
:103EB00001EE101AB8EE411A71EE200A80EE201AB7
:103EC000BCEEC10A80ED020A10BD0DE001EE901AB1
:103ED000DFED0C2AF8EE611AA6E701EE901ADFED8D
:103EE0000A2AF8EE611A9FE70021016041608160B3
:103EF000EAE7000028440258000000390024744C0E
:103F00000090D0030024744A20BCBE4B484910B531
:103F10000A68096802F00302454B1B1DC1F3053115
:103F20001B68434C1434C3F300132468C4F3CC045B
:103F300014FB03F300EE103AB8EE400AE9B33C4B31
:103F40009FED3C1A1033F7EE000A62B1DFED3A1A2A
:103F5000012A01D0022A5ED002EE101AF8EE422A9F
:103F600081EEA22A1AE0324A283A1468A4060DD536
:103F70001268C2F3C104314AE24001EE902AF8EE21
:103F8000612A01EE901AF8EE611A05E001EE901A2E
:103F9000DFED2B2AF8EE611A82EEA12A1968C1F32F
:103FA000080101EE901A1968F8EE611A40EE011A44
:103FB00031EEA00A22EE000A00E033E0C1F3462110
:103FC00001EE101AB8EE411A31EE201AC0EE011AB5
:103FD000BCEEE11A80ED001A1968C1F3064101EE4A
:103FE000101AB8EE411A31EE201AC0EE011ABCEEDA
:103FF000E11A80ED011A1968C1F3066101EE101A89
:10400000B8EE411A71EE200A80EE201ABCEEC10A09
:1040100080ED020A10BD01EE901ADFED0A2AF8EEDB
:10402000611AB9E7002101604160816010BD0000A4
:1040300028440258000000390024744A0090D0033C
:104040000024744C20BCBE4B484910B50A6809686E
:1040500002F00302454B1B1DC1F305511B68434C85
:104060001C34C3F300232468C4F3CC0414FB03F30F
:1040700000EE103AB8EE400AE9B33C4B9FED3C1A13
:104080001833F7EE000A62B1DFED3A1A012A01D0C7
:10409000022A5ED002EE101AF8EE422A81EEA22A1F
:1040A0001AE0324A283A1468A4060DD51268C2F301
:1040B000C104314AE24001EE902AF8EE612A01EE95
:1040C000901AF8EE611A05E001EE901ADFED2B2A46
:1040D000F8EE611A82EEA12A1968C1F3080101EE17
:1040E000901A1968F8EE611A40EE011A31EEA00A32
:1040F00022EE000A00E033E0C1F3462101EE101A7F
:10410000B8EE411A31EE201AC0EE011ABCEEE11AE7
:1041100080ED001A1968C1F3064101EE101AB8EEDD
:10412000411A31EE201AC0EE011ABCEEE11A80ED00
:10413000011A1968C1F3066101EE101AB8EE411AAE
:1041400071EE200A80EE201ABCEEC10A80ED020A50
:1041500010BD01EE901ADFED0A2AF8EE611AB9E7F8
:10416000002101604160816010BD000028440258B8
:10417000000000390024744A0090D0030024744CDD
:1041800020BCBE4B2DE9F04F884B4FF48079864917
:104190000246DFF8148289B085481C11DFF814C28A
:1041A0005F0450394A45A8F104054FF080562ED1DE
:1041B000D8F8002002F00702052A24D2DFE802F036
:1041C000EF9F6A25940003A8FFF7F4FD049809B057
:1041D000BDE8F08F6846FFF799FE0098F7E706A85C
:1041E000FFF732FF0698F2E70868C0F3C10023FA30
:1041F00000F0ECE70B68DB0569D5B24267D12046D9
:10420000E5E7BA42E3D00020E1E76046DFE74FF49C
:10421000007A524510D1D8F8002002F4E072802ACA
:1042200038D004DC002A51D0402AECD167E0C02A03
:10423000EBD04A45E7D157E04FF480694A4511D1A8
:10424000D8F8002002F460624A4523D003DCEAB3C8
:104250005245D8D153E0B2F5C06FD6D0B2F5006F59
:10426000D1D141E04FF480594A454FF4804B15D1EC
:10427000D8F8002002F4E042B2F5005F0AD003DC77
:1042800022B34A45BFD13AE0B2F5405FBDD05A45AE
:10429000B9D129E008688000B5D5A0E7DFF808911A
:1042A000B2F5002F4FF4803A09F1080912D05245B7
:1042B00035D1286810F4803071D05045A3D10868FA
:1042C0000001A0D56846FFF721FE01E067E022E08B
:1042D00002987CE7D9F8002012F440320FD0524502
:1042E00011D0B2F5003F8ED12A680D6802F040521D
:1042F0006D077FF57FAF002A7FF47CAF74E7086815
:10430000000180D566E708688000C5D506A8FFF7DC
:104310009BFE08985BE709688903BDD571E75A459C
:104320002DD1D9F8002002F0E04232F0704590D152
:104330001217072ABFF467AFDFE802F0052D0D154D
:10434000191D040061E7FFF723FD40E76846FFF70A
:10435000DDFD01983BE7086880009DD506A8FFF7C2
:1043600073FE079833E70868400795D53CE708686F
:10437000C00591D543E709688903AAD443E7B2F59C
:10438000004FFBD1D8F8002012F04052F3D0B242D7
:1043900005D0BA42F2D108680001D7D433E70868E3
:1043A0008001EBD50FE70000504402580090D00385
:1043B00040787D010080BB002DE9F84F044600687D
:1043C00000252E46010104F12400FE4FDFF8F8839A
:1043D00000901DD5A06E50B1B0F5801F0CD0B0F587
:1043E000001F0ED0B0F5401F1DD001250FE038682A
:1043F00040F40030386016E00221201D03F044F83C
:1044000003E00098022103F0C9F805000BD02E4606
:104410002088C00523D5606D05281ED2DFE800F096
:104420000C11161B1B00D8F80010A26E21F44011CD
:104430001143C8F80010EBE7386840F400303860EA
:1044400009E00021201D03F01FF803E0009800217F
:1044500003F0A4F805467DB100E001252E46208832
:1044600080052BD5A06DC02826D00EDCA8B1402831
:1044700018D080280FD11AE0D8F80010626D21F012
:1044800007011143C8F80010E9E7B0F5807F13D0A9
:10449000B0F5A07F10D001250FE0386840F400305F
:1044A000386009E00021201D02F0EEFF03E00098D3
:1044B000002103F073F8054685B12E46208840059B
:1044C0002ED5E06DB0F5C06F28D010DCB8B1B0F5D6
:1044D000007F19D0B0F5806F0FD11AE0D8F8001026
:1044E000A26D21F4E0711143C8F80010E6E7B0F5C1
:1044F000006F13D0B0F5206F10D001250FE03868A1
:1045000040F40030386009E00021201D02F0BCFFBB
:1045100003E00098002103F041F805467DB12E46E6
:104520002068DFF8A8B280011ED5A06CD0B1102899
:104530000ED0202811D0302814D0012513E0D8F84F
:104540000010E26D21F460611143C8F80010E7E744
:10455000386840F40030386004E00221201D02F089
:1045600093FF05466DB12E462088C0042BD5206EE2
:10457000B0F5005F20D00DDCA0B1B0F5805F0FD1A9
:1045800015E0DBF80010A26C21F030011143CBF8EC
:104590000010E9E7B0F5405F13D0B0F5804F10D0C0
:1045A00001250FE0386840F40030386009E0002150
:1045B000201D02F069FF03E00098002102F0EEFFE9
:1045C000054685B12E462088800429D5606EB0F559
:1045D000403F23D010DC08B3B0F5803F14D0B0F5D5
:1045E000003F0FD115E0D8F80010226E21F4E04111
:1045F0001143C8F80010E6E7B0F5802F0ED0B0F5F3
:10460000A02F0BD001250AE00121201D02F03CFF64
:1046100003E00098012102F0C1FF05465DB12E467E
:104620002088DFF8ACA1400425D5D4F8AC0030F0E8
:10463000704109D01DE0D8F80010626E21F4E0212D
:104640001143C8F80010EBE70017072811D2DFE884
:1046500000F00E04090E0E0E0E000121201D02F0C6
:1046600013FF03E00098012102F098FF05467DB199
:1046700000E001252E46208800041FD5606FD8B1C8
:10468000B0F1805F0ED0B0F1005F10D0012514E0D2
:10469000DAF80010D4F8AC2021F0E0411143CAF858
:1046A0000010E8E7386840F40030386004E0012189
:1046B000201D02F0E9FE05466DB12E462068C001BE
:1046C0001ED5606CD0B101280ED0022811D003286D
:1046D00014D0012513E0D8F80010626F21F040518A
:1046E0001143C8F80010E9E7386840F4003038603A
:1046F00004E00221201D02F0C7FE054665B12E46EA
:10470000206840024FD53348016841F48071016050
:10471000FEF7A8FC81460EE0DBF80010626C21F089
:1047200003011143CBF80010EAE7FEF79BFCA0EB76
:10473000090064282ED827480068C005F5D555BB68
:10474000234818300068B4F8B01000F4407001F449
:10475000407188420DD01E4818300168026821F46B
:10476000407142F480320260026822F480320260BA
:104770000160D4F8B000B0F5807F31D1FEF772FC53
:10478000814609E0FEF76EFCA0EB090141F288309A
:10479000814201D9032505E00D48183000688007E3
:1047A000F0D5EDB12E462078DFF82C90C00749D027
:1047B000D4F88000182843D032DC80B3082835D0E4
:1047C00010280BE02C440258504402584C44025824
:1047D00058440258004802585444025824D12AE050
:1047E000D4F8B000C0F3012103290ED0FD480168C0
:1047F00021F47C510160FB4860300168B4F8B020BE
:10480000C2F30B0211430160CDE7F6490A68F64B8B
:1048100022F47C5203EA101002430A60EBE70FE037
:1048200020280DD028280BD001250AE00121201DC9
:1048300002F02AFE03E00098012102F0AFFE0546D7
:104840005DB12E46207880071FD5E06F06281AD26A
:10485000DFE800F0170D12171717D9F80010D4F879
:10486000802021F038011143C9F80010EAE7012146
:10487000201D02F009FE03E00098012102F08EFEE7
:10488000054675B100E001252E46207840071FD56A
:10489000D4F89800062819D2DFE800F0160C11169B
:1048A0001616D9F80010E26F21F007011143C9F87C
:1048B0000010EAE70121201D02F0E6FD03E0009868
:1048C000012102F06BFE05469DB100E001252E4658
:1048D000207880062BD5D4F89400B0F1405F24D026
:1048E00011DC10B3B0F1805F15D0B0F1005F10D1D2
:1048F00016E0DAF80010D4F8982021F007011143EF
:10490000CAF80010E4E7B0F1804F0ED0B0F1A04F2C
:104910000BD001250AE00021201D02F0B5FD03E0C7
:104920000098022102F03AFE05468DB12E4620780D
:1049300040062BD5D4F8A000B0F5406F24D011DC90
:1049400010B3B0F5806F15D0B0F5006F10D116E040
:10495000D9F80010D4F8942021F0E0411143C9F8AF
:104960000010E4E7B0F5805F0ED0B0F5A05F0BD08B
:1049700001250AE00021201D02F086FD03E00098D9
:10498000022102F00BFE05468DB12E46207800066E
:104990002BD5D4F8A400B0F5C04F24D011DC10B34F
:1049A000B0F5005F15D0B0F5804F10D116E0DAF801
:1049B0000010D4F8A02021F4E0511143CAF80010EF
:1049C000E4E7B0F5004F0ED0B0F5204F0BD0012535
:1049D0000AE00021201D02F057FD03E000980221AB
:1049E00002F0DCFD05464DB12E46207800071ED5AD
:1049F000D4F88800B0F5805F0AD00FE0DAF8001034
:104A0000D4F8A42021F460411143CAF80010ECE767
:104A10000098022102F0C2FD00B10126D9F8001071
:104A2000D4F8882021F440511143C9F800102078AF
:104A3000C00613D5D4F89C00B0F5807F05D100984E
:104A4000022102F0ABFD00B10126DAF80010D4F823
:104A50009C2021F440711143CAF800102068000323
:104A600016D5D4F8A80038B1B0F5803F09D0B0F51C
:104A7000003F0BD001250AE00021201D02F004FDBB
:104A800003E00098022102F089FD054685B12E461B
:104A90002068400322D5D4F88C00B0F5801F11D0D7
:104AA000B0F5001F13D0B0F5401F15D0012514E05C
:104AB000DAF80010D4F8A82021F440311143CAF8E4
:104AC0000010E5E7386840F40030386004E00098F2
:104AD000012102F063FD054655B12E462068C00352
:104AE0001CD5E06C70B1B0F5803F10D0012514E00A
:104AF000D9F80010D4F88C2021F440111143C9F8E2
:104B00000010EBE7386840F40030386004E0022120
:104B1000201D02F0B9FC0546D5B12E462068800064
:104B200005D50098022102F039FD00B10126206868
:104B300080031CD5D4F88400B8B1B0F5807F10D0C4
:104B4000B0F5007F11D0B0F5407F0ED001250DE00B
:104B5000DBF80010E26C21F480311143CBF8001037
:104B6000DCE7386840F400303860FDB32E4620683A
:104B7000C00207D5D8F80010A26F21F00041114300
:104B8000C8F800102068800207D5D8F80010E26E3F
:104B900021F080711143C8F800102088000507D566
:104BA000DAF80010226F21F000611143CAF80010FA
:104BB0002068400009D50B48016821F400410160DC
:104BC0000168D4F8B420114301602068002807DA96
:104BD000DBF80010226D21F040511143CBF800109A
:104BE000206804E010440258CFFFFF000EE00002EE
:104BF00008D5D9F80010D4F8902021F440011143D1
:104C0000C9F8001066B10120BDE8F88FD9F800108E
:104C1000D4F8842021F440711143C9F80010A6E7AC
:104C20000020F1E72DE9F05F04000D467ED0DFF8AB
:104C30004492D9F8000000F00F00A8420CD2D9F835
:104C4000001021F00F012943C9F80010D9F8000025
:104C500000F00F00A84269D12078874E40070AD59E
:104C60002069316801F07001884204D9316821F06F
:104C70007001014331602078DFF8008200070CD515
:104C800060694146D8F8002002F07002904204D9D1
:104C90000A6822F0700202430A602078C0060CD530
:104CA000A0694146D8F8002002F4E062904204D99D
:104CB0000A6822F4E06202430A602078DFF8C0B19B
:104CC00080060CD5E0695946DBF8002002F070023E
:104CD000904204D90A6822F0700202430A602078E8
:104CE00080070AD5E068316801F00F01884204D9D5
:104CF000316821F00F01014331602078C0073DD0B9
:104D00003068A16820F47060084330605A496068D8
:104D10001839022818D0032819D00968012819D099
:104D20004907002949DADFF850A100E045E0AAF17F
:104D3000080ADAF8001021F007010143CAF8001050
:104D4000FEF790F9074611E009688903E9E7096869
:104D50008901E6E7C905E4E7FEF784F9C11B41F2E2
:104D60008830814202D90320BDE8F09FDAF80000C4
:104D7000616800F03800B0EBC10FEDD120788007FA
:104D80000AD5E068316801F00F01884204D2316829
:104D900021F00F0101433160D9F80010484601F0BD
:104DA0000F01A9420BD9016821F00F0129430160CD
:104DB000006800F00F00A84201D00120D4E720785D
:104DC00040070AD52069316801F07001884204D299
:104DD000316821F0700101433160207800070CD563
:104DE00060694146D8F8002002F07002904204D277
:104DF0000A6822F0700202430A602078C0060CD5CF
:104E0000A0694246D8F8001001F4E061884204D25B
:104E1000116821F4E06101431160207880060CD50F
:104E2000E0695946DBF8002002F07002904204D29B
:104E30000A6822F0700202430A6000F071F83168DB
:104E4000C1F303220F498A5C02F01F02D04032688E
:104E500002F00F02895C0C4A01F01F0120FA01F1F7
:104E600011600A4908600A480068BDE8F05FFEF773
:104E700035B9000000200052184402581C44025862
:104E8000204402586CF500080400002000000020B7
:104E90000400002400B500F043F80B4A11681268C2
:104EA000C1F303230949CB5C03F01F03D84002F090
:104EB0000F02895C064A01F01F0120FA01F111601E
:104EC000044A1060084600BD184402586CF50008FA
:104ED000040000200000002000B5FFF7DBFF0549BB
:104EE0000968054AC1F30211515C01F01F01C84075
:104EF00000BD00001C4402586CF5000800B5FFF727
:104F0000C9FF05490968054AC1F30221515C01F056
:104F10001F01C84000BD00001C4402586CF5000889
:104F2000434830B50068444C10F03801414808D07F
:104F30000211082903D010290BD018290BD01046D4
:104F400030BD21688906FBD52168C1F3C101C84085
:104F500030BD3A4830BD364918310A68096802F058
:104F60000302334B1C33C1F305111B68304D03F0B2
:104F7000010324352D68C5F3CC0515FB03F300EEC2
:104F8000103AB8EE400AE9B3294BDFED2D0A203381
:104F9000B7EE001A62B1DFED2B1A012A01D0022A06
:104FA0003CD002EE101AF8EE422A81EEA22A17E057
:104FB000226892060CD52268C2F3C102D04001EEED
:104FC000900AF8EE612A01EE901AF8EE611A05E0F7
:104FD00001EE901ADFED1C2AF8EE611A82EEA12A8A
:104FE0001868C0F3080001EE900A1868F8EE611A1C
:104FF00040EE201A31EE810A22EE000AC0F346206C
:10500000401C00E011E000EE900AF8EE600A80EE2D
:10501000201ABCEEC10A10EE100A30BD01EE901A43
:10502000DFED0A2AF8EE611AD8E7002030BD000053
:10503000104402580090D0030044025840787D018B
:10504000000000390024744A0024744C20BCBE4B7C
:10505000F0B51E4B032715460C4600211C4E0222BC
:105060000028186887B019D040F00400186018684C
:1050700000F00400059010020090CDE90121CDE977
:10508000037114486946FDF7FBFE306844EAC51118
:1050900020F07E400843306007B0F0BD40F00100D2
:1050A0001860186800F0010005904FF480700090BF
:1050B000CDE90121CDE9037107486946FDF7E0FE1E
:1050C00030682C4320F0FE702043E4E7404502584E
:1050D0001044025800080258000002582DE9F04719
:1050E00004007DD02078DFF8F493FD4EFD4DC0071D
:1050F00066D0D9F80000316800F03800102822D0BE
:10510000182803D101F0030002281CD06068B0F514
:10511000803F1FD010B3B0F5A02F2BD0B0F5A81F43
:1051200028682FD020F480302860286820F4802060
:105130002860286820F480102860606898B3FDF724
:1051400091FF07462BE02868800339D56068002866
:10515000C7D035E0286840F48030EDE7286820F4B7
:1051600080302860286820F480102860286820F4A7
:105170008020E1E7286840F480202860286820F437
:10518000801005E040F480202860286840F48010FA
:105190002860DFE7FDF766FFC01B642874D8286825
:1051A0008003F7D50CE0FFE7FDF75CFF074604E05E
:1051B000FDF758FFC01B6428F0D828688003F7D497
:1051C0002078800741D5D9F80000316810F0380008
:1051D000DFF8148310D0182801D188070CD000E024
:1051E000D8E0E06808B3296821F01901014329607B
:1051F000FDF738FF074614E02868400702D5E0684D
:105200000028A5D0D8F80010227C21F0FE4141EA08
:105210000261C8F8001018E0FDF724FFC01B022847
:10522000BCD828684007F7D5ECE7286820F00100D3
:105230002860FDF717FF074604E0FDF713FFC01BCA
:105240000228ABD828684007F7D42078C00645D597
:10525000D9F80000316800F03800DFF880820828B3
:10526000A8F1040811D0182803D101F00300012887
:105270000BD0E0690028286821D040F08000286029
:10528000FDF7F0FE074616E0DCE02868C00502D511
:10529000E06980287ED1D8F8001094F8202021F011
:1052A0007C5141EA0261C8F8001017E0FDF7DAFE10
:1052B000C01B0228B4D82868C005F7D5EBE720F05A
:1052C00080002860FDF7CEFE074604E0FDF7CAFE29
:1052D000C01B0228A4D82868C005F7D4207800078E
:1052E00028D57F4960694C310028884608460968FE
:1052F00010D041F001010160FDF7B4FE074604E063
:10530000FDF7B0FEC01B02288AD8D8F8000080073D
:10531000F6D50FE021F001010160FDF7A3FE07467D
:1053200004E0FDF79FFEC01B02288AD8D8F80000D1
:105330008007F6D42078800622D5A0690028286846
:105340000FD040F480502860FDF78CFE074604E043
:10535000FDF788FEC01B022874D828688004F7D5A2
:105360000EE020F480502860FDF77CFE074604E044
:10537000FDF778FEC01B022864D828688004F7D4A3
:10538000207840076DD5DFF86481D8F8001041F42B
:10539000807100E02AE1C8F80010FDF763FE0746BF
:1053A00004E0FDF75FFEC01B64284BD8D8F800006E
:1053B000C005F6D54A4FA0684837012818D0D8B1A3
:1053C000052825D0852838682AD020F001003860CB
:1053D000386820F004003860386820F080003860B9
:1053E000A06841F2883A70B3FDF73CFE804625E0A4
:1053F000386840F00100F2E7386820F001003860BA
:10540000386820F080003860386820F00400E6E753
:10541000386840F004003860386820F0800005E00B
:1054200040F004003860386840F080003860DFE702
:10543000FDF718FEA0EB0801514503D83868800736
:10544000F6D50EE088E0FFE7FDF70CFE804605E0AC
:10545000FDF708FEA0EB080151457DD838688007AC
:10546000F6D4616AC9B3D9F80000DFF87480C0F3DC
:10547000C200032808F108086FD02868022920F02C
:105480008070286003D0FDF7EDFD044683E0FDF752
:10549000E9FD074604E0FDF7E5FDC01B022877D8CB
:1054A00028688001F7D4306840F2F3318843E16A1C
:1054B00040EA0110A16A0843306094F834004FF4C8
:1054C000FE02218E4002491EA0F5007080B2C1F399
:1054D00008010843218F491E0AE089E01044025860
:1054E0002844025800440258044402580048025814
:1054F00002EA0141084394F83C101202491E02EAF4
:1055000001610843C8F800003A48016821F0010130
:105510000160384908310A684FF6F8739A43A36C62
:1055200042EAC3020A600168226C21F00C011143B7
:1055300001600168626C21F00201114301600168A1
:1055400041F480310160016841F40031016001687B
:1055500041F48021016001E01AE020E0016841F09F
:1055600001010160286840F080702860FDF77AFD35
:10557000044604E0FDF776FD001B022808D82868E1
:105580008001F7D534E0FDF76DFD001B022802D93C
:105590000320BDE8F08728688001F4D428E0326851
:1055A000D8F80000012921D0A36A02F00301994232
:1055B0001CD1E16AC2F30512914217D1216BC0F3ED
:1055C0000802491E8A4211D1616BC0F34622491E6E
:1055D00091420BD1A16BC0F30642491E914205D105
:1055E000E16BC0F30660491E814201D00120D0E783
:1055F0000020CEE72C44025810B500680B464168E5
:105600000D480140080CD870C1F304245C7001F00F
:105610003F049C70C1F34231197052B902F048F84E
:10562000D870587802F044F85870987802F040F832
:105630009870002010BD00003FFFFF0010B50B4622
:1056400001688968596001680969C1F30E019960B0
:10565000006801680D480140C1F305401870C1F3AE
:1056600006245C7001F07F049C70890DD97052B9DA
:1056700002F01EF81870587802F01AF858709878EE
:1056800002F016F89870002010BD00007F7F7F00A8
:1056900070B504004FF0010043D094F8250028B9FC
:1056A000002084F82400204600F03EF8022084F810
:1056B00025002168CA20486253202168486220469C
:1056C00001F0FFFF28BB20688169164A1140816103
:1056D000206881696268A369114322691A431143F2
:1056E00081612189E06840EA014021680861204623
:1056F00002F00AF868B921688A6922F060428A617A
:1057000021688A69236A65691A43E3692B431A434E
:105710008A612268FF215162002802D1012184F8A8
:10572000251070BDBFFF8FFB10B5AEB00446B82189
:105730006846FAF781FE0A49206888420ED10002C5
:10574000009080132C906846FEF736FE08B1FBF7F8
:1057500053FC0448016841F4004101602EB010BDC3
:10576000004000587044025870B505460068C16892
:1057700021F0A001C160FDF775FC4FF47A76044674
:1057800006E0FDF76FFC001BB04201D9032070BD9D
:105790002868C0688006F4D5002070BD2DE9F0416E
:1057A000044690F89000002501280FD0012684F8C7
:1057B000906020680168890333D5016821F40031C5
:1057C000016094F89100122803D014E00220BDE893
:1057D000F081D4F8800070B1FCF7CAFA58B1D4F85F
:1057E0008000406D802806D0D4F89400012540F058
:1057F0008000C4F8940094F89100222811D1D4F8C4
:10580000840070B1FCF7B4FA58B1D4F88400406D4C
:10581000802806D0D4F89400012540F08000C4F818
:105820009400206800270761781E2168886120465F
:1058300001F0BCFF00B101252068416841F008017A
:10584000416084F89160284684F89070BFE7704703
:105850002DE9F041044690F8910000286FD02268AD
:105860005169106913680D0707D5050705D5D4F8E8
:105870008C102046BDE8F0410847CD074FF00106E7
:105880000FD0C5070DD0966194F89100222806D05C
:105890000220D4F894100143C4F8941075E001205C
:1058A000F7E78D070AD5850708D502209061D4F85F
:1058B000880000286CD0BDE8F0410047354D8F06C8
:1058C0002ED587062CD520209061D4F8940040F086
:1058D00004002FE0D4F8800070B10565D4F8800092
:1058E000FCF7F8FB40B1D4F8940040F08000C4F815
:1058F00094002046FFF7ABFFD4F88400002847D07F
:105900000565D4F88400FCF7E5FB002840D0D4F806
:10591000940040F0800036E02046FFF73FFF34E07F
:105920004F060DD547060BD540209061D4F8940062
:1059300040F00800C4F894009803EDD5CAE727E0CA
:105940004F0716D5470714D504209061D4F894006A
:1059500040F02000C4F894009803BBD421680020D4
:105960000861411E2268916184F89160A4F87E006C
:105970000BE0C9060CD5C0060AD510209061D4F8FA
:10598000940040F01000C4F894002046FFF75FFF39
:10599000BDE8F0816977000870477047704770472D
:1059A0002DE9F04104460025032084F830004FF42F
:1059B00080724FF4007839B101291FD002290CD030
:1059C000606B40F0006017E0A06D40450DD0904244
:1059D0000BD0A06B012808D010E0A06D404504D08A
:1059E000904202D0A06B012803D1204602F012FBA6
:1059F00020B1606B40F0805060630125FDF732FB01
:105A00000127064604E0FDF72DFB801B401C15D046
:105A1000204600F0D1F90428F5D12068414601F074
:105A200017FF30B1226809499163616B01436163DB
:105A3000012584F830702846BDE8F0814FF0004021
:105A4000606384F830700320F6E70000FF0FE01F6A
:105A50002DE9FC5F04460D460026032084F8300043
:105A6000A06B03285AD0B5F5004F57D00027B5F5E5
:105A7000804F4FF400684FF0806904D005B3606B2D
:105A800040F000603FE0009700210197206802F09D
:105A90000DFA80011CD46946204602F04DFA70BB15
:105AA000019840032DD5B4F844000104206801F0AA
:105AB000A0FE20BB206802211DE0606B384322E07D
:105AC000009700210197206802F0F0F9800101D5CC
:105AD0004746F2E76946204602F02EFA78B9019867
