:020000040800F2
:10000000600D0E2485030008458400088D7C0008DF
:1000100025840008AD0B000809AF000800000000AF
:10002000000000000000000000000000C502000801
:10003000850F0008000000002103000863A10008EC
:100040009F0300089F0300089F0300089F03000808
:100050009F0300089F0300089F0300089F030008F8
:100060009F0300089F0300089F030008FD0C000881
:100070009F0300089F0300089F0300089F030008D8
:100080009F030008090D00089F0300089F03000854
:100090009F0300089F0300089F0300089F030008B8
:1000A0009F0300089F0300089F0300089F030008A8
:1000B0009F0300089F0300089F0300089F03000898
:1000C0009F0300089F0300089F0300089F03000888
:1000D0009F0300089F0300089F0300089F03000878
:1000E0009F0300089F0300089F0300089F03000868
:1000F0009F0300089F0300089F0300089F03000858
:100100009F030008499100089F0300089F0300080F
:100110009F0300089F0300089F0300089F03000837
:100120009F0300089F0300089F0300089F03000827
:100130009F03000800000000000000009F0300086B
:100140009F0300089F0300089F0300089F03000807
:100150009F030008210D00089F0300089F0300086B
:100160009F0300089F0300089F0300089F030008E7
:100170009F0300089F030008790C00089F030008F4
:100180009F0300089F0300081DA300089F030008A9
:100190009F0300089F0300089F0300089F030008B7
:1001A0009F0300089F030008150D0008B990000880
:1001B0009F0300089F0300089F0300089F03000897
:1001C0009F0300089F0300080000000000000000DB
:1001D00000000000000000009F0300080000000075
:1001E000000000000000000000000000000000000F
:1001F00000000000000000009F0300089F030008AB
:100200009F0300089F030008000000009F030008F0
:100210009F0300089F0300089F0300089F03000836
:100220009F0300089F0300089F03000800000000D0
:100230009F0300089F030008000000009F030008C0
:100240009F0300089F0300089F0300089F03000806
:100250009F0300089F0300089F0300089F030008F6
:100260009F0300089F0300089F0300089F030008E6
:100270009F0300089F0300089F0300080000000080
:100280009F0300089F030008000000009F03000870
:10029000000000009F0300089F0300089F03000860
:1002A0009F0300089F0300089F030008DFF810D099
:1002B00000F0DAFA00480047E9060108AFF30080D1
:1002C000600D0E242C4B19680868B0E8F04F80F3DD
:1002D0000988BFF36F8F4FF0000080F311887047DB
:1002E0000000000008480068006880F308884FF0AC
:1002F000000080F3148862B661B6BFF34F8FBFF37E
:100300006F8F00DF00BF00BF08ED00E0DFF80C00DA
:10031000016841F470010160704700BF88ED00E0A2
:10032000EFF30980BFF36F8F134B1A681EF0100FA5
:1003300008BF20ED108A20E9F04F106009B44FF09B
:10034000500080F31188BFF34F8FBFF36F8F12F00F
:1003500007FA4FF0000080F3118809BC196808689B
:10036000B0E8F04F1EF0100F08BFB0EC108A80F319
:100370000988BFF36F8F704740010024EFF30580B9
:10038000704700000648804706480047FEE7FEE742
:10039000FEE7FEE7FEE7FEE7FEE7FEE7FEE7FEE735
:1003A00045A20008AD0200082DE9F05F05460020D7
:1003B00092469B4688460646814640241BE02846D6
:1003C00041464746224600F087F853465A46C01A2F
:1003D000914110D311461846224600F06EF82D1AAE
:1003E00067EB01084F4622460120002100F065F826
:1003F00017EB00094E41201EA4F10104DFDC484642
:1004000031462A464346BDE8F09F40EA01039B0778
:1004100003D009E008C9121F08C0042AFAD203E079
:1004200011F8013B00F8013B521EF9D27047D2B2DD
:1004300001E000F8012B491EFBD270470022F6E7CD
:1004400010B513460A4604461946FFF7F0FF20464A
:1004500010BD421C10F8011B0029FBD1801A704707
:1004600010B5002200E0521C835C8C5CA34201D1D9
:10047000002BF8D1D8B2E1B2401A10BD034611F8F2
:10048000012B00F8012B002AF9D11846704730B52E
:100490000B46014600202022012409E021FA02F542
:1004A0009D4205D303FA02F5491B04FA02F52844DC
:1004B000151EA2F10102F1DC30BD202A04DB203A36
:1004C00000FA02F1002070479140C2F1200320FAA7
:1004D00003F3194390407047202A04DB203A21FAA5
:1004E00002F00021704721FA02F3D040C2F120024D
:1004F00091400843194670472DE9FE4F804681EA36
:100500000300C00F0C46009021F0004123F000458D
:10051000B8EB0200A94105D24046214690461C4650
:100520000B46024623F00040104347D0270DC7F387
:100530000A00C3F30A510290401A019040286BDA76
:10054000C3F3130040F4801B0098924620B10023AF
:10055000D2EB030A63EB0B0B01985946C0F1400242
:100560005046FFF7AAFF06460D4650465946019AE7
:1005700000F08CF910EB08006141002487EA115269
:1005800084EAE7731A4340D0009A62B3019A012AC1
:100590004FEA075215DC001B61EB02014FF00042ED
:1005A00002EA0752CDE90042001C41F580113246B3
:1005B0002B4600F08CF903B0BDE8F08F4046214691
:1005C000F9E7001B61EB0201001C41F580130018E4
:1005D0005B412018A2F5001747EB030140EAD570F4
:1005E000B6196D4111E06D084FEA360645EAC0754F
:1005F0004FEA0752001B61EB0201001C41F580111C
:1006000049084FEA30000019514132462B4603B0E9
:10061000BDE8F04F00F04CB90098012240000023E3
:10062000D0EB020263EBE073009821464FEAE074DE
:10063000B8EB000061EB0401E9E783F000435BE7FE
:1006400081F0004158E72DE9FE4F81EA030404F0F0
:10065000004421F0004100944FF0000B23F00043D0
:1006600050EA01045ED052EA03045BD0C3F30A549B
:10067000C1F30A552C44A4F2F3340194A0FB0254B4
:10068000C1F3130141F48011C3F3130343F4801346
:1006900001FB024400FB034E840A970A44EA81549A
:1006A00047EA8357A4FB076802958D0A05FB078577
:1006B0004FEA932C04FB0C542705029D4FEA065881
:1006C00047EA1637B5EB08056EEB070C870E920E5E
:1006D00047EA811742EA8312A7FB0201B6EB0B013E
:1006E00064EB00042B0D43EA0C335E1844EB1C5002
:1006F000DA465146E7FB0201C5F313044FEA0B3318
:1007000043EA14534FEA0432019C43EA0603A4F17E
:100710000C040294009CCDE900B400F0D8F803B0BA
:10072000BDE8F08F00200146F9E72DE9F04D81EAA0
:10073000030404F0004B21F0004514464FF0000A7A
:1007400023F0004150EA050220D054EA01021DD0F6
:10075000C5F30A570246C5F31303C1F31300C1F3EF
:100760000A5640F4801543F48013A7EB0608101BCB
:10077000D64608F2FD3873EB050002D308F10108F4
:1007800001E092185B41B8F1000F03DA0020014646
:10079000BDE8F08D00204FF48011064684460EE03F
:1007A000171B73EB050705D3121B63EB0503064309
:1007B0004CEA010C49084FEA300092185B4150EABC
:1007C0000107EDD152EA030012D082EA040083EA65
:1007D0000501084305D0101BAB4106D201220023BE
:1007E00006E000224FF0004302E06FF001025310D8
:1007F0001AEB06004CEB085110EB0A0041EB0B0121
:10080000BDE8F04D00F054B8C1F30A52C1F3130132
:1008100040F2FF3341F480119A4202DA002001468F
:10082000704740F233439A42A2F2334202DC524212
:10083000FFF752BEFFF741BE30B5041E71F1000450
:1008400004DB4FF00044404264EB0101141E73F1DD
:10085000000405DB1C464FF00043524263EB0403E7
:10086000994208BF904230BD064C074D06E0E06853
:1008700040F0010394E8070098471034AC42F6D3E7
:10088000FFF718FD205B0108605B0108202A06DBEA
:10089000CB17203A41FA02F043EAE07306E041FA4E
:1008A00002F3D040C2F1200291400843194670473C
:1008B00010B5141E73F1000408DA401C41F1000168
:1008C00092185B411A4301D120F0010010BD2DE9BF
:1008D000F04D92469B4611B1B1FA81F202E0B0FAB6
:1008E00080F220329046FFF7E8FD04460F4640EACA
:1008F0000A0041EA0B0153465A46084313D01146F9
:1009000053EA010019D0C8F140025046FFF7E4FD58
:1009100005460E46504659464246FFF7CEFD08436F
:1009200005D0012004E020463946BDE8F08D0020C6
:10093000054346EAE0762C4337430A986305E40A08
:10094000A0EB08000022FD0A44EA47540A3002D511
:1009500000200146E9E7010510196941DDE9084574
:1009600000196941BDE8F04DA2E770B58C1810F888
:10097000015B15F0070301D110F8013B2A1106D1E4
:1009800010F8012B03E010F8016B01F8016B5B1EFE
:10099000F9D12B0705D40023521E0DD401F8013BD9
:1009A000FAE710F8013BCB1A921C03E013F8015B45
:1009B00001F8015B521EF9D5A142D8D3002070BDC9
:1009C00043F6532CC9F2000C604740F2F11CC9F207
:1009D000000C604710B504462F48006810F4403FF3
:1009E00012D004F091FC6168B1F5803F06D0B1F5FA
:1009F000003F03D0B1F5403F27D103E0090CB0FB25
:100A0000F1F022E0800820E04FF4002003F0AAFC7F
:100A100061688A03920B18D18A140C2A15D2DFE878
:100A200002F0140606060606060B0D0F1113890CBC
:100A30004900B0FBF1F008E0000906E0400904E0DD
:100A4000800902E0C00900E0000A4008134988421A
:100A500005D82068816821F44071816010BD10497B
:100A6000884207D82068816821F4407141F4807180
:100A7000816010BD0B49884207D82068816821F445
:100A8000407141F40071816010BD2068816841F4BB
:100A90004071816010BD000008230240105E5F00BD
:100AA00020BCBE0040787D0110B50024002801D094
:100AB000A41E05E0034805F037FC08B16FF00304FD
:100AC000204610BD0C570D2410B50649C0EB401050
:100AD00001EB800005F03AFC042801D0012010BD94
:100AE000002010BD0C570D2470B50024002801D043
:100AF000A41E1EE000F022F8012802D06FF00604C8
:100B000017E00D4D284609F05FF8284607F0E4FB92
:100B10006FF0030608B134460BE04FF480412846DD
:100B200005F08EFA08B1344603E00221284605F0AC
:100B30001BFA204670BD00000C570D24002802D07F
:100B40006FF001007047012070470000F8B50546BE
:100B50000024642603FB06F0002D01D0A41E06E04D
:100B60000090044805F02EFE08B16FF00304204603
:100B7000F8BD00000C570D2470470000F8B505467D
:100B80000024642603FB06F0002D01D0A41E06E01D
:100B90000090044805F024FF08B16FF003042046DC
:100BA000F8BD00000C570D247047000001A011F0A3
:100BB000E7F9FEE70D0A4275734661756C745F488C
:100BC000616E646C65720D0A00000000F0B5204E85
:100BD000306881034FF0000011D4BFF34F8FBFF393
:100BE0006F8F1C490860BFF34F8FBFF36F8F316861
:100BF00041F400313160BFF34F8FBFF36F8F316825
:100C0000C90324D4124970310860BFF34F8F081F05
:100C10000068C0F34E310F4A43F6FF771032C0F33D
:100C2000C905284607EA411343EA80741460401E50
:100C3000441CF9D1491E481CF3D1BFF34F8F3068D3
:100C400040F480303060BFF34F8FBFF36F8FF0BD43
:100C500014ED00E050EF00E010B5806B816C496D41
:100C6000022906D0012180F83510C16C41F0400105
:100C7000C16400F0DFFD10BD014800F0DDBD0000E3
:100C80000C020024F0B585B01A4E0122082130462E
:100C900002F0CFF9184F4FF400550022294638468C
:100CA00002F0C7F900950024029403940194694668
:100CB000384602F0CBF80820009002940394019487
:100CC0006946304602F0C2F80A2002F0ADF8002270
:100CD0003046082102F0ADF90A2002F0A5F8012201
:100CE0002946384602F0A5F90A2002F09DF805B021
:100CF000F0BD00000010025800080258014801F041
:100D000083BA000028010020014801F07DBA0000EC
:100D100038020020014800F0D7BE00008C040024F7
:100D20000248D0F8800001F06FBA0000A001002056
:100D300010B52C4A016891423AD02A4A18329142A1
:100D400036D0284A3032914232D0264A4832914237
:100D50002ED0244A603291422AD0224A78329142DF
:100D600026D0204A9032914222D01E4AA832914287
:100D70001ED01D4A91421BD01B4A1832914217D0F7
:100D8000194A3032914213D0174A483291420FD05B
:100D9000154A603291420BD0134A7832914207D003
:100DA000114A9032914203D00F4AA832914214D195
:100DB000CAB2103A1823B2FBF3F20C4C02F007034C
:100DC000E35CC365032A04D96FF30901091D81653A
:100DD00006E06FF30901816502E021F0FF01816502
:100DE000806D10BD1000024010040240C43B010899
:100DF00010B501680123224CCAB2A1421BD0204C7D
:100E00001434A14217D01E4C2834A14213D01C4CDC
:100E10003C34A1420FD01A4C5034A1420BD0184C94
:100E20006434A14207D0164C7834A14203D0144C4C
:100E30008C34A1420FD1083A1421B2FBF1F1114ACE
:100E400002EB810202660F4A8032426601F01F0106
:100E50008B40836610BD103A1824B2FBF4F20A4CA2
:100E60002144A82900D80832084901EB8201016613
:100E700006498031416602F01F018B40836610BD38
:100E80000854025800580258F0FBFDBF0008024009
:100E90000279521E072A31D8194B016899421BD09A
:100EA000174B1433994217D0154B2833994213D05E
:100EB000134B3C3399420FD0114B503399420BD016
:100EC0000F4B6433994207D00D4B7833994203D0CE
:100ED0000B4B8C33994207D10A4901EB8201C16661
:100EE00008494031016706E0074901EB8201C1660C
:100EF0000549403101670121914041677047000079
:100F0000085402580059025800090240014610B521
:100F100000208B694FF0C0748A6A002B0ED0B3F5A5
:100F2000005F1AD062B3012A2AD0022A28D0032AED
:100F300003D1C96AC90100D5012010BD1AB1012A27
:100F400006D0022AF9D1C96AC901F6D5012010BD1F
:100F5000C96AA142FBD1012010BD52B1012A0AD0B9
:100F6000022A06D0032AF7D1C96AA142F4D101208E
:100F700010BD012010BDC96AC901FBD5012010BDFB
:100F8000012010BD01A010F0FBBF00000D0A446558
:100F90006275674D6F6E5F48616E646C65720D0AB5
:100FA0000000000003490A68104448600A68904243
:100FB000FCD870474000002070B506460D4632212F
:100FC00030460DF0D7FA00242946012230460DF0B4
:100FD000E2FA6D1C641CE4B21E2CF5D370BD72B62F
:100FE000FEE70022AFF30080034610B50120097828
:100FF0003039C9B2022908D204480024445400EB15
:101000008104636008440273002010BD500D00206D
:10101000F8B5002440A010F0B3FF51480A224BA1BC
:101020000EF032F84F4E307038B14FA010F0A8FFDC
:101030004B480DF015FC0120F8BD4DA010F0A0FFAD
:101040004848401DFFF705FA4649024644486B46AA
:10105000491D0EF0EEF9307038B143A010F090FF4A
:101060003F480DF0FDFB0120F8BD45A010F088FFC2
:101070003C4945A0491D10F083FF39480DF0F0FBB5
:1010800043A010F07DFF3748401DFFF7E2F985B21D
:10109000334801222DA10DF0F7FF30706B46304927
:1010A0002A462F4820390EF0CAF8307038B12EA0E9
:1010B00010F066FF2A480DF0D3FB0120F8BD3FA0D9
:1010C00010F05EFF26482946203807F069FE2548C3
:1010D000234A401D203A0DE0015D135D994207D07F
:1010E00021A010F04DFF1E480DF0BAFB0120F8BD05
:1010F000641CE4B2AC42EFD334A010F041FF1849B5
:1011000021A0203910F03CFF15480DF0A9FB31A0BB
:1011100010F036FF0020F8BD2D2D2D2D2D2D2D2D5D
:101120002D2D2D2D2D4661744673206F70656E2018
:10113000262077726974652D2D2D2D2D2D2D2D2DA9
:101140002D2D2D2D2D2D0D0A00000000303A466169
:101150007446735F546573742E74787400000000D5
:101160000405002018000020657272210D0A00009D
:101170006F6B2C77726974652E2E2E0D0A0000009D
:101180006F6B200D0A00000025730D0A000000009F
:101190002D2D2D2D2D2D2D2D2D2D2D2D2D466174EB
:1011A000467320726561642D2D2D2D2D2D2D2D2D35
:1011B0002D2D2D2D2D2D0D0A000000006F6B2C20E4
:1011C0007665726966792E2E2E0D0A006F6B0D0AF8
:1011D0000000000073646D6D6320616E64206661C1
:1011E00074667320746573742066696E6973682110
:1011F0000D0A0D0A0D0A0D0A000000007CB50D480D
:1012000001AA69460DF03CFB019881694089891E5D
:101210004143009A5043CC0AC50A07A010F0B0FE23
:1012200010A0214610F0ACFE0EA0294610F0A8FE3A
:101230007CBD0000190000202D2D2D2D2D2D2D2DD4
:101240002D2D2D2D2D2D2D2D2D2D2D7072612D2D12
:101250002D2D2D2D2D2D2D2D2D2D2D2D2D2D2D0DDE
:101260000A00000053442025644D420D0A0000008E
:101270002DE9FC5F04460D460026B146CDF80490EA
:10128000DFF850B3DFF850A3DFF8508394F8500034
:10129000012810D0012784F85070206806F092FDD4
:1012A00058B1606D40F020006065012684F85090D0
:1012B0003046BDE8FC9F0220FBE72168CA69286828
:1012C000030329D090FAA0F0B0FA80F000F01F00DC
:1012D00007FA00F00243CA61A98820682A6801F46D
:1012E000407300EB9310036B01F01F014FF01F0CD4
:1012F000C2F384620CFA01FC8A4023EA0C03134314
:101300000363206806F05EFD0090206806F052FD41
:101310000099014303D077E0C0F38460D6E7AA6860
:101320002968206806F052FD2068C168C90606D405
:101330006969C268C2F382025200914005E069699E
:10134000C26802F01002520891402A69042A2CD087
:101350002B6800EB8200026E03F0F8430B4302F0AF
:1013600000421A430266697E20682A69012916D064
:10137000002100EB8200026E22F000420A43026666
:10138000297E20682A6901290CD00021036902F016
:101390001F0223F4F04391400B43036134E04FF00C
:1013A0000041E6E74FF40061F0E7016E2A7801F0B2
:1013B000F841B1EB826F03D1016E21F0004101666B
:1013C0002068416E2A7801F0F841B1EB826F03D1B9
:1013D000416E21F0004141662068816E2A7801F05B
:1013E000F841B1EB826F03D1816E21F0004181663B
:1013F0002068C16E2A7801F0F841B1EB826F03D109
:10140000C16E21F00041C166206806F0D7FC0028BB
:101410007FF44CAF20682A7B296850F8C03FC1F3A5
:10142000130C23EA0C0302F0180C6D4A22FA0CF29A
:101430000A4013430360E868584574D128680103E3
:1014400019D090FAA0F1B1FA81F1491C01F01F0105
:10145000092931D80103002910D090FAA0F1B1FA7E
:1014600081F101F1010101F01F0107FA01F708D133
:10147000C0F3846109E0C0F38461E6E7C0F38461EE
:10148000EFE790FAA0F1B1FA81F101F1010101F069
:101490001F0147EA816102D1C0F3846003E090FA42
:1014A000A0F0B0FA80F000F1010000F01F0000EBA6
:1014B000400041EA005132E04FEA003100290DD0EE
:1014C00090FAA0F1B1FA81F101F1010101F01F01DF
:1014D00007FA01F705D1C0F3846106E0C0F3846127
:1014E000F2E790FAA0F1B1FA81F101F1010101F006
:1014F0001F0147EA816102D1C0F3846003E090FAE2
:10150000A0F0B0FA80F000F1010000F01F00A0F19F
:101510000A0000EB400041EA005040F00071AA6868
:10152000206806F053FC29680029BFF6BFAE2D4A9B
:10153000906800F0E070DAF80830C3F30003D8F8E0
:101540000850C5F300052B4305D0606D40F0200026
:1015500060650126AAE6244B99421BD1030219D4E7
:1015600021684145F6D140F40000916821F0E07116
:10157000014391601D481E490068B0FBF1F0401C1A
:101580004000019002E00198401E0190019800285F
:10159000F9D18BE6174B99420CD1C3010AD42168CB
:1015A0004145D7D140F08070916821F0E07101434E
:1015B00091607BE6104B9942CCD14102CAD421689C
:1015C0004145C7D140F48000916821F0E0710143AA
:1015D00091606BE60000FF470020024000210240BE
:1015E000FFFF0F0000230240000084CB000000201A
:1015F000400D03000040C0BA0000B8CFF8B5044663
:10160000002500260096002C02D0606D10B107E086
:101610000120F8BD204600F0DBF8A66584F8506094
:1016200020688168C1F3407119B181685F4A114037
:10163000816020688168C1F3007199B981685C4A52
:10164000114041F0805181605A485B490068B0FB0D
:10165000F1F0401C009002E00098401E00900098BD
:101660000028F9D120688168C1F3007141B9616D2A
:1016700041F010016165A16D41F00101A1650125F5
:1016800006F0A0FB616DC90600D430B1606D40F07A
:101690001000606501252846F8BD606D20F480705B
:1016A00040F002006065206806F088FB80B943487E
:1016B0008068C0F3000042498968C1F30001084313
:1016C00006D160683F498A6822F47C1202438A602E
:1016D000A168206B0843617D4A03217F42EA0142F1
:1016E0001043012903D1218C491E40EA4140616A1F
:1016F00029B1A26A01F47871014342EA010021682C
:10170000CA68314B1A400243CA60206806F05AFB8F
:101710000646206806F04EFB06431DD1217DE06A97
:1017200040EA81312068C26844F203039A430A43C5
:10173000C26094F8380001281DD02068016921F0AA
:101740000101016120680169626B21F07041114360
:1017500001612046FFF73EF9E06801281DD02068AE
:10176000016B21F00F010163606D20F0020040F079
:10177000010060658FE7A28F0123D4E91010521E8B
:101780000143A06C03EB024210430143206802694D
:101790000E4B1A4011430161D4E72068016BA26926
:1017A00021F00F01521E11430163DDE7C0FFFF5F0F
:1017B000C0FFFF7F00000020400D0300002002401A
:1017C000002102400023024003C0F0FF1EF800FC8D
:1017D00010B5B0B00446B82102A8FEF72FFE134999
:1017E000206888421FD14FF400200290022003900D
:1017F0000B2104910821059106900790C0200890C4
:10180000002009900A902C9002A802F0D9FF08B19C
:10181000FFF7E5FB0648016841F020010160006820
:1018200000F02000019030B010BD00000021024007
:1018300038450258704770472DE9F041044620684A
:1018400005694FF00406234F69070BD54661E06C2C
:1018500040F00200E06484F83560A06C0765A06C7D
:1018600000F080FBA8070DD5216802204861E06CDC
:1018700040F00100E06484F83560A06C0765A06C5E
:1018800000F070FBE80605D521681020486120466D
:1018900000F070F8280705D5216808204861204627
:1018A00000F010F9E80712D020680168890703D515
:1018B000C16821F01E01C1602068C16821F00101EA
:1018C000C1602168012048612046FFF7B4FFBDE8F0
:1018D000F0810000590C000810B50446002C03D01C
:1018E00094F8350010B104E0012010BD204600F04E
:1018F00043F8022084F83500A069002200B162623A
:10190000206801681A4B19400160616860690143F1
:10191000D4E9030318430143A0680143A0690143CC
:10192000206A0143606A0143A06A0143E06A0143FF
:10193000206B014320680368194301606068102828
:101940000BD1617F207FE37F40EA0120A17F090462
:1019500041EA03610843216888612068C16841F059
:101960001E01C160E264012084F83500002010BD32
:1019700007F0E0FF704700002DE9F04186B0064611
:10198000142101A8FEF75AFD4649306888427DD1EE
:101990004548016841F001010160006800F0010064
:1019A00000904149091D086840F01000086008686F
:1019B00000F010000090086840F00100086008681E
:1019C00000F001000090086840F008000860086816
:1019D00000F008000090086840F002000860086805
:1019E00000F0020000907320019002240294002570
:1019F0000395032704974FF00D08CDF814802B486A
:101A000001A901F023FA4FF4CA60019002940395F2
:101A10000497CDF8148001A9254801F017FA082091
:101A20000190029403950497CDF8148001A92148F0
:101A300001F00CFA80200190029403950497CDF8F0
:101A4000148001A91C4801F001FA1D4C1B482060BC
:101A50004B206060A560E5604FF4806020618000ED
:101A600060618000A0618011E061400220626562D7
:101A70000120A062E5622563204600F0BBFF08B1AB
:101A8000FFF7ADFAB464A663002200E006E005218A
:101A90004E2001F0EBFC4E2001F0DAFC06B0BDE870
:101AA000F0810000000002483C4502580010025836
:101AB00000000258000C02580004025810000240B6
:101AC00028010020704770472DE9F0470446206840
:101AD000456806684FF004094FF000074FF0010811
:101AE000E90714D0F10512D5016821F48071016075
:101AF000606E40F0010060662068C0F8088084F8DD
:101B0000619084F86070616A09B120468847A80630
:101B100015D5B00413D52068016821F40051016087
:101B2000216820208860606E40F00200606684F8C2
:101B3000619084F86070616A09B12046884728077F
:101B400015D5300513D52068016821F400610160C6
:101B5000216808208860606E40F00400606684F8A8
:101B6000619084F86070616A09B12046884768070F
:101B70000CD570050AD52068016821F480610160E8
:101B80002068C0F80890204600F02DF8A80713D56B
:101B9000B00511D52068016821F400710160216849
:101BA00002208860606E606684F8618084F86070EE
:101BB000216A09B120468847E80612D5F00410D5FD
:101BC0002068016821F4805101602168102088603C
:101BD000606E606684F8618084F860702046FFF76C
:101BE00072FFBDE8F08770472DE9F84F044601F019
:101BF00027FA00905CB194F83500022809D08020C3
:101C00006065002084F834000120BDE8F88F0120D1
:101C1000FBE7D14ED04FD0491836DFF83C83303740
:101C2000DFF83493DFF830A308F14808DFF828B371
:101C300009F1600920680AF1780A0BF1900B8842DB
:101C40002ED0B0422CD0B8422AD0404528D04845AA
:101C500026D0504524D0584522D0BF4AA8329042C1
:101C60001ED0BE4A90421BD0BC4A1832904217D0B8
:101C7000BA4A3032904213D0B84A483290420FD01C
:101C8000B64A603290420BD0B44A7832904207D0C4
:101C9000B24A9032904203D0B04AA83290420AD160
:101CA000026822F01E0202602068426922F080026F
:101CB0004261256804E0026822F00E020260256895
:101CC000206888424DD0B0424BD0B84249D0404500
:101CD00047D0484545D0504543D0584541D09E4A0D
:101CE000A83290423DD09D4A90423AD09B4A183249
:101CF000904236D0994A3032904232D0974A483298
:101D000090422ED0954A603290422AD0934A78323F
:101D1000904226D0914A9032904222D08F4AA832E7
:101D200090421ED08E4A90421BD08D4A143290426F
:101D300017D08B4A2832904213D0894A3C329042C5
:101D40000FD0874A503290420BD0854A643290427D
:101D500007D0834A7832904203D0814A8C32904235
:101D600004D1206E026822F4807202607A492068F1
:101D700088422ED0B0422CD0B8422AD0404528D03C
:101D8000484526D0504524D0584522D07249A83124
:101D900088421ED0714988421BD070491831884250
:101DA00017D06E493031884213D06C49483188428F
:101DB0000FD06A49603188420BD068497831884237
:101DC00007D066499031884203D06449A8318842DF
:101DD00004D1016821F00101016013E0016821F0E4
:101DE000010101600EE001F02BF90099401A05286D
:101DF00008D9202034342062002020700320607035
:101E0000012002E72868C007EDD1534A012120686C
:101E100090422ED0B0422CD0B8422AD0404528D093
:101E2000484526D0504524D0584522D04A4BA833A7
:101E300098421ED0494B98421BD0484B18339842C9
:101E400017D0464B3033984213D0444B4833984216
:101E50000FD0424B603398420BD0404B78339842BE
:101E600007D03E4B9033984203D03C4BA833984266
:101E700008D1A06D94F85C3003F01F053F23AB4000
:101E8000836007E0A06D94F85C3003F01F0301FA53
:101E900003F34360206890424DD0B0424BD0B8422B
:101EA00049D0404547D0484545D0504543D0584596
:101EB00041D0294AA83290423DD0284A90423AD097
:101EC000264A1832904236D0244A3032904232D0DC
:101ED000224A483290422ED0204A603290422AD084
:101EE0001E4A7832904226D01C4A9032904222D02C
:101EF0001A4AA83290421ED0194A90421BD0184A62
:101F00001432904217D0164A2832904213D0144A05
:101F10003C3290420FD0124A503290420BD0104ABD
:101F20006432904207D00E4A7832904203D00C4A75
:101F30008C3290420BD1D4E919205060E06E30B160
:101F4000026822F480720260D4E91C2050600020F4
:101F500004F8340F617058E610000240100402408B
:101F6000085402582DE9F05F002808D090F8351089
:101F7000022906D0802141650120BDE8F09F0120A3
:101F8000FBE79E4A9D4B9D4C18329C4D30339B4E37
:101F900048349A4F6035DFF864B27836DFF85CE297
:101FA0009037DFF85C82DFF858920EF1A80EDFF868
:101FB00050A208F11808016809F19009DFF840C241
:101FC0000AF1A80A59452ED091422CD099422AD024
:101FD000A14228D0A94226D0B14224D0B94222D071
:101FE000F34659451FD061451DD041451BD0DFF850
:101FF00010B20BF1300B594515D0DFF804B20BF1DC
:10200000480B59450FD0DFF8F8B10BF1600B59457B
:1020100009D0DFF8ECB10BF1780B594503D04945F5
:1020200001D0514536D14FF0040B80F835B07348DC
:10203000814225D0914223D0994221D0A1421FD084
:10204000A9421DD0B1421BD0B94219D0714517D059
:10205000614515D0414513D06948303081420FD0D9
:102060006748483081420BD065486030814207D0D4
:1020700063487830814203D0494501D0514504D1AD
:10208000086820F001000860B6E0086820F0010050
:102090000860B1E0D1F800E02EF00E0EC1F800E0CB
:1020A000DFF858E1016871452DD091422BD099425B
:1020B00029D0A14227D0A94225D0B14223D0B9428C
:1020C00021D0DFF838E10EF1A80E71451BD0614533
:1020D00019D0414517D0DFF828E10EF1300E7145D7
:1020E00011D0DFF81CE10EF1480E71450BD0DFF87E
:1020F00010E10EF1600E714505D0594503D04945F8
:1021000001D0514506D1D1F800E02EF0010EC1F802
:1021100000E005E0D1F800E02EF0010EC1F800E08B
:10212000DFF8D8E00168714544D0914242D099422D
:1021300040D0A1423ED0A9423CD0B1423AD0B942AF
:1021400038D02E4AA832914234D0614532D0414530
:1021500030D02B4A303291422CD0294A4832914219
:1021600028D0274A6032914224D0594522D049458F
:1021700020D051451ED0234A91421BD0214A14320F
:10218000914217D01F4A2832914213D01D4A3C3247
:1021900091420FD01B4A503291420BD0194A6432FF
:1021A000914207D0174A7832914203D0154A8C32B7
:1021B000914218D1016E0A6822F480720A60816D22
:1021C00090F85C2002F01F0301229A404A60D0E997
:1021D00019215160C16E31B10A6822F480720A601F
:1021E000D0E91C215160002180F83410012180F8D1
:1021F0003510016D01B188470020BEE61000024095
:1022000010040240085402582DE9FF5F04460020E4
:1022100001904FF41651FD480068B0FBF1F00090BA
:10222000A56D2E682968FA4FDFF8E4B3DFF8E08384
:10223000DFF8DC930BF1180BDFF8D4A308F13008BA
:10224000206809F148090AF1600AB8423BD05A46B1
:10225000904238D0404536D0484534D0504532D0F1
:10226000EB4A783290422ED0E94A903290422AD0FE
:10227000E74AA832904226D0E64A904223D0E54A67
:10228000183290421FD0E34B303398421BD0E14BC1
:102290004833984217D0DFF87CC30CF1600C6045DE
:1022A00011D0DFF870C30CF1780C60450BD0DFF86B
:1022B00064C30CF1900C604505D0DFF858E30EF1D3
:1022C000A80E70457ED194F85C10082301F01F0120
:1022D00003FA01F232424BD0B84232D0584530D0E6
:1022E00040452ED048452CD050452AD0C849783199
:1022F000884226D0C6499031884222D0C449A831AC
:1023000088421ED0C34988421BD0C2491831884236
:1023100017D0C0493031884213D0BE494831884275
:102320000FD0BC49603188420BD0BA49783188421D
:1023300007D0B8499031884203D0B649A8318842C5
:1023400003D1016801F0040102E0016801F0080115
:1023500071B1016821F00401016094F85C0000F0A3
:102360001F0003FA00F2AA60606D40F00100606592
:1023700094F85C00012100F01F008140314240D000
:102380002068B84234D0584532D0404530D0484516
:102390002ED050452CD09E4A7832904228D09C4A6C
:1023A0009032904224D09A4AA832904220D0994A42
:1023B00090421DD0974A1832904219D0954A303237
:1023C000904200E0D2E113D0924A483290420FD0BE
:1023D000904A603290420BD08E4A7832904207D0B9
:1023E0008C4A9032904203D08A4AA83290427DD1E2
:1023F000406910F0800F04D0A960606D40F00200C9
:10240000606594F85C00042100F01F0081403142B7
:102410003ED02068B84232D0584530D040452ED00A
:1024200048452CD050452AD0794A7832904226D05F
:10243000774A9032904222D0754AA83290421ED0FC
:10244000744A90421BD0734A1832904217D0714A96
:102450003032904213D06F4A483290420FD06D4ACA
:10246000603290420BD06B4A7832904207D0694A72
:102470009032904203D0674AA83290424ED1006811
:1024800010F0020F04D0A960606D40F00400606598
:1024900094F85C00102100F01F008140314260D0B0
:1024A0002068B84234D0584532D0404530D04845F5
:1024B0002ED050452CD0564A7832904228D0544ADB
:1024C0009032904224D0524AA832904220D0514AB1
:1024D00090421DD04F4A1832904219D04D4A3032A6
:1024E000904215D04B4A4832904200E014E00FD0A1
:1024F000484A603290420BD0464A7832904207D028
:10250000444A9032904203D0424AA832904207D1C6
:10251000006800F0080006E0006872E70068B7E7AE
:10252000006800F0040058B1A96020680168490300
:102530000CD50068000304D4216C09B120468847FB
:102540000FE0A16C69B1204688470AE00168C9051F
:1025500003D4016821F008010160216C09B1204613
:10256000884794F85C00202100F01F008140314230
:102570007BD02068B84232D0584530D040452ED06C
:1025800048452CD050452AD0214A7832904226D056
:102590001F4A9032904222D01D4AA83290421ED04B
:1025A0001C4A90421BD01B4A1832904217D0194A3D
:1025B0003032904213D0174A483290420FD0154A19
:1025C000603290420BD0134A7832904207D0114AC1
:1025D0009032904203D00F4AA832904203D1006853
:1025E00000F0100002E0006800F00200E8B3A9600B
:1025F00094F83500042812D02068016849033DD5BD
:102600000068000335D4616C79B305E00000002058
:102610001000024010040240204688473FE0206836
:10262000016821F0160101602068416921F08001F4
:102630004161206C08B9A06C20B12068016821F0CC
:102640000801016094F85C0000F01F013F20884001
:10265000A860002084F83400012084F83500216D42
:10266000002977D004B0204600E018E0BDE8F05F14
:102670000847E16B99B12046884710E00168C90519
:1026800009D4016821F010010160002084F83400B1
:10269000012084F83500E16B09B120468847606D60
:1026A000002857D0606DC00758D0042084F835004A
:1026B0002068B84231D058452FD040452DD04845EC
:1026C0002BD0504529D0C749884226D0C54918315A
:1026D000884222D0C349303188421ED0C249884244
:1026E0001BD0C1491831884217D0BF4930318842C8
:1026F00013D0BD49483188420FD0BB496031884270
:102700000BD0B9497831884207D0B7499031884217
:1027100003D0B549A831884204D1016821F00101F4
:10272000016003E0016821F0010101602168019866
:10273000009A401C0190904202D80868C007F6D168
:10274000002084F834000868C00704D0032084F80F
:10275000350003E084E0012084F83500E16C0029B5
:102760007ED004B02046BDE8F05F08479F4EB042DF
:102770003AD09E4E1436B04236D09C4E2836B042E7
:1027800032D09A4E3C36B0422ED0984E5036B0429F
:102790002AD0964E6436B04226D0944E7836B04257
:1027A00022D0924E8C36B0421ED0914EB0421BD0F9
:1027B0008F4E1436B04217D08D4E2836B04213D00B
:1027C0008B4E3C36B0420FD0894E5036B0420BD0C3
:1027D000874E6436B04207D0854E7836B04203D07B
:1027E000834E8C36B0423BD106684FF0040E94F80D
:1027F0005CB00BF01F0B0EFA0BFE1EEA010FCDF8BA
:102800000CE05ED05FEA467E5BD5039868603004DA
:1028100011D5F00307D4A16C002921D004B02046C3
:10282000BDE8F05F0847216C002919D004B02046AC
:10283000BDE8F05F0847B0063BD42068B8422FD00F
:102840006849603988422BD0404529D0484527D077
:10285000504525D06349884222D06249183100E0B2
:102860009BE088421CD05F493031884218D05E49D5
:10287000884215D0904213D05B49303188420FD046
:1028800098420DD058496031884209D05649783174
:10289000884205D0604503D05349A831884204D10D
:1028A000016821F00801016003E0016821F00401E2
:1028B0000160216C002970D004B02046BDE8F05FB3
:1028C00008474FF0020E0EFA0BFE1EEA010FCDF87C
:1028D00008E063D05FEA867E60D5029868603004C5
:1028E00011D5F00307D4616C002978D004B02046DC
:1028F000BDE8F05F0847E16B002970D004B02046C6
:10290000BDE8F05F0847B0063FD42068B8422DD03C
:1029100034496039884229D0404527D0484525D0E0
:10292000504523D02F49884220D02E491831884263
:102930001CD02C493031884218D02B49884215D000
:10294000904213D02849303188420FD098420DD0A0
:1029500025496031884209D023497831884205D021
:10296000604503D02049A831884204D1016821F094
:102970001401016003E0016821F00A0101600020F8
:1029800084F83400012084F83500E16B002926D05A
:1029900004B02046BDE8F05F084720E0082202FAB4
:1029A0000BF20A421BD0310719D5016821F00E0144
:1029B000016094F85C0000F01F01012000FA01F1B1
:1029C00069606065002184F8341084F83500E16C9A
:1029D000002904D004B02046BDE8F05F0847BDE8F8
:1029E000FF9F00008800024010040240082C0248AB
:1029F000085402582DE9F05F044600F021FB06461A
:102A0000002C7DD0FD4F0222DFF8F0830025DFF897
:102A1000EC93DFF8E8A308F13008DFF8E0B309F140
:102A2000480920680AF1600A0BF1780BB84232D0ED
:102A3000F249183188422ED040452CD048452AD042
:102A4000504528D0584526D0EC499031884222D0B4
:102A5000EA49A83188421ED0E94988421BD0E8499A
:102A60001831884217D0E6493031884213D0E44902
:102A7000483188420FD0E249603188420BD0E049AA
:102A80007831884207D0DE499031884203D0DC4952
:102A9000A83188427ED184F8345084F83520B84279
:102AA00034D0D6491831884230D040452ED04845E0
:102AB0002CD050452AD0584528D0D0499031884252
:102AC00024D0CE49A831884220D0CD4988421DD09B
:102AD000CB491831884219D0C9493031884215D0C4
:102AE000C7494831884211D0C549603188420DD06C
:102AF000C3497831884209D0C1499031884200E009
:102B000009E003D0BE49A831884207D1016821F00D
:102B10000101016013E00120BDE8F09F016821F090
:102B2000010101600BE000F08BFA801B052806D93B
:102B300020206065032084F835000120ECE7206840
:102B40000068C007EFD122681168AE480140D4E99F
:102B500002031843D4E9043633431843A3691843E6
:102B6000E3691843236A18430843616A042903D1BF
:102B7000D4E90B13194308436168A1F12903052B1C
:102B80000DD9163B032B0AD9083B012B07D9083B6B
:102B9000032B00E02AE002D97439032901D840F45C
:102BA000801010602068406920F00701606A40EAE8
:102BB000010604280DD1A06A0643E06A48B1204608
:102BC000FEF7A4F928B140206065012084F83500A3
:102BD000A2E7206846612046FEF7AAF894F85C1048
:102BE00001F01F023F219140816086E086498842C2
:102BF0003AD085491431884236D0834928318842F9
:102C000032D081493C3188422ED07F4950318842B0
:102C10002AD07D496431884226D07B497831884268
:102C200022D079498C3188421ED0784988421BD005
:102C300076491431884217D074492831884213D01C
:102C400072493C3188420FD07049503188420BD0D4
:102C50006E496431884207D06C497831884203D08C
:102C60006A498C3188427DD16849884211D06749D0
:102C7000143188420DD065492831884209D0634912
:102C80003C31884205D061495031884201D05F49CA
:102C9000643184F8345084F8352002685C490A4075
:102CA000A16840297ED080297DD00021E36841EAD7
:102CB000D301236941EAD301636941EAD301A369DE
:102CC00041EAD301E36941EAD301236A41EA1311DE
:102CD000114301604D492068494208441421B0FB6A
:102CE000F1F08000E0652046FEF722F894F85C10D1
:102CF00001F01F020121914041602068B84256D086
:102D00003E491831884252D0404550D048454ED0B7
:102D100050454CD058454AD038499031884246D029
:102D20003649A831884242D0354988423FD034499B
:102D3000183188423BD032493031884237D030494F
:102D40004831884233D02E49603188422FD02C49F7
:102D5000783188422BD02A499031884227D028499F
:102D6000A83100E02FE0884221D0284988421ED0B7
:102D70002649143188421AD024492831884216D075
:102D800022493C31884212D02049503188420ED02D
:102D90001E49643188420AD01C497831884206D0E5
:102DA0001A4901E00AE00BE08C31884235D1204617
:102DB000FEF71EF8A06880280CD00CE0102175E703
:102DC0004FF4804172E740206065032084F83500AD
:102DD0000120A1E66560216E20790860D4E9191010
:102DE00048606068401E072814D82046FEF750F857
:102DF000E06E0560D4E91C1048600EE0100002404F
:102E0000100402403F8010FE082C0248085402586B
:102E10000F00FEFFE566256765676565012084F89C
:102E20003500002078E6000070B5044600F008F98F
:102E30000546601C02D004480078044400F000F904
:102E4000401BA042FAD370BD000000242DE9F84FCA
:102E50000022684C4FF0B04B4FF003094FF00F0ABF
:102E6000C1E0012696403340002B71D04D68012D02
:102E700005D0022D03D0112D01D0122D15D1876858
:102E8000550009FA05FC27EA0C07D1F80CC00CFA2A
:102E900005FC4CEA070CC0F808C04568B5430E793C
:102EA000C6F3001696402E434660C5684FEA420CB2
:102EB00009FA0CF6B5438F6807FA0CF72F43C76081
:102EC0004D68022D01D0122D12D1D50800EB8508D6
:102ED000D8F820705507ED0E0AFA05FE27EA0E070E
:102EE000D1F810E00EFA05FE4EEA070EC8F820E011
:102EF0000568B5430E7906F0030606FA0CF62E4374
:102F000006604D68ED006DD53B4D2E6846F002061B
:102F10002E602D6805F00205009522F0030606F1EB
:102F2000B046D6F808C495072F0F0AFA07F52CEA21
:102F3000050C324DA84201D100252EE0304DA842AB
:102F400001D1012529E02F4DA84202D1022524E01C
:102F500048E02D4DA84201D103251EE02B4DA8428B
:102F600001D1042519E02A4DA84201D1052514E01C
:102F7000284DA84201D106250FE0274DA84201D1D6
:102F800007250AE0254DA84201D1082505E0244D7A
:102F9000A84201D1092500E00A25BD4045EA0C05FB
:102FA000C6F8085425689D434E68F60300D51D43B6
:102FB000256065689D434E68B60300D51D43656076
:102FC000DBF800509D434E68F60200D51D43CBF858
:102FD0000050DBF804509D434E68B60200D51D43F7
:102FE000CBF80450521C0B6833FA02F57FF439AF6A
:102FF000BDE8F88F80000058544502580000025880
:103000000004025800080258000C02580010025830
:103010000014025800180258001C025800200258E0
:10302000002402580069084201D0012070470020A6
:103030007047002A01D0816170470904816170479F
:103040000148806870470000000000240248816841
:1030500002781144816070470000002410B50320FD
:1030600000F024FA02F096F90F490A68C2F303232C
:103070000E4AD35C03F01F03D840096801F00F012A
:10308000515C0B4A01F01F0120FA01F1116009495E
:103090000860002000F010F808B1012010BD00F019
:1030A000C5F9002010BD000018440258B43B0108C7
:1030B000040000200000002070B504460F4D2A785F
:1030C000002A0CD04FF47A700D49B0FBF2F0096879
:1030D000B1FBF0F004F08BFA18B1012070BD0120B3
:1030E00070BD102C07D200222146501E00F0BEF900
:1030F0006C60002070BD012070BD00000000002445
:10310000000000202DE9F04104460F46154694F8D2
:10311000A00001281ED0012684F8A060022084F8B7
:10312000A10005EB8500394600EBC500342204EB15
:1031300080003830FDF769F92A463946204604F008
:1031400054FE2068466284F8A160002084F8A00044
:10315000BDE8F0810220FBE770B50446002C04D0E6
:1031600094F8A100002510B106E0012070BD84F89C
:10317000A050204600F06AF8022084F8A1002068E0
:10318000816921F070418161D4E901100143D4E9E2
:103190000302104301432068826911438161206862
:1031A000826829490A408260A08A020420688368F4
:1031B000A6693343134383602068C2680A40C26033
:1031C000A08B02042068C368266A33431343C3609C
:1031D000206802690A400261A08C02042068036929
:1031E000A66A334313430361206842690A4042617F
:1031F000A08D010420684269236B1A430A4342618F
:1032000094F83500020294F8360001042068C36A7D
:1032100003F07F43C3622068C36A114394F83460AB
:1032200033430B43C3622068416B41F006014163A5
:103230002068816941F001018161C4F8A450012036
:1032400084F8A100002070BD00F800F0F0B5B5B022
:103250000446142130A8FDF7F1F8B82102A8FDF7C3
:10326000EDF84549206888427ED14448016841F024
:1032700008010160006800F0080001903F48001F4D
:10328000016841F004010160016801F0040101914D
:10329000016841F001010160016801F00101019143
:1032A000016841F002010160016801F00201019131
:1032B000016841F010010160016801F01001019105
:1032C000016841F008010160006800F00800019009
:1032D00001203090022431940025329533940B2044
:1032E000349030A9264F3846FFF7B0FDE2203090E9
:1032F0003194329533940E26349630A93846FFF730
:10330000A5FD41F68800309031943295339434967F
:1033100030A91C48FFF79AFD032030903194329574
:1033200033940920349030A9174F3846FFF78EFDAB
:103330004FF418403090319432953394349630A93C
:103340001248FFF783FD4FF4474030903194329597
:103350003394349630A93846FFF778FD60023090F8
:1033600031943295339400E004E0349630A9084853
:10337000FFF76CFD35B0F0BD001000504445025819
:1033800000080258000002580004025800100258B9
:10339000000C0258144A41781160111D03780A1D6F
:1033A000002B1CD043680B60017BC37A090741EAFC
:1033B0000361837A41EAC341437B41EA8341837BD2
:1033C00041EA4341C37B41EA0341437A41EA032195
:1033D000037A007841EA43010143116070470020FD
:1033E000086010607047000098ED00E0BFF35F8F49
:1033F0000448016821F480310160024900207031E5
:103400000860704724ED00E0074940F001000860C3
:1034100005487038016841F480310160BFF34F8F77
:10342000BFF36F8F7047000094ED00E082B0074853
:10343000016841F002010160006800F002000190A3
:1034400000220F21901E02B000F010B8544502581F
:10345000002809DB012100F01F0291404009800093
:1034600000F1E020C0F8001170470000F0B40D46F4
:103470000D4B1B68C3F30223C3F10704042C00D9CE
:103480000424191D072901D2002300E0DB1E0126B8
:1034900006FA04F1491E294099409E40761E1640C6
:1034A0003143F0BC07F0D8BE0CED00E000F007019E
:1034B000054A10684FF6FF03184040EA012003490F
:1034C00008431060704700000CED00E00000FA05B2
:1034D0002DE9F04F8DB082460C464FF000080027D2
:1034E000F948DAF80010814203D100254FF00109B4
:1034F00002E001254FF000090026EB4606EB4600EE
:10350000761C0BEBC001F0B204F0A8FF20B14FF025
:1035100001080820CAF85800F6B2022EEED3B8F11E
:10352000000F7CD1E84E3068C00705D0306820F02D
:103530000100306047F00107E4480068C00706D08A
:10354000E248016821F00101016047F00207E04B09
:1035500005EB45020BEBC2018868401E03EB8000BF
:10356000D0F804C42CF4807CC0F804C4DFF864C331
:10357000DCF800005FEAC07A4FF0010039D0DCF8D7
:10358000001021F00101CCF80010B9F1010F61D158
:103590000699491E03EB8101D1F8042442F002028E
:1035A000C1F80424079949B10799491E03EB810129
:1035B000D1F8042442F02002C1F80424099951B141
:1035C000099920EA010103EB8101D1F8042442F4B6
:1035D0008022C1F804240A99E1B30A9920EA010182
:1035E00003EB8101D1F8042442F08062C1F8042485
:1035F00030E05BF832206AB3521E03EB8202D2F84D
:1036000004A42AF0010AC2F804A44A6852B1521E66
:1036100003EB8202D2F804A42AF0100A00E076E15B
:10362000C2F804A4CA684AB120EA020203EB82028B
:10363000D2F804A42AF4803AC2F804A4096949B172
:1036400020EA010103EB8101D1F8042422F0807209
:10365000C1F8042409EB490122680C925BF831900F
:103660004A4518D00BEBC102D4F804A0D2F804E00C
:10367000F24510D0D4F808A0D2F808E0F2450AD0FC
:10368000D4F80CA0D2F80CE0F24504D0D4F810A085
:103690001269924555D10C9A4A4519D10BEBC102DA
:1036A000D4F804A0D2F804E0F24511D1D4F80CA06B
:1036B000D2F80CE0F2450BD1D4F810A01269924573
:1036C00006D1DCF8001041F00101CCF8001038E020
:1036D000A9F1010903EB8902D2F8049429F0010948
:1036E000C2F804940BEBC1014A6842B1521E03EBCD
:1036F0008202D2F8049429F01009C2F804948A686E
:10370000521E03EB8202D2F8049429F48079C2F8A5
:103710000494CA684AB120EA020203EB8202D2F89A
:10372000049429F48039C2F80494096949B120EA63
:10373000010103EB8101D1F8042422F08072C1F869
:103740000424A168491E03EB8101D1F8042422F46A
:10375000407242EA452242F48072C1F80424616951
:10376000DCF80020491EC2F30742914207D9DCF879
:10377000002022F47F0242EA0141CCF80010DCF87C
:103780000010C90750D02168491E03EB8101D1F810
:10379000042422F00302521CC1F80424616851B1D0
:1037A000491E03EB8101D1F8042422F0300242F0DB
:1037B0001002C1F80424E168CA030CD520EA010113
:1037C00003EB8101D1F8042422F4E02242F4803298
:1037D000C1F804240CE059B120EA010103EB810196
:1037E000D1F8042422F0E06242F08072C1F804248F
:1037F0002169CA030BD5884303EB8000D0F8041479
:1038000021F4E02141F44031C0F8041472E0D1B356
:10381000884303EB8000D0F8041421F0E06141F00C
:103820004071C0F8041465E02168491E03EB810172
:10383000D1F8042400EB450C22F0030242EA0C020A
:10384000C1F80424616861B1491E03EB8101D1F81C
:10385000042422F0300242EA451242F01002C1F87C
:103860000424E168CA030FD520EA010103EB8101BA
:10387000D1F8042422F4E02242EA854242F4803264
:10388000C1F804240FE035E069B120EA010103EB3F
:103890008101D1F8042422F0E06242EA856242F01C
:1038A0008072C1F804242169CA0315D5884303EB4B
:1038B0008000D0F8041421F4E02141EA854141F46C
:1038C0004031C0F8041415E00050005200A000522E
:1038D00000B0005200B4005261B1884303EB800095
:1038E000D0F8041421F0E06141EA856141F04071B3
:1038F000C0F80414F80703D0306840F001003060CD
:10390000B80704D50448016841F0010101600DB019
:103910004046BDE8F08F000000A00052F8B5044614
:103920000D461646FFF78CFB0746A86B606D022814
:1039300003D1E168B1F1806F11D1142804D1296855
:1039400002290CD003290AD0242804D12868012890
:1039500005D0032803D001201021A165F8BD002265
:103960003B4620212046009604F0CCFE0028F5D1ED
:10397000A0652946204604F0E1FD0028EED1A96BA0
:1039800061B129680422A1B1012914D00229E5D12D
:10399000616D142917D024216165F8BD01223B46D1
:1039A00002212046009604F0ADFE226802215162F9
:1039B000F8BD6265F8BD616D242902D014216165EE
:1039C000F8BD6265F8BD6265F8BD0000F8B5044653
:1039D0000025FFF735FB064624B10020A065606D89
:1039E00010B170E001256EE0204600F0A5F841F22C
:1039F0008831204600F083F9208AE168401E626B1E
:103A000041EA00416069401E000240EA02100143A1
:103A1000A06B0143E0690143206882682C4B1A4087
:103A2000114381602068C168226A21F4E0211143BA
:103A3000C160218EE06B40EA014021680861216885
:103A4000206C48612068016821F4F8526168491EC1
:103A500042EA01210160E06D0022202133460090FE
:103A6000204604F04FFE054628002CD12068C1688E
:103A7000626A21F0FF01521E1143C1602068016893
:103A8000A26821F0400111430160D4E90A1001430A
:103A90002068D0F8082122F0A0421143C0F8081194
:103AA0002068016841F001010160A069022804D189
:103AB0002068816841F002018160E068B0F1806FA8
:103AC00003D0022060652846F8BD01206065FAE752
:103AD00084F8E0F8F8B504460D46FFF7B1FA03465E
:103AE000606D1026042802D00120A665F8BDE06DA7
:103AF000002220210090204604F004FE0028F5D189
:103B000088216165296808290AD122686968C2F894
:103B1000301121684E6221680A6842F480120A60FE
:103B200021682A680B68034C234043F040531A4332
:103B30000A60F8BDF7FFFFCF2DE9F041B4B00446AD
:103B400014212FA8FCF77AFCB82101A8FCF776FC19
:103B500036492068884266D14FF0007001900024F9
:103B6000139401A800F02CFE08B1FDF738FA304894
:103B7000016841F400110160016801F40011009135
:103B8000016841F480410160006800F480400090C9
:103B900027480C30016841F010010160016801F014
:103BA00010010091016841F002010160016801F01B
:103BB00002010091016841F008010160006800F015
:103BC000080000904FF00408CDF8BC800225309525
:103BD000319403263296092733972FA91548FFF70A
:103BE00035F9CDF8BC8030953194329633972FA9B2
:103BF000DFF844804046FFF729F94FF460502F90DA
:103C000030953194329633972FA90C48FFF71EF95F
:103C100040202F903095319432960A2033902FA96E
:103C20004046FFF713F934B0BDE8F0810050005270
:103C3000344502580010025800040258000C025883
:103C40002DE9F843044688461546FFF7F9F906467C
:103C5000206800F15007816CD0F81021B8F1000FF6
:103C600007D0636D042B08D001201021A165BDE8A9
:103C7000F88301200821A165F9E7036C5B1CE3646C
:103C8000E36CA364C4F84480036823F0405343F01A
:103C900080530360E068B0F1806F07D02068D0F8EF
:103CA000003113F4E06F04D0816404E02068816483
:103CB00001E0C0F81021012206213346204600957C
:103CC00004F020FD58B93978626C1170616C491CA0
:103CD0006164E16C491EE164E16C0029EBD10028CC
:103CE000C5D10122334602212046009504F00AFD89
:103CF0000028BCD12268022151626165B7E7C16525
:103D0000002070472DE9F843044689461746FFF71F
:103D100097F98046256805F15006B9F1000F07D0E4
:103D2000606D042808D001201021A165BDE8F8834A
:103D300001200821A165F9E7286C401CE064E06CD3
:103D4000A064C4F84490286820F040502860012204
:103D5000434604212046009704F0D4FC58B9616C16
:103D600009783170616C491C6164E16C491EE16441
:103D7000E16C0029EBD10028D8D101224346022171
:103D80002046009704F0BEFC0028CFD12268022113
:103D900051626165CAE7000070B514490A68D243F0
:103DA000520708D5096801F00701814201D00120BE
:103DB00070BD002070BD0A6822F0070202430A604D
:103DC000FFF73EF90446094D4FF47A76083D06E0C8
:103DD000FFF736F9001BB04201D9012070BD2868F9
:103DE000C0438004F4D4002070BD00000C48025889
:103DF0000248016841F48071016070470048025830
:103E000010B501F081FA05490968054AC1F30211AC
:103E1000515C01F01F01C84010BD00002044025851
:103E2000B43B010810B569490A6802F00302096849
:103E3000C1F30511654B1B1D1B6803F00103634CA7
:103E40000C342468C4F3CC0414FB03F300EE103AE2
:103E5000B8EE400A002971D09FED5D1A9FED5D2AF2
:103E60005A4BF7EE000A0833F2B3012A7DD0022A3A
:103E70007AD001EE901A1968F8EE611AC2EE212A82
:103E8000C1F3080101EE901AF8EE611A40EE011A32
:103E900031EEA00A22EE800A1968C1F3462101EE34
:103EA000101AB8EE411A31EE201AC0EE011ABCEE1B
:103EB000E11A80ED001A1968C1F3064101EE101AEB
:103EC000B8EE411A31EE201AC0EE011ABCEEE11A2A
:103ED00080ED011A1968C1F3066101EE101AB8EEFF
:103EE000411A71EE200A00E006E080EE201ABCEED6
:103EF000C10A80ED020A10BD344A283A1468A406AB
:103F00001ED51268C2F3C104334AE24001EE902A82
:103F1000F8EE612A01EE901A1968F8EE611A82EE45
:103F2000A12AC1F3080101EE901AF8EE611A40EEE1
:103F3000011A31EEA00A22EE000AADE741E014E0DA
:103F400001EE901A1968F8EE611AC2EE212AC1F347
:103F5000080101EE901AF8EE611A40EE011A31EEF6
:103F6000A00A22EE800A97E715E001EE901ADFED35
:103F70001B2A1968F8EE611A82EEA12AC1F3080122
:103F800001EE901AF8EE611A40EE011A31EEA00A25
:103F900022EE000A80E701EE901ADFED112A19687F
:103FA000F8EE611A82EEA12AC1F3080101EE901A1F
:103FB000F8EE611A40EE011A31EEA00A22EE000A74
:103FC0006AE7002101604160816010BD2844025809
:103FD000000000390024744C0090D0030024744A7F
:103FE00020BCBE4B10B569490A6802F0030209689B
:103FF000C1F30531654B1B1D1B68C3F30013634CF4
:1040000014342468C4F3CC0414FB03F300EE103A18
:10401000B8EE400A002971D09FED5D1A5B4BF7EEB8
:10402000000A1033F2B39FED5B2A012A7FD0022AE7
:104030007CD001EE901A1968F8EE611AC2EE212ABE
:10404000C1F3080101EE901AF8EE611A40EE011A70
:1040500031EEA00A22EE800A1968C1F3462101EE72
:10406000101AB8EE411A31EE201AC0EE011ABCEE59
:10407000E11A80ED001A1968C1F3064101EE101A29
:10408000B8EE411A31EE201AC0EE011ABCEEE11A68
:1040900080ED011A1968C1F3066101EE101AB8EE3D
:1040A000411A00E008E071EE200A80EE201ABCEE12
:1040B000C10A80ED020A10BD344A283A1468A406E9
:1040C0001ED51268C2F3C104334AE24001EE902AC1
:1040D000F8EE612A01EE901A1968F8EE611A82EE84
:1040E000A12AC1F3080101EE901AF8EE611A40EE20
:1040F000011A31EEA00A22EE000AADE741E016E017
:1041000001EE901ADFED252A1968F8EE611A82EEA9
:10411000A12AC1F3080101EE901AF8EE611A40EEEF
:10412000011A31EEA00A22EE000A95E713E001EE33
:10413000901A1968F8EE611AC2EE212AC1F308013B
:1041400001EE901AF8EE611A40EE011A31EEA00A63
:1041500022EE800A80E701EE901ADFED112A19683D
:10416000F8EE611A82EEA12AC1F3080101EE901A5D
:10417000F8EE611A40EE011A31EEA00A22EE000AB2
:104180006AE7002101604160816010BD2844025847
:10419000000000390024744A0090D0030024744CBD
:1041A00020BCBE4B10B569490A6802F003020968D9
:1041B000C1F30551654B1B1D1B68C3F30023634C02
:1041C0001C342468C4F3CC0414FB03F300EE103A4F
:1041D000B8EE400A002971D09FED5D1A5B4BF7EEF7
:1041E000000A1833F2B39FED5B2A012A7FD0022A1E
:1041F0007CD001EE901A1968F8EE611AC2EE212AFD
:10420000C1F3080101EE901AF8EE611A40EE011AAE
:1042100031EEA00A22EE800A1968C1F3462101EEB0
:10422000101AB8EE411A31EE201AC0EE011ABCEE97
:10423000E11A80ED001A1968C1F3064101EE101A67
:10424000B8EE411A31EE201AC0EE011ABCEEE11AA6
:1042500080ED011A1968C1F3066101EE101AB8EE7B
:10426000411A00E008E071EE200A80EE201ABCEE50
:10427000C10A80ED020A10BD344A283A1468A40627
:104280001ED51268C2F3C104334AE24001EE902AFF
:10429000F8EE612A01EE901A1968F8EE611A82EEC2
:1042A000A12AC1F3080101EE901AF8EE611A40EE5E
:1042B000011A31EEA00A22EE000AADE741E016E055
:1042C00001EE901ADFED252A1968F8EE611A82EEE8
:1042D000A12AC1F3080101EE901AF8EE611A40EE2E
:1042E000011A31EEA00A22EE000A95E713E001EE72
:1042F000901A1968F8EE611AC2EE212AC1F308017A
:1043000001EE901AF8EE611A40EE011A31EEA00AA1
:1043100022EE800A80E701EE901ADFED112A19687B
:10432000F8EE611A82EEA12AC1F3080101EE901A9B
:10433000F8EE611A40EE011A31EEA00A22EE000AF0
:104340006AE7002101604160816010BD2844025885
:10435000000000390024744A0090D0030024744CFB
:1043600020BCBE4B2DE9F04F89B00246FA4B4FF40A
:10437000807AF8494FF08055DFF8D883F7481C1150
:10438000DFF8DCC35E0450395245A8F1040749D177
:10439000D8F8002002F00702052A41D2DFE802F037
:1043A000030F193E23000868800106D506A8FFF711
:1043B00039FD079809B0BDE8F08F0020FAE70868DA
:1043C000000104D503A8FFF70DFE0398F2E70020D3
:1043D000F0E70868800004D56846FFF7E3FE009820
:1043E000E8E70020E6E73A6802F040520F687F07EE
:1043F00000D532B10B68DB0509D5AA4207D12046AA
:10440000D8E70868C0F3C10023FA00F0D2E70968D2
:10441000890301D5B242CDD00020CBE76046C9E781
:104420000020C7E74FF400794A454BD1D8F8002067
:1044300002F4E072802A2AD003DCA2B1402A3FD1E4
:104440001BE0C02A3AD052453AD13A6802F04052B5
:104450000F687F0700D522B30B68DB0527D5AA427A
:1044600025D12046A6E70868800104D506A8FFF7F5
:10447000D9FC07989EE700209CE70868000104D556
:1044800003A8FFF7AFFD039894E7002092E70868C0
:10449000800004D56846FFF785FE00988AE7002073
:1044A00088E70868C0F3C10023FA00F082E70968D2
:1044B000890301D5B24289D000207BE7604679E7C5
:1044C000002077E74FF4806A52454CD1D8F800209D
:1044D00002F4606252451FD00ADC8AB14A450DD110
:1044E0000868000116D503A8FFF77CFD039861E773
:1044F000B2F5C06F35D0B2F5006F17D0002059E784
:104500000868800104D506A8FFF78CFC079851E7DE
:1045100000204FE700204DE70868800004D568467A
:10452000FFF740FE009845E7002043E73A6802F0B5
:1045300040520F687F0700D532B10B68DB0509D503
:10454000AA4207D1204635E70868C0F3C10023FA24
:1045500000F02FE70968890301D5B2428AD0002014
:1045600028E7604626E74FF480594A454FF4804AD1
:104570004CD1D8F8002002F4E042B2F5005F2AD016
:104580000ADCE2B14A453FD10868000121D503A801
:10459000FFF728FD03980DE7B2F5405F32D0524592
:1045A00032D13A6802F040520F687F0700D5E2B17D
:1045B0000B68DB051FD5AA421DD12046FAE6086824
:1045C000800104D506A8FFF72DFC0798F2E600202D
:1045D000F0E60020EEE60868800004D56846FFF7A4
:1045E000E1FD0098E6E60020E4E60868C0F3C100BB
:1045F00023FA00F0DEE60968890301D5B24286D0CD
:104600000020D7E66046D5E60020D3E6DFF844B1C7
:10461000B2F5002F4FF480390BF1080B0FD04A454B
:1046200057D1386800F48030B8B348454FD1086896
:1046300000014AD503A8FFF7D5FC0598BAE6DBF8D8
:10464000002002F4403232B14A450ED0B2F5003FAC
:1046500015D00020AEE60868000104D503A8FFF7D6
:10466000C1FC0398A6E60020A4E60868800004D5F3
:104670006846FFF797FD02989CE600209AE63A68A4
:1046800002F040520F687F0700D53AB10B68DB0596
:104690000AD5AA4208D120468CE60CE00868C0F38F
:1046A000C10023FA00F085E60968890301D5B2420A
:1046B00084D000207EE60868800104D506A8FFF7B4
:1046C000B1FB079876E6002074E6002072E6002031
:1046D00070E652454AD1DBF8002002F0E04232F0A9
:1046E000704541D11217072A3ED2DFE802F00407D5
:1046F000111B262D3B00FFF783FB5BE608680001DA
:1047000004D503A8FFF76EFC049853E6002051E699
:104710000868800004D56846FFF744FD019849E623
:10472000002047E60868400705D50868C0F3C100C7
:1047300023FA00F03EE600203CE60868C00501D5FB
:10474000204637E6002035E6096889038AD4002030
:1047500030E60000504402580090D00340787D01BC
:104760000080BB00604625E6002023E6B2F5004F3E
:1047700001D000201EE6D8F8002002F040525AB1C5
:10478000AA420ED0B24218D10868000113D503A87E
:10479000FFF728FC04980DE6096889038AD40020F5
:1047A00008E60868800104D506A8FFF73BFB0798D8
:1047B00000E60020FEE50020FCE50020FAE5000010
:1047C0002DE9F84F0446002500262068010104F178
:1047D0002400FE4FDFF8F88300900DD5A06EB0B135
:1047E000B0F5801F18D0B0F5001F1BD0B0F5401FEA
:1047F00000D00125E5B12E462088C00535D5606D75
:1048000005282FD2DFE800F01D22282F2F0038685E
:1048100040F400303860EDE70221201D04F0DCFA9E
:104820000546E7E70098022104F068FB0546E1E74A
:10483000D8F80000A16E20F440100843C8F800002A
:10484000DAE7386840F4003038600CE00021201DC1
:1048500004F0C2FA054606E00098002104F04EFB81
:10486000054600E001256DB12E46208880051BD548
:10487000A06DC02816D00EDC30B3402829D0802887
:104880000FD12CE0D8F80000616D20F0070008433C
:10489000C8F80000E9E7B0F5807F03D0B0F5A07F4D
:1048A00000D001250DB32E46208840052FD5E06DA0
:1048B000B0F5C06F29D021DCF0B3B0F5007F48D04F
:1048C000B0F5806F20D14AE0386840F4003038609D
:1048D000E8E70021201D04F07FFA0546E2E7009892
:1048E000002104F00BFB0546DCE7D8F80000A16DC1
:1048F00020F4E0700843C8F80000D5E7B0F5006F79
:1049000003D0B0F5206F00D0012575B32E46206886
:1049100080010AD5A06C30B1102830D0202834D0C6
:10492000302800D001257DB32E462088C00445D50F
:10493000206EB0F5005F00E006E05AD035DC98B399
:10494000B0F5805F37D14EE0386840F40030386011
:10495000DBE70021201D04F03FFA0546D5E700986B
:10496000002104F0CBFA0546CFE7FFE7D8F80000B6
:10497000E16D20F460600843C8F80000C7E73868BC
:1049800040F400303860CEE705E00221201D04F03D
:1049900023FA0546C7E78E48001F0168A26C21F084
:1049A000300111430160C0E718E0B0F5405F03D06B
:1049B000B0F5804F00D001250DB32E46208880042D
:1049C0002FD5606EB0F5403F29D021DC38B3B0F56B
:1049D000803F31D0B0F5003F20D133E0386840F45B
:1049E00000303860E8E70021201D04F0F5F90546A5
:1049F000E2E70098002104F081FA0546DCE7D8F8E8
:104A00000000216E20F4E0400843C8F80000D5E71C
:104A1000B0F5802F03D0B0F5A02F00D00125BDB197
:104A20002E462088DFF8AC91400432D5D4F8AC0093
:104A300030F0704115D029E00121201D04F0CCF99F
:104A40000546ECE70098012104F058FA0546E6E730
:104A5000D8F80000616E20F4E0200843C8F8000098
:104A6000DFE70017072811D2DFE800F011040A1170
:104A7000111111000121201D04F0AEF9054606E0D8
:104A80000098012104F03AFA054600E001255DB3E3
:104A90002E46208800040AD5606F30B1B0F1805FE7
:104AA0002CD0B0F1005F2ED0012595B32E462068A2
:104AB000C0010AD5606C30B1012835D0022838D049
:104AC000032800D0012575B32E46206840024DD53D
:104AD000DFF804B1DBF8000040F48070CBF8000090
:104AE000FEF7AEFA82463BE0D9F80000D4F8AC10ED
:104AF00020F0E0400843C9F80000CAE7386840F4F5
:104B000000303860D1E70121201D04F065F9054629
:104B1000CBE7FFE7D8F80000616F20F04050084372
:104B2000C8F80000C3E70AE0386840F40030386095
:104B3000C9E70221201D04F04FF90546C3E72448C8
:104B4000001F0168626C21F0030111430160BCE7A2
:104B5000FEF776FAA0EB0A00642801D9032503E0EA
:104B6000DBF80000C005F3D585B12E462078DFF8CC
:104B70006CA0C0077AD0D4F88000182874D06EDCFE
:104B800018B308287DD010286DD180E0DFF844B03C
:104B90000BF1180BDBF80000B4F8B01000F4407013
:104BA00001F4407188421DD0DBF8000020F4407011
:104BB000DBF8001041F48031CBF80010DBF8001076
:104BC00021F48031CBF800100AE04DE02C4402586B
:104BD000504402585844025800480258544402585D
:104BE000CBF80000D4F8B000B0F5807F11D1FEF70B
:104BF00027FA824609E0FEF723FAA0EB0A0141F208
:104C00008830814201D9032503E0DBF800008007EA
:104C1000F1D50DB12E46A9E7D4F8B000C0F30121BB
:104C200003290ED0F948016821F47C510160DBF8BA
:104C30000000B4F8B010C1F30B010843CBF800003A
:104C400094E7F2490A68F24B22F47C52184042EA97
:104C500010100860EBE709E001E012E003E0202813
:104C600002D0282800D00125BDB12E46207880072B
:104C70002CD5E06F062826D2DFE800F026191F2683
:104C800026260121201D04F0A7F80546ECE7009830
:104C9000012104F033F90546E6E7DAF80000D4F81C
:104CA000801020F038000843CAF80000DEE7012138
:104CB000201D04F091F8054606E00098012104F05B
:104CC0001DF9054600E0012565B12E462078400714
:104CD00020D5D4F89800062819D2DFE800F0190C86
:104CE00012191919DAF80000E16F20F007000843E3
:104CF000CAF80000EAE70121201D04F06DF805461E
:104D000006E00098012104F0F9F8054600E00125CD
:104D10008DB12E462078800620D5D4F89400B0F1CD
:104D2000405F19D011DCB8B1B0F1805F27D0B0F18D
:104D3000005F10D129E0D9F80000D4F8981020F0D5
:104D400007000843C9F80000E4E7B0F1804F03D042
:104D5000B0F1A04F00D00125EDB12E4620784006DD
:104D60002CD5D4F8A000B0F5406F25D01DDC18B3C9
:104D7000B0F5806F33D0B0F5006F1CD135E0002165
:104D8000201D04F029F80546E6E70098022104F00A
:104D9000B5F80546E0E7DAF80000D4F8941020F002
:104DA000E0400843CAF80000D8E7B0F5805F03D0C0
:104DB000B0F5A05F00D00125EDB12E4620780006A9
:104DC0002CD5D4F8A400B0F5C04F25D01DDC18B305
:104DD000B0F5005F2BD0B0F5804F1CD12DE0002145
:104DE000201D03F0F9FF0546E6E70098022104F0D4
:104DF00085F80546E0E7D9F80000D4F8A01020F4C3
:104E0000E0500843C9F80000D8E7B0F5004F03D0E0
:104E1000B0F5204F00D00125ADB12E462078000717
:104E20002AD5D4F88800B0F5805F16D01BE00021A9
:104E3000201D03F0D1FF0546EEE70098022104F0A3
:104E40005DF80546E8E7D9F80000D4F8A41020F48E
:104E500060400843C9F80000E0E70098022104F030
:104E60004DF800B10126DAF80000D4F8881020F4DB
:104E700040500843CAF800002078C00613D5D4F883
:104E80009C00B0F5807F05D10098022104F036F82F
:104E900000B10126D9F80000D4F89C1020F440702D
:104EA0000843C9F80000206800030BD5D4F8A80017
:104EB000F0B3B0F5803F7ED0B0F5003F00D00125C3
:104EC000BDB32E46206840030DD5D4F88C00B0F554
:104ED000801F71D0B0F5001F6FD0B0F5401F00D01B
:104EE00001253DB32E462068C00307D5E06CE8B32A
:104EF000B0F5803F72D00125CDB32E4620688000EA
:104F000005D50098022103F0F9FF00B101262068C1
:104F1000800312D5D4F8840048B1B0F5807F74D0F6
:104F2000B0F5007F03D0B0F5407F00D0012502E04E
:104F300055E060E079E0EDB32E462068C00207D569
:104F4000D8F80000A16F20F000400843C8F8000026
:104F50002068800207D5D8F80000E16E20F080704C
:104F60000843C8F800002088000501E068E072E00E
:104F700007D5D9F80000216F20F000600843C9F878
:104F800000002068400009D52048016821F4004154
:104F900001600168D4F8B420114301602068002842
:104FA00007DA1A483C300168226D21F04051114364
:104FB000016003E05CE018E02CE030E020680002D3
:104FC00008D5DAF80000D4F8901020F44000084327
:104FD000CAF800009EB30120BDE8F88F35E000213B
:104FE000201D03F0F9FE05466AE70098022103F050
:104FF00085FF054664E7D9F80000D4F8A81020F42E
:1050000040300843C9F800005CE72CE01044025827
:10501000FFFCFF0F386840F40030386061E700980B
:10502000012103F06BFF05465BE7DAF80000D4F8D6
:105030008C1020F440100843CAF8000053E721E028
:10504000386840F40030386056E70221201D03F034
:10505000C3FE054650E70C480168E26C21F480313C
:10506000114301604AE7386840F4003038605EE779
:10507000DAF80000D4F8841020F440700843CAF82D
:1050800000005AE70020A7E74C4402582DE9F05FE2
:1050900004460D46002C17D0DFF84C82D8F80000EB
:1050A00000F00F00A84211D2D8F8000020F00F0045
:1050B0002843C8F80000D8F8000000F00F00A8420C
:1050C00004D00120BDE8F09F0120FBE72078874E47
:1050D00040070AD52069316801F07001884204D97F
:1050E000316821F07001014331602078804F000762
:1050F0000AD56069396801F07001884204D93968BD
:1051000021F07001014339602078C0060AD5A069FA
:10511000396801F4E061884204D9396821F4E0611A
:10512000014339602078DFF8CC9180060DD5E06925
:10513000D9F8001001F07001884206D9D9F80010A2
:1051400021F070010143C9F80010207880070AD5CA
:10515000E068316801F00F01884204D9316821F01C
:105160000F01014331602078C00743D03068A16847
:1051700020F47060084330605C4960681839022888
:1051800008D003280BD001280ED00968490710D495
:10519000012097E7096889030BD4012092E7096889
:1051A000890106D401208DE70968C90501D40120D1
:1051B00088E7DFF838A1AAF1080ADAF8001021F030
:1051C00007010143CAF80010FDF73AFF834609E0E2
:1051D000FDF736FFA0EB0B0141F28830814201D987
:1051E00003206FE7DAF80000616800F03800B0EBE8
:1051F000C10FEDD1207880070AD5E068316801F051
:105200000F01884204D2316821F00F01014331605F
:10521000D8F8000000F00F00A8420ED9D8F800001E
:1052200020F00F002843C8F80000D8F8000000F074
:105230000F00A84201D0012044E7207840070AD59A
:105240002069316801F07001884204D2316821F090
:10525000700101433160207800070AD56069396820
:1052600001F07001884204D2396821F070010143D5
:1052700039602078C0060AD5A069396801F4E06178
:10528000884204D2396821F4E06101433960207812
:1052900080060DD5E069D9F8001001F07001884250
:1052A00006D2D9F8001021F070010143C9F80010AE
:1052B00000F070F83168C1F303220F498A5C02F0F4
:1052C0001F02D040326802F00F02895C0B4A01F0E5
:1052D0001F0120FA01F111600949086009480068BE
:1052E000BDE8F05FFDF7E8BE002000521844025808
:1052F0001C44025820440258B43B0108040000201A
:10530000000000200400002400B500F043F80B4921
:105310000A68C2F303230A4AD35C03F01F03D84090
:10532000096801F00F01515C064A01F01F0120FAE3
:1053300001F11160044A1060084600BD184402588B
:10534000B43B0108040000200000002000B5FFF776
:10535000DBFF05490968054AC1F30211515C01F000
:105360001F01C84000BD00001C440258B43B0108A6
:1053700000B5FFF7C9FF05490968054AC1F30221D5
:10538000515C01F01F01C84000BD00001C440258E0
:10539000B43B010830B564480068654C10F0380132
:1053A000624808D0021108290DD010290DD0182903
:1053B0000DD0104630BD21688906FBD52168C1F3A8
:1053C000C101C84030BD104630BD5A4830BD5649B5
:1053D00018310A6802F003020968C1F30511524B43
:1053E0001C331B6803F001034F4D24352D68C5F3B2
:1053F000CC0515FB03F300EE103AB8EE400A002985
:1054000077D0DFED4D0A484BB7EE001A20333AB3A0
:105410009FED4A2A012A58D0022A6CD001EE901A38
:105420001868F8EE611AC2EE212AC0F3080001EEF6
:10543000900AF8EE611A40EE201A31EE810A22EE4F
:10544000800A1868C0F34620401C00EE900AF8EE6F
:10545000600A80EE201ABCEEC10A10EE100A30BDC0
:10546000226892061BD52268C2F3C102D04001EE29
:10547000900A1868F8EE612A01EE901AF8EE611AA7
:1054800082EEA12AC0F3080001EE900AF8EE611A3C
:1054900040EE201A31EE810A22EE000AD1E701EE39
:1054A000901ADFED272A1868F8EE611A82EEA12A19
:1054B000C0F3080001EE900AF8EE611A40EE201ADF
:1054C00031EE810A22EE000ABBE701EE901A18685D
:1054D000F8EE611AC2EE212AC0F3080001EE900A2C
:1054E000F8EE611A40EE201A31EE810A22EE800AAF
:1054F000A7E716E0FFE701EE901ADFED122A186821
:10550000F8EE611A82EEA12AC0F3080001EE900ABB
:10551000F8EE611A40EE201A31EE810A22EE000AFE
:105520008FE7002030BD0000104402580090D003E7
:105530000044025840787D01000000390024744A7C
:105540000024744C20BCBE4BF0B587B00C46154609
:105550001D4B1E4E00210222032700281AD0186876
:1055600040F004001860186800F004000190100278
:105570000290039205970491069102A91448FDF741
:1055800065FC306844EAC51120F07E400843306075
:1055900007B0F0BD186840F001001860186800F00E
:1055A000010001904FF480700290039205970491DE
:1055B000069102A90748FDF749FC30682C4320F00A
:1055C000FE7020433060E3E7404502581044025823
:1055D00000080258000002582DE9F0470446002C4C
:1055E00010D02078DFF8D883F64FF74DC0077BD076
:1055F000D8F8000000F038003968102826D01828A4
:1056000003D006E00120BDE8F08701F00300022886
:105610001CD06068B0F5803F1FD018B3B0F5A02F44
:105620002DD0B0F5A81F37D0286820F4803028602E
:10563000286820F480202860286820F480102860E2
:105640006068B0B3FDF7FCFC06463BE028688003C9
:105650004AD5606870BB0120D5E7286840F48030E7
:105660002860EDE7286820F480302860286820F45E
:1056700080102860286820F480202860E0E72868EF
:1056800040F480202860286820F480102860286872
:1056900040F480302860D3E7286840F480202860F8
:1056A000286840F480102860286840F48030286022
:1056B000C6E70BE018E0FDF7C3FC801B642801D9A6
:1056C0000320A0E728688003F5D50DE0FDF7B8FCBE
:1056D000064606E0FDF7B4FC801B642801D90320D0
:1056E00091E728688003F5D4207880074FD5D8F853
:1056F000000000F038003968DFF8CC9209F10409A5
:1057000070B1182801D188070AD0E06868B3296809
:1057100021F0190101432960FDF792FC064617E0CC
:105720002868400701D5E06848B1D9F80000217C1D
:1057300020F0FE4040EA0160C9F8000027E00120A7
:1057400061E7FDF77DFC801B022801D903205AE7A1
:1057500028684007F5D5D9F80000217C20F0FE40EC
:1057600040EA0160C9F8000011E0286820F001005B
:105770002860FDF765FC064606E0FDF761FC801B2E
:10578000022801D903203EE728684007F5D4207895
:10579000C00655D5D8F8000000F038003968DFF8A9
:1057A00020920828A9F104090FD0182803D101F08C
:1057B0000300012809D0E06978B3286840F0800030
:1057C0002860FDF73DFC064619E02868C00504D5B1
:1057D000E069802801D0012015E7D9F8000094F88D
:1057E000201020F07C5040EA0160C9F8000027E05A
:1057F000FDF726FC801B022801D9032003E7286857
:10580000C005F5D5D9F8000094F8201020F07C50A0
:1058100040EA0160C9F8000012E0FFE7286820F0C4
:1058200080002860FDF70CFC064606E0FDF708FC4A
:10583000801B022801D90320E5E62868C005F5D4BD
:105840002078000730D5DFF87C91606909F14C09B8
:10585000A8B1D9F8000040F00100C9F80000FDF738
:10586000EFFB064606E0FDF7EBFB801B022801D9A3
:105870000320C8E6D9F800008007F4D514E0D9F871
:10588000000020F00100C9F80000FDF7D9FB064632
:1058900006E0FDF7D5FB801B022801D90320B2E604
:1058A000D9F800008007F4D42078800626D5A069B6
:1058B00090B1286840F480502860FDF7C1FB06468F
:1058C00006E0FDF7BDFB801B022801D903209AE604
:1058D00028688004F5D511E0286820F480502860FD
:1058E000FDF7AEFB064606E0FDF7AAFB801B02288B
:1058F00001D9032087E628688004F5D42078400782
:1059000071D5324E306840F480703060FDF798FBFE
:10591000814607E0FDF794FBA0EB0900642801D95C
:10592000032070E63068C005F4D5264EA0684836DE
:10593000012818D0E0B1052827D0852832D030685A
:1059400020F001003060306820F0040030603068E2
:1059500020F080003060A06841F2883A78B3FDF70B
:105960006FFB81463CE0306840F001003060F2E7B8
:10597000306820F001003060306820F08000306036
:10598000306820F004003060E5E7306840F0040043
:105990003060306820F080003060306840F00100F6
:1059A0003060D8E7306840F004003060306840F084
:1059B00080003060306840F001003060CBE713E0D9
:1059C0001044025828440258004402580048025823
:1059D000FDF736FBA0EB0900504501D9032012E684
:1059E00030688007F4D50EE0FDF72AFB814607E01A
:1059F000FDF726FBA0EB0900504501D9032002E684
:105A000030688007F4D4616AE9B3D8F80000DFF8A1
:105A10007C81C0F3C200032876D0022907D0286811
:105A200020F080702860FDF70BFB04467FE02868BB
:105A300020F080702860FDF703FB064606E0FDF7C6
:105A4000FFFA801B022801D90320DCE528688001C9
:105A5000F5D4386840F2F3318843E16A40EA011036
:105A6000A16A08433860208E4FF6FF72616B401EBA
:105A7000491EC0F3080002EA41210843218F4FF478
:105A8000FE02491E00E07FE002EA0141084394F86B
:105A90003C10491E120202EA01610843C8F80000E6
:105AA0003A48001F016821F0010101603749091DD2
:105AB0000A684FF6F8739A43A36C42EAC3020A607D
:105AC0000168226C21F00C01114301600168626CD5
:105AD00021F0020111430160016841F4803101604D
