:020000040800F2
:1000000070F601205D020008D1320008212A0008A4
:10001000B13200087D0E000889A30008000000002E
:1000200000000000000000000000000089560008E9
:100030008D1E00080000000091360008515700088E
:1000400077020008770200087702000877020008AC
:10005000770200087702000877020008770200089C
:100060006124000877020008770200087702000880
:100070007702000877020008011B00082D1B00080A
:100080007702000877020008070B000877020008D3
:100090009D0E00087702000877020008770200082A
:1000A000770200087702000877020008770200084C
:1000B000895800088D580008770200087702000868
:1000C000770200087702000877020008770200082C
:1000D000770200088F5C0008935C0008975C0008BA
:1000E0002D24000877020008770200087702000834
:1000F00077020008770200087702000877020008FC
:10010000770200089144000891580008770200081F
:100110007702000877020008770200089558000867
:1001200077020008591B000877020008851B0008A9
:1001300077020008770200087702000877020008BB
:100140007702000877020008770200087D33000874
:10015000770200087702000877020008770200089B
:10016000770200087702000877020008770200088B
:100170007702000877020008311A000877020008A9
:100180007702000877020008DFF80CD000F03EFC90
:1001900000480047395F010870F601202C4B1968B0
:1001A0000868B0E8F04F80F30988BFF36F8F4FF015
:1001B000000080F3118870470000000008480068C4
:1001C000006880F308884FF0000080F3148862B65E
:1001D00061B6BFF34F8FBFF36F8F00DF00BF00BF6B
:1001E00008ED00E0DFF80C00016841F470010160E7
:1001F000704700BF88ED00E0EFF30980BFF36F8F19
:10020000134B1A681EF0100F08BF20ED108A20E96A
:10021000F04F106009B44FF0500080F31188BFF325
:100220004F8FBFF36F8F1BF071FF4FF0000080F313
:10023000118809BC19680868B0E8F04F1EF0100F6B
:1002400008BFB0EC108A80F30988BFF36F8F704746
:1002500020060020EFF30580704700000648804725
:1002600006480047FEE7FEE7FEE7FEE7FEE7FEE79B
:10027000FEE7FEE7FEE7FEE7615700088901000898
:100280002DE9F05F0546002092469B4688460646CB
:10029000814640241BE0284641464746224600F05E
:1002A000C5F953465A46C01A914110D31146184613
:1002B000224600F0ACF92D1A67EB01084F462246A2
:1002C0000120002100F0A3F917EB00094E41201E88
:1002D000A4F10104DFDC484631462A464346BDE826
:1002E000F09F2DE9FE43994615468846074601AC26
:1002F000022942D3002D40D000200290A8F1010035
:100300004FF0FF36009022E000FB057201FB057004
:1003100011464A469047002805DC54F82600304430
:1003200044F8260013E060682A4600FB057154F883
:10033000040C00FB057007E00B7890F800C001F892
:1003400001CB00F8013B521E002AF5D1764254F849
:10035000040C61688842D7DC4B462A463846FFF7D2
:10036000C0FF54F8040C4B46A8EB0001401C00FBF6
:1003700005702A46491EFFF7B4FFBDE8FE8310B59D
:10038000431A934209D28318881803E010F8011D1C
:1003900003F8011D521EF9D210BD40EA01039B076C
:1003A00003D009E008C9121F08C0042AFAD203E0EA
:1003B00011F8013B00F8013B521EF9D210BDD2B238
:1003C00001E000F8012B491EFBD270470022F6E73E
:1003D00010B513460A4604461946FFF7F0FF2046BB
:1003E00010BD421E12F8013F002BFBD111F8013B5A
:1003F00002F8013B002BF9D17047421C10F8011B99
:100400000029FBD1801A704710B5002200E0521C71
:10041000835C8C5CA34201D1002BF8D1D8B2E1B24D
:10042000401A10BD034611F8012B00F8012B002AD9
:10043000F9D1184670472DE9FE4F804681EA030046
:10044000C00F0C46009021F0004123F00045B8EBAE
:100450000200A94105D24046214690461C460B4663
:10046000024623F00040104347D0270DC7F30A008F
:10047000C3F30A510290401A019040286BDAC3F38B
:10048000130040F4801B0098924620B10023D2EB69
:10049000030A63EB0B0B01985946C0F1400250462A
:1004A00000F0B5F806460D4650465946019A00F050
:1004B000CDF810EB08006141002487EA115284EA6C
:1004C000E7731A4340D0009A62B3019A012A4FEAB7
:1004D000075215DC001B61EB02014FF0004202EAFB
:1004E0000752CDE90042001C41F5801132462B46EF
:1004F00000F004F903B0BDE8F08F40462146F9E76B
:10050000001B61EB0201001C41F5801300185B41E8
:100510002018A2F5001747EB030140EAD570B61981
:100520006D4111E06D084FEA360645EAC0754FEAA5
:100530000752001B61EB0201001C41F580114908C4
:100540004FEA30000019514132462B4603B0BDE856
:10055000F04F00F0C4B80098012240000023D0EB17
:10056000020263EBE073009821464FEAE074B8EBB7
:10057000000061EB0401E9E783F000435BE781F0F1
:10058000004158E700F0004230F000400AD0C10DB1
:1005900001F56071C0F3160042EA0151C20840073C
:1005A0001143704700200146704701F0004330B40A
:1005B00021F0004150EA010206D00A0DA2F5607256
:1005C000C1F31301002A02DC30BC00207047440F45
:1005D00044EAC104C100E01830BC00EBC25000F096
:1005E00047B830B50B46014600202022012409E01F
:1005F00021FA02F59D4205D303FA02F5491B04FADC
:1006000002F52844151EA2F10102F1DC30BD202ABA
:1006100004DB203A00FA02F1002070479140C2F159
:10062000200320FA03F3194390407047202A04DB8B
:10063000203A21FA02F00021704721FA02F3D0405B
:10064000C2F120029140084319467047202A06DB78
:10065000CB17203A41FA02F043EAE07306E041FA90
:1006600002F3D040C2F1200291400843194670477E
:100670000029A8BF7047401C490008BF20F00100B6
:10068000704710B4B0FA80FC00FA0CF050EA010494
:1006900004BF10BC704749B1CCF1200421FA04F426
:1006A00011FA0CF118BF012121430843A3EB0C01FF
:1006B000CB1D4FEA00614FEA102042BF002010BC62
:1006C000704700EBC35010440029A4BF10BC704712
:1006D000401C490008BF20F0010010BC704710B555
:1006E000141E73F1000408DA401C41F10001921855
:1006F0005B411A4301D120F0010010BD2DE9F04DFE
:1007000092469B4611B1B1FA81F202E0B0FA80F252
:1007100020329046FFF77BFF04460F4640EA0A006E
:1007200041EA0B0153465A46084313D0114653EA97
:10073000010019D0C8F140025046FFF777FF054687
:100740000E46504659464246FFF761FF084305D022
:10075000012004E020463946BDE8F08D0020054325
:1007600046EAE0762C4337430A986305E40AA0EB97
:1007700008000022FD0A44EA47540A3002D500204E
:100780000146E9E7010510196941DDE9084500194D
:100790006941BDE8F04DA2E72DE9FE4F81EA03046F
:1007A00004F0004421F0004100944FF0000B23F0CE
:1007B000004350EA01045ED052EA03045BD0C3F365
:1007C0000A54C1F30A552C44A4F2F3340194A0FB5B
:1007D0000254C1F3130141F48011C3F3130343F432
:1007E000801301FB024400FB034E840A970A44EA8B
:1007F000815447EA8357A4FB076802958D0A05FBDD
:1008000007854FEA932C04FB0C542705029D4FEA01
:10081000065847EA1637B5EB08056EEB070C870E4E
:10082000920E47EA811742EA8312A7FB0201B6EB58
:100830000B0164EB00042B0D43EA0C335E1844EB10
:100840001C50DA465146E7FB0201C5F313044FEA98
:100850000B3343EA14534FEA0432019C43EA060384
:10086000A4F10C040294009CCDE900B4FFF746FF0C
:1008700003B0BDE8F08F00200146F9E72DE9F04D07
:1008800081EA030404F0004B21F0004514464FF0C8
:10089000000A23F0004150EA050220D054EA010288
:1008A0001DD0C5F30A570246C5F31303C1F3130065
:1008B000C1F30A5640F4801543F48013A7EB0608F1
:1008C000101BD64608F2FD3873EB050002D308F181
:1008D000010801E092185B41B8F1000F03DA002033
:1008E0000146BDE8F08D00204FF480110646844695
:1008F0000EE0171B73EB050705D3121B63EB050313
:1009000006434CEA010C49084FEA300092185B415B
:1009100050EA0107EDD152EA030012D082EA040046
:1009200083EA0501084305D0101BAB4106D2012222
:10093000002306E000224FF0004302E06FF00102C6
:1009400053101AEB06004CEB085110EB0A0041EB78
:100950000B01BDE8F04DFFF7C2BE0EB5C10F80EA36
:10096000E0700844CA07002140F233438DE80E00CE
:100970000A460B46FFF7C2FE03B000BDC1F30A52A0
:10098000C1F3130140F2FF3341F480119A4202DABD
:1009900000200146704740F233439A42A2F23342AC
:1009A00002DC5242FFF742BEFFF731BE30B5041EF3
:1009B00071F1000404DB4FF00044404264EB01019C
:1009C000141E73F1000405DB1C464FF00043524235
:1009D00063EB04038B4208BF824230BD30B5041E76
:1009E00071F1000404DB4FF00044404264EB01016C
:1009F000141E73F1000405DB1C464FF00043524205
:100A000063EB0403994208BF904230BD064C074D8A
:100A100006E0E06840F0010394E8070098471034CE
:100A2000AC42F6D3FFF7B4FBE4B9040824BA0408D7
:100A300070B58C1810F8015B15F0070301D110F8A0
:100A4000013B2A1106D110F8012B03E010F8016BCD
:100A500001F8016B5B1EF9D12B0705D40023521E50
:100A60000DD401F8013BFAE710F8013BCB1A921CB8
:100A700003E013F8015B01F8015B521EF9D5A142B6
:100A8000D8D3002070BDC94301607047090AC9432B
:100A900001607047002904D0816841F00101816044
:100AA0007047816821F001018160704710B5074CE3
:100AB000226807490A40D0E900131943D0E90230FF
:100AC000034319431143216010BD0000042301407A
:100AD000E030FCFFC06C80B2704702460020126814
:100AE0000A4200D00120704730B5024600200B0AB0
:100AF000546801258D402C401168194202D0002C09
:100B000000D0012030BD15F05BBA000030B542685E
:100B10000F4B1A400C790B6842EA042213434360DE
:100B200083680C4A1340D1E9034222434D798C6813
:100B300044EA450422431A438260C26A22F47002E6
:100B4000097D491EC9B242EA0151C16230BD0000AF
:100B5000FFFEFFFCFDF7FFC070B5072609290AD983
:100B6000C568A1F10A0404EB4404A640B543A340C0
:100B70001D43C56007E0056901EB4104A640B5438C
:100B8000A3401D4305611F23072A09D2446B521E4F
:100B900002EB820293409C4391400C43446370BD3E
:100BA0000D2A09D2046BD21F02EB820293409C43B0
:100BB00091400C43046370BDC46A0D3A02EB82029B
:100BC00093409C4391400C43C46270BD0849002887
:100BD00006D0D1F8040340F40000C1F804037047C4
:100BE000D1F8040320F40000C1F8040370470000AA
:100BF0000020014010B5074C2060084600F00CF8BA
:100C000020680028FCD1BDE8104000214FF0804052
:100C100004F054BE880700203EB504464FF08045DE
:100C20000021284604F04AFE00220121284604F053
:100C30009FFE022C02D0012C03D005E00B20019076
:100C400002E042F6DF6001900520ADF800000020D0
:100C5000ADF80800ADF802006946284604F0D0FF60
:100C60000121284604F027FE0121284604F014FE45
:100C700001221146284604F07BFE0121284604F09B
:100C80001DFE3EBD70B586B004460D4616460121D8
:100C9000084602F00DFD0223ADF808300023ADF840
:100CA0000A30ADF80C40ADF80E50ADF81060ADF85C
:100CB0001230ADF8143002A800F0D8FE0121084629
:100CC00000F0C4FE4E208DF8040001208DF80500D0
:100CD0008DF806008DF8070001A802F007FB06B0AA
:100CE00070BD00002DE9F04190B0074688461546DA
:100CF0000121880502F0CEFC264E304600F07CFF34
:100D00004FF000700190244802900397002404944F
:100D100005950694012D3BD0301507904FF4805077
:100D200008904000099040110A9040020B90042066
:100D30000C9003200D900E940F9401A9304601F001
:100D40007BF8B8F1000F20D000223946304600F081
:100D5000F5FF4FF400224146304600F0EFFF01213D
:100D6000304600F0DFFF01221021304601F04AF842
:100D700039208DF8000001208DF801008DF8024027
:100D80008DF80300684602F0B1FA10B0BDE8F081BA
:100D90000794C3E728640240280005502DE9FC4170
:100DA0000121172002F076FC304C0D220421204650
:100DB00001F0AAFD0D220621204601F0A5FD0D221D
:100DC0000921204601F0A0FD294D0D2206212846CB
:100DD00001F09AFD0D220721284601F095FD254ED0
:100DE0000D220721304601F08FFD234F0D220021F7
:100DF000384601F089FD0D220121384601F084FDBD
:100E00000D220421384601F07FFD0D2205213846D0
:100E100001F07AFD0D220621384601F075FD4FF4F0
:100E20001471009102218DF8041003218DF8051032
:100E300000218DF8061001208DF807006946204634
:100E400001F024FDC02000906946284601F01EFDF7
:100E5000802000906946304601F018FD7320009014
:100E60006946384601F012FDBDE8FC8100000240F1
:100E700000040240000802400010024002A10120CC
:100E80001BF0B6FBFEE700004275734661756C749B
:100E90005F48616E646C65720D0A000015F01CB944
:100EA00010B500EB0113D3F8B04104F00404147240
:100EB000002C2CD0D3F8B041E408546003F5D8736B
:100EC0001C6804F0020454725C6804F00F0494720D
:100ED0005C68240AD4749C68D4729C68240A1473D5
:100EE0009C68240C54739C68240E9473DC68D4733F
:100EF000DC68240A1474DC68240C5474DB681B0E50
:100F0000937449B1016941F02001016110BDD3F82A
:100F1000B041640D1460D1E7C16841F02001C160A7
:100F200010BD70B500254FF4803400E0641E24B17C
:100F3000802003F087FA0028F8D02CB140F2FF504F
:100F400003F03EFA284670BD032070BD70B505461B
:100F500000243B49086800E0086810F0450FFBD00A
:100F6000410705D50324042003F02AFA204670BD6A
:100F7000C00705D00124012003F022FA204670BDED
:100F800003F05AFAA84201D0102070BD40F2FF5081
:100F900003F016FA002003F071FA2A49084201D141
:100FA000204670BD002801DA1C2070BD410001D52B
:100FB000092070BD810001D50A2070BDC10001D596
:100FC0000B2070BD010101D50C2070BD410101D580
:100FD0000D2070BDC10101D50E2070BD010201D5EB
:100FE0000F2070BD410201D5102070BD810201D5D6
:100FF000112070BDC10201D5122070BD010301D5C1
:10100000132070BD410301D5142070BD810301D5AB
:10101000152070BDC10301D5162070BD010401D596
:10102000172070BD410401D5182070BD810401D581
:10103000192070BD000701D51A2070BD204670BD73
:10104000342C014008E0FFFD10B500240E4A116861
:1010500000E0116811F0450FFBD0480705D50324C7
:10106000042003F0ADF9204610BDC80705D00124C7
:10107000012003F0A5F9204610BD40F2FF5003F017
:101080009FF9204610BD0000342C014010B500240B
:101090000A4A116800E0116811F0450FFBD04807BB
:1010A00005D50324042003F08BF9204610BD40F23F
:1010B000FF5003F085F9204610BD0000342C01409C
:1010C00070B506460C4600251C4A106800E0106802
:1010D00010F0450FFBD0410705D50324042003F091
:1010E0006FF9204670BDC00705D00124012003F030
:1010F00067F9204670BD03F09FF9B04201D010207F
:1011000070BD40F2FF5003F05BF9002003F0B6F928
:1011100010F4604F03D0810405D5132070BD000C7E
:101120002080284670BD410401D5102070BD000408
:1011300001D50F2070BD284670BD0000342C014041
:1011400010B500204FF480310D4B1A6801E0491EA4
:101150001A6812F0450F01D10029F8D109B15107E1
:1011600005D50324042003F02BF9204610BD5106B9
:10117000FCD50024402003F023F9204610BD0000D8
:10118000342C01400122064B8240002903D018680C
:10119000104318607047186890431860704700004B
:1011A0000074004030B5084C236840F6FE7282405F
:1011B0009343D1E900252A43D1E902510D432A4343
:1011C00082401A43226030BD0074004008B5034AD3
:1011D0001044143000900098016008BD0074004075
:1011E0000069416841F002014160032007F02ABA1A
:1011F00010B50B4603F07F0202EB82011C0600EBE8
:10120000C10102D501F58E7101E001F55D710A7031
:10121000DA094A7007F0C2FC002010BD10B50A467A
:10122000110602F07F0306D503EB830100EBC10139
:1012300001F58E7105E002EB820100EBC10101F5C1
:101240005D7100248C700B70D2094A7007F088FC25
:10125000002010BD10B50A0604D501F07F0107F08B
:101260000FFE01E007F0EEFD002010BD70B50D4649
:1012700005F07F0404EB84012E0600EBC10102D5CA
:1012800001F58E7101E001F55D710C70ED094D7095
:101290008A60CB7005B1CC80022B01D100220A718B
:1012A00007F030FC002070BD10B501F07F0404EBA6
:1012B000840100EBC10101F55D71CA604B6100233F
:1012C0008B614B700C70C378012B00D10A610A78D6
:1012D0001AB107F09EFC002010BD07F08AFBFAE768
:1012E000002261F30A12006901681143016070472E
:1012F00010B50A46110602F07F0306D503EB830101
:1013000000EBC10101F58E7105E002EB820100EBFB
:10131000C10101F55D7101248C700B70D2094A7016
:1013200007F057FC002010BD70B501F07F0404EBFE
:10133000840100EBC10101F58E7101254D700C7027
:10134000CA600A6100228A614B61002C03D007F059
:1013500060FC002070BD07F04CFBFAE770B586B06A
:101360000646304607F01CFB01A802F0FBF9029D7F
:10137000F068C16821F470540594C460304607F0E9
:10138000A1FD0146002003290ED00120B0704020AD
:10139000B0803E483E49284488420FD224F4705021
:1013A00000F56050059066E0B0704FF40070B080BA
:1013B00024F4705000F5105005905CE03548364933
:1013C0002844884205D224F4705000F5505005900E
:1013D00051E0324832492844884205D224F4705002
:1013E00000F54050059046E02E482F492844884299
:1013F00005D224F4705000F5305005903BE02B48A6
:101400002B492844884205D224F4705000F520501E
:10141000059030E0274828492844884205D224F422
:10142000705000F51050059025E0244824492844C8
:10143000884205D224F4705000F5005005901AE05F
:10144000204821492844884205D224F4705000F5F0
:10145000E05005900FE01D481D492844884205D200
:1014600024F4705000F5C050059004E024F470504E
:1014700000F5A0500590F1680598C8604FF4005041
:10148000F168486106B0012070BD0000401E1BFFDE
:1014900040420F0000DC0BFFE0C810002013FBFEF1
:1014A00020D61300003DE7FE006A180000D3CEFEF0
:1014B00040771B00C05BB3FEC091210000CA91FEC3
:1014C00040AC2700C01D6AFE40E13300803C36FE80
:1014D000E09C4100F8B50546002400200090284615
:1014E00007F0ABFE064652E0F0074ED0E1B22846C8
:1014F00000F012FA0090C0071CD0012101FA04F29A
:101500002869436B93434363009105EB8400806932
:1015100081602148E1B20068426828469047E87837
:10152000012807D134B995F81101042802D12846C1
:1015300007F0D2FA0098000705D50820009005EBC7
:101540008401896988600098C00605D51020009044
:1015500005EB8401896988600098400605D5402024
:10156000009005EB8401896988600098800705D5A3
:101570000220009005EB84018969886000980006CC
:1015800003D52146284600F0D5F9641C7608002EC4
:10159000AAD10120F8BD00000C0500202DE9FC4176
:1015A0000546002400200190284607F04CFE064620
:1015B000274F47E0F00743D0E1B2284607F049FE45
:1015C0000190C00726D00121019105EB8400426DF6
:1015D0009160E97801290DD1406D0069009004EB1C
:1015E000840105EBC101C0F31200D1F87C23101A6D
:1015F000C1F88C033868E1B2026828469047E87861
:10160000012807D134B995F81101052802D12846DF
:1016100007F062FA0198800705D50220019005EBDA
:101620008401496D88600198000709D53868816890
:10163000284688470820019005EB8401496D8860A1
:10164000641C7608002EB5D10120BDE8FC810000A5
:101650000C05002038B50446A07A002808D0D4F83C
:101660000C01016821F0020121F0010100910160EB
:101670002069416821F001014160054800688169E5
:10168000204688474FF00040E1684861012038BD9E
:101690000C0500207CB5054610200190E8688169A2
:1016A00021F010018161E868006A009000F00F01EC
:1016B00001EB810105EBC10404F55D74C0F3434106
:1016C000072923D2DFE801F0222204222222160079
:1016D00047F6F071084219D0C0F30A163246284680
:1016E000E16807F0CDFDE0683044E060A069304477
:1016F000A0610BE0082205F2CC51284607F0C0FD9E
:101700000099A069C1F30A110844A061E8688169E1
:1017100041F01001816101207CBD000010B504463C
:10172000044920460968C96888470821E068416182
:10173000012010BD0C0500201FB5044600200090BC
:1017400094F81201009017480068416920468847C4
:101750002069806801904FF400610391E268516153
:10176000A17AE1B1C0071AD094F81501012816D169
:101770009DF80000032812D1D4F80C01016841F053
:101780000101016003200290D4F80C01016841F0CE
:10179000030101600448016841F00601016004B0E2
:1017A000012010BD0C05002010ED00E070B586B0E2
:1017B000044600250595049503950295009501269C
:1017C00001962069416821F0010141600021204615
:1017D00007F056FB0020FF2206E004EB80018B6936
:1017E0009A60496D8A60401C61788142F5D8216910
:1017F0004FF0FF308861ADF81460ADF816602169D4
:101800000598C86145F0080040F0010040F0020072
:101810002169486145F0010040F0080040F00200F5
:10182000216908612069016821F4FE610160204698
:1018300007F052F94FF48050E168486103480068AE
:1018400001692046884706B0012070BD0C050020C4
:1018500070B50446204607F039FD012584F8125181
:10186000002084F81401002240230DE002EB8201E5
:1018700004EBC10101F58E714D700A70CA80C87009
:101880008B60C8604861521C61789142EED800229A
:101890000DE002EB820104EBC10101F55D714870BE
:1018A0000A70CA80C8708B60C8604861521C617839
:1018B0009142EED8204607F047F8204606F0C8FED1
:1018C0000021204607F062FD204606F013FF204667
:1018D000BDE8704007F088BA10B5044605492046B7
:1018E0000968C96988474FF48011E06841610120A7
:1018F00010BD00000C05002010B504460549204627
:101900000968096A88474FF40011E06841610120C5
:1019100010BD00000C05002002691369526BCA401B
:1019200002F0010243EAC21200EB81008069806884
:10193000104070472DE9F84306460F4600200090FE
:1019400007EB870006EBC00404F58E74D4E90501AB
:10195000401AA168814200D20846C01C4FEA900993
:1019600006EB8708D8F818008069009021E0D51AA6
:10197000A268AA4200D21546E81C4FEA9009ABB211
:10198000FAB23046E16808F049FCE0682844E060BB
:10199000A0692844A061D8F818108969009161698C
:1019A000814206D12078012181403069426B8A430F
:1019B0004263009880B2484505D9D4E90523934293
:1019C00001D2002AD3D10120BDE8F88306490028BE
:1019D00004D0086840F0010008607047086820F0F3
:1019E000010008607047000000000550014948618F
:1019F00070470000000005500649002804D0086820
:101A000040F4804008607047086820F48040086017
:101A10007047000000000550024600200349096994
:101A20001140002900D0012070470000000005503F
:101A300010B50120FFF7F0FF012805D1FFF7D6FF11
:101A4000BDE8104014F09ABB10BD0000064A002902
:101A500003D0D1680143D1607047D168C04380B2E0
:101A60000140D160704700000000055030B50D49BD
:101A70000A6844F201039A430A600A6840F6F27366
:101A80009A4303884488C588234384882C4323438E
:101A900004892343448980892343034313430B6010
:101AA00030BD0000000005501CB50121102001F0E0
:101AB000F1FD0C20009002208DF8050001208DF82A
:101AC000040000218DF806108DF807000B4C6946C4
:101AD000204600F0DBFE0421204600F02CFF0A2007
:101AE00000F0E2F90821204600F025FF0A2000F06E
:101AF000DBF90821204600F020FF1CBD0010024049
:101B000070B5084C084D2146284600F051F90128CF
:101B100007D12146284600F04DF8BDE8704014F08A
:101B200079BF70BD008000185860024070B5084C45
:101B3000084D2146284600F03BF9012807D12146EF
:101B4000284600F037F8BDE8704014F08DBE70BD37
:101B5000208000207060024070B5084C084D21467E
:101B6000284600F00BF9012807D12146284600F04D
:101B70000BF8BDE8704014F0EDBA70BD000800101D
:101B80002864024003F012BA074A904201D2074883
:101B900001E005481038064A8B0001EA020101D530
:101BA000C16070478160704710640240006002406D
:101BB0007D0F7D0F074A904201D2074801E005489A
:101BC0001038064A8B0001EA020101D5C160704756
:101BD0008160704710640240006002407D0F7D0FFD
:101BE000002904D0016841F00101016070470168DB
:101BF00021F00101016070472DE9F043016821F0F7
:101C0000010101600021016041608160C1600161EA
:101C1000212141613E493E4A10394FF03D08904232
:101C200003D1C1F80880BDE8F083394A4FF47465E8
:101C30001832904201D18D60F5E7354A4FF47416A1
:101C40003032904201D18E60EDE7314A4FF0746737
:101C50004832904201D18F60E5E72D4B2D4A603329
:101C6000984201D1CA60DEE7294C2B4B7834A04260
:101C700001D1CB60D7E7DFF898C0284C0CF1900C6D
:101C8000604501D1CC60CEE7DFF884904FF03D5C39
:101C900009F1A809484502D1C1F80CC0C3E72049A1
:101CA000DFF87C900839484502D1C1F80080BAE7D6
:101CB000DFF86C8008F11808404501D10D60B2E7EB
:101CC000174D3035A84201D10E60ACE7144D4835B0
:101CD000A84201D10F60A6E7114D11496035091FD7
:101CE000A84201D10A609EE70D4A7832904201D1A4
:101CF0000B6098E70A4A9032904201D10C6092E75B
:101D0000074AA83290428ED1C1F800C08BE700008C
:101D1000106002403D000020400F002000003D20E8
:101D200010640240002904D0016841F48021016060
:101D30007047016821F4802101607047002A04D0B7
:101D4000026842F40022026003E0026822F40022EA
:101D5000026001617047002904D0016841F0200150
:101D600001607047016821F0200101607047014661
:101D700000200968C90700D00120704702460020F2
:101D8000084B9A4201D2084A01E0064A103A8B00F9
:101D900001D5526800E01268044B1A400A4200D094
:101DA0000120704710640240006002407D0F7D0FEB
:101DB00030B500240F4A904201D20F4A01E00D4A8B
:101DC000103A0E4B194205D01E2303EAD1250368B1
:101DD0002B4002E0406900F08003880001D5506884
:101DE00000E01068064A1040084201D003B1012407
:101DF000204630BD10640240006002403C0F3C0FA2
:101E00007D0F7D0F0B0609D522B1436943F0800396
:101E1000436103E0436923F080034361802905D0D7
:101E200001F01E011AB102680A430260704702689D
:101E30008A4302607047000030B50368124A1340BD
:101E4000CC680A682243D1E905452C432243CC697A
:101E500022430C6A22434C6A22438C6A22434C6B15
:101E600022438C6B22431A430260426922F007032B
:101E7000D1E90B2422431A4342610A6942604A684D
:101E800082608968C16030BD3F801CF001A10120E3
:101E90001AF0AEBB44656275674D6F6E5F48616E48
:101EA000646C65720D0A000003490A6810444860BA
:101EB0000A689042FCD87047D80300202DE9FC47FF
:101EC000914D287801260024002812D04FF00308F5
:101ED000012812D0A5F1100702287DD003280AD1CD
:101EE000687870B1012806D1884800F083FDA0B160
:101EF00015E02E70EC70BDE8FC8785F800806C70F2
:101F0000F9E72E7182480090824B834A01217F4875
:101F100005F090F96E702C71EDE700F0CBF9F878D0
:101F2000DFF8F891012824D17DA104201AF060FB8C
:101F3000002285A1854811F0ADFF18B184A10420CD
:101F40001AF056FB8BA104201AF052FBB9F80800D6
:101F5000D9F800208FA1424304201AF049FB6A48B7
:101F60000021083000F0D0F9EC708020E8700220E9
:101F7000F870F8780228BED1E87839798842BAD06A
:101F8000E8783871614806F0DFFCE87800F07F01FE
:101F90005D48083000F0B8F95C4806F025FFE878A5
:101FA0000006A8D5E87800F07F00E870E87840B334
:101FB00001282ED0022861D003289CD100F07AF9A4
:101FC000002260A1104611F065FF504807F01EFA8C
:101FD000514C8C34606800E05CE0006980474E49F9
:101FE0004A4804F063FE6068406880472068A4F1B6
:101FF0006C014268454890476EA104201AF0F8FA37
:1020000079E72E71012150A000F06AFA7C702C71E2
:1020100071E76FA104201AF0EBFA99F80C0001287F
:102020000CD02E71002248A1484811F033FF0A223B
:1020300070A1734811F054FF38B11DE071A1042064
:102040001AF0D6FA87F8008055E73E222E4901ABF8
:1020500024316B4812F07CF9BDF8041001B120B1B5
:1020600071A104201AF0C4FA03E077A104201AF049
:10207000BFFA634811F051FE2C713CE7002232A1F7
:10208000324811F007FF0028BAD176A104201AF0D7
:10209000AFFA30E7A87848B30128B1D1E8783979A8
:1020A0008842ADD0E878387172B6E87800F07F01E8
:1020B0001548183000F028F962B6E87800069FD578
:1020C000E87800F07F00E870E878002898D172B6D0
:1020D0002C70EC706CA104201AF08AFA62B60B48DE
:1020E000FFF77EF8094807F06CF904E72E716E4897
:1020F00000906E4B6E4A0121044804F087F8AE70E0
:10210000EC702C71F7E600002407002004DB0120AE
:102110001C080020CC04002098E501206C9B0120C5
:102120003E2055534220486F73742046756C6C20D6
:10213000737065656420696E697469616C697A653C
:10214000642E0D0A00000000323A2F00B0D60120A4
:102150003E2043616E6E6F7420696E697469616CB4
:10216000697A652046696C652053797374656D2EB4
:102170000D0A00003E2046696C6520537973746532
:102180006D20696E697469616C697A65642E0D0AE7
:10219000000000003E204469736B2063617061633E
:1021A000697479203A2025642042797465730D0A98
:1021B000000000003E2075736220686F7374206415
:1021C0006973636F6E6E6563742E0D0A0000000004
:1021D0003E2057726974696E672046696C65207489
:1021E0006F206469736B20666C617368202E2E2EDD
:1021F0000A000000303A53544D33322E54585400E4
:10220000E0D801203E204469736B20666C617368DE
:102210002069732077726974652070726F746563CA
:10222000746564200A0000003E2053544D33322E62
:102230005458542043414E4E4F54206265207772CB
:102240006974656E2E0A00003E202753544D3332C8
:102250002E545854272066696C652063726561743A
:1022600065640A003E20536C6964652073686F776B
:10227000206170706C69636174696F6E20636C6F4C
:102280007365642E0A0000003E204465766963652C
:10229000206170706C69636174696F6E20636C6F2C
:1022A0007365642E0A000000000800202805002045
:1022B0008C07002070B5064D00242C700549A1F64E
:1022C000942004F0F3FCA5F11000C4702C7170BDD3
:1022D0002407002098E5012010B50848007803285D
:1022E00007D1074800F086FB18B10649044805F0FD
:1022F00023FFBDE81040FFF7E1BD000024070020E8
:1023000004DB012098E50120704770B506460D46B4
:102310003221304610F090FE00240122294630463A
:1023200010F09BFE6D1C641CE4B21E2CF5D370BD36
:102330001B4A506803681146002B89680DDB03684F
:10234000DB050AD58B685B1C8B608B68012B00D189
:10235000086050684860012070470368002B0EDB5E
:1023600003689B050BD50368DB0508D408600020D3
:102370004860012088605068C06850600DE00368C4
:10238000002B0ADB03689B0507D40368DB0504D434
:102390008B685B1C8B60C068506000207047000039
:1023A000980500201EB500210191094B59680A6863
:1023B000C2F30D42121F00929A68146802941268C8
:1023C00092680192C96859609DE80E000EC01EBD5A
:1023D0009805002018B500220092124A136903F0F4
:1023E0001C044FF6FF7303EAC02323434FF4F86045
:1023F00000EA8110184320F0020040F00100106153
:1024000009490098401C00901069C00702D000984C
:102410008842F6D30098884201D1002018BD506947
:1024200080B218BD00800240FFFF040010B54FF4D9
:102430008044204600F02EF828B1002000F034F847
:10244000204600F021F84FF48064204600F022F886
:10245000002804D02046BDE8104000F015B810BD9B
:1024600010B5042000F016F8002809D00548D0F86F
:10247000900040698047BDE81040042000F004B897
:1024800010BD000098E50120014908607047000078
:10249000143C014001460020024A12680A4200D062
:1024A00001207047143C014010B50446122120461B
:1024B000FFF790FF80040FD510212046FFF78AFF19
:1024C000C00704D0BDE81040044815F062BFBDE865
:1024D0001040024815F050BF10BD000078D6012012
:1024E0002DE9F04196B00D46014605A811F0B0FD6A
:1024F0000446200064D10027334E5CE00EA905A8F5
:1025000011F09CFE0446002C5AD19DF84100002891
:1025100056D02E284FD00DF14108414601A8FDF7B5
:1025200081FF7078401CC0B270700C2810D9777091
:102530000120B07025A103201AF05AF801E003F041
:10254000A5FB2A4800F056FA10B1B0780228F6D15F
:10255000B770012D02D0022D05D008E024A1032080
:102560001AF046F803E024A103201AF041F89DF880
:10257000400000F03F0010280ED022A101A8FDF776
:1025800030FF01A903201AF033F89DF8400000F055
:102590003F0010280FD108E01AA101A8FDF721FF84
:1025A00001A903201AF024F8EFE7012D03D102213D
:1025B0004046FFF795FF0D4800F01CFA00289DD11A
:1025C00016B02046BDE8F0811407002050726573F4
:1025D0007320616E79206B657920746F20636F6E54
:1025E00074696E75652E2E2E0000000004DB01203C
:1025F0002020207C5F5F00002020207C2020207C89
:102600005F5F00000A0000008000A0F1C0400029C8
:1026100004D0016841F00101016070470168024A7D
:102620001140016070470000FEFF0F0070B50168A7
:102630008900A1F1C0410B68344A1340D0E901245C
:102640002243D0E903452C43224344692243846951
:102650002243C4692243046A2243446A2243846AAF
:102660002243C46A2243046B22431A430A608168EE
:10267000082907D101688900A1F1C0410A6842F028
:1026800040020A600168491C8A00A2F1C042116838
:1026900001F04044416BD1E9003543EA05138D68F0
:1026A0008E892D0245EA06452B430D8A43EA0553E0
:1026B0000D7D896943EA05630B4323431360C16AB7
:1026C000B1F5804F08D000686FF070418000A0F134
:1026D000C040C0F8041170BD01688900A1F1C0417B
:1026E000D1F804210A4B1A40806BD0E9003443EA48
:1026F000041384688589240244EA054480692343DD
:1027000003431343C1F8043170BD00008000F7FF9C
:102710000000F0CF2DE9FC470E460024002700976B
:102720000197574D4FF0080AC5F800A010206860C7
:102730004FF04009C5F80890EF604FF48068C5F885
:102740001080284601F0D0FE1020FEF7FFFB002885
:1027500032D14C4800890004286037206860C5F8F1
:102760000890EF60C5F81080284601F0BDFE3720C4
:10277000FEF7ECFB00281FD1411E05F1140001609B
:10278000C0F804A0302181600221C16007610121ED
:10279000416101F02DFE2F6033206860C5F808907C
:1027A000EF60C5F81080284601F09EFE3320FEF74A
:1027B000CDFB0546280001D0BDE8FC874FF4001A88
:1027C0006F46DFF8C48040F22A6908E0504601F005
:1027D00039FE20B101F082FE47F82400641CD8F8CD
:1027E000000010EA090FF1D0082001F02BFE20B103
:1027F000082001F0E5FD0420DEE7022001F022FEC2
:1028000020B1022001F0DCFD0220D5E7202001F0FC
:1028100019FE20B1202001F0D3FD0620CCE74FF4B3
:102820000074204601F00EFE20B1204601F0C8FDE4
:102830000720C1E740F2FF5001F0C2FD0098009967
:10284000000601F47F4140EA0120009901F47F0174
:1028500040EA1120009940EA1160706001980199E6
:10286000000601F47F4140EA0120019901F47F0153
:1028700040EA1120019940EA1160306028469BE748
:10288000A009002054010020342C01402DE9F04122
:10289000002201274FF0030C07FA02F50B682B40CA
:1028A000AB422CD1066853000CFA03F4A643066031
:1028B0000E79D0F800809E4046EA080606600E7940
:1028C000012E01D0022E12D18668A64386604E7971
:1028D000D0F808809E4046EA080686604668AE4307
:1028E000466045688E799640B6B235434560C56806
:1028F000A543C560CC799C40C3681C43C460521C8E
:10290000102AC9D3BDE8F08110B54B07DB0E9A4001
:10291000C90800EB8100016A0F249C40A1430162B9
:10292000016A1143016210BD0246002012690A4289
:1029300000D0012070474183704701837047000039
:1029400010B50B480168001D0468001D00680844AC
:1029500000280BD00822074900F0EEF9054920466F
:102960000422BDE81040103100F0E6B910BD0000AF
:10297000107AFF1FC00700204069806880B270474E
:10298000D0F8CC000068C0F341407047084490F88C
:102990008308704700EB8100D0F83808704710B505
:1029A000044600220023C4F8F43704EB8200C0F888
:1029B000FC37C0F83838A01880F87438521CD2B2EE
:1029C0000F2AF2D30820A4F89A08204606F07EFCCD
:1029D000204605F0B9FF204605F03AFE01212046C9
:1029E00006F0D4FC204605F027FF204606F0FCF94F
:1029F000002010BDD0F8F4077047D0F8F8077047F2
:102A000010B506F04DFC002010BD0022431883F8DD
:102A1000832800EB4113C3F8A82806F057BB000039
:102A200002A1012019F0E4FDFEE700004861726494
:102A30004661756C745F48616E646C65720D0A0066
:102A4000002904D0018841F4806101807047018829
:102A500021F4806101807047034600209A8A1B8B15
:102A60001B041A4322F07F42914300D1012070479A
:102A7000002904D0018841F00101018070470188DC
:102A800021F001010180704710B5154988420AD133
:102A900001214C05204600F035FE2046BDE81040DF
:102AA000002100F02FBE0F4988420AD101218C0578
:102AB000204600F027FE2046BDE81040002100F02F
:102AC00021BE094988420AD10121CC05204600F0E7
:102AD00019FE2046BDE81040002100F013BE10BDD5
:102AE0000054004000580040005C0040002904D021
:102AF000018841F4807101807047018821F4807160
:102B000001807047002904D0018841F400710180E0
:102B10007047018821F40071018070477FB5044639
:102B20000D46A08820F03F06684600F01BFE029884
:102B30002749B0FBF1F189B20E43A680228822F02A
:102B400001022280234B2A689A4209D85200B0FB26
:102B5000F2F080B2042800D20420491C218423E032
:102B6000EB88A3F53F46FF3E0BD002EBC20303EB1D
:102B70000212B0FBF2F080B240F48040020506D0B1
:102B800007E002EB4202B0FBF2F080B2F6E740F061
:102B9000010040F400404FF4967251434FF47A72B2
:102BA000B1FBF2F1491C2184A083208840F0010090
:102BB000208020884FF6F5310840A9886A891143A2
:102BC00001432180A8892989084320817FBD000015
:102BD00040420F00A0860100008AC0B27047002A60
:102BE00002D041F0010101E001F0FE0101827047D5
:102BF00001827047002904D0818B41F48061818378
:102C00007047818B21F480618183704730B5002348
:102C1000828B4FF240042240828302220284848B02
:102C20000A884FF48075B2F5007F00D002B92B46B8
:102C30004A888D8889892A4319430A43224342F4EA
:102C40000061818330BD0000F0B502220023012421
:102C5000858B4FF240063540858302250584868B9F
:102C60008D68022D42D08A8802B102242F4A13684F
:102C70001B0203D5136823F4000313602B4A7C3234
:102C80001368C3F388131268C2F30275274F3F1FFE
:102C90003A6802F03F023F687F0206D5244FB7FB37
:102CA000F2F25A43B2FBF5F205E0224FB7FBF2F223
:102CB0005A43B2FBF5F2CB88B3F5007F2BD063010A
:102CC000B2FBF3F202EB82028B685200B2FBF3F22A
:102CD000521D92B20A23B2FBF3F202F00103D21AA0
:102CE000C2F34F024FF6FF7404EA0323941EFE2C36
:102CF00001D302220023CC881A43144304840A8897
:102D00004B881A438B8889890B431A43324342F418
:102D100000618183F0BD120A02EB82028B685200CF
:102D2000B2FBF3F2521D92B2D4E700000838024021
:102D300000127A000024F400F0B500230A253026A2
:102D40003727002412E0B5EB107F04D906EB107C86
:102D500001F813C003E007EB107C01F813C0000179
:102D600001EB430C8CF801405B1CDBB29342EAD3CD
:102D7000F0BD000030B58BB0002507953D4C2078A4
:102D800001282FD002282BD13B494868E060002859
:102D90003BD00320207008460CF0D8F8E068010E04
:102DA0008DF81C10C0F307448DF81D40C0F30723B5
:102DB0008DF81E30C2B28DF81F20CDE900412FA141
:102DC00002A807F0F3FA31A1032019F011FC35A194
:102DD000032019F00DFC02AA38A1032019F008FC09
:102DE0000BB030BD0220207023480CF055F8E56090
:102DF00034A1032019F0FCFB38A1032019F0F8FBE3
:102E00003CA1032019F0F4FBEAE7486A407B042860
:102E1000E6D90420207018480CF098F83B480A9036
:102E20006FF07F4009903A48089008AB09AA0AA9B8
:102E3000114815F045FA37A1032019F0D9FB0A20F3
:102E40008DF81C008DF81D50A8238DF81E30C0226F
:102E50008DF81F20CDE9005034A102A807F0A6FA92
:102E600036A1032019F0C4FB02AA3AA1032019F0ED
:102E7000BFFBB5E7FC06002078D601202025642E94
:102E800025642E25642E2564000000004950206131
:102E90006464726573732061737369676E65640D32
:102EA0000A0000002020627920612044484350201D
:102EB00073657276657220200D0A00002025730D5F
:102EC0000A00000020202020204C6F6F6B696E6785
:102ED00020666F72202020200D0A00002020202074
:102EE000204448435020736572766572202020206C
:102EF0000D0A00002020202020706C656173652081
:102F0000776169742E2E2E200D0A0000C0A8000AD9
:102F1000C0A8000120202020444843502074696D3F
:102F2000656F7574202020200D0A00002020256484
:102F30002E25642E25642E25640000002020537465
:102F40006174696320495020616464726573732001
:102F50002020000025730D0A0000000031B51C4C34
:102F600000996068081AFA2803D30098606017F087
:102F70006DFA0098A168401A41F28831884203D363
:102F80000098A06010F092FE00982169401AB0F5F8
:102F9000FA7F0ED3009820610BF038FB20780328CD
:102FA00007D02078042804D02078052801D0FFF726
:102FB000E1FE00986169401A4EF66021884205D30F
:102FC00000986061BDE838400BF004BA38BD0000DD
:102FD000FC060020014810F08BBE000078D60120CE
:102FE0001CB5012000F0B8FB0121084600F052FB9F
:102FF0000D4C002208212046FFF786FCA115009108
:1030000002218DF805108DF8041000218DF80610AE
:1030100001218DF8071069462046FFF737FC002193
:10302000084600F021FC1CBD0000024070B50546BA
:103030000E490F4C0A7B002A07D1896829B16178B3
:1030400019B901212846FEF753F981212846FEF7D8
:103050004FF96078022807D12846BDE870401F2349
:10306000024A0121FEF720B970BD00007CAD0120AD
:103070002405002070B50546234C04F1200061684A
:103080004160A16881600121284603F080F81F4E4D
:103090001F280AD11E492068884206D1617B012978
:1030A00003D8A27B0AB1102A0BD9607B202205210C
:1030B00001F008F8022070702846BDE87040FFF764
:1030C000B5BF114A28460F3200F0F2FD002804DA9D
:1030D0002846BDE87040FFF7A9BF3178022911D01A
:1030E00001290FD003290DD072882AB12846BDE8E6
:1030F0007040084900F0C0B82846BDE87040002183
:1031000000F09CB870BD00007CAD012024050020BB
:10311000555342437C9D012010B5094C6278022A28
:1031200008D009060BD5012A09D0BDE810400121BD
:1031300000F084B88121FEF7DBF80020607010BD3C
:103140002405002010B504460E480078022809D056
:10315000032801D0042814D12046BDE810400021E6
:1031600000F06CB8084800F10F02417B204600F0E7
:103170009FFD002805DA2046BDE81040012100F03F
:103180005DB810BD240500207CAD012010B50446BB
:103190000D480078002810D0012813D10B4800F109
:1031A0000F02417B204600F083FD00280ADA20460A
:1031B000BDE81040012100F041B82046BDE81040B4
:1031C000FFF758BF10BD0000240500207CAD012092
:1031D00001490020087070472405002010B50446FE
:1031E0000C4A0021117051700B48006801680020E2
:1031F000884701212046FEF72DF881212046FEF761
:1032000029F820461F23BDE81040044A0121FEF79B
:103210004BB8000024050020F80700207CAD0120F9
:10322000044900220A7001224A701F23024A012128
:10323000FEF73AB8240500207CAD012010B5044605
:103240000B4A0A4B136011730A4A002111700D23B7
:10325000074A81212046FEF767F8054A20461F23CA
:10326000203ABDE810400121FEF71EB855534253E5
:103270009CAD01202405002030B413460A4A926810
:103280009A4200D31A4693B2074A20329468E41A4D
:10329000946000241473054C042222700A4630BC4A
:1032A0008121FEF741B800007CAD012024050020FB
:1032B00002A1012019F09CF9FEE700004D656D4D5B
:1032C000616E6167655F48616E646C65720D0A00CE
:1032D00002A1012019F08CF9FEE700004E4D495F74
:1032E00048616E646C65720D0A00000030B50F23F2
:1032F000C27801250178002A1FD0154A126802F40D
:10330000E062C2F5E062C2F30722C2F10404D340D6
:103310004278A24084781C401443220101F1E0214C
:1033200081F80024007800F01F018D4040098000E2
:1033300000F1E020C0F8005130BD01F01F008540D1
:103340004809800000F1E020C0F8805130BD000045
:103350000CED00E002490843024908607047000094
:103360000000FA050CED00E0024A1140014302485A
:103370000160704780FFFF1F08ED00E010B50748AF
:1033800005F04FFF20B1BDE81040044804F060BDD7
:10339000BDE81040014803F01BB8000004DB012029
:1033A00010B50446062C17D2DFE804F016030C0C07
:1033B0000C0C002211462020FDF764FCBDE81040F3
:1033C00000F0B6B8002280212020FDF75BFC2046EB
:1033D000BDE8104000F00AB8002280212020FDF74F
:1033E00051FCBDE8104000F089B8000070B50546FA
:1033F00000F0D1F8C820FEF757FD00243C4E06EB44
:103400004400417816F8140000F0D0F8641CBE2C7B
:10341000F5D30024374E06EB4400417816F814002B
:1034200000F0C4F8641C092CF5D30121FF2000F042
:10343000BDF80021152000F0B9F800242D4E1236F9
:1034400006EB4400417816F8140000F0AFF8641C55
:10345000082CF5D36420FEF727FD264E2236022DD8
:1034600011D0032D1BD0042D27D0052D33D00024DF
:1034700006EB4400417816F8140000F097F8641C3D
:10348000272CF5D370BD002406EB4400417816F8D4
:10349000140000F08BF8641C272CF5D370BD0024B9
:1034A000144D703505EB4400417815F8140000F018
:1034B0007DF8641C272CF5D370BD00240D4DBE355E
:1034C00005EB4400417815F8140000F06FF8641C17
:1034D000272CF5D370BD0024074D05EB440041783F
:1034E00015F8140000F062F8641C272CF5D370BDA9
:1034F00063D60108DFD70108EBD8010870B500F0EA
:103500004AF8C820FEF7D0FC0024084D4FF4A476FA
:1035100005EB4400417815F8140000F047F802204C
:10352000FEF7C2FC641CB442F2D370BD1BD201088A
:1035300070B500F030F8C820FEF7B6FC0024074D47
:1035400005EB4400417815F8140000F02FF8022034
:10355000FEF7AAFC641CDC2CF2D370BDABD40108CE
:1035600010B504460121FF2000F020F81C2000F0D7
:103570000EF820701D2000F00AF860700A2000F09C
:1035800006F8A0700B2000F002F8E07010BD0146B4
:10359000612008F0B9B810B50121FF2000F006F84D
:1035A0008021BDE810401220AFF300800A4601469A
:1035B000602008F03BB910B504464022802100206D
:1035C000FDF760FB2CB1012C07D0BDE8104000F0E6
:1035D00009B8BDE8104000F005B8BDE8104000F0A3
:1035E00019B8000070B500F044F8C820FEF75CFC84
:1035F0000024074D05EB4400417815F8140000F055
:103600003CF80220FEF750FC641C972CF2D370BDEE
:1036100039D9010870B500F02CF8C820FEF744FC39
:103620000024074D05EB4400417815F8140000F024
:1036300024F80220FEF738FC641C972CF2D370BDEE
:1036400067DA010810B504461C2000F00EF820705F
:103650001D2000F00AF860700B2000F006F8A07042
:103660000A2000F002F8E07010BD0146612008F069
:103670004BB880211220AFF300800A46014660203B
:1036800008F0D4B8014908627047000000000E42FB
:10369000FCF7B2BD054A002903D01168014311604F
:1036A0007047116881431160704700003038024054
:1036B000054A002903D01168014311607047116861
:1036C000814311607047000034380240054A0029E8
:1036D00003D0116801431160704711688143116084
:1036E0007047000038380240054A002903D01168AD
:1036F00001431160704711688143116070470000F9
:1037000040380240054A002903D011680143116086
:1037100070471168814311607047000020380240F3
:10372000054A002903D011680143116070471168F0
:10373000814311607047000044380240054A002967
:1037400003D0116801431160704711688143116013
:1037500070470000243802400149C86470470000E7
:103760000000474270B5244B196801F00C01234C4E
:1037700000291ED0661004291DD008291DD0046020
:10378000196801F0F00109091D4A545C0168E14023
:1037900041601C6804F4E054A40A145D21FA04F4A6
:1037A00084601B6803F460435B0BD25CD140C16052
:1037B00070BD0460E4E70660E2E70F4A121F11687B
:1037C000C1F38055116801F03F0135B1B6FBF1F14D
:1037D0001468C4F38814614305E0B4FBF1F1146884
:1037E000C4F3881461431268C2F30142521C5200B0
:1037F000B1FBF2F10160C3E7083802400024F40095
:103800008304002002460020510901290BD002291F
:103810000DD00949096802F01F02012393400B42B1
:1038200000D001207047044974390968F3E7024960
:10383000091F0968EFE70000743802400149086079
:10384000704700005C014742064900220A700A7076
:10385000012804D0042801D10520087070470120F8
:103860000870704770380240034B1A6822F0EC620F
:1038700008431043186070470838024001498866C1
:10388000704700000000474201490860704700008F
:103890003C0E4742C0F30121032907D1074B1968A9
:1038A00021F4F8120649014011431960034A6832B5
:1038B0001168C0F30B0001431160704708380240E3
:1038C000FFFCFF0F010901EB8101490000F00F002F
:1038D0000844C0B27047002103E0491CC9B20A384D
:1038E000C0B20A28F9D2090740EA11607047000007
:1038F00008B5002000900E490868400615D44FF026
:10390000FF3008608B13086800F04000009A521CDA
:103910000092009A9A4201D00028F4D0086840062C
:1039200001D5012008BD002008BD012008BD000010
:103930000C2800400248016821F0800101607047B6
:103940000C28004070B504460025114ECA20306096
:1039500053203060FFF7CCFFA8B10D481C38016838
:1039600021F04001016001682268114301600848AC
:10397000A168143801600168A28841EA024101602F
:10398000FFF7D8FF0125FF203060284670BD0000FA
:103990002428004008B5034901EB800000900098FE
:1039A000006808BD5028004070B505460C4600264A
:1039B000002D06D16078C10603D520F010000A3032
:1039C00060702DB16078FFF77DFFA078FFF77AFF78
:1039D00055B1A078E17840EA01456078217800028D
:1039E00040EA413005430FE0E078FFF774FF05043B
:1039F0006078FFF770FF45EA0025A078FFF76BFFBE
:103A00000543207845EA40350E4CCA2020605320FB
:103A10002060FFF76DFF88B10B480540094820384A
:103A20000560FFF787FF07481C380068800604D44C
:103A300000F060F810B1012600E00126FF202060B0
:103A4000304670BD242800403FFFFF002DE9F041C3
:103A500005460C4600260020244F002D06D039686C
:103A6000490608D52078FFF72DFF05E0396849069B
:103A700002D4E07000E0E07055B1A078217840EA0F
:103A800001456078E178000240EA014005430FE01B
:103A90002078FFF720FF05046078FFF71CFF45EA58
:103AA0000025A078FFF717FF0543E07845EA0045B9
:103AB0000E4CCA201C34206053202060FFF718FFF2
:103AC00078B10B480540094808380560FFF732FF18
:103AD0003868800604D400F00DF810B1012600E02B
:103AE0000126FF2020603046BDE8F0810828004014
:103AF0007F7F7F0018B500200090104BCA2018600F
:103B0000532018600D491839086820F0A00008609B
:103B10004FF40034086800F02000009A521C009214
:103B2000009AA24201D00028F4D00868800601D58E
:103B3000012000E00020FF21196018BD242800406A
:103B400008B5034A02EB800000900098016008BDB0
:103B50005028004030B587B001218805FFF7C4FD2B
:103B600001212020FFF796FD1F4D04220021284649
:103B7000FEF7CAFE042201212846FEF7C5FE0321F6
:103B8000059102218DF8181000248DF819400121AB
:103B90008DF81A108DF81B4005A92846FEF776FE11
:103BA000124D2846FEF770FFADF808404BF6FF7146
:103BB000ADF80A10FE21ADF80C102915ADF80E1065
:103BC0000901ADF8101042F21071019101A92846C7
:103BD000FEF7A4FF01212846FEF74AFF01212846EF
:103BE000FEF72EFF07B030BD001402400058004021
:103BF00000B51144064A9268914206D92122052156
:103C000000F060FA4FF0FF3000BD002000BD000062
:103C1000780500204A78D20702D00D4A07200CE030
:103C20000C4A00EBC0001268D26902EB80021079E6
:103C3000401D0979814200D8084607490880074994
:103C400003E0401E80B2135C0B540028F9D170478A
:103C50000CFA0108F8070020260500207C9D0120B1
:103C60000820064908800649064A03E0401E80B243
:103C70000B5C13540028F9D1704700002605002082
:103C80001BFA01087C9D012008200649088006498E
:103C9000064A03E0401E80B20B5C13540028F9D1A1
:103CA000704700002605002013FA01087C9D0120C2
:103CB000034610B5084611462B4A13610A78232A99
:103CC0003DD00DDC1A2A32D005DCE2B1032A1ED029
:103CD000122A11D11FE01B2A21D01E2A0CD122E06A
:103CE0002A2A38D004DC252A2DD0282A04D12EE017
:103CF0002F2A34D05A2A1ED02022052100F0E2F9C2
:103D00004FF0FF3010BDBDE8104000F0F7B9BDE83E
:103D1000104000F0A3B9BDE81040FFF77BBFBDE83D
:103D2000104000F0E5B9BDE8104000F0E1B9BDE891
:103D30001040FFF7A9BFBDE81040FFF791BFBDE8F5
:103D4000104000F053B9BDE8104000F01BB9BDE8C9
:103D5000104000F0A9B8BDE8104000F023BABDE85B
:103D6000104000F0F1B90000780500202DE9F04185
:103D700006461F4D4FF48050EC68844200D3044641
:103D80006A680027B4FBF2F01FFA80F8D5E9060153
:103D90003B46FCF775FA024616484346164900684A
:103DA000D0F810C03046E047002807DA112204217D
:103DB000304600F087F9781EBDE8F08123460E4AB0
:103DC00081212869FDF7B0FAD5E906100919784173
:103DD000C5E90610E868001BE86008498A68121BFC
:103DE0008A6010B90649032008700020E4E700004B
:103DF00078050020F80700207C9D01209CAD012063
:103E0000240500202DE9F0470746234D4FF4805646
:103E1000EC68B44200D334466A684FF00008B4FB43
:103E2000F2F01FFA80F9D5E906014346FCF728FABB
:103E300002461A484B461A490068D0F814C0384662
:103E4000E047002808DA03220421384600F03AF956
:103E50004FF0FF30BDE8F087D5E90610091940EBB7
:103E60000800C5E90610E868001BE8600D498A688B
:103E7000121B8A6050B1B04200D3304683B2084A68
:103E800001212869FDF710FA0020E3E700212869E5
:103E9000FFF7D4F9F8E7000078050020F8070020C4
:103EA0007C9D01209CAD01202DE9F04780460C4609
:103EB000DFF8BC9099F80000002850D12D4E4FF04B
:103EC000FF37307B000607D4707B2022052100F0ED
:103ED000F9F83846BDE8F087274800688168404611
:103EE000884730B13A220221404600F0EBF83846CC
:103EF000F0E76079A178227940EA0161E0781F4D0E
:103F0000000440EA02200143C817C5E90610207AE0
:103F1000E27940EA0222EA604046FFF769FE0028A3
:103F200001DA3846D6E7022089F80000D5E9061202
:103F300068680023A1FB004C02FB00C201FB0321C7
:103F4000C5E90641E9684143E960B068884206D0A6
:103F5000707B2022052100F0B5F83846BAE7084901
:103F60004FF4805008804046BDE8F047FFF7FEBEA2
:103F7000240500207CAD0120F807002078050020F2
:103F80002605002010B504461448154A0068111D86
:103F900043682046984738B13A220221204600F073
:103FA00091F84FF0FF3010BD0D4A0E48121F916876
:103FB000491E0B0E03700B0C43700B0A8370C1700B
:103FC00051680A0E02710A0C42710A0A8271C171AB
:103FD000054908200880002010BD0000F8070020D7
:103FE0007C0500207C9D0120260500207CB505462F
:103FF0000021174C00226254491C89B20C29FAD3C3
:10400000144801AA6946006843682846984738B1B1
:104010003A220221284600F055F84FF0FF307CBDCF
:104020000820E0700098401E010E2171010C6171A2
:10403000010AA171E071022020720198010C6172E5
:10404000010AA172E07204490C20088000207CBDA6
:104050007C9D0120F80700202605002070B5002077
:10406000144A00231354401CC0B21228FAD3702003
:1040700010700C20D071104D28786C78A0420FD0B1
:104080000E4C14F83060967004EBC0046679167319
:1040900024795473401CC0B22870042800D12B70BE
:1040A000074A122010800879122800D810800020BA
:1040B00070BD00007C9D012078050020ACAD012082
:1040C0002605002010B5094B074C587804F830102D
:1040D000110204EBC0025160401CC0B258700428A9
:1040E00001D10020587010BDACAD01207805002032
:1040F00001490020088070472605002070B505465C
:104100000E484FF0FF348168002906D0407B202202
:104110000521FFF7D7FF204670BD09480068816878
:104120002846884730B13A2202212846FFF7CAFFC5
:10413000204670BD03490020088070BD7CAD012081
:10414000F80700202605002070B54A784FF0FF35AB
:10415000920705D524220521FFF7B4FF284670BD3C
:104160004A798B780C7942EA0363CA78120442EAEE
:1041700004220A4C1343DA17C4E906320A7AC979D1
:1041800042EA0122E2601946FFF732FD002801DA17
:10419000284670BD02490020088070BD78050020C7
:1041A000260500202DE9F04781460C46384F387827
:1041B000002804D04846BDE8F047FFF723BE354E3F
:1041C0004FF0FF38307B000607D5707B2022052199
:1041D000FFF778FF4046BDE8F0872F4D28688168DB
:1041E0004846884730B13A2202214846FFF76AFF25
:1041F0004046F0E72868C1684846884730B1272222
:1042000002214846FFF75EFF4046E4E76079A17867
:10421000224D40EA0161E0780204207942EA002060
:104220000143C817C5E90610207AE27940EA022264
:10423000EA604846FFF7DCFC002801DA4046CAE79E
:10424000D5E9061368680022A1FB004C03FB00C3FC
:1042500001FB0231C5E90641E9684143E960B06804
:10426000884206D0707B20220521FFF72BFF4046B5
:10427000B1E7012038700003814200D301468BB2C0
:10428000074A01212869FDF70FF80020A3E7000085
:10429000240500207CAD0120F807002078050020CF
:1042A0007C9D01202DE9FC470646002400940194E2
:1042B000002000F0E3F8800102D50E20BDE8FC8765
:1042C00033A1042018F094F9374D6946288980B24B
:1042D000FEF720FA07463A4634A1042018F088F980
:1042E0000FB13846EAE73720344F4FF0060A4FF057
:1042F00040094FF48068012E22D00199C90345D5A9
:104300002989090439607860C7F80890FC60C7F80B
:104310001080384600F0E8F83720FCF717FE002838
:10432000CCD13C60C7F804A0C7F80890FC60C7F87F
:104330001080384600F0D8F80620FCF707FEBDE7ED
:104340000199490320D52989090439607860C7F8A3
:104350000890FC60C7F81080184800F0C5F83720B6
:10436000FCF7F4FD0028A9D102203860C7F804A0AA
:10437000C7F80890FC60C7F81080104800F0B4F847
:104380000620FCF7E3FD99E7252097E7252095E730
:104390005344494F5F476574526573706F6E736520
:1043A000206F6B0D0A0000005401002046696E6406
:1043B0005343523A25640D0A00000000A009002072
:1043C0000149086070470000382C0140014908602D
:1043D00070470000382C0140014908607047000018
:1043E000A080254201490860704700008C85254265
:1043F00010B50A4A01681160121D41681160141D50
:10440000216821F0F701D0E902231A43D0E90430F2
:1044100003431A430A43226010BD0000242C0140CC
:1044200010B50121CC022046FFF788F92046BDE8EF
:1044300010400021FFF782B901480068C0B2704700
:10444000102C014001460020024A12680A4200D0A6
:1044500001207047342C014001460020024A1268B6
:104460000A4200D001207047342C01400248006805
:1044700000F0030070470000002C014008B503491C
:10448000084400900098006808BD0000142C01400A
:1044900000F0A0BD054A002903D011680143116056
:1044A0007047116881431160704700003C2C014047
:1044B00030B5094B196847F6FF629143027D846865
:1044C000C568224344682C432243046800692243A0
:1044D00002430A431A6030BD042C014001480068C1
:1044E00070470000802C014010B5084A0168116037
:1044F000141D21686FF30A01D0E901231A43D0E9A2
:10450000033003431A430A43226010BD082C0140C4
:104510000149086070470000002C014008B50120E7
:10452000009041030448FEF7FFF908B10020009015
:104530009DF8000008BD0000000802402DE9F04190
:1045400000261E494968032905D039B1012905D043
:10455000022903D030E02720BDE8F081B0F5805F6C
:1045600010D04FF400670024154DB84216D1012039
:10457000FFF798FE0646324612A1042018F038F8DC
:1045800016B119E02720E7E72C752C606C60AC6051
:10459000EF602C610A48FFF78BFF0DE00020FFF76A
:1045A00081FE064646B92C752C606C60AC60EC60F0
:1045B0002C610348FFF77CFF3046CDE75401002013
:1045C000880900205344456E576964654275733A03
:1045D00025640D0A000000002DE9F04704469A48C2
:1045E000436884F856300089A4F85400DFF85C92E0
:1045F000D9F80000010E8A092270C1F383026270AB
:1046000001F00301A170010CE170010A21716071D8
:10461000D9F80400010E0901E180C0F30741E288E6
:1046200042EA1112E28001F00F012172C0F3072764
:10463000F9096172C7F38011A172C7F34011E172E9
:10464000C7F3001121730026667349464FF0010835
:104650008D68290EC5F30742C5F30725002B04D04A
:10466000012B02D0022B39D055E0BB071B0D236173
:10467000C0B2236943EA80002061206940EA9110BA
:104680002061C1F3C200207501F007006075500978
:10469000A075C2F38200E0759007400F20762F4688
:1046A000207E40EAD710207625696D1C207E801C74
:1046B00008FA00F1A5FB0103CA1706FB013105FB4F
:1046C0000211237A08FA03F22265A0FB023501FBEE
:1046D000025100FB0610C4E912301CE08006800A7B
:1046E0002061206940EA0120206120691043206197
:1046F0002F46226956A1042017F07AFF2069401C3A
:1047000046F10001C90441EA5031C004C4E9120174
:104710004FF4007020651C34C7F3801004F8030CBC
:10472000B806400E04F8020C99F8080014F8021CB0
:1047300041EAD01104F8021C00F07F0004F8010CDB
:10474000D9F80C10080EC2092270C0F34112627031
:10475000C0F38202A2708007000FE070C1F307402F
:10476000E27842EA9012E270C0F340122271667160
:1047700000F00100A071C1F30720C209E271C0F38B
:1047800080122272C0F340126272C0F30012A27251
:10479000C0F38102E27200F003002073C8B2400847
:1047A000607384F80E80294910310868020E227463
:1047B000020C12026282C0F30722638A13436382EF
:1047C000000660614868020E636943EA0242626162
:1047D000C0F30742636943EA02226261C0F3072221
:1047E00063691343636120768868020E6276020C67
:1047F0001206E261C0F30722E36943EA0242E26182
:10480000C0B2E26942EA0020E061C868010EE269D4
:104810000A43E261C0F3074194F8202042EA1112F2
:1048200084F820200907090D6184C0F30721628CF8
:104830000A436284C0B2400884F8240084F82580CA
:104840003046BDE8F0870000540100200009002038
:104850000D0A2D2D2D2D2D2D2D53445F6373642EA8
:1048600044657669636553697A653A25642D2D2D13
:104870002D2D2D2D2D2D2D0D0A00000008B5002009
:104880000090FFF74BFE012801D0FF2008BD6846CD
:1048900000F068FC08B1FF2008BD0098C0F3432079
:1048A00008BD10B5FFF7EAFF042803D0FF2803D0A6
:1048B000012010BD002010BD022010BD38B500241D
:1048C000009400F097FA00F037FAFFF7A9FD00F026
:1048D000ABFA00909DF8000010B19DF8000038BDC3
:1048E0002FA1042017F084FE00F012F900909DF82B
:1048F000000010B19DF8000038BD32A1042017F06F
:1049000077FE3B480475046044608460C4600461C1
:10491000FFF7CEFD36485838FFF75EFE009035A110
:10492000042017F065FE324C583C3CA10420E26C98
:1049300017F05EFE39A10420A26C17F059FE41A1C8
:104940000420226D17F054FEB4F8542047A104202F
:1049500017F04EFE94F856204CA1042017F048FEA4
:104960009DF8000030B9B4F854000021000400F0B4
:10497000E3FB00909DF8000040B94DA1042017F022
:1049800037FE4FF40060FFF7D9FD00909DF800203E
:1049900052A1042017F02CFE9DF8000038BD000045
:1049A0000D0A2D2D2D2D2D2D2D53445F506F776524
:1049B000724F4E206F6B2D2D2D2D2D2D2D2D2D2D2C
:1049C0000D0A00000D0A2D2D2D2D2D2D2D53445F88
:1049D000496E697469616C697A65436172647320B8
:1049E0006F6B2D2D2D2D2D2D2D2D2D2D0D0A000014
:1049F000880900200D0A2D2D2D2D2D2D2D53445FBE
:104A000047657443617264496E666F206F6B2D2D2C
:104A10002D2D2D2D2D2D2D2D0D0A00000D0A2D2DA6
:104A20002D2D2D2D2D436172644361706163697476
:104A3000793A253038582D2D2D2D2D2D2D2D2D2D1C
:104A40000D0A00000D0A2D2D2D2D2D2D2D436172E7
:104A500064426C6F636B53697A653A2564202D2D2F
:104A60002D2D2D2D2D2D2D2D0D0A00000D0A2D2D56
:104A70002D2D2D2D2D5243413A2564202D2D2D2DE8
:104A80002D2D2D2D2D2D0D0A000000000D0A2D2D90
:104A90002D2D2D2D2D43617264547970653A256456
:104AA000202D2D2D2D2D2D2D2D2D2D0D0A0000000D
:104AB0000D0A2D2D2D2D2D2D2D53445F53656C6525
:104AC0006374446573656C656374206F6B2D2D2D65
:104AD0002D2D2D2D2D2D2D0D0A0000000D0A2D2D13
:104AE0002D2D2D2D2D53445F456E61626C655769E8
:104AF00064654275734F7065726174696F6E3A25B3
:104B0000642D2D2D2D2D2D2D2D2D2D0D0A00000068
:104B10002DE9F84F002401200090FFF7A7FCE0B139
:104B2000DFF8FC8000263F4DD8F804004FF0C009A4
:104B30004FF4806704282AD02E6002206860C5F8F0
:104B40000890EE602F612846FFF7CEFCFCF77CFA58
:104B50000446200003D0BDE8F88F2520FBE70020A5
:104B6000FFF78CFCDFF8BCA0AAF1900ACAF800009D
:104B70000420FFF783FCCAF804000820FFF77EFC3E
:104B8000CAF808000C20FFF779FCCAF80C00D8F826
:104B9000040028B1012803D0062801D0022811D131
:104BA0002E60032068604020A860EE602F611D48E1
:104BB000FFF79AFC69460320FCF782FA04462000BE
:104BC00000D0C8E7D8F80400042826D0BDF80000BB
:104BD000C8F808000004286009206860C5F808903B
:104BE000EE602F610F48FFF77FFCFCF72DFA0446BB
:104BF000200000D0AFE70020FFF740FC094DA03DAA
:104C000028600420FFF73AFC68600820FFF736FCB4
:104C1000A8600C20FFF732FCE86020469BE700000C
:104C200054010020A009002070B590B005460C4644
:104C30001D4E4FF0FA513046FCF7A6FF00213046DA
:104C4000FCF7CEFF3046FCF7D7FF4FF00060019035
:104C500016480290039500200490059406903115A3
:104C600007918900089109900A904FF440300B9009
:104C700004200C9003200D90C8020E9080100F901D
:104C800001A93046FDF7D8F8012210213046FDF782
:104C9000B9F820213046FDF75EF801213046FCF7D7
:104CA0009FFF10B070BD000058640240802C01408E
:104CB00070B590B004460D461D4E4FF0FA51304687
:104CC000FCF762FF00213046FCF78AFF3046FCF714
:104CD00093FF4FF00060019016480290039440202B
:104CE00004900595002006903115079189000891E0
:104CF00009900A904FF440300B9004200C90032050
:104D00000D90C8020E9080100F9001A93046FDF75B
:104D100093F8012210213046FDF774F82021304627
:104D2000FDF719F801213046FCF75AFF10B070BDAD
:104D300058640240802C01402DE9FC4101210C20E7
:104D4000FEF7A8FC294E0C2208213046FDF7DCFDB9
:104D50000C2209213046FDF7D7FD0C220A213046EE
:104D6000FDF7D2FD0C220B213046FDF7CDFD0C22C4
:104D700011463046FDF7C8FD1D4F0C220221384672
:104D8000FDF7C2FD4FF47060009002218DF8051010
:104D90008DF8041000248DF8064001258DF8075089
:104DA00069463046FDF772FD04200090694638469A
:104DB000FDF76CFD280300908DF8074069463046EA
:104DC000FDF764FD680300908DF804408DF80750EE
:104DD00069463046FDF75AFD0121C802FEF7A0FCE6
:104DE00001218805FEF756FCBDE8FC810008024061
:104DF000000C024038B531208DF8000000248DF8F9
:104E000001408DF8024001258DF803506846FEF7F9
:104E10006DFA3B208DF800008DF801508DF80240AE
:104E20006846FEF763FA38BD2DE9F84F0027009772
:104E3000BB460024A246002559487621017507602B
:104E400047608760C7600761FFF732FB0320FFF709
:104E50005FFB0120FFF7C0FA514E183637607760CC
:104E6000B760F7604FF48069C6F810903046FFF7DE
:104E70003BFBFCF756F800909DF8000018B19DF838
:104E80000000BDE8F88F4FF4D570306008207060E6
:104E90004FF04008C6F80880F760C6F81090404808
:104EA0001830FFF721FBFCF74BF900909DF800004C
:104EB00018B3376037207060C6F80880F760C6F80E
:104EC000109037481830FFF70FFB3720FCF73EF8FB
:104ED0000090376037207060C6F80880F760C6F829
:104EE00010902F481830FFF7FFFA3720FCF72EF804
:104EF00000909DF8000090B34FE02A4801214160E6
:104F00008D07E6E7376037207060C6F80880F760E5
:104F1000C6F8109022481830FFF7E6FA3720FCF761
:104F200015F800909DF8000010B19DF80000A8E76A
:104F30001D482843306029207060C6F80880F7605B
:104F4000C6F8109016481830FFF7CEFAFCF79EF816
:104F500000909DF8000018B19DF8000091E706E070
:104F60000020FFF78BFA83464FEADB7A641CBAF124
:104F7000000F03D14FF6FF708442C3D34FF6FF708A
:104F8000844204D31B2000909DF8000079E71BF0B9
:104F9000804F02D00348022141609DF8000070E775
:104FA0008809002054010020000010800748006894
:104FB00010F0C05F08D006490120486103484FF057
:104FC000C2515830FCF7E0BD704700000064024059
:104FD0005401002070B54FF480752846FFF73CFA65
:104FE0001F4C30B1002020702846FFF7EFF9012058
:104FF00020610220FFF730FA20B10220FFF7E6F926
:10500000022020700820FFF727FA20B10820FFF7C0
:10501000DDF9042020702020FFF71EFA20B12020A7
:10502000FFF7D4F9062020701020FFF715FA20B101
:105030001020FFF7CBF9052020704FF400752846AB
:10504000FFF70AFA20B12846FFF7C0F907202070C1
:1050500000214CF23A30FFF71DFA207870BD0000B5
:10506000540100202DE9F05F8346DDE90A6714460C
:105070001D46DFF8B8A04FF000088AF80080CAF893
:1050800010804FF00109CAF80C902948C0F8008040
:10509000012140F22A30FFF7FDF907FB06F15846DF
:1050A000FFF7C2FD0120FFF79DF9DAF8040002289E
:1050B00003D10602640A44EAC5541E4D2E60102036
:1050C00068604FF0400AC5F808A0C5F80C804FF49E
:1050D000806BC5F810B02846FFF706FA1020FBF7E2
:1050E00035FF002820D1411E05F1140001607743EF
:1050F0004760902181600221C160C0F81080C0F833
:105100001490FFF775F92C6012206860C5F808A0AC
:10511000C5F80C80C5F810B02846FFF7E5F9BDE8E2
:10512000F05F1220FBF712BFBDE8F09F5401002092
:105130002C2C0140A009002010B5094A106007205E
:105140005060402090600020D0604FF4806010617B
:105150001046FFF7C9F9BDE810400720FBF7F6BE7F
:10516000A009002070B50546002D16D00F48008913
:1051700001040F4801600D21416040218160002140
:10518000C1604FF480610161FFF7AEF90D20FBF7BC
:10519000DDFE04461CB1204670BD262070BD0020F7
:1051A000FFF76CF92860204670BD00005401002014
:1051B000A009002010B50848002101600C224260BF
:1051C00040228260C16011010161FFF78DF9BDE8E5
:1051D00010400C20FBF7BABEA00900202DE9F041D9
:1051E00000256C1E2146154E00E0491E706928B945
:1051F000306918B9307808B90029F6D100277761ED
:105200000F4800E0641E0168890401D5002CF9D123
:10521000F068012803D1FFF7CDFF0546F7602C4366
:1052200000D1042540F2FF50FFF7CAF8307810B1E2
:105230003078BDE8F0812846FBE7000054010020EB
:10524000342C01402DE9F04100256C1E2146154EFD
:1052500000E0491E706928B9306918B9307808B97A
:105260000029F6D1002777610F4800E0641E01682D
:10527000C90401D5002CF9D1F068012803D1FFF74A
:1052800099FF0546F7602C4300D1042540F2FF50FA
:10529000FFF796F8307810B13078BDE8F0812846F5
:1052A000FBE7000054010020342C01402DE9F05FA1
:1052B0008246DDE90A6714461D46DFF804914FF087
:1052C000000889F80080C9F810800120C9F80C0096
:1052D0003C48C0F80080012140F22A30FFF7DAF89C
:1052E00007FB06F15046FFF7E3FC0120FFF77AF8D1
:1052F000D9F80400022803D10602640A44EAC5541E
:10530000314D2E60102068604FF0400BC5F808B09A
:10531000C5F80C804FF4806AC5F810A02846FFF746
:10532000E3F81020FBF712FE002847D1B9F8080077
:105330000004286037206860C5F808B0C5F80C8004
:10534000C5F810A02846FFF7CFF83720FBF7FEFD81
:10535000002833D12F6017206860C5F808B0C5F861
:105360000C80C5F810A02846FFF7BEF81720FBF701
:10537000EDFD002822D12C6019206860C5F808B026
:10538000C5F80C80C5F810A02846FFF7ADF8192025
:10539000FBF7DCFD002811D105F11402401E10605E
:1053A0007743576090209060C2F80C80C2F810805C
:1053B000012050611046FFF71BF84046BDE8F09F02
:1053C000540100202C2C0140A009002010B5FFF74B
:1053D00075FA08B1012010BD002010BD002908D0C9
:1053E0000C48012907D002290AD003290DD0042036
:1053F000704700207047806C400A106000207047A2
:105400004FF40070108000207047006D1060002085
:1054100070470000300900201CB508464FF40074A6
:10542000CDE9004352020023FFF71CFE044634B9C5
:10543000FFF7D4FE0446FFF734FA0028FBD10CB185
:1054400001201CBD00201CBD002070471CB5084673
:105450004FF40074CDE9004352020023FFF726FF0A
:10546000044634B9FFF7EEFE0446FFF71AFA0028A7
:10547000FBD10CB101201CBD00201CBD002904D0B3
:10548000018841F0400101807047018821F040010E
:1054900001807047002A03D082880A4382807047C7
:1054A00082888A438280704710B52A4988420AD18F
:1054B000841401212046FEF741F92046BDE8104042
:1054C0000021FEF73BB9244988420AD10414012186
:1054D0002046FEF717F92046BDE810400021FEF7F0
:1054E00011B91E4988420AD1C41301212046FEF792
:1054F00009F92046BDE810400021FEF703B918491C
:1055000088420AD1441401212046FEF717F92046AB
:10551000BDE810400021FEF711B9124988420AD1B6
:1055200001210C052046FEF709F92046BDE8104090
:105530000021FEF703B90C4988420AD101214C052C
:105540002046FEF7FBF82046BDE810400021FEF79C
:10555000F5B810BD0030014000380040003C00406C
:105560000034014000500140005401400246002038
:1055700012890A4200D001207047808970478181DA
:10558000704730B5028802F441530A884C88CD88B0
:1055900022438C882C4322430C8922434C8922438A
:1055A0008C892243CC8922431A430280828B22F4C5
:1055B00000628283098A018230BD000070B50D4609
:1055C0001446FFF76EF910B14FF0FF3070BD4FF485
:1055D000007020600448826CB0F84C00C10541EABC
:1055E00052202860002070BD300900200020704744
:1055F00010B5FFF763F910B14FF0FF3010BD002078
:1056000010BD000010B5094C94F90000002803DA21
:10561000FFF754F900202070FFF743F918B14FF05D
:10562000FF30207010BD002010BD0000FC070020DE
:10563000002070471CB508464FF40074CDE90043C4
:1056400052020023FFF70EFD10B14FF0FF301CBDDA
:10565000FFF7C4FDFFF725F90028FBD11CBD1CB5E1
:1056600008464FF40074CDE9004352020023FFF7CF
:105670001DFE10B14FF0FF301CBDFFF7E3FDFFF73B
:1056800010F90028FBD11CBDFAF788BD0CB500222B
:10569000019200922749086840F4803008604FF476
:1056A000A043086800F4003000900198401C01906D
:1056B000009810B901989842F3D10868800302D588
:1056C0000120009000E000920098012831D1194893
:1056D0004030026842F0805202601748026842F48B
:1056E000404202601348083002680260026842F4D7
:1056F00000420260026842F4A0520260021F0F4B97
:1057000013600A6842F080720A600A689201FCD550
:105710000B4A40F205711160016821F0030101603C
:10572000016841F0020101600168C1F381010229B1
:10573000FAD10CBD00380240007000400854400708
:10574000003C02400148006870470000D803002078
:1057500010B500F093FABDE8104017F0E5B800006E
:1057600010B51248016841F47001016010480168E9
:1057700041F0010101600E4A002108321160026807
:105780000C4B1A400260031D0B4A1A60026822F497
:105790008022026006480C300160FFF777FF034962
:1057A0004FF000608039086010BD000088ED00E017
:1057B00000380240FFFFF6FE1030002470B5048C64
:1057C00024F001040484058B048C25F0F3054FF6C6
:1057D000FF7606EA031313432B4324F00A020A431D
:1057E00042F001010383018470BD70B5048C24F084
:1057F00010040484058B068C4FF6FF7404EA011133
:1058000025F4734504EA03332B4304EA02221A43C6
:1058100026F0A0030B4343F010010283018470BD06
:10582000F0B5048C24F480740484868B058C4FF6C8
:10583000FF7707EA012426F0F30607EA0311114374
:10584000314325F42062224342F480728183028432
:10585000F0BD70B5048C24F480540484858B068CD0
:105860004FF6FF7404EA013125F4734504EA02227D
:105870002A4304EA0333134326F420420A4342F442
:1058800080518383018470BD02F0C0BE11F09CBBC7
:1058900011F0BABB11F0DABB002904D0018841F045
:1058A000800101807047018821F0800101807047EC
:1058B000C94301827047C94301827047002904D05F
:1058C000018841F0010101807047018821F0010148
:1058D00001807047406B7047806B7047C06B7047AA
:1058E000006C7047406A704702460020128A0A42E4
:1058F00000D00120704702460020138A0B40928995
:105900000A40002B02D0002A00D00120704770B559
:1059100006460C4625886188A2882389002D0CD074
:10592000042D13D0082D1AD03046FFF792FFE188DE
:105930003046BDE8704000F057B93046FFF73EFFF3
:10594000E1883046BDE8704000F032B93046FFF7DC
:105950004CFFE1883046BDE8704000F031B9304678
:10596000FFF75EFFE1883046BDE8704000F034B9D3
:10597000002A03D082890A438281704782898A4340
:105980008281704730B5028C22F001020284058CBE
:105990008388028B22F0700222F003020C881443E9
:1059A00025F002028D8915434A882A430D4DA842ED
:1059B00002D00D4DA8420FD122F00805CA892A4312
:1059C00022F004058A882A4323F4807323F40073A9
:1059D0000D8A1D434B8A2B4383800483896841636E
:1059E000028430BD0000014000040140028B22F01F
:1059F00008020A430283704770B5028C22F010023D
:105A00000284028C8388048B24F4E04424F44076DE
:105A10000D884FF6FF7404EA0525354322F0200275
:105A20008E8904EA061616434A8804EA02123243B3
:105A3000114EB04202D0114EB04217D122F0800276
:105A4000CE8904EA0616164326F040068A8804EA40
:105A50000212324323F4806323F400630E8A04EAC3
:105A600086061E434B8A04EA8303334383800583FF
:105A700089688163028470BD000001400004014018
:105A8000028B22F400624FF6FF7303EA01211143F7
:105A90000183704770B5028C22F480720284028CFC
:105AA0008388848B24F0700424F003040D8825433C
:105AB00022F400728E894FF6FF7404EA062616431C
:105AC0004A8804EA02223243114EB04202D0114EFB
:105AD000B04217D122F40066CA8904EA0222324396
