:020000040800F2
:1000000020A901205D020008B51E0008311B000870
:10001000951E0008810D00081D400008000000002A
:100020000000000000000000000000009D0100082A
:100030003D15000800000000F901000859390008CA
:1000400077020008770200087702000877020008AC
:10005000770200087702000877020008770200089C
:10006000770200087702000877020008770200088C
:100070007702000877020008BD110008E9110008A6
:1000800077020008770200089B0A00087702000840
:10009000A10D000877020008770200087702000827
:1000A000770200087702000877020008770200084C
:1000B00077020008913A00087702000877020008EA
:1000C000770200087702000877020008770200082C
:1000D00077020008913E0008953E0008993E00080E
:1000E000770200087702000877020008770200080C
:1000F00077020008770200087702000877020008FC
:100100007702000895290008953A00087702000850
:10011000770200087702000877020008993A000881
:100120007702000815120008770200084112000843
:1001300077020008770200087702000877020008BB
:1001400077020008770200087702000877020008AB
:10015000770200087702000877020008770200089B
:10016000770200087702000877020008770200088B
:100170007702000877020008ED10000877020008F7
:100180007702000877020008DFF80CD000F0F8FBD7
:10019000004800471BCE000820A901202C4B1968FD
:1001A0000868B0E8F04F80F30988BFF36F8F4FF015
:1001B000000080F3118870470000000008480068C4
:1001C000006880F308884FF0000080F3148862B65E
:1001D00061B6BFF34F8FBFF36F8F00DF00BF00BF6B
:1001E00008ED00E0DFF80C00016841F470010160E7
:1001F000704700BF88ED00E0EFF30980BFF36F8F19
:10020000134B1A681EF0100F08BF20ED108A20E96A
:10021000F04F106009B44FF0500080F31188BFF325
:100220004F8FBFF36F8F11F081F84FF0000080F314
:10023000118809BC19680868B0E8F04F1EF0100F6B
:1002400008BFB0EC108A80F30988BFF36F8F704746
:10025000200A0020EFF30580704700000648804721
:1002600006480047FEE7FEE7FEE7FEE7FEE7FEE79B
:10027000FEE7FEE7FEE7FEE76939000889010008AE
:100280002DE9FE43994615468846074601AC0229EA
:1002900042D3002D40D000200290A8F101004FF081
:1002A000FF36009022E000FB057201FB057011464D
:1002B0004A469047002805DC54F82600304444F8AC
:1002C000260013E060682A4600FB057154F8040C10
:1002D00000FB057007E00B7890F800C001F801CB37
:1002E00000F8013B521E002AF5D1764254F8040C66
:1002F00061688842D7DC4B462A463846FFF7C0FF84
:1003000054F8040C4B46A8EB0001401C00FB0570A0
:100310002A46491EFFF7B4FFBDE8FE8340EA010309
:100320009B0703D009E008C9121F08C0042AFAD2AB
:1003300003E011F8013B00F8013B521EF9D270476F
:10034000D2B201E000F8012B491EFBD27047002217
:10035000F6E710B513460A4604461946FFF7F0FFC4
:10036000204610BD421E12F8013F002BFBD111F8B0
:10037000013B02F8013B002BF9D17047421C10F8F9
:10038000011B0029FBD1801A704710B5002200E044
:10039000521C835C8C5CA34201D1002BF8D1D8B2F3
:1003A000E1B2401A10BD034611F8012B00F8012BF1
:1003B000002AF9D1184670472DE9FE4F804681EAA0
:1003C0000300C00F0C46009021F0004123F00045CF
:1003D000B8EB0200A94105D24046214690461C4692
:1003E0000B46024623F00040104347D0270DC7F3C9
:1003F0000A00C3F30A510290401A019040286BDAB8
:10040000C3F3130040F4801B0098924620B10023F0
:10041000D2EB030A63EB0B0B01985946C0F1400283
:10042000504600F0E6F806460D4650465946019AF9
:1004300000F0EEF810EB08006141002487EA115249
:1004400084EAE7731A4340D0009A62B3019A012A02
:100450004FEA075215DC001B61EB02014FF000422E
:1004600002EA0752CDE90042001C41F580113246F4
:100470002B4600F025F903B0BDE8F08F4046214639
:10048000F9E7001B61EB0201001C41F58013001825
:100490005B412018A2F5001747EB030140EAD57035
:1004A000B6196D4111E06D084FEA360645EAC07590
:1004B0004FEA0752001B61EB0201001C41F580115D
:1004C00049084FEA30000019514132462B4603B02B
:1004D000BDE8F04F00F0E5B800980122400000238D
:1004E000D0EB020263EBE073009821464FEAE07420
:1004F000B8EB000061EB0401E9E783F000435BE740
:1005000081F0004158E700F0004230F000400AD08E
:10051000C10D01F56071C0F3160042EA0151C20835
:1005200040071143704700200146704701F0004327
:1005300030B421F0004150EA010206D00A0DA2F5C4
:100540006072C1F31301002A02DC30BC0020704746
:10055000440F44EAC104C100E01830BC00EBC250B3
:1005600000F068B830B50B46014600202022012477
:1005700009E021FA02F59D4205D303FA02F5491B71
:1005800004FA02F52844151EA2F10102F1DC30BD87
:100590002DE9F05F0546002092469B4688460646B8
:1005A000814640241BE0284641464746224600F04B
:1005B000F9F953465A46C01A914110D311461846CC
:1005C000224600F016F82D1A67EB01084F46224626
:1005D0000120002100F00DF817EB00094E41201E0C
:1005E000A4F10104DFDC484631462A464346BDE813
:1005F000F09F202A04DB203A00FA02F10020704725
:100600009140C2F1200320FA03F319439040704750
:10061000202A06DBCB17203A41FA02F043EAE073C6
:1006200006E041FA02F3D040C2F1200291400843B3
:10063000194670470029A8BF7047401C490008BFF1
:1006400020F00100704710B4B0FA80FC00FA0CF002
:1006500050EA010404BF10BC704749B1CCF120043A
:1006600021FA04F411FA0CF118BF012121430843C7
:10067000A3EB0C01CB1D4FEA00614FEA102042BFF3
:10068000002010BC704700EBC35010440029A4BFE9
:1006900010BC7047401C490008BF20F0010010BC8E
:1006A000704710B5141E73F1000408DA401C41F1C4
:1006B000000192185B411A4301D120F0010010BDE6
:1006C0002DE9F04D92469B4611B1B1FA81F202E05C
:1006D000B0FA80F220329046FFF78BFF04460F46B7
:1006E00040EA0A0041EA0B0153465A46084313D038
:1006F000114653EA010019D0C8F14002504600F0FB
:1007000051F905460E46504659464246FFF771FFDD
:10071000084305D0012004E020463946BDE8F08DAD
:100720000020054346EAE0762C4337430A986305E8
:10073000E40AA0EB08000022FD0A44EA47540A300C
:1007400002D500200146E9E7010510196941DDE9FC
:10075000084500196941BDE8F04DA2E72DE9FE4FBB
:1007600081EA030404F0004421F0004100944FF0BA
:10077000000B23F0004350EA01045ED052EA030468
:100780005BD0C3F30A54C1F30A552C44A4F2F334EA
:100790000194A0FB0254C1F3130141F48011C3F38F
:1007A000130343F4801301FB024400FB034E840A4D
:1007B000970A44EA815447EA8357A4FB07680295E5
:1007C0008D0A05FB07854FEA932C04FB0C54270583
:1007D000029D4FEA065847EA1637B5EB08056EEB5F
:1007E000070C870E920E47EA811742EA8312A7FB95
:1007F0000201B6EB0B0164EB00042B0D43EA0C3352
:100800005E1844EB1C50DA465146E7FB0201C5F383
:1008100013044FEA0B3343EA14534FEA0432019CAA
:1008200043EA0603A4F10C040294009CCDE900B451
:10083000FFF746FF03B0BDE8F08F00200146F9E75F
:100840002DE9F04D81EA030404F0004B21F000454E
:1008500014464FF0000A23F0004150EA050220D070
:1008600054EA01021DD0C5F30A570246C5F313032B
:10087000C1F31300C1F30A5640F4801543F480130A
:10088000A7EB0608101BD64608F2FD3873EB0500EF
:1008900002D308F1010801E092185B41B8F1000FA2
:1008A00003DA00200146BDE8F08D00204FF48011EE
:1008B000064684460EE0171B73EB050705D3121B93
:1008C00063EB050306434CEA010C49084FEA30008C
:1008D00092185B4150EA0107EDD152EA030012D0B1
:1008E00082EA040083EA0501084305D0101BAB41EE
:1008F00006D20122002306E000224FF0004302E06E
:100900006FF0010253101AEB06004CEB085110EB8C
:100910000A0041EB0B01BDE8F04DFFF7C2BEC1F389
:100920000A52C1F3130140F2FF3341F480119A429D
:1009300002DA00200146704740F233439A42A2F2A5
:10094000334202DC524200F02DB8FFF752BE0000E5
:1009500030B5041E71F1000404DB4FF00044404246
:1009600064EB0101141E73F1000405DB1C464FF01B
:100970000043524263EB0403994208BF904230BDEA
:10098000064C074D06E0E06840F0010394E80700DC
:1009900098471034AC42F6D3FFF7FAFB6816040808
:1009A000A8160408202A04DB203A21FA02F00021CC
:1009B000704721FA02F3D040C2F12002914008436F
:1009C0001946704770B58C1810F8015B15F00703D5
:1009D00001D110F8013B2A1106D110F8012B03E0D8
:1009E00010F8016B01F8016B5B1EF9D12B0705D4E0
:1009F0000023521E0DD401F8013BFAE710F8013B29
:100A0000CB1A921C03E013F8015B01F8015B521E44
:100A1000F9D5A142D8D3002070BDC9430160704709
:100A2000090AC94301607047002904D0816841F078
:100A3000010181607047816821F001018160704788
:100A400010B5074C226807490A40D0E90013194342
:100A5000D0E90230034319431143216010BD000067
:100A600004230140E030FCFFC06C80B270470246B6
:100A7000002012680A4200D00120704730B50246BB
:100A800000200B0A546801258D402C401168194242
:100A900002D0002C00D0012030BD0CF0CBB90000FA
:100AA00030B542680F4B1A400C790B6842EA0422B9
:100AB0001343436083680C4A1340D1E90342224345
:100AC0004D798C6844EA450422431A438260C26A25
:100AD00022F47002097D491EC9B242EA0151C16285
:100AE00030BD0000FFFEFFFCFDF7FFC070B507261C
:100AF00009290AD9C568A1F10A0404EB4404A640F7
:100B0000B543A3401D43C56007E0056901EB4104FF
:100B1000A640B543A3401D4305611F23072A09D200
:100B2000446B521E02EB820293409C4391400C4363
:100B3000446370BD0D2A09D2046BD21F02EB8202FE
:100B400093409C4391400C43046370BDC46A0D3ACA
:100B500002EB820293409C4391400C43C46270BDFF
:100B60000849002806D0D1F8040340F40000C1F879
:100B700004037047D1F8040320F40000C1F8040313
:100B8000704700000020014070B586B004460D4655
:100B900016460121084601F085FB0223ADF8083016
:100BA0000023ADF80A30ADF80C40ADF80E50ADF8AA
:100BB0001060ADF81230ADF8143002A800F0B4FAAD
:100BC0000121084600F0A0FA4E208DF80400012013
:100BD0008DF805008DF806008DF8070001A801F0DA
:100BE00077F906B070BD00002DE9F04190B00746DE
:100BF000884615460121880501F046FB264E304601
:100C000000F058FB4FF000700190244802900397C9
:100C10000024049405950694012D3BD030150790CF
:100C20004FF4805008904000099040110A90400213
:100C30000B9004200C9003200D900E940F9401A9AA
:100C4000304600F051FCB8F1000F20D000223946A8
:100C5000304600F0D1FB4FF400224146304600F010
:100C6000CBFB0121304600F0BBFB012210213046B6
:100C700000F020FC39208DF8000001208DF80100E3
:100C80008DF802408DF80300684601F021F910B09C
:100C9000BDE8F0810794C3E72864024028000550AE
:100CA0002DE9FC410121172001F0EEFA304C0D2214
:100CB0000421204600F020FF0D220621204600F0EE
:100CC0001BFF0D220921204600F016FF294D0D22A1
:100CD0000621284600F010FF0D220721284600F0CB
:100CE0000BFF254E0D220721304600F005FF234F54
:100CF0000D220021384600F0FFFE0D22012138466A
:100D000000F0FAFE0D220421384600F0F5FE0D2217
:100D10000521384600F0F0FE0D220621384600F08D
:100D2000EBFE4FF41471009102218DF804100321A1
:100D30008DF8051000218DF8061001208DF80700B0
:100D40006946204600F09AFEC02000906946284679
:100D500000F094FE802000906946304600F08EFE40
:100D6000732000906946384600F088FEBDE8FC819B
:100D7000000002400004024000080240001002404F
:100D800002A1012010F050FDFEE7000042757346FD
:100D900061756C745F48616E646C65720D0A000069
:100DA0000CF0D4B810B500EB0113D3F8B04104F047
:100DB00004041472002C2CD0D3F8B041E408546021
:100DC00003F5D8731C6804F0020454725C6804F0E4
:100DD0000F0494725C68240AD4749C68D4729C6872
:100DE000240A14739C68240C54739C68240E947316
:100DF000DC68D473DC68240A1474DC68240C547432
:100E0000DB681B0E937449B1016941F02001016157
:100E100010BDD3F8B041640D1460D1E7C16841F052
:100E20002001C16010BD70B500254FF4803400E092
:100E3000641E24B1802001F087FD0028F8D02CB179
:100E400040F2FF5001F03EFD284670BD032070BD0A
:100E500070B5054600243B49086800E0086810F0BA
:100E6000450FFBD0410705D50324042001F02AFDDE
:100E7000204670BDC00705D00124012001F022FDED
:100E8000204670BD01F05AFDA84201D0102070BD6F
:100E900040F2FF5001F016FD002001F071FD2A49DB
:100EA000084201D1204670BD002801DA1C2070BD27
:100EB000410001D5092070BD810001D50A2070BD17
:100EC000C10001D50B2070BD010101D50C2070BD02
:100ED000410101D50D2070BDC10101D50E2070BDAD
:100EE000010201D50F2070BD410201D5102070BD57
:100EF000810201D5112070BDC10201D5122070BD43
:100F0000010301D5132070BD410301D5142070BD2C
:100F1000810301D5152070BDC10301D5162070BD18
:100F2000010401D5172070BD410401D5182070BD02
:100F3000810401D5192070BD000701D51A2070BDAC
:100F4000204670BD342C014008E0FFFD10B50024A0
:100F50000E4A116800E0116811F0450FFBD04807F8
:100F600005D50324042001F0ADFC204610BDC807C0
:100F700005D00124012001F0A5FC204610BD40F25F
:100F8000FF5001F09FFC204610BD0000342C0140B2
:100F900010B500240A4A116800E0116811F0450FED
:100FA000FBD0480705D50324042001F08BFC204624
:100FB00010BD40F2FF5001F085FC204610BD00003E
:100FC000342C014070B506460C4600251C4A1068BA
:100FD00000E0106810F0450FFBD0410705D5032451
:100FE000042001F06FFC204670BDC00705D001242D
:100FF000012001F067FC204670BD01F09FFCB0426B
:1010000001D0102070BD40F2FF5001F05BFC0020C9
:1010100001F0B6FC10F4604F03D0810405D5132015
:1010200070BD000C2080284670BD410401D5102001
:1010300070BD000401D50F2070BD284670BD0000B2
:10104000342C014010B500204FF480310D4B1A684C
:1010500001E0491E1A6812F0450F01D10029F8D1AC
:1010600009B1510705D50324042001F02BFC2046CB
:1010700010BD5106FCD50024402001F023FC204681
:1010800010BD0000342C01400649002804D0086837
:1010900040F0010008607047086820F00100086017
:1010A000704700000000055001494861704700008A
:1010B000000005500649002804D0086840F480402C
:1010C00008607047086820F480400860704700009E
:1010D000000005500246002003490969114000291B
:1010E00000D00120704700000000055010B501201D
:1010F000FFF7F0FF012805D1FFF7D6FFBDE810404C
:101100000BF058BF10BD0000064A002903D0D1687B
:101110000143D1607047D168C04380B20140D160C3
:10112000704700000000055030B50D490A6844F2D0
:1011300001039A430A600A6840F6F2739A430388EF
:101140004488C588234384882C432343048923434C
:10115000448980892343034313430B6030BD00005F
:10116000000005501CB50121102001F08DF80C2065
:10117000009002208DF8050001208DF80400002168
:101180008DF806108DF807000B4C6946204600F0DC
:1011900075FC0421204600F0C6FC0A2000F0DCF9B2
:1011A0000821204600F0BFFC0A2000F0D5F90821F4
:1011B000204600F0BAFC1CBD0010024070B5084C7F
:1011C000084D2146284600F04BF9012807D1214659
:1011D000284600F04DF8BDE870400CF055BA70BDDF
:1011E000008000185860024070B5084C084D214638
:1011F000284600F035F9012807D12146284600F09D
:1012000037F8BDE870400CF0CDB970BD20800020EB
:101210007060024070B5084C084D2146284600F029
:1012200005F9012807D12146284600F00BF8BDE852
:1012300070400BF0ABBE70BD000800102864024087
:1012400002F026B8074A904201D2074801E005485B
:101250001038064A8B0001EA020101D5C1607047CF
:101260008160704710640240006002407D0F7D0F76
:10127000074A904201D2074801E005481038064A63
:101280008B0001EA020101D5C1607047816070479F
:1012900010640240006002407D0F7D0F002904D0E1
:1012A000016841F0010101607047016821F001010E
:1012B000016070472DE9F043016821F001010160F0
:1012C0000021016041608160C160016121214161B3
:1012D0003E493E4A10394FF03D08904203D1C1F8D3
:1012E0000880BDE8F083394A4FF4746518329042A3
:1012F00001D18D60F5E7354A4FF4741630329042D3
:1013000001D18E60EDE7314A4FF074674832904268
:1013100001D18F60E5E72D4B2D4A6033984201D112
:10132000CA60DEE7294C2B4B7834A04201D1CB6058
:10133000D7E7DFF898C0284C0CF1900C604501D13C
:10134000CC60CEE7DFF884904FF03D5C09F1A8094E
:10135000484502D1C1F80CC0C3E72049DFF87C90B2
:101360000839484502D1C1F80080BAE7DFF86C803F
:1013700008F11808404501D10D60B2E7174D30352E
:10138000A84201D10E60ACE7144D4835A84201D106
:101390000F60A6E7114D11496035091FA84201D120
:1013A0000A609EE70D4A7832904201D10B6098E7BF
:1013B0000A4A9032904201D10C6092E7074AA83263
:1013C00090428ED1C1F800C08BE70000106002404F
:1013D0003D000020400F002000003D20106402402E
:1013E000002904D0016841F4802101607047016840
:1013F00021F4802101607047002A04D0026842F481
:101400000022026003E0026822F40022026001610F
:101410007047002904D0016841F020010160704745
:10142000016821F0200101607047000002460020A1
:10143000084B9A4201D2084A01E0064A103A8B0052
:1014400001D5526800E01268044B1A400A4200D0ED
:101450000120704710640240006002407D0F7D0F44
:1014600030B500240F4A904201D20F4A01E00D4AE4
:10147000103A0E4B194205D01E2303EAD12503680A
:101480002B4002E0406900F08003880001D55068DD
:1014900000E01068064A1040084201D003B1012460
:1014A000204630BD10640240006002403C0F3C0FFB
:1014B0007D0F7D0F0B0609D522B1436943F08003F0
:1014C000436103E0436923F080034361802905D031
:1014D00001F01E011AB102680A43026070470268F7
:1014E0008A4302607047000030B50368124A134017
:1014F000CC680A682243D1E905452C432243CC69D4
:1015000022430C6A22434C6A22438C6A22434C6B6E
:1015100022438C6B22431A430260426922F0070384
:10152000D1E90B2422431A4342610A6942604A68A6
:1015300082608968C16030BD3F801CF001A101203C
:1015400010F072B944656275674D6F6E5F48616EE9
:10155000646C65720D0A000003490A681044486013
:101560000A689042FCD87047A4090020002200F0CD
:1015700001B8000010B50346012009783039C9B21E
:10158000032908D204480024445400EB810463601A
:1015900008440274002010BD7C9401208000A0F15A
:1015A000C040002904D0016841F00101016070478A
:1015B0000168024A1140016070470000FEFF0F0001
:1015C00070B501688900A1F1C0410B68344A13402D
:1015D000D0E901242243D0E903452C432243446946
:1015E000224384692243C4692243046A2243446A31
:1015F0002243846A2243C46A2243046B22431A436F
:101600000A608168082907D101688900A1F1C041F9
:101610000A6842F040020A600168491C8A00A2F18F
:10162000C042116801F04044416BD1E9003543EA02
:1016300005138D688E892D0245EA06452B430D8AD8
:1016400043EA05530D7D896943EA05630B43234350
:101650001360C16AB1F5804F08D000686FF0704127
:101660008000A0F1C040C0F8041170BD016889007D
:10167000A1F1C041D1F804210A4B1A40806BD0E996
:10168000003443EA041384688589240244EA05444B
:101690008069234303431343C1F8043170BD000044
:1016A0008000F7FF0000F0CFF8B5002441A00FF054
:1016B000E5FB0A224CA151480AF01AF9504F387044
:1016C000661E38B14FA00FF0D9FB4C4809F0FCFC66
:1016D0003046F8BD4DA00FF0D1FB4948401DFEF744
:1016E0004DFE474902466B46491D44480AF0D5FA6B
:1016F000387038B143A00FF0C1FB404809F0E4FC5A
:101700003046F8BD45A00FF0B9FB3D4945A0491D45
:101710000FF0B4FB394809F0D7FC44A00FF0AEFB42
:101720003748401DFEF72AFE85B201222EA133481C
:101730000AF0DEF8387031496B462A4620392F48C6
:101740000AF0B1F9387038B12EA00FF097FB2B4892
:1017500009F0BAFC3046F8BD3FA00FF08FFB2748D8
:101760002946203800F074FD254A2448521D2038AF
:101770000DE0115D035D994207D022A00FF07EFBC2
:101780001E4809F0A1FC3046F8BD641CE4B2AC422E
:10179000EFD335A00FF072FB184922A020390FF0CB
:1017A0006DFB164809F090FC31A00FF067FB00209C
:1017B000F8BD00002D2D2D2D2D2D2D2D2D2D2D2D58
:1017C0002D4661744673206F70656E2026207772F7
:1017D0006974652D2D2D2D2D2D2D2D2D2D2D2D2D7E
:1017E0002D2D0D0A00000000313A46617446735FEA
:1017F000546573742E74787400000000F496012010
:10180000140D0020657272210D0A00006F6B2C7799
:10181000726974652E2E2E0D0A0000006F6B200D6C
:101820000A00000025730D0A000000002D2D2D2D4B
:101830002D2D2D2D2D2D2D2D2D46617446732072AD
:101840006561642D2D2D2D2D2D2D2D2D2D2D2D2D25
:101850002D2D0D0A000000006F6B2C20766572693B
:1018600066792E2E2E0D0A006F6B0D0A0000000007
:1018700073646D6D6320616E6420666174667320AD
:10188000746573742066696E697368210D0A0000BF
:101890007CB501AA69460C4809F026FC01988169CB
:1018A0004089891E4143009A5043CC0AC50A07A0CB
:1018B0000FF0E4FA214610A00FF0E0FA29460EA03E
:1018C0000FF0DCFA7CBD0000150D00202D2D2D2D14
:1018D0002D2D2D2D2D2D2D2D2D2D2D2D2D2D2D70F5
:1018E00072612D2D2D2D2D2D2D2D2D2D2D2D2D2DAF
:1018F0002D2D2D0D0A00000053442025644D420D6E
:101900000A0000002DE9FC470E460024002700973E
:101910000197574D4FF0080AC5F800A010206860E5
:101920004FF04009C5F80890EF604FF48068C5F8A3
:101930001080284601F05AF81020FFF789FA002895
:1019400032D14C4800890004286037206860C5F80F
:101950000890EF60C5F81080284601F047F837205E
:10196000FFF776FA00281FD1411E05F1140001602F
:10197000C0F804A0302181600221C160076101210B
:10198000416100F0B7FF2F6033206860C5F8089010
:10199000EF60C5F81080284601F028F83320FFF7E3
:1019A00057FA0546280001D0BDE8FC874FF4001A1D
:1019B0006F46DFF8C48040F22A6908E0504600F024
:1019C000C3FF20B101F00CF847F82400641CD8F8DC
:1019D000000010EA090FF1D0082000F0B5FF20B197
:1019E000082000F06FFF0420DEE7022000F0ACFFCB
:1019F00020B1022000F066FF0220D5E7202000F091
:101A0000A3FF20B1202000F05DFF0620CCE74FF4BB
:101A10000074204600F098FF20B1204600F052FFED
:101A20000720C1E740F2FF5000F04CFF00980099FA
:101A3000000601F47F4140EA0120009901F47F0192
:101A400040EA1120009940EA116070600198019904
:101A5000000601F47F4140EA0120019901F47F0171
:101A600040EA1120019940EA1160306028469BE766
:101A7000E00E002030010020342C01402DE9F0411F
:101A8000002201274FF0030C07FA02F50B682B40E8
:101A9000AB422CD1066853000CFA03F4A64306604F
:101AA0000E79D0F800809E4046EA080606600E795E
:101AB000012E01D0022E12D18668A64386604E798F
:101AC000D0F808809E4046EA080686604668AE4325
:101AD000466045688E799640B6B235434560C56824
:101AE000A543C560CC799C40C3681C43C460521CAC
:101AF000102AC9D3BDE8F08110B54B07DB0E9A4020
:101B0000C90800EB8100016A0F249C40A1430162D7
:101B1000016A1143016210BD0246002012690A42A7
:101B200000D0012070474183704701837047000057
:101B300002A101200FF078FEFEE700004861726408
:101B40004661756C745F48616E646C65720D0A0065
:101B5000002904D0018841F4806101807047018828
:101B600021F4806101807047034600209A8A1B8B14
:101B70001B041A4322F07F42914300D10120704799
:101B8000002904D0018841F00101018070470188DB
:101B900021F001010180704710B5154988420AD132
:101BA00001214C05204600F0A7FB2046BDE810406F
:101BB000002100F0A1BB0F4988420AD101218C0508
:101BC000204600F099FB2046BDE81040002100F0BF
:101BD00093BB094988420AD10121CC05204600F077
:101BE0008BFB2046BDE81040002100F085BB10BDF6
:101BF0000054004000580040005C0040002904D020
:101C0000018841F4807101807047018821F480715E
:101C100001807047002904D0018841F400710180DF
:101C20007047018821F40071018070477FB5044638
:101C30000D46A08820F03F06684600F08DFB029814
:101C40002749B0FBF1F189B20E43A680228822F029
:101C500001022280234B2A689A4209D85200B0FB25
:101C6000F2F080B2042800D20420491C218423E031
:101C7000EB88A3F53F46FF3E0BD002EBC20303EB1C
:101C80000212B0FBF2F080B240F48040020506D0B0
:101C900007E002EB4202B0FBF2F080B2F6E740F060
:101CA000010040F400404FF4967251434FF47A72B1
:101CB000B1FBF2F1491C2184A083208840F001008F
:101CC000208020884FF6F5310840A9886A891143A1
:101CD00001432180A8892989084320817FBD000014
:101CE00040420F00A0860100008AC0B27047002A5F
:101CF00002D041F0010101E001F0FE0101827047D4
:101D000001827047002904D0818B41F48061818376
:101D10007047818B21F480618183704730B5002347
:101D2000828B4FF240042240828302220284848B01
:101D30000A884FF48075B2F5007F00D002B92B46B7
:101D40004A888D8889892A4319430A43224342F4E9
:101D50000061818330BD0000F0B502220023012420
:101D6000858B4FF240063540858302250584868B9E
:101D70008D68022D42D08A8802B102242F4A13684E
:101D80001B0203D5136823F4000313602B4A7C3233
:101D90001368C3F388131268C2F30275274F3F1FFD
:101DA0003A6802F03F023F687F0206D5244FB7FB36
:101DB000F2F25A43B2FBF5F205E0224FB7FBF2F222
:101DC0005A43B2FBF5F2CB88B3F5007F2BD0630109
:101DD000B2FBF3F202EB82028B685200B2FBF3F229
:101DE000521D92B20A23B2FBF3F202F00103D21A9F
:101DF000C2F34F024FF6FF7404EA0323941EFE2C35
:101E000001D302220023CC881A43144304840A8895
:101E10004B881A438B8889890B431A43324342F417
:101E200000618183F0BD120A02EB82028B685200CE
:101E3000B2FBF3F2521D92B2D4E700000838024020
:101E400000127A000024F4001CB5012000F07EFA94
:101E50000121084600F018FA0D4C00220821204606
:101E6000FFF74AFEA115009102218DF805108DF8AB
:101E7000041000218DF8061001218DF80710694625
:101E80002046FFF7FBFD0021084600F0E7FA1CBDE5
:101E90000000024002A101200FF0C6FCFEE7000096
:101EA0004D656D4D616E6167655F48616E646C651F
:101EB000720D0A0002A101200FF0B6FCFEE700003F
:101EC0004E4D495F48616E646C65720D0A000000FA
:101ED00030B50F23C27801250178002A1FD0154A9A
:101EE000126802F4E062C2F5E062C2F30722C2F1B6
:101EF0000404D3404278A24084781C401443220159
:101F000001F1E02181F80024007800F01F018D40EC
:101F10004009800000F1E020C0F8005130BD01F020
:101F20001F0085404809800000F1E020C0F8805182
:101F300030BD00000CED00E0024908430249086092
:101F4000704700000000FA050CED00E0024A114065
:101F5000014302480160704780FFFF1F08ED00E069
:101F600010B50446062C17D2DFE804F016030C0C5B
:101F70000C0C002211462020FEF706FEBDE81040A2
:101F800000F0B6B8002280212020FEF7FDFD20469B
:101F9000BDE8104000F00AB8002280212020FEF7A2
:101FA000F3FDBDE8104000F089B8000070B50546AB
:101FB00000F0D1F8C820FFF7CFFA00243C4E06EB22
:101FC0004400417816F8140000F0D0F8641CBE2CD0
:101FD000F5D30024374E06EB4400417816F8140080
:101FE00000F0C4F8641C092CF5D30121FF2000F097
:101FF000BDF80021152000F0B9F800242D4E12364E
:1020000006EB4400417816F8140000F0AFF8641CA9
:10201000082CF5D36420FFF79FFA264E2236022DB6
:1020200011D0032D1BD0042D27D0052D33D0002433
:1020300006EB4400417816F8140000F097F8641C91
:10204000272CF5D370BD002406EB4400417816F828
:10205000140000F08BF8641C272CF5D370BD00240D
:10206000144D703505EB4400417815F8140000F06C
:102070007DF8641C272CF5D370BD00240D4DBE35B2
:1020800005EB4400417815F8140000F06FF8641C6B
:10209000272CF5D370BD0024074D05EB4400417893
:1020A00015F8140000F062F8641C272CF5D370BDFD
:1020B000CA37010846390108523A010870B500F0E4
:1020C0004AF8C820FFF748FA0024084D4FF4A476D8
:1020D00005EB4400417815F8140000F047F80220A1
:1020E000FFF73AFA641CB442F2D370BD82330108A0
:1020F00070B500F030F8C820FFF72EFA0024074D25
:1021000005EB4400417815F8140000F02FF8022088
:10211000FFF722FA641CDC2CF2D370BD12360108E2
:1021200010B504460121FF2000F020F81C2000F02B
:102130000EF820701D2000F00AF860700A2000F0F0
:1021400006F8A0700B2000F002F8E07010BD014608
:10215000612003F0FFBA10B50121FF2000F006F85E
:102160008021BDE810401220AFF300800A460146EE
:10217000602003F081BB10B504464022802100207E
:10218000FEF702FD2CB1012C07D0BDE8104000F095
:1021900009B8BDE8104000F005B8BDE8104000F0F7
:1021A00019B8000070B500F044F8C820FFF7D4F962
:1021B0000024074D05EB4400417815F8140000F0A9
:1021C0003CF80220FFF7C8F9641C972CF2D370BDCD
:1021D000A03A010870B500F02CF8C820FFF7BCF950
:1021E0000024074D05EB4400417815F8140000F079
:1021F00024F80220FFF7B0F9641C972CF2D370BDCD
:10220000CE3B010810B504461C2000F00EF82070EB
:102210001D2000F00AF860700B2000F006F8A07096
:102220000A2000F002F8E07010BD0146612003F0C2
:1022300091BA80211220AFF300800A460146602047
:1022400003F01ABB014908627047000000000E420B
:1022500070B505460E46002409E0200702D107A00C
:102260000EF00CFE295D06A00EF008FE641CB442C0
:10227000F3DBBDE8704001A00EF000BE0D0A0000C7
:102280002530327820000000054A002903D011686B
:10229000014311607047116881431160704700006D
:1022A00030380240054A002903D01168014311600B
:1022B0007047116881431160704700003438024054
:1022C000054A002903D01168014311607047116865
:1022D000814311607047000038380240054A0029E8
:1022E00003D0116801431160704711688143116088
:1022F0007047000040380240054A002903D01168A9
:1023000001431160704711688143116070470000FC
:1023100020380240054A002903D0116801431160AA
:1023200070471168814311607047000044380240D3
:10233000054A002903D011680143116070471168F4
:102340008143116070470000243802400149C8648D
:10235000704700000000474270B5244B196801F037
:102360000C01234C00291ED0661004291DD0082919
:102370001DD00460196801F0F00109091D4A545C80
:102380000168E14041601C6804F4E054A40A145D53
:1023900021FA04F484601B6803F460435B0BD25C95
:1023A000D140C16070BD0460E4E70660E2E70F4A17
:1023B000121F1168C1F38055116801F03F0135B15A
:1023C000B6FBF1F11468C4F38814614305E0B4FB73
:1023D000F1F11468C4F3881461431268C2F3014236
:1023E000521C5200B1FBF2F10160C3E70838024011
:1023F0000024F400140000200246002051090129A5
:102400000BD002290DD00949096802F01F020123EF
:1024100093400B4200D00120704704497439096889
:10242000F3E70249091F0968EFE70000743802402A
:1024300001490860704700005C01474206490022DC
:102440000A700A70012804D0042801D10520087000
:10245000704701200870704770380240034B1A68BB
:1024600022F0EC62084310431860704708380240BD
:102470000149886670470000000047420149086032
:10248000704700003C0E4742C0F30121032907D1E9
:10249000074B196821F4F8120649014011431960ED
:1024A000034A68321168C0F30B00014311607047A2
:1024B00008380240FFFCFF0F010901EB81014900D0
:1024C00000F00F000844C0B27047002103E0491C2F
:1024D000C9B20A38C0B20A28F9D2090740EA116025
:1024E0007047000008B5002000900E4908684006BB
:1024F00015D44FF0FF3008608B13086800F04000DF
:10250000009A521C0092009A9A4201D00028F4D0FE
:102510000868400601D5012008BD002008BD012043
:1025200008BD00000C2800400248016821F080012D
:10253000016070470C28004070B504460025114E1C
:10254000CA20306053203060FFF7CCFFA8B10D489F
:102550001C38016821F040010160016822681143C4
:1025600001600848A168143801600168A28841EA46
:1025700002410160FFF7D8FF0125FF2030602846A7
:1025800070BD00002428004008B5034901EB80001D
:1025900000900098006808BD5028004070B50546BE
:1025A0000C460026002D06D16078C10603D520F028
:1025B00010000A3060702DB16078FFF77DFFA078C1
:1025C000FFF77AFF55B1A078E17840EA01456078DD
:1025D0002178000240EA413005430FE0E078FFF740
:1025E00074FF05046078FFF770FF45EA0025A078C6
:1025F000FFF76BFF0543207845EA40350E4CCA20B3
:10260000206053202060FFF76DFF88B10B48054024
:10261000094820380560FFF787FF07481C38006825
:10262000800604D400F060F810B1012600E0012615
:10263000FF202060304670BD242800403FFFFF008F
:102640002DE9F04105460C4600260020244F002DC0
:1026500006D03968490608D52078FFF72DFF05E038
:102660003968490602D4E07000E0E07055B1A07806
:10267000217840EA01456078E178000240EA0140B3
:1026800005430FE02078FFF720FF05046078FFF78F
:102690001CFF45EA0025A078FFF717FF0543E07807
:1026A00045EA00450E4CCA201C34206053202060AF
:1026B000FFF718FF78B10B48054009480838056056
:1026C000FFF732FF3868800604D400F00DF810B12F
:1026D000012600E00126FF2020603046BDE8F081A1
:1026E000082800407F7F7F0018B500200090104B25
:1026F000CA201860532018600D491839086820F066
:10270000A00008604FF40034086800F02000009A30
:10271000521C0092009AA24201D00028F4D008680E
:10272000800601D5012000E00020FF21196018BDBE
:102730002428004008B5034A02EB8000009000986E
:10274000016008BD5028004030B587B001218805E0
:10275000FFF7C4FD01212020FFF796FD1F4D042245
:1027600000212846FFF7C8F9042201212846FFF777
:10277000C3F90321059102218DF8181000248DF86A
:10278000194001218DF81A108DF81B4005A9284623
:10279000FFF774F9124D2846FFF7FEF9ADF808402F
:1027A0004BF6FF71ADF80A10FE21ADF80C1029159B
:1027B000ADF80E100901ADF8101042F21071019140
:1027C00001A92846FFF732FA01212846FFF7D8F978
:1027D00001212846FFF7BCF907B030BD00140240C4
:1027E000005800402DE9FC4706460024009401945F
:1027F000002000F0C5F8800102D50E20BDE8FC875E
:102800002E4D6946288980B2FFF77CF80028F5D163
:1028100037202B4F4FF0060A4FF040094FF48068E5
:10282000012E22D00199C90345D5298909043960AF
:102830007860C7F80890FC60C7F81080384600F050
:10284000D5F83720FEF704FB0028D7D13C60C7F845
:1028500004A0C7F80890FC60C7F81080384600F064
:10286000C5F80620FEF7F4FAC8E70199490320D518
:102870002989090439607860C7F80890FC60C7F8B6
:1028800010800F4800F0B2F83720FEF7E1FA002878
:10289000B4D102203860C7F804A0C7F80890FC60E3
:1028A000C7F81080064800F0A1F80620FEF7D0FA1D
:1028B000A4E72520A2E72520A0E7000030010020A2
:1028C000E00E00200149086070470000382C0140EC
:1028D0000149086070470000382C01400149086038
:1028E00070470000A0802542014908607047000041
:1028F0008C85254210B50A4A01681160121D416895
:102900001160141D216821F0F701D0E902231A4358
:10291000D0E9043003431A430A43226010BD00008B
:10292000242C014010B50121CC022046FFF700FD08
:102930002046BDE810400021FFF7FABC01480068BE
:10294000C0B27047102C014001460020024A1268B4
:102950000A4200D001207047342C0140014600207B
:10296000024A12680A4200D001207047342C01400C
:102970000248006800F0030070470000002C01408E
:1029800008B50349084400900098006808BD00009D
:10299000142C014000F090BC054A002903D01168B6
:1029A0000143116070471168814311607047000056
:1029B0003C2C014030B5094B196847F6FF62914342
:1029C000027D8468C568224344682C43224304681E
:1029D0000069224302430A431A6030BD042C0140BF
:1029E0000148006870470000802C014010B5084A7B
:1029F00001681160141D21686FF30A01D0E90123F9
:102A00001A43D0E9033003431A430A43226010BD3E
:102A1000082C01400149086070470000002C01406B
:102A200008B50120009041030448FFF775F808B18C
:102A3000002000909DF8000008BD00000008024042
:102A40002DE9F041014600241C484068032805D0C8
:102A500038B1012805D0022803D02DE02720BDE899
:102A6000F081B1F5805F0CD04FF400670026144D63
:102A7000B94212D10120FFF7B5FE0446200002D072
:102A80001AE02720EBE72E752E606E60AE60EF60D7
:102A90002E610B48FFF78EFF0EE00020FFF7A2FE2D
:102AA0000446200008D12E752E606E60AE60EE6088
:102AB0002E610348FFF77EFF2046D0E7300100205B
:102AC000C80E00202DE9F04397494F6880F85670F2
:102AD0000989A0F85410DFF854C2DCF800100A0E7F
:102AE00093090370C2F38303437002F00302827000
:102AF0000A0CC2700A0A02714171DCF80420110E3E
:102B00000901C180C2F30741C38843EA1113C3809E
:102B100001F00F010172C2F30721CB094372C1F327
:102B200080138372C1F34013C372C1F300130373A4
:102B30000023437364460126D4F80880002F4FEA2F
:102B40001864C8F30745C8F3072904D0012F02D041
:102B5000022F3AD051E08907090D0161D1B2026913
:102B600042EA81010161016941EA94110161C4F302
:102B7000C201017504F00701417569098175C5F34A
:102B80008201C175A907490F01764946027E42EAD2
:102B9000D11202760269521C047EA41C06FA04F9C2
:102BA000A2FB094703FB09774FEAE97502FB0575AC
:102BB000027A06FA02F70765A4FB072905FB0795C9
:102BC00004FB0354C0E9122417E09106890A01614D
:102BD000016941EA04210161016929430161494612
:102BE0000269521C43F10004E40444EA5234D20462
:102BF000C0E912244FF4007202651C30C1F3801248
:102C000000F8032C8906490E00F8021C08F0FF01A9
:102C100010F8022C42EAD11200F8022C01F07F01D8
:102C200000F8011CDCF80C20110ECC090470C1F373
:102C300041144470C1F3820484708907090FC17084
:102C4000C2F30741C47844EA9114C470C1F340143C
:102C50000471437101F001018171C2F30721CC09B4
:102C6000C471C1F380140472C1F340144472C1F3FF
:102C700000148472C1F38104C47201F00301017372
:102C8000D1B2490841738673284A103211680C0E7C
:102C900004740C0C24024482C1F30724458A2543A2
:102CA00045820906416151680C0E456945EA0444B4
:102CB0004461C1F30744456945EA04244461C1F312
:102CC0000724456925434561017691680C0E4476D9
:102CD0000C0C2406C461C1F30724C56945EA044409
:102CE000C461C9B2C46944EA0121C161D1680A0E54
:102CF000C4691443C461C1F3074290F8204044EA18
:102D0000121480F820401207120D4284C1F30722EA
:102D1000448C14434484C9B2490880F8241080F8D4
:102D200025601846BDE8F08330010020400E0020E9
:102D300008B500200090FFF773FE012801D0FF20A6
:102D400008BD684600F080FB08B1FF2008BD009870
:102D5000C0F3432008BD10B5FFF7EAFF042803D0F5
:102D6000FF2803D0012010BD002010BD022010BD9F
:102D700038B50024009400F0AFF900F04FF9FFF7E8
:102D8000D1FD00F0C3F900909DF8000010B19DF84E
:102D9000000038BD00F02EF800909DF8000010B142
:102DA0009DF8000038BD12480475046044608460DA
:102DB000C4600461FFF7FEFD0D485838FFF782FE3E
:102DC00000909DF8000040B9094800215838B0F83B
:102DD0005400000400F022FB00909DF8000020B990
:102DE0004FF40060FFF72CFE00909DF8000038BD06
:102DF000C80E00202DE9F84F002401200090FFF7B5
:102E0000B7FDE0B1DFF8FC8000263F4DD8F80400A4
:102E10004FF0C0094FF4806704282AD02E600220AA
:102E20006860C5F80890EE602F612846FFF7DEFD68
:102E3000FEF78CF80446200003D0BDE8F88F25206B
:102E4000FBE70020FFF79CFDDFF8BCA0AAF1900A89
:102E5000CAF800000420FFF793FDCAF80400082018
:102E6000FFF78EFDCAF808000C20FFF789FDCAF8AD
:102E70000C00D8F8040028B1012803D0062801D09E
:102E8000022811D12E60032068604020A860EE6007
:102E90002F611D48FFF7AAFD69460320FEF792F84F
:102EA0000446200000D0C8E7D8F80400042826D043
:102EB000BDF80000C8F80800000428600920686018
:102EC000C5F80890EE602F610F48FFF78FFDFEF701
:102ED0003DF80446200000D0AFE70020FFF750FD8A
:102EE000094DA03D28600420FFF74AFD68600820D6
:102EF000FFF746FDA8600C20FFF742FDE860204682
:102F00009BE7000030010020E00E002070B590B07B
:102F100005460C461D4E4FF0FA513046FEF792F929
:102F200000213046FEF7BAF93046FEF7C3F94FF0FC
:102F300000600190164802900395002004900594CB
:102F40000690311507918900089109900A904FF475
:102F500040300B9004200C9003200D90C8020E907E
:102F600080100F9001A93046FEF7BEFA0122102111
:102F70003046FEF79FFA20213046FEF74AFA01213B
:102F80003046FEF78BF910B070BD00005864024067
:102F9000802C014070B590B004460D461D4E4FF098
:102FA000FA513046FEF74EF900213046FEF776F929
:102FB0003046FEF77FF94FF000600190164802900E
:102FC0000394402004900595002006903115079148
:102FD0008900089109900A904FF440300B9004202A
:102FE0000C9003200D90C8020E9080100F9001A944
:102FF0003046FEF779FA012210213046FEF75AFAE0
:1030000020213046FEF705FA01213046FEF746F949
:1030100010B070BD58640240802C01402DE9FC4185
:1030200001210C20FFF730F9294E0C2208213046EF
:10303000FEF762FD0C2209213046FEF75DFD0C22F1
:103040000A213046FEF758FD0C220B213046FEF7D0
:1030500053FD0C2211463046FEF74EFD1D4F0C224B
:1030600002213846FEF748FD4FF4706000900221BF
:103070008DF805108DF8041000248DF80640012508
:103080008DF8075069463046FEF7F8FC04200090A2
:1030900069463846FEF7F2FC280300908DF8074099
:1030A00069463046FEF7EAFC680300908DF804405C
:1030B0008DF8075069463046FEF7E0FC0121C80252
:1030C000FFF728F901218805FFF7DEF8BDE8FC814C
:1030D00000080240000C024038B531208DF8000095
:1030E00000248DF801408DF8024001258DF8035031
:1030F0006846FEF7EDFE3B208DF800008DF801508C
:103100008DF802406846FEF7E3FE38BD2DE9F84F22
:1031100000270097BB460024A24600255948762187
:103120000175076047608760C7600761FFF742FC71
:103130000320FFF76FFC0120FFF7D0FB514E18363C
:1031400037607760B760F7604FF48069C6F8109019
:103150003046FFF74BFCFDF766FE00909DF800003F
:1031600018B19DF80000BDE8F88F4FF4D5703060BD
:10317000082070604FF04008C6F80880F760C6F875
:10318000109040481830FFF731FCFDF75BFF0090CE
:103190009DF8000018B3376037207060C6F80880CB
:1031A000F760C6F8109037481830FFF71FFC37203B
:1031B000FDF74EFE0090376037207060C6F808803B
:1031C000F760C6F810902F481830FFF70FFC372033
:1031D000FDF73EFE00909DF8000090B34FE02A48B6
:1031E000012141608D07E6E7376037207060C6F83F
:1031F0000880F760C6F8109022481830FFF7F6FBF9
:103200003720FDF725FE00909DF8000010B19DF8D5
:103210000000A8E71D482843306029207060C6F8E8
:103220000880F760C6F8109016481830FFF7DEFBEC
:10323000FDF7AEFE00909DF8000018B19DF800006B
:1032400091E706E00020FFF79BFB83464FEADB7A1D
:10325000641CBAF1000F03D14FF6FF708442C3D350
:103260004FF6FF70844204D31B2000909DF80000AD
:1032700079E71BF0804F02D00348022141609DF89E
:10328000000070E7C80E0020300100200000108010
:103290000748006810F0C05F08D006490120486167
:1032A00003484FF0C2515830FDF7CCBF70470000C3
:1032B000006402403001002070B54FF4807528464C
:1032C000FFF74CFB1F4C30B1002020702846FFF761
:1032D000FFFA012020610220FFF740FB20B102200D
:1032E000FFF7F6FA022020700820FFF737FB20B125
:1032F0000820FFF7EDFA042020702020FFF72EFBB6
:1033000020B12020FFF7E4FA062020701020FFF7FC
:1033100025FB20B11020FFF7DBFA052020704FF4C9
:1033200000752846FFF71AFB20B12846FFF7D0FAB0
:103330000720207000214CF23A30FFF72DFB207857
:1033400070BD0000300100202DE9F05F8346DDE90B
:103350000A6714461D46DFF8B8A04FF000088AF847
:103360000080CAF810804FF00109CAF80C90294873
:10337000C0F80080012140F22A30FFF70DFB07FB67
:1033800006F15846FFF7C2FD0120FFF7ADFADAF863
:103390000400022803D10602640A44EAC5541E4D03
:1033A0002E60102068604FF0400AC5F808A0C5F8EC
:1033B0000C804FF4806BC5F810B02846FFF716FB61
:1033C0001020FDF745FD002820D1411E05F1140015
:1033D000016077434760902181600221C160C0F89D
:1033E0001080C0F81490FFF785FA2C6012206860F6
:1033F000C5F808A0C5F80C80C5F810B02846FFF73E
:10340000F5FABDE8F05F1220FDF722BDBDE8F09FA0
:10341000300100202C2C0140E00E002010B5094A9C
:10342000106007205060402090600020D0604FF472
:10343000806010611046FFF7D9FABDE81040072000
:10344000FDF706BDE00E002070B50546002D16D034
:103450000F48008901040F4801600D21416040219F
:1034600081600021C1604FF480610161FFF7BEFA05
:103470000D20FDF7EDFC04461CB1204670BD262052
:1034800070BD0020FFF77CFA2860204670BD000068
:1034900030010020E00E002010B508480021016036
:1034A0000C22426040228260C16011010161FFF77D
:1034B0009DFABDE810400C20FDF7CABCE00E0020CC
:1034C0002DE9F04100256C1E2146154E00E0491EF5
:1034D000706928B9306918B9307808B90029F6D16F
:1034E000002777610F4800E0641E0168890401D558
:1034F000002CF9D1F068012803D1FFF7CDFF054674
:10350000F7602C4300D1042540F2FF50FFF7DAF9B1
:10351000307810B13078BDE8F0812846FBE7000034
:1035200030010020342C01402DE9F04100256C1EB3
:103530002146154E00E0491E706928B9306918B956
:10354000307808B90029F6D1002777610F4800E0EC
:10355000641E0168C90401D5002CF9D1F068012866
:1035600003D1FFF799FF0546F7602C4300D10425EE
:1035700040F2FF50FFF7A6F9307810B13078BDE87F
:10358000F0812846FBE7000030010020342C014088
:103590002DE9F05F8246DDE90A6714461D46DFF833
:1035A00004914FF0000889F80080C9F810800120CC
:1035B000C9F80C003C48C0F80080012140F22A30D4
:1035C000FFF7EAF907FB06F15046FFF7E3FC01209D
:1035D000FFF78AF9D9F80400022803D10602640A29
:1035E00044EAC554314D2E60102068604FF0400B06
:1035F000C5F808B0C5F80C804FF4806AC5F810A073
:103600002846FFF7F3F91020FDF722FC002847D1E8
:10361000B9F808000004286037206860C5F808B0D1
:10362000C5F80C80C5F810A02846FFF7DFF9372051
:10363000FDF70EFC002833D12F6017206860C5F815
:1036400008B0C5F80C80C5F810A02846FFF7CEF9E1
:103650001720FDF7FDFB002822D12C60192068609F
:10366000C5F808B0C5F80C80C5F810A02846FFF7CB
:10367000BDF91920FDF7ECFB002811D105F114026A
:10368000401E10607743576090209060C2F80C8015
:10369000C2F81080012050611046FFF72BF9404618
:1036A000BDE8F09F300100202C2C0140E00E0020EE
:1036B00010B5FFF75DFB08B1012010BD002010BD63
:1036C000002908D00C48012907D002290AD0032973
:1036D0000DD00420704700207047806C400A1060B5
:1036E000002070474FF40070108000207047006D7C
:1036F0001060002070470000700E00201CB50846C6
:103700004FF40074CDE9004352020023FFF71CFE82
:10371000044634B9FFF7D4FE0446FFF71CFB00282B
:10372000FBD10CB101201CBD00201CBD0020704746
:103730001CB508464FF40074CDE900435202002343
:10374000FFF726FF044634B9FFF7EEFE0446FFF705
:1037500002FB0028FBD10CB101201CBD00201CBDC8
:10376000002904D0018841F04001018070470188A0
:1037700021F0400101807047002A03D082880A436B
:103780008280704782888A438280704710B52A49B8
:1037900088420AD1841401212046FEF7C9FD204643
:1037A000BDE810400021FEF7C3BD244988420AD17C
:1037B000041401212046FEF79FFD2046BDE810407D
:1037C0000021FEF799BD1E4988420AD1C413012188
:1037D0002046FEF791FD2046BDE810400021FEF78F
:1037E0008BBD184988420AD1441401212046FEF7B6
:1037F0009FFD2046BDE810400021FEF799BD12490B
:1038000088420AD101210C052046FEF791FD204691
:10381000BDE810400021FEF78BBD0C4988420AD15B
:1038200001214C052046FEF783FD2046BDE81040EF
:103830000021FEF77DBD10BD003001400038004082
:10384000003C004000340140005001400054014061
:103850000246002012890A4200D001207047808968
:1038600070478181704730B5028802F441530A885D
:103870004C88CD8822438C882C4322430C892243D8
:103880004C8922438C892243CC8922431A430280EB
:10389000828B22F400628283098A018230BD00009B
:1038A0000CB50022019200922749086840F480304C
:1038B00008604FF4A043086800F4003000900198BD
:1038C000401C0190009810B901989842F3D1086803
:1038D000800302D50120009000E0009200980128AA
:1038E00031D119484030026842F0805202601748D6
:1038F000026842F4404202601348083002680260E5
:10390000026842F400420260026842F4A05202607F
:10391000021F0F4B13600A6842F080720A600A6847
:103920009201FCD50B4A40F205711160016821F04B
:1039300003010160016841F0020101600168C1F307
:1039400081010229FAD10CBD00380240007000400C
:1039500008544007003C024010B500F091FABDE861
:1039600010400AF077BD000010B51248016841F41C
:10397000700101601048016841F0010101600E4AC8
:1039800000210832116002680C4B1A400260031DCE
:103990000B4A1A60026822F48022026006480C304A
:1039A0000160FFF77DFF03494FF000608039086038
:1039B00010BD000088ED00E000380240FFFFF6FE79
:1039C0001030002470B5048C24F001040484058BAD
:1039D000048C25F0F3054FF6FF7606EA0313134334
:1039E0002B4324F00A020A4342F0010103830184BD
:1039F00070BD70B5048C24F010040484058B068C13
:103A00004FF6FF7404EA011125F4734504EA033309
:103A10002B4304EA02221A4326F0A0030B4343F08F
:103A200010010283018470BDF0B5048C24F480740D
:103A30000484868B058C4FF6FF7707EA012426F075
:103A4000F30607EA03111143314325F420622243B0
:103A500042F4807281830284F0BD70B5048C24F43A
:103A600080540484858B068C4FF6FF7404EA013180
:103A700025F4734504EA02222A4304EA033313437C
:103A800026F420420A4342F480518383018470BDAE
:103A900009F024BF09F042BF09F062BF002904D039
:103AA000018841F0800101807047018821F0800188
:103AB00001807047C94301827047C9430182704742
:103AC000002904D0018841F001010180704701887C
:103AD00021F0010101807047406B7047806B704797
:103AE000C06B7047006C7047406A70470246002008
:103AF000128A0A4200D00120704702460020138A31
:103B00000B4092890A40002B02D0002A00D00120ED
:103B1000704770B506460C4625886188A2882389BF
:103B2000002D0CD0042D13D0082D1AD03046FFF7ED
:103B300094FFE1883046BDE8704000F057B9304648
:103B4000FFF740FFE1883046BDE8704000F032B931
:103B50003046FFF74EFFE1883046BDE8704000F088
:103B600031B93046FFF760FFE1883046BDE870406C
:103B700000F034B9002A03D082890A438281704759
:103B800082898A438281704730B5028C22F001021B
:103B90000284058C8388028B22F0700222F00302DB
:103BA0000C88144325F002028D8915434A882A4364
:103BB0000D4DA84202D00D4DA8420FD122F00805AC
:103BC000CA892A4322F004058A882A4323F4807391
:103BD00023F400730D8A1D434B8A2B438380048397
:103BE00089684163028430BD000001400004014047
:103BF000028B22F008020A430283704770B5028CE0
:103C000022F010020284028C8388048B24F4E044A6
:103C100024F440760D884FF6FF7404EA05253543F9
:103C200022F020028E8904EA061616434A8804EA26
:103C300002123243114EB04202D0114EB04217D19F
:103C400022F08002CE8904EA0616164326F04006CA
:103C50008A8804EA0212324323F4806323F4006367
:103C60000E8A04EA86061E434B8A04EA8303334322
:103C70008380058389688163028470BD00000140F0
:103C800000040140028B22F400624FF6FF7303EA46
:103C9000012111430183704770B5028C22F48072B8
:103CA0000284028C8388848B24F0700424F0030443
:103CB0000D88254322F400728E894FF6FF7404EAC2
:103CC000062616434A8804EA02223243114EB042C5
:103CD00002D0114EB04217D122F40066CA8904EA1C
:103CE0000222324322F480668A8804EA02223243A6
:103CF00023F4805323F400530E8A04EA06161E436D
:103D00004B8A04EA03133343838085838968C16344
:103D1000028470BD0000014000040140828B22F04B
:103D200008020A438283704770B5028C22F48052E5
:103D30000284058C8288838B23F4E04323F440764D
:103D40000C884FF6FF7303EA0424344325F400552E
:103D50008E8903EA06362E434D8803EA053535433E
:103D6000084EB04202D0084EB04205D122F480463F
:103D70000A8A03EA8212324382808483896801645A
:103D8000058470BD0000014000040140828B22F4D4
:103D900000624FF6FF7303EA0121114381837047EC
:103DA0004163704781637047C16370470164704726
:103DB00041627047028B22F00C020283028B0A439D
:103DC00002837047028B22F440620283028B4FF61B
:103DD000FF7303EA01210A4302837047828B22F0BA
:103DE0000C028283828B0A4382837047828B22F487
:103DF00040628283828B4FF6FF7303EA01210A43FC
:103E00008283704730B50288164C174DA0420DD002
:103E1000A8420BD0B0F1804F08D0144B984205D087
:103E2000134B984202D0134B984203D122F07003F7
:103E30004A881A43104B984206D0104B984203D040
:103E400022F440730A891A4302804A68C2620A88CF
:103E50000285A04201D0A84201D1897A01860121C0
:103E6000818230BD00000140000401400004004098
:103E700000080040000C004000100040001400400A
:103E800002480168491C016070470000A409002035
:103E900009F098BF09F0DCBF0AF020B88A05C943D1
:103EA0000180704740F66A120A0A01219140C94315
:103EB00001807047002904D0818941F4005181813B
:103EC0007047818921F400518181704702460020AA
:103ED00012880A4200D00120704770B5002440F6D5
:103EE0006A12C1F3421301F01F05012606FA05F21A
:103EF000012B0CD0022B0DD0838A1340090A8E406F
:103F0000008830400BB100B10124204670BD838988
:103F10001340F3E7038A1340F0E710B540F66A1345
:103F2000C1F3421301F01F040121A140012B07D06E
:103F3000022B07D014303AB102680A43026010BD68
:103F40000C30F8E71030F6E702688A43026010BDD3
:103F50007FB504460D46208A20F44051E888084386
:103F60002082A08941F20C618843A9882A891143E3
:103F70006A8902431143A181A08A20F44071A88973
:103F80000843A0826846FEF7E7F91E48844202D043
:103F90001D48844201D1039800E00298A1890904D8
:103FA00008D500EBC00101EB001029684900B0FB07
:103FB000F1F007E000EBC00101EB00102968890077
:103FC000B0FBF1F06422B0FBF2F109010B096FF0D4
:103FD00018056B4300EB8300A3891D044FF03203E7
:103FE00007D503EBC000B0FBF2F000F00700084378
:103FF00006E003EB0010B0FBF2F000F00F00084306
:1040000020817FBD00100140001401408088C0F372
:1040100008007047C1F308018180704702A10120A8
:104020000DF002FCFEE7000055736167654661759F
:104030006C745F48616E646C65720D0A000000006C
:104040000FB4084B10B504A902AA039800F0F0F8C9
:10405000044602A9002000F082FC204610BC5DF856
:1040600014FB00005F49000837B514460846064BAC
:104070006A46214600F0DCF804466946002000F05C
:104080006EFC20463EBD00005F49000802E008C803
:10409000121F08C1002AFAD170477047002001E0C2
:1040A00001C1121F002AFBD1704700002DE9FF5FFC
:1040B00082B00021DDE90430020DDDF840B0034399
:1040C00018D044F61050A2F2FF3242431514119852
:1040D00001281FD0A5EB0B00401C5FEA000A4FF03F
:1040E00000064E4FDFF83891B046504615D5CAF15C
:1040F000000413E0119801244AA3012801D16FEABA
:104100000B010298119AC0E90031C0E9024206B0E1
:10411000BDE8F09FCBF10000DFE704460021404AF4
:10412000491842EB0450CDE9001012E0E00707D037
:1041300032463B4640464946FCF710FB80468946DE
:1041400032463B4610461946FCF708FB06460F462A
:104150006410002CEAD1DDE90401DDE90023BAF1A5
:10416000000F06DAFCF7FAFA42464B46FCF7F6FA7D
:1041700005E0FCF765FB42464B46FCF761FB044655
:104180000E460022284BFCF7E3FB03D84FF0FF302C
:10419000014607E00022254B20463146FCF70CF98A
:1041A000FCF7BDFB102409E0002C0ADB0A220023E7
:1041B000FCF7EEF9039B30321A55641E50EA0102F7
:1041C000F2D1641C039AC4F111031444119A012A18
:1041D00003D0012208430DD10AE0084304D0002097
:1041E0004FF0110B119072E7A3EB0B056D1E0DE064
:1041F0005B4504DD4FF0000205F1010504E003DA40
:104200004FF00002A5F10105002AECD002981199A7
:10421000C0E90231C0E9004579E700000000144020
:104220000000F03F300000000000F0430000E03FDD
:104230002DE9FF4F95B09B468946064600250FE2C3
:10424000252877D100242746F84A0121059400E06B
:10425000044316F8013F203B01FA03F01042F7D166
:1042600030782A2811D06FF02F033078A0F1300277
:10427000092A16D8059A44F0020402EB820203EBE5
:1042800042021044761C0590EFE759F8042B059282
:10429000002A03DA504244F40054059044F002042A
:1042A000761C30782E2816D116F8010F44F004043D
:1042B0002A280DD06FF02F023078A0F13003092B9F
:1042C00009D807EB870302EB4303C718761CF3E713
:1042D00059F8047B761C30786C280FD006DC4C280B
:1042E00017D068280DD06A2814D104E0742810D0A3
:1042F0007A280FD10DE044F400140AE044F480144D
:1043000001E044F440147278824202D104F5801432
:10431000761C761C307866280BD013DC582877D0B2
:1043200009DC002875D04528F6D04628F4D0472867
:104330001AD19DE118E0632835D0642879D065282A
:1043400012D195E1702873D008DC6728F1D0692874
:104350006FD06E280DD06F2806D1B5E073282CD011
:10436000752875D0782874D05A46179990476D1CD7
:1043700075E1C4F30250022809D003280DD0D9F802
:10438000001004280DD00D6009F1040967E1D9F887
:104390000010EA17C1E90052F6E7D9F800100D80C5
:1043A000F2E70D70F0E719F8041B8DF800100020FB
:1043B0008DF80100EA46012003E059F804AB4FF004
:1043C000FF3061074FF0000102D40DE008F1010158
:1043D0008846B9420FDA8045F8DB1AF80810002940
:1043E000F4D108E008F1010188468142FADB1AF8AD
:1043F00008100029F6D105985B46A0EB0807214676
:104400003846179A00F094FA284400EB080507E0B4
:104410004DE029E10DE01AF8010B5A461799904733
:10442000B8F10108F7D25B4621463846179A13E1E6
:1044300042E00A220092C4F302524FF0000A022A1C
:1044400008D059F804CB032A4FEAEC710AD00DE0EA
:1044500029E02AE009F1070121F00702F2E802C190
:10446000914609E00FFA8CFC4FEAEC71042A03D163
:104470004FFA8CFC4FEAEC71002907DA0A4600215A
:10448000DCF1000C61EB02012D2202E0220504D5D3
:104490002B228DF80420012203E0E20701D0202224
:1044A000F7E7904659E00A2102E010220DE01021C2
:1044B0004FF0000A00910BE010224FF0000A44F088
:1044C00004040827009203E008224FF0000A00923B
:1044D000C4F30252022A05D059F804CB0021032A62
:1044E00008D009E009F1070121F00702F2E802C152
:1044F000914605E01FFA8CFC042A01D10CF0FF0C58
:104500004FF00008220728D5702806D0009B83F0C2
:10451000100353EA0A0305D00EE040228DF8042070
:10452000012208E05CEA010206D030228DF8042066
:104530008DF8050002229046009B83F0080353EAA1
:104540000A030AD15CEA010201D1620705D53022D3
:104550008DF804204FF001087F1E582804D034A0A5
:1045600003900EA802900DE036A0F9E7534660468E
:10457000009AFCF70DF884460398825C0298401E6E
:10458000029002705CEA0100F0D1029806A9081AB4
:1045900000F1200A600702D524F4803400E00127EE
:1045A000574502DDA7EB0A0000E0002000EB0A01FE
:1045B000009005984144401A0590E00306D45B46FC
:1045C0002146179A059800F0B3F90544002706E044
:1045D00001A85A46C05D179990476D1C7F1C47453E
:1045E000F6DBE0030CD55B462146179A059800F0F0
:1045F0009FF9054404E030205A46179990476D1CF6
:104600000099481E00900029F5DC08E00298029904
:104610005A460078491C0291179990476D1CBAF1CF
:104620000001AAF1010AF1DC65E10000092801009E
:104630003031323334353637383961626364656618
:1046400000000000303132333435363738394142DA
:10465000434445460000000000F058F90544761C2C
:10466000307800287FF4ECAD19B02846BDE8F08F13
:10467000620700D4062709F1070222F0070CFCE8C4
:104680000223E14603F000485FEA080C02D00FF273
:10469000702C0DE05FEA045C02D50FF2682C07E095
:1046A0005FEAC47C02D00FF2602C01E0AFF2700C24
:1046B0004FF0FF3823F00043CDF850C065280CD0F0
:1046C00006DC452809D046281DD047283DD13DE0CD
:1046D000662818D067287ED138E00021112F01DB31
:1046E000112000E0781CCDE9000106A90EA8FFF713
:1046F000DDFCDDE90F010E9A03910021009207F124
:10470000010A04914DE04FF000400097CDE90110FF
:1047100006A90EA8FFF7CAFCDDE90F0203920E9B63
:1047200011990022DDF80CA00093049211B9791CB4
:1047300000EB010AB7EB0A0004D4C0F1FF3007F127
:10474000010A0490AAEB0700019044E0012F00DA6F
:1047500001270021112F01DD112000E03846CDE9AD
:10476000000106A90EA8FFF7A1FCDDE90F010E9AD2
:104770000391002104910092BA4621070CD40399B9
:10478000514500DA8A46BAF1010F05DD009AAAF117
:104790000101515C302908D0B84202DA10F1040F4F
:1047A00006DA0121CDE9011015E0AAF10101E9E7DE
:1047B000002805DC049901440491AAEB000102E001
:1047C000411C514500DD8A460499401A401C019065
:1047D0004FF000400290200704D40198504501DBBF
:1047E000CDF8048000208DF84F0002980DF14F079E
:1047F000B0F1004F25D02B200E9002984FF0020808
:1048000000280CDA404202902D200E9007E00A2189
:104810000298FBF7A7FE3031029007F8011DB8F1AE
:104820000001A8F10108F2DC02980028EFD1791EFE
:104830000E980870307800F0200040F0450007F82E
:10484000020D12A8C01B00F107081498007800B1EF
:10485000012000EB0A01019801EBE0710598414449
:10486000401A401E0590E00306D45B462146179A85
:10487000059800F05DF805441498007818B15A4680
:10488000179990476D1CE00324D55B462146179A83
:10489000059800F04DF805441CE00498002807DB5B
:1048A000DDE90301884203DD0098405C179901E0CF
:1048B000179930205A469047049805F10105401C8D
:1048C00004900198401E019004D12E205A46179959
:1048D00090476D1CBAF10001AAF1010ADDDC05E088
:1048E00017F8010B5A46179990476D1CB8F1000153
:1048F000A8F10108F4DC5B462146179A0598ABE65F
:104900002D0000002B000000200000002DE9F041E8
:10491000044600251E461746880404D405E039469F
:104920002020B0476D1C641EF9D52846BDE8F081F3
:104930002DE9F041044600251E469046C80301D5E6
:10494000302700E02027880404D505E0414638469A
:10495000B0476D1C641EF9D52846BDE8F0810A6891
:10496000531C0B60107070470B490028096802D077
:10497000012806D00DE0486AC861886A40100884A2
:1049800007E0D1E9092020F001031A44CA61401070
:1049900008840020704700008809002010B505A198
:1049A000FBF7F3FC002803D1BDE8104008F00CBE73
:1049B00010BD0000776D38393738000010B5044657
:1049C000B4F91000B0F57A5F03DC4FF48050A062B8
:1049D00002E04FF40050A062A06A40000CF044FFD7
:1049E000606202460AA104200CF01EFF606A40B11A
:1049F000E061A26A228408A104200CF015FF0020C7
:104A000010BD09A104200CF00FFF4FF0FF3010BDC6
:104A1000253038780D0A0000627566206C656E3AA4
:104A20002025640D0A000000736F756E64206D61AF
:104A30006C6C6F63206572720D0A000010B504463D
:104A400011A12046FBF7A1FC00281CD110A10420D5
:104A50000CF0EAFE03F0A1FA0321382003F09DF9DF
:104A6000B4F91010022003F0C2FAB4F910200221A8
:104A7000606908F007FDD4E9090108F033FDBDE8DD
:104A8000104008F09BBD10BD776D383937380000F5
:104A9000776D383937382072756E0D0A00000000C6
:104AA0002DE9F0474369002500260027D0F8109033
:104AB000154CA9F1020202EB82021444002215E017
:104AC00003EB430C00EB8C0814F802C0D8F818A0D4
:104AD0000AFB0C55D8F81CA00AFB0C66D8F82080FD
:104AE00008FB0C775B1E03F00303521C9145E7DCC7
:104AF000207905410D60207906414E602079C7403C
:104B00008F60BDE8F0870000FC3C01084C200CF0F1
:104B1000ABBE10B50446A06B0CF000FD606C0CF051
:104B200048FE0020606420460CF043FE002010BDCB
:104B300030B597B004460D462A4673A104200CF008
:104B400073FE012128460CF0BFFDA063002873D03E
:104B50000E2203A90CF016FEBDF80C202280BDF831
:104B600010006060BDF80E1001EB00406060BDF801
:104B700012002081BDF814006081BDF81800E060CB
:104B8000BDF8161001EB0040E06064A104200CF0B9
:104B90004BFE66A1042062680CF046FE67A104206B
:104BA000E2680CF041FE282203A9A06B0CF0EAFD9C
:104BB000BDF80C202261BDF810006061BDF8140042
:104BC000A061BDF81800A083BDF81A00E083BDF80D
:104BD0001C002062BDF820006062BDF82400A062C5
:104BE000BDF82800E062BDF82C002063BDF830005D
:104BF000606357A104200CF017FE59A104206269DC
:104C00000CF012FE5AA10420A2690CF00DFEA28B3A
:104C10005CA104200CF008FEE28B5FA104200CF0E4
:104C200003FE62A10420226A0CF0FEFD65A10420AF
:104C3000626A0CF0F9FD00E02FE067A10420A26A8F
:104C40000CF0F2FD6AA10420E26A0CF0EDFD6EA109
:104C50000420226B0CF0E8FD70A10420626B0CF0C4
:104C6000E3FD6069E18B024648431F30C31700EB48
:104C7000D3604FF6FC7303EAE000A087A36900FB52
:104C800003F52564CDE900106AA104200CF0CCFDE9
:104C9000206B002148B1E08720E071A104200CF0D6
:104CA000C3FD4FF0FF3017B030BDE08B01280AD0B4
:104CB00004280BD008280CD018280ED0A06B0CF0BC
:104CC0002DFC0220EFE70220E08707E01020E087BC
:104CD00004E04FF48070E08700E0E187E08F58B196
:104CE00080000CF0C1FD6064E18FA36B8A00014677
:104CF00018460CF047FD00E06164E08F362101EBBF
:104D00008000A0640020CEE7626D70206F70656E39
:104D10002066696C653A25730D0A000062662E6292
:104D200066547970653A25780D0A000062662E6235
:104D30006653697A653A25640D0A000062662E6240
:104D4000664F6666426974733A25640D0A00000076
:104D500062692E626953697A653A25640D0A00001A
:104D600062692E626957696474683A25640D0A00A5
:104D700062692E62694865696768743A25640D0A3C
:104D80000000000062692E6269506C616E65733AC2
:104D900025640D0A0000000062692E626942697490
:104DA000436F756E743A25640D0A000062692E62C5
:104DB00069436F6D7072657373696F6E3A25640D28
:104DC0000A00000062692E626953697A65496D6163
:104DD00067653A25640D0A0062692E62695850655C
:104DE0006C735065724D657465723A25640D0A00E6
:104DF00062692E62695950656C735065724D6574B5
:104E000065723A25640D0A0062692E6269436C720C
:104E1000557365643A25640D0A00000062692E62CC
:104E200069436C72496D706F7274616E743A256477
:104E30000D0A0000626D7020773A25642C683A25CF
:104E4000642C20626974636F756E743A25642C203B
:104E50006C696E6562797465733A25640D0A0000A9
:104E6000626D70206F70656E2066696C652065727A
:104E7000720D0A002DE9F05F0446884617461E466B
:104E8000A08F78430CF0F0FC0546A18FA06C0022A7
:104E900008FB0101A06B0CF0D9FBA28F29467A43D5
:104EA000A06B0CF06FFC002803DC4FF0FF30BDE876
:104EB000F09FE08B102833D006DC012807D00428AF
:104EC0002FD008282CD164E0182829D190E00021A7
:104ED00024E0B4F83CC00CFB01FC00204FF080083B
:104EE0004FF6FF79824615E00CEBD00300F0070B7C
:104EF000EB5C28FA0BFB03EA0B032BB14A4306EBEE
:104F0000420222F8109004E04A4306EB420222F8E3
:104F100010A0401C62698242E6D8491CB942D8D32D
:104F200091E000222FE0B4F83C8008FB02F800205A
:104F300024E005EB080101EB50010978C30725D0F7
:104F400001F00F018900636C01F1020913F8099067
:104F50004FEAD90901F1010A13F80AA04FEA9A0AA7
:104F6000595CC9084FEAC92343EA4A130B430CFBB7
:104F700002FC06EB4C0121F81030401CD4F814C0A0
:104F80008445D6D8521CBA42CDD35CE0C1F303119C
:104F9000D8E7002229E0A38F5343002020E0E95CFA
:104FA0005B1C8900D4F844C001F102091CF8099087
:104FB0004FEAD90901F1010A1CF80AA04FEA9A0A3E
:104FC0001CF80110C9084FEAC92C4CEA4A1C4CEAEB
:104FD000010C08FB02F806EB480121F810C0401C48
:104FE000D4F814808045DAD8521CBA42D3D32AE0D0
:104FF000002126E0A28F4A4300201DE015F8029010
:10500000531C03F1010C15F803A015F80C300CF13A
:1050100001024FF4784C0CEA03234FF4FC6C0CEAC9
:10502000CA0C4FEAD909634408FB01F806EB480CA7
:105030004B442CF81030401CD4F814808045DDD847
:10504000491CB942D6D328460CF0B3FB00202EE70A
:1050500010B5094A0021094809F006FA08494860D4
:1050600020B108A103200CF0DFFB03E00DA1032019
:105070000CF0DAFB002010BD9C090408C5500008A4
:10508000FC0C00205B202020205F6170705D20669A
:1050900072656572746F73205363686564756C65BF
:1050A000720D0A005B202020205F6170705D207807
:1050B0005461736B437265617465206661696C0D40
:1050C0000A00000005A104200CF0AEFB0AF0E6FB8C
:1050D0000C480CF007FA0CF06DFCFEE75B2020207A
:1050E000626F6172645D2072756E206170702074F1
:1050F00061736B2120323032302E31302E31352029
:105100000D0A00006409040810B512A104200CF077
:105110008BFB09F0D1FC01F0CDFC184801F0DAFA64
:1051200001F05EFC02F0C6FD02F000FD07F0C2FED9
:1051300001F048FB12A002F0A3FC1048801D01F012
:1051400037FC08F047FA02F023FEFFF781FF00204A
:1051500010BD00005B202020626F6172645D2077CB
:10516000756A69717565206F74686572206465760B
:1051700020696E6974212A2A2A0D0A00040D002074
:10518000564932433100000010B501F059FC01F0DE
:10519000FDFC07F073FBBDE8104002F05DBD0000B0
:1051A00010B500214FF00060FCF7D0FE4FF4A06076
:1051B000FCF7C2FE1848FDF7CFF808F0C9FA00F076
:1051C0001BFD164916A000F021FD07F025FE16A1D3
:1051D00003200CF029FB21A103200CF025FB28A1C2
:1051E00003200CF021FB0C4C31A1032022680CF0B1
:1051F0001BFB36A1032062680CF016FB3AA10320CA
:10520000A2680CF011FB3FA10320E2680CF00CFB3C
:1052100008F0EEFA002010BD909401205009040817
:1052200075617274330000000D0A0D0A0D0A2A2AF6
:105230002A2A2A2A2A2A2A2A2A2A2A2A2A2A2A2ACE
:105240002A2A2A2A2A2A2A2A2A2A2A2A2A2A2A2ABE
:105250002A2A2A2A2A2A0D0A0000000020202020BB
:1052600020202020426F6172642077756A69717511
:10527000652073746D3332663430370D0A000000D8
:105280002A2A2A2A2A2A2A2A2A2A2A2A2A2A2A2A7E
:105290002A2A2A2A2A2A2A2A2A2A2A2A2A2A2A2A6E
:1052A0002A2A2A2A2A2A2A2A0D0A0D0A0000000080
:1052B000535953434C4B5F4672657175656E637904
:1052C0003A256420487A0D0A0000000048434C4B00
:1052D0005F4672657175656E63793A20202564209A
:1052E000487A0D0A0000000050434C4B315F467273
:1052F000657175656E63793A20256420487A0D0AD8
:105300000000000050434C4B325F4672657175657A
:105310006E63793A20256420487A0D0A0000000067
:1053200010B54FF0FF31002803D002681AB10846CB
:1053300010BD084610BD0160406809F067F8002004
:1053400010BD00002DE9F0410746104E35680024DD
:10535000B54209D0A5F1200404F108013846FBF755
:1053600014F808B12D68F3E764B10A21606808F009
:10537000D3FF0028F9D120B9206810B100202060A7
:1053800000E000242046BDE8F0810000E80900208C
:105390002DE9F04106461D4F3C684FF0FF35BC42F9
:1053A0001CD128200CF060FA0446184904F12000B2
:1053B0000A6850600260416008601838182231465F
:1053C0000746FAF7ABFF2560002008F0D3FF6060C6
:1053D000307C122812D0112815D012E0A4F120013F
:1053E00008313046FAF7D1FF08B12468D7E708A1A1
:1053F00003200CF019FA2846BDE8F081384600F089
:105400007FFC0020F8E72846F6E70000E8090020C6
:1054100069326320646576206E616D652065727205
:10542000210D0A00F8B5069D4FF0FF3600280AD07E
:10543000047E112C09D0122C09D007A104200CF0F5
:10544000F3F93046F8BD3046F8BD0020F8BD0095B0
:1054500000F0F5FCF8BD0000693263206465762039
:1054600074797065206572720D0A000010B50446EB
:10547000207C022823D094F8210038B1618C08F0F8
:105480001FF9618C94F8210008F0A8F994F8240021
:1054900038B1E18C08F014F9E18C94F8240008F09C
:1054A0009DF994F82800002809D0618D08F008F9CA
:1054B000618D94F82800BDE8104008F08FB910BD48
:1054C00010B502460B4692F82800518D012B03D0EF
:1054D00008F07AF9002010BD08F080F9FAE770B5FD
:1054E00004464FF0FF35206B002801D0284670BDE0
:1054F000207C012804D0022806D0032808D009E027
:10550000606B00F075FA05E0606BFFF709FF01E0E2
:10551000002060632563002070BD00002DE9F0418C
:105520000746234E35680024B54209D0A5F138045A
:1055300021463846FAF729FF10B100242D68F3E719
:105540006CB3206B38B1207C01280AD0022811D01E
:10555000032817D018E017A103200CF065F90024E8
:1055600022E042F21072032104F1110000F06AFA05
:10557000606309E04FF0FF3104F11100FFF7E2FE34
:10558000606301E001206063606B10B10020206364
:105590000AE00FA103200CF047F9002404E03A468A
:1055A00013A103200CF040F92046BDE8F081000073
:1055B000F00900206C636420627573206F70656E63
:1055C000206572723A7573696E67210D0A000000DA
:1055D0006C636420627573206F70656E2062617306
:1055E000652062757320657272210D0A000000004B
:1055F0006C636420627573206F70656E20657272D3
:105600003A2573210D0A000070B5047C012C04D0EA
:10561000022C13D0032C11D106E013460A46406B2E
:10562000002100F0D3FA09E00020054C04E02568D1
:105630002D8821F81050401C9042F8D3002070BDF6
:105640007000002010B502460B4692F82400D18C61
:10565000012B03D008F0B8F8002010BD08F0BEF808
:10566000FAE70000007C01280AD0022808D00328AD
:1056700006D12AB1034800680180521E002AFBD1DE
:1056800000207047700000207CB50446CDB2207C1D
:10569000012804D0022815D0032824D120E0618CF1
:1056A00094F8210008F090F88DF8045001230022AE
:1056B00001A9606B00F08AFA618C94F8210008F06F
:1056C0008DF810E000208DF804008DF805500220C0
:1056D000009001AB00223C21606BFFF7A3FE02E0CB
:1056E00002480068018000207CBD00006C000020A2
:1056F00030B5C1B0054614462A7C012A04D0022ADE
:1057000008D0032A21D116E023460022686B00F05E
:105710005DFA1AE040208DF8040022460DF10500E4
:10572000FAF7FCFD641C009401AB00223C21686B7D
:10573000FFF778FE09E00020054A126803E031F81F
:1057400010301380401CA042F9D341B0002030BD7E
:10575000700000202DE9F04780460E4642F2107995
:105760004C46424D01212846FCF748FA404F02E0E2
:10577000641E601C0FD039462846FCF7F5F9002856
:10578000F6D02C46002241462046FCF7B0FA4D46A2
:10579000DFF8E0A005E0FF20BDE8F0876D1E681C83
:1057A0000DD051462046FCF7DFF90028F6D0F1B2C3
:1057B0002046FCF7A5FA4E462E4DAD1C04E0FF2016
:1057C000EAE7761E701C12D029462046FCF7CCF979
:1057D0000028F6D025481430018841F4806101800A
:1057E000254601212846FCF709FA4C4604E0FF2033
:1057F000D2E7641E601C10D039462846FCF7B4F985
:105800000028F6D02E46012241463046FCF76FFABA
:105810004C462546164F7F1C04E0FF20BCE76D1E5A
:10582000681C0CD039463046FCF79EF90028F6D0AB
:1058300000213046FCF78CF90D4D3F3504E0FF2088
:10584000AAE7641E601C0ED029463046FCF78CF98E
:105850000028F6D001213046FCF7DCF93046BDE8DF
:10586000F047FCF741BAFF2096E7000000580040DF
:1058700001000300820007002DE9F04782468846B8
:10588000164642F210752C46294F01213846FCF786
:10589000B5F9DFF8A09002E0641E601C0ED0494606
:1058A0003846FCF761F90028F6D000225146384608
:1058B000FCF71DFA2C46DFF8809005E0FF20BDE8DC
:1058C000F087641E601C0FD049463846FCF74CF93F
:1058D0000028F6D008F0FF013846FCF711FA2C46F4
:1058E000B846154FBF1C04E0FF20E8E7641E601CAB
:1058F0000AD039464046FCF737F90028F6D0314641
:105900004046FCF7FDF904E0FF20D8E76D1E681C57
:105910000BD039464046FCF727F90028F6D0012184
:105920004046FCF777F90020C9E7FF20C7E70000F1
:105930000058004001000300820007002DE9F041FB
:10594000064632461DA103200BF06EFF214F3C6836
:105950004FF0FF35BC4216D12C200BF085FF0446DA
:105960001C4904F124000A6850600260416008602C
:105970001C223146201DFAF7D1FC307C222812D09F
:10598000212814D016E0A4F12401091D3046FAF7AD
:10599000FCFC08B12468DDE70FA103200BF044FFF5
:1059A0002846BDE8F081304600F0F3FA02E03046C8
:1059B00007F0F8FB25600020F3E700005B726567E5
:1059C00069737465725D20737069203A2573210DC7
:1059D0000A000000F80900207370692064657620D1
:1059E0006E616D6520726570656174210D0A00003D
:1059F00010B50446A06A017D21290BD000F0BFFA42
:105A0000E18C94F8250007F0E9FE4FF0FF302060AC
:105A1000002010BD07F0AAFBF2E710B500290AD05C
:105A2000012902D04FF0FF3010BDC18C90F8250045
:105A300007F0D4FE04E0C18C90F8250007F0C4FE06
:105A4000002010BD2DE9F047074688469146194EC3
:105A500035680024B54209D0A5F12C04211D384633
:105A6000FAF793FC10B100242D68F3E7BCB120686D
:105A700030B1A06A017D212904D0222908D00CE090
:105A800000240CE04A46414607F0FAFB074604E0D2
:105A90004A46414600F099FA07461FB100242046C5
:105AA000BDE8F08700202060E18C94F8250007F025
:105AB0008BFEF4E7000A00202DE9F04705462A4650
:105AC00029A103200BF0B0FE2E4E34684FF0FF37B3
:105AD000B44208D1DFF8AC80A8F10808D8F800403B
