:020000040800F2
:1000000028AC012071020008E119000895020008DF
:10001000C1190008C90B0008C93D00080000000014
:10002000000000000000000000000000A101000826
:10003000B512000800000000FD01000805370008A7
:100040008B0200088B0200088B0200088B0200085C
:100050008B0200088B0200088B0200088B0200084C
:100060008B0200088B0200088B0200088B0200083C
:100070008B0200088B020008690F0008950F00082A
:100080008B0200088B020008F70900088B020008A9
:10009000E90B00088B0200088B0200088B020008A5
:1000A0008B0200088B0200088B0200088B020008FC
:1000B0008B0200083D3800088B0200088B02000804
:1000C0008B0200088B0200088B0200088B020008DC
:1000D0008B0200083D3C0008413C0008453C0008FC
:1000E0008B0200088B0200088B0200088B020008BC
:1000F0008B0200088B0200088B0200088B020008AC
:100100008B02000849270008413800088B020008CC
:100110008B0200088B0200088B020008453800089B
:100120008B020008C10F00088B020008ED0F0008C9
:100130008B0200088B0200088B0200088B0200086B
:100140008B0200088B0200088B0200088B0200085B
:100150008B0200088B0200088B0200088B0200084B
:100160008B0200088B0200088B0200088B0200083B
:100170008B0200088B020008F50E00088B020008B5
:100180008B0200088B020008DFF810D000F0A6FBFD
:1001900000480047F34D0108AFF3008028AC012070
:1001A0002C4B19680868B0E8F04F80F30988BFF35A
:1001B0006F8F4FF0000080F311887047000000003F
:1001C00008480068006880F308884FF0000080F35A
:1001D000148862B661B6BFF34F8FBFF36F8F00DF35
:1001E00000BF00BF08ED00E0DFF80C00016841F43B
:1001F00070010160704700BF88ED00E0EFF30980F7
:10020000BFF36F8F134B1A681EF0100F08BF20ED5D
:10021000108A20E9F04F106009B44FF0500080F3CD
:100220001188BFF34F8FBFF36F8F19F08BF94FF029
:10023000000080F3118809BC19680868B0E8F04F25
:100240001EF0100F08BFB0EC108A80F30988BFF3CE
:100250006F8F7047680A0020EFF305807047000039
:10026000EFF308807047EFF30980704768467047E6
:100270000648804706480047FEE7FEE7FEE7FEE740
:10028000FEE7FEE7FEE7FEE7FEE7FEE715370008BC
:10029000890100087046694606F032FEFFF7FEFF4E
:1002A00010B5431A934209D28318881803E010F856
:1002B000011D03F8011D521EF9D210BD40EA0103D1
:1002C0009B0703D009E008C9121F08C0042AFAD20C
:1002D00003E011F8013B00F8013B521EF9D210BDBA
:1002E000D2B201E000F8012B491EFBD27047002278
:1002F000F6E710B513460A4604461946FFF7F0FF25
:10030000204610BD10B5044604E00B7800F8013B10
:1003100003B1491C521EF8D2204610BDCAB2401E7D
:1003200010F8011F8A4202D00029F9D1002070473D
:10033000421C10F8011B0029FBD1801A704710B530
:10034000002200E0521C835C8C5CA34201D1002B94
:10035000F8D1D8B2E1B2401A10BD30B50446002041
:10036000034600E05B1C934203D2E05CCD5C401B83
:10037000F8D030BD034611F8012B00F8012B002AFC
:10038000F9D11846704730B505460020034600E015
:100390005B1C934205D2EC5CC85C201A01D1002C96
:1003A000F6D130BD30B503461D783DB10A4612F88E
:1003B000014B1CB1AC42FAD15B1CF5E7181A30BDF9
:1003C00030B50546002008E00A4602E0A34207D007
:1003D000521C1378002BF9D1401C2C5C002CF3D15B
:1003E00030BD2DE9FE4F804681EA0300C00F0C4668
:1003F000009021F0004123F00045B8EB0200A94134
:1004000005D24046214690461C460B46024623F044
:100410000040104347D0270DC7F30A00C3F30A5129
:100420000290401A019040286BDAC3F3130040F4A5
:10043000801B0098924620B10023D2EB030A63EBA5
:100440000B0B01985946C0F14002504600F0B7F836
:1004500006460D4650465946019A00F0BFF810EB8B
:1004600008006141002487EA115284EAE7731A43C5
:1004700040D0009A62B3019A012A4FEA075215DC74
:10048000001B61EB02014FF0004202EA0752CDE986
:100490000042001C41F5801132462B4600F0BFF8A7
:1004A00003B0BDE8F08F40462146F9E7001B61EB41
:1004B0000201001C41F5801300185B412018A2F5D1
:1004C000001747EB030140EAD570B6196D4111E002
:1004D0006D084FEA360645EAC0754FEA0752001B21
:1004E00061EB0201001C41F5801149084FEA300020
:1004F0000019514132462B4603B0BDE8F04F00F0E1
:100500007FB80098012240000023D0EB020263EB89
:10051000E073009821464FEAE074B8EB000061EB0D
:100520000401E9E783F000435BE781F0004158E70D
:1005300030B50B46014600202022012409E021FAB3
:1005400002F59D4205D303FA02F5491B04FA02F5B0
:100550002844151EA2F10102F1DC30BD2DE9F05F47
:100560000546002092469B46884606468146402422
:100570001BE0284641464746224600F0C1F9534653
:100580005A46C01A914110D311461846224600F02F
:1005900016F82D1A67EB01084F462246012000216C
:1005A00000F00DF817EB00094E41201EA4F10104E4
:1005B000DFDC484631462A464346BDE8F09F202A04
:1005C00004DB203A00FA02F1002070479140C2F1AA
:1005D000200320FA03F3194390407047202A06DBDA
:1005E000CB17203A41FA02F043EAE07306E041FA01
:1005F00002F3D040C2F120029140084319467047EF
:1006000010B5141E73F1000408DA401C41F100011A
:1006100092185B411A4301D120F0010010BD2DE971
:10062000F04D92469B4611B1B1FA81F202E0B0FA68
:1006300080F220329046FFF7C2FF04460F4640EAA0
:100640000A0041EA0B0153465A46084313D01146AB
:1006500053EA010019D0C8F14002504600F050F9A9
:1006600005460E46504659464246FFF7A8FF084346
:1006700005D0012004E020463946BDE8F08D002079
:10068000054346EAE0762C4337430A986305E40ABB
:10069000A0EB08000022FD0A44EA47540A3002D5C4
:1006A00000200146E9E7010510196941DDE9084527
:1006B00000196941BDE8F04DA2E72DE9FE4F81EA3E
:1006C000030404F0004421F0004100944FF0000BBB
:1006D00023F0004350EA01045ED052EA03045BD0E9
:1006E000C3F30A54C1F30A552C44A4F2F334019421
:1006F000A0FB0254C1F3130141F48011C3F31303AF
:1007000043F4801301FB024400FB034E840A970A62
:1007100044EA815447EA8357A4FB076802958D0A8F
:1007200005FB07854FEA932C04FB0C542705029D1B
:100730004FEA065847EA1637B5EB08056EEB070C8B
:10074000870E920E47EA811742EA8312A7FB020145
:10075000B6EB0B0164EB00042B0D43EA0C335E187F
:1007600044EB1C50DA465146E7FB0201C5F3130483
:100770004FEA0B3343EA14534FEA0432019C43EA35
:100780000603A4F10C040294009CCDE900B4FFF729
:1007900046FF03B0BDE8F08F00200146F9E72DE9E0
:1007A000F04D81EA030404F0004B21F000451446AB
:1007B0004FF0000A23F0004150EA050220D054EA2D
:1007C00001021DD0C5F30A570246C5F31303C1F356
:1007D0001300C1F30A5640F4801543F48013A7EBCD
:1007E0000608101BD64608F2FD3873EB050002D34D
:1007F00008F1010801E092185B41B8F1000F03DA3B
:1008000000200146BDE8F08D00204FF4801106461F
:1008100084460EE0171B73EB050705D3121B63EB31
:10082000050306434CEA010C49084FEA30009218D0
:100830005B4150EA0107EDD152EA030012D082EA8F
:10084000040083EA0501084305D0101BAB4106D222
:100850000122002306E000224FF0004302E06FF087
:10086000010253101AEB06004CEB085110EB0A0082
:1008700041EB0B01BDE8F04DFFF7C2BEC1F30A52D8
:10088000C1F3130140F2FF3341F480119A4202DABE
:1008900000200146704740F233439A42A2F23342AD
:1008A00002DC524200F02CB8FFF789BE30B5041EBE
:1008B00071F1000404DB4FF00044404264EB01019D
:1008C000141E73F1000405DB1C464FF00043524236
:1008D00063EB0403994208BF904230BD064C074DBC
:1008E00006E0E06840F0010394E807009847103400
:1008F000AC42F6D3FFF74CFCE8C4060828C506084E
:10090000202A04DB203A21FA02F00021704721FA64
:1009100002F3D040C2F120029140084319467047CB
:1009200070B58C1810F8015B15F0070301D110F8B1
:10093000013B2A1106D110F8012B03E010F8016BDE
:1009400001F8016B5B1EF9D12B0705D40023521E61
:100950000DD401F8013BFAE710F8013BCB1A921CC9
:1009600003E013F8015B01F8015B521EF9D5A142C7
:10097000D8D3002070BDC94301607047090AC9433C
:1009800001607047002904D0816841F00101816055
:100990007047816821F001018160704710B5074CF4
:1009A000226807490A40D0E900131943D0E9023010
:1009B000034319431143216010BD0000042301408B
:1009C000E030FCFFC06C80B2704702460020126825
:1009D0000A4200D00120704730B5024600200B0AC1
:1009E000546801258D402C401168194202D0002C1A
:1009F00000D0012030BD14F059BA000030B5426873
:100A00000F4B1A400C790B6842EA042213434360EF
:100A100083680C4A1340D1E9034222434D798C6824
:100A200044EA450422431A438260C26A22F47002F7
:100A3000097D491EC9B242EA0151C16230BD0000C0
:100A4000FFFEFFFCFDF7FFC070B5072609290AD994
:100A5000C568A1F10A0404EB4404A640B543A340D1
:100A60001D43C56007E0056901EB4104A640B5439D
:100A7000A3401D4305611F23072A09D2446B521E60
:100A800002EB820293409C4391400C43446370BD4F
:100A90000D2A09D2046BD21F02EB820293409C43C1
:100AA00091400C43046370BDC46A0D3A02EB8202AC
:100AB00093409C4391400C43C46270BD0849002898
:100AC00006D0D1F8040340F40000C1F804037047D5
:100AD000D1F8040320F40000C1F8040370470000BB
:100AE000002001402DE9FC4100F044FF01211720C6
:100AF00001F00CFB304C0D220421204600F01FFFBA
:100B00000D220621204600F01AFF0D220921204661
:100B100000F015FF294D0D220621284600F00FFF99
:100B20000D220721284600F00AFF254E0D2207213D
:100B3000304600F004FF234F0D220021384600F01C
:100B4000FEFE0D220121384600F0F9FE0D2204219F
:100B5000384600F0F4FE0D220521384600F0EFFE85
:100B60000D220621384600F0EAFE4FF41471009180
:100B700002218DF8041003218DF8051000218DF855
:100B8000061001208DF807006946204600F099FE06
:100B9000C02000906946284600F093FE8020009017
:100BA0006946304600F08DFE732000906946384655
:100BB00000F087FEBDE8FC81000002400004024016
:100BC000000802400010024002A1012019F050F874
:100BD000FEE700004275734661756C745F48616E94
:100BE000646C65720D0A000014F0ECB910B500EBEE
:100BF0000113D3F8B04104F004041472002C2CD07B
:100C0000D3F8B041E408546003F5D8731C6804F0CD
:100C1000020454725C6804F00F0494725C68240A45
:100C2000D4749C68D4729C68240A14739C68240C45
:100C300054739C68240E9473DC68D473DC68240AB3
:100C40001474DC68240C5474DB681B0E937449B173
:100C5000016941F02001016110BDD3F8B041640D7C
:100C60001460D1E7C16841F02001C16010BD70B5CA
:100C700000254FF4803400E0641E24B1802001F090
:100C80003DFD0028F8D02CB140F2FF5001F0F4FCFB
:100C9000284670BD032070BD70B5054600243B4951
:100CA000086800E0086810F0450FFBD0410705D543
:100CB0000324042001F0E0FC204670BDC00705D0ED
:100CC0000124012001F0D8FC204670BD01F010FD88
:100CD000A84201D0102070BD40F2FF5001F0CCFCC2
:100CE000002001F027FD2A49084201D1204670BDAD
:100CF000002801DA1C2070BD410001D5092070BD1B
:100D0000810001D50A2070BDC10001D50B2070BD46
:100D1000010101D50C2070BD410101D50D2070BD30
:100D2000C10101D50E2070BD010201D50F2070BD9B
:100D3000410201D5102070BD810201D5112070BD86
:100D4000C10201D5122070BD010301D5132070BD71
:100D5000410301D5142070BD810301D5152070BD5C
:100D6000C10301D5162070BD010401D5172070BD47
:100D7000410401D5182070BD810401D5192070BD32
:100D8000000701D51A2070BD204670BD342C0140EB
:100D900008E0FFFD10B500240E4A116800E011685C
:100DA00011F0450FFBD0480705D50324042001F0BE
:100DB00063FC204610BDC80705D00124012001F0C6
:100DC0005BFC204610BD40F2FF5001F055FC204670
:100DD00010BD0000342C014010B500240A4A1168EF
:100DE00000E0116811F0450FFBD0480705D503243A
:100DF000042001F041FC204610BD40F2FF5001F0FC
:100E00003BFC204610BD0000342C014070B5064666
:100E10000C4600251C4A106800E0106810F0450FD1
:100E2000FBD0410705D50324042001F025FC204612
:100E300070BDC00705D00124012001F01DFC204633
:100E400070BD01F055FCB04201D0102070BD40F2E1
:100E5000FF5001F011FC002001F06CFC10F4604F19
:100E600003D0810405D5132070BD000C20802846D6
:100E700070BD410401D5102070BD000401D50F20C4
:100E800070BD284670BD0000342C014010B5002014
:100E90004FF480310D4B1A6801E0491E1A6812F0B8
:100EA000450F01D10029F8D109B1510705D5032417
:100EB000042001F0E1FB204610BD5106FCD50024C2
:100EC000402001F0D9FB204610BD0000342C014029
:100ED00001494861704700000000055002460020AB
:100EE000034909691140002900D001207047000022
:100EF0000000055010B50120FFF7F0FF012805D1D3
:100F0000FFF7E6FFBDE8104014F090B810BD0000F8
:100F10001CB50121102001F0F9F80C2000900220EE
:100F20008DF8050001208DF8040000218DF80610D1
:100F30008DF807000B4C6946204600F0C2FC0421E6
:100F4000204600F013FD0A2000F0C2F908212046D7
:100F500000F00CFD0A2000F0BBF90821204600F04B
:100F600007FD1CBD0010024070B5084C084D21461D
:100F7000284600F031F9012807D12146284600F023
:100F80004DF8BDE8704014F0ADBA70BD0080001897
:100F90005860024070B5084C084D2146284600F0C4
:100FA0001BF9012807D12146284600F037F8BDE893
:100FB000704014F047BA70BD20800020706002407D
:100FC00070B5084C084D2146284600F0EBF8012882
:100FD00007D12146284600F00BF8BDE8704014F018
:100FE00011B870BD000800102864024002F02AB851
:100FF000074A904201D2074801E005481038064AE6
:101000008B0001EA020101D5C16070478160704721
:1010100010640240006002407D0F7D0F074A90423D
:1010200001D2074801E005481038064A8B0001EA62
:10103000020101D5C16070478160704710640240B1
:10104000006002407D0F7D0F002904D0016841F04F
:10105000010101607047016821F0010101607047E2
:101060002DE9F043016821F00101016000210160D8
:1010700041608160C1600161212141613E493E4A78
:1010800010394FF03D08904203D1C1F80880BDE807
:10109000F083394A4FF474651832904201D18D6063
:1010A000F5E7354A4FF474163032904201D18E6024
:1010B000EDE7314A4FF074674832904201D18F60BA
:1010C000E5E72D4B2D4A6033984201D1CA60DEE737
:1010D000294C2B4B7834A04201D1CB60D7E7DFF805
:1010E00098C0284C0CF1900C604501D1CC60CEE743
:1010F000DFF884904FF03D5C09F1A809484502D122
:10110000C1F80CC0C3E72049DFF87C900839484596
:1011100002D1C1F80080BAE7DFF86C8008F1180846
:10112000404501D10D60B2E7174D3035A84201D1DD
:101130000E60ACE7144D4835A84201D10F60A6E718
:10114000114D11496035091FA84201D10A609EE77F
:101150000D4A7832904201D10B6098E70A4A9032EA
:10116000904201D10C6092E7074AA83290428ED19A
:10117000C1F800C08BE70000106002403D00002075
:10118000400F002000003D2010640240002904D0E0
:10119000016841F0200101607047016821F02001E1
:1011A0000160704702460020084B9A4201D2084A6B
:1011B00001E0064A103A8B0001D5526800E012683F
:1011C000044B1A400A4200D00120704710640240CC
:1011D000006002407D0F7D0F30B500240F4A904221
:1011E00001D20F4A01E00D4A103A0E4B194205D0C8
:1011F0001E2303EAD12503682B4002E0406900F07A
:101200008003880001D5506800E01068064A10404D
:10121000084201D003B10124204630BD10640240D1
:10122000006002403C0F3C0F7D0F7D0F0B0609D57F
:1012300022B1436943F08003436103E0436923F033
:1012400080034361802905D001F01E011AB10268B4
:101250000A430260704702688A43026070470000D8
:1012600030B50368124A1340CC680A682243D1E9BA
:1012700005452C432243CC6922430C6A22434C6A25
:1012800022438C6A22434C6B22438C6B22431A43C9
:101290000260426922F00703D1E90B2422431A437A
:1012A00042610A6942604A6882608968C16030BDF3
:1012B0003F801CF001A1012018F0DABC4465627582
:1012C000674D6F6E5F48616E646C65720D0A000059
:1012D00003490A68104448600A689042FCD8704785
:1012E0001C0A002070B506460D46322130460CF02F
:1012F000D0FD00240122294630460CF0DBFD6D1C98
:10130000641CE4B21E2CF5D370BD0022AFF3008044
:1013100010B50346012009783039C9B2032908D233
:1013200004480024445400EB8104636008440274C0
:10133000002010BDF08B01208000A0F1C0400029EA
:1013400004D0016841F00101016070470168024A60
:101350001140016070470000FEFF0F0070B501688A
:101360008900A1F1C0410B68344A1340D0E901243F
:101370002243D0E903452C43224344692243846934
:101380002243C4692243046A2243446A2243846A92
:101390002243C46A2243046B22431A430A608168D1
:1013A000082907D101688900A1F1C0410A6842F00B
:1013B00040020A600168491C8A00A2F1C04211681B
:1013C00001F04044416BD1E9003543EA05138D68D3
:1013D0008E892D0245EA06452B430D8A43EA0553C3
:1013E0000D7D896943EA05630B4323431360C16A9A
:1013F000B1F5804F08D000686FF070418000A0F117
:10140000C040C0F8041170BD01688900A1F1C0415D
:10141000D1F804210A4B1A40806BD0E9003443EA2A
:10142000041384688589240244EA054480692343BF
:1014300003431343C1F8043170BD00008000F7FF7F
:101440000000F0CFF8B5002441A017F061FB0A229C
:101450004CA151480DF0F8FA504F3870661E38B163
:101460004FA017F055FB4C480CF0D9FE3046F8BDA4
:101470004DA017F04DFB4948401CFEF759FF474966
:1014800002466B46491C44480DF0B3FC387038B135
:1014900043A017F03DFB40480CF0C1FE3046F8BDBC
:1014A00045A017F035FB3D4945A0491C17F030FB1E
:1014B00039480CF0B4FE44A017F02AFB3748401C12
:1014C000FEF736FF85B201222EA133480DF0BCFA9B
:1014D000387031496B462A4620392F480DF08FFB72
:1014E000387038B12EA017F013FB2B480CF097FE84
:1014F0003046F8BD3FA017F00BFB2748294620389F
:1015000000F0E8FD254A2448521C20380DE0115D0A
:10151000035D994207D022A017F0FAFA1E480CF09A
:101520007EFE3046F8BD641CE4B2AC42EFD335A079
:1015300017F0EEFA184922A0203917F0E9FA1648F8
:101540000CF06DFE31A017F0E3FA0020F8BD0000AA
:101550002D2D2D2D2D2D2D2D2D2D2D2D2D46617427
:101560004673206F70656E20262077726974652D32
:101570002D2D2D2D2D2D2D2D2D2D2D2D2D2D0D0ADE
:1015800000000000313A46617446735F546573741D
:101590002E74787400000000688E0120300C00204A
:1015A000657272210D0A00006F6B2C777269746589
:1015B0002E2E2E0D0A0000006F6B200D0A00000079
:1015C00025730D0A000000002D2D2D2D2D2D2D2D04
:1015D0002D2D2D2D2D466174467320726561642D6D
:1015E0002D2D2D2D2D2D2D2D2D2D2D2D2D2D0D0A6E
:1015F000000000006F6B2C207665726966792E2ED4
:101600002E0D0A006F6B0D0A0000000073646D6DF3
:101610006320616E64206661746673207465737400
:101620002066696E697368210D0A00007CB501AA05
:1016300069460CA00CF003FE019881694089891E5F
:101640004143009A5043CC0AC50A07A017F060FA3C
:10165000214610A017F05CFA29460EA017F058FAA0
:101660007CBD0000313A00002D2D2D2D2D2D2D2D6E
:101670002D2D2D2D2D2D2D2D2D2D2D7072612D2DDE
:101680002D2D2D2D2D2D2D2D2D2D2D2D2D2D2D0DAA
:101690000A00000053442025644D420D0A0000005A
:1016A0002DE9FC470E460024002700970197574D6F
:1016B0004FF0080AC5F800A0102068604FF04009FC
:1016C000C5F80890EF604FF48068C5F81080284690
:1016D00001F066F81020FFF7DFFA002832D14C48FD
:1016E00000890004286037206860C5F80890EF6022
:1016F000C5F81080284601F053F83720FFF7CCFAE0
:1017000000281FD1411E05F114000160C0F804A09B
:10171000302181600221C16007610121416100F037
:10172000C3FF2F6033206860C5F80890EF60C5F8EC
:101730001080284601F034F83320FFF7ADFA054653
:10174000280001D0BDE8FC874FF4001A6F46DFF88F
:10175000C48040F22A6908E0504600F0CFFF20B173
:1017600001F018F847F82400641CD8F8000010EACB
:10177000090FF1D0082000F0C1FF20B1082000F0CF
:101780007BFF0420DEE7022000F0B8FF20B102203A
:1017900000F072FF0220D5E7202000F0AFFF20B15B
:1017A000202000F069FF0620CCE74FF400742046AB
:1017B00000F0A4FF20B1204600F05EFF0720C1E743
:1017C00040F2FF5000F058FF00980099000601F425
:1017D0007F4140EA0120009901F47F0140EA112095
:1017E000009940EA1160706001980199000601F4C7
:1017F0007F4140EA0120019901F47F0140EA112074
:10180000019940EA1160306028469BE7280F0020CC
:10181000F8000020342C01402039602901D3002039
:10182000704788B200EB40008000014908447047CF
:101830009FB0060806208880C8800C200881002000
:1018400048818881887B20F00F00401C887301202C
:1018500070470000A1F12000602801D300207047EC
:1018600008010149084470479FA0060808208880A5
:10187000C88010200881002048818881887B20F062
:101880000F00401C88730120704700007F2901D998
:101890000020704701EB4100800001490844704777
:1018A0009F9A060806208880C8800C2008810020A6
:1018B00048818881887B20F00F00401C88730120BC
:1018C00070472DE9F041002201274FF0030C07FA81
:1018D00002F50B682B40AB422CD1066853000CFA82
:1018E00003F4A64306600E79D0F800809E4046EAD5
:1018F000080606600E79012E01D0022E12D18668EC
:10190000A64386604E79D0F808809E4046EA0806D5
:1019100086604668AE43466045688E799640B6B2AA
:1019200035434560C568A543C560CC799C40C36814
:101930001C43C460521C102AC9D3BDE8F08110B505
:101940004B07DB0E9A40C90800EB8100016A0F24A7
:101950009C40A1430162016A1143016210BD02462D
:10196000002012690A4200D001207047418370476D
:10197000018370471CB5012000F01CFC01210846C2
:1019800000F0C4FB0D4C002208212046FFF7D7FFD2
:10199000A115009102218DF805108DF80410002189
:1019A0008DF8061001218DF8071069462046FFF7D3
:1019B00088FF0021084600F07FFC1CBD00000240AB
:1019C00002A1012018F054F9FEE700004D656D4DAD
:1019D000616E6167655F48616E646C65720D0A00D7
:1019E00002A1012018F044F9FEE700004E4D495FC6
:1019F00048616E646C65720D0A00000030B50F23FB
:101A0000C27801250178002A1FD0154A126802F415
:101A1000E062C2F5E062C2F30722C2F10404D340DF
:101A20004278A24084781C401443220101F1E02155
:101A300081F80024007800F01F018D4040098000EB
:101A400000F1E020C0F8005130BD01F01F008540DA
:101A50004809800000F1E020C0F8805130BD00004E
:101A60000CED00E0024A114001430248016070475A
:101A700080FFFF1F08ED00E010B5084800F01CF8DB
:101A800006488278262A02D04FF0FF3010BD04A10C
:101A9000042018F0EDF8002010BD000058090020C7
:101AA0004F56323634302043616D657261204944AF
:101AB00020307825780D0A0010B504460121FF205A
:101AC00000F036F81C2000F00FF820701D2000F008
:101AD0000BF860700A2000F007F8A0700B2000F0EF
:101AE00003F8E07010BD00007CB5044614224FF0EE
:101AF000FF310DA004F08AF805468DF8044001245A
:101B000001AB002230212846009404F0E9F801AB33
:101B1000012230212846009404F0E2F8284604F01F
:101B200069F89DF804007CBD56493243300000003E
:101B30007CB504460D4614224FF0FF310AA004F094
:101B400065F806468DF804408DF805500220009097
:101B500001AB00223021304604F0C2F8C4B2304656
:101B600004F048F820467CBD56493243300000005E
:101B70002DE9F041002400F07BF943F22307012115
:101B8000384600F08BFA43F222080821404600F064
:101B900085FA00F063F94FF47A7600F069F9384677
:101BA00000F020FA054600F059F9641CA4B2B442D2
:101BB00002D90220BDE8F0810520FFF789FB002D46
:101BC000EBD100F055F90121384600F067FA042105
:101BD000404600F063FA00F041F9002400F048F9B3
:101BE000384600F0FFF9054600F038F9641CA4B24D
:101BF000B44201D90220DDE70520FFF769FB002D83
:101C0000ECD10020D6E770B50446042C03D2C4F111
:101C10000400C5B201E0201FC5B200F029F943F26B
:101C200012260321304600F039FA2807010E45F24A
:101C3000875000F033FA45F28850042C03D2092172
:101C400000F02CFA02E0012100F028FA13213046BE
:101C500000F024FAA321304600F020FABDE87040DD
:101C600000F0FCB82DE9F041054600F001F943F21F
:101C700012270321384600F011FA1C2145F2813069
:101C800000F00CFA5A2145F2823000F007FA0621E2
:101C900045F2833000F002FA002405EB45001149BB
:101CA00045F2843501EB40066019315D00F0F6F92C
:101CB000641CE4B2062CF7D3982145F28B3000F077
:101CC000EDF9012145F28A3000F0E8F91321384698
:101CD00000F0E4F9A321384600F0E0F9BDE8F04156
:101CE00000F0BCB8AECD010870B50024202507284F
:101CF00016D2DFE800F004070A150D1013001424B3
:101D000025460DE0182425460AE01C24254607E058
:101D10001024242504E01824282501E01C242C2567
:101D200000F0A6F843F212260321304600F0B6F97F
:101D3000214645F2855000F0B1F9294645F286501A
:101D400000F0ACF91321304600F0A8F9A321304689
:101D500000F0A4F9BDE8704000F080B810B504466A
:101D600000F086F8022143F2160000F097F90221F4
:101D700043F21C0000F092F943F219001CB1022159
:101D800000F08CF902E0002100F088F9BDE8104075
:101D900000F064B82DE9F0414FF4004500F068F818
:101DA0004FF440582021404600F078F900242A4E94
:101DB00040F6ED772846315D00F070F96D1CADB24C
:101DC000641CA4B2BC42F5D3002143F2220000F00F
:101DD00065F9002143F2230000F060F9002143F28D
:101DE000240000F05BF9002143F2250000F056F9D1
:101DF000002143F2260000F051F9002143F22700B0
:101E000000F04CF9002143F2280000F047F943F2BA
:101E100029067F21304600F041F90021404600F0BC
:101E20003DF900F01BF800244FF47A7500F020F81B
:101E3000304600F0D7F8074600F010F80520FFF70D
:101E400047FA641CA4B2AC4202D90120BDE8F0817B
:101E5000702FEBD10020F9E774BD010810B50348DD
:101E6000006803F0C7FE002010BD00005C090020E0
:101E700010B514224FF0FF3103A003F0C7FE044950
:101E80000860002010BD00005649324330000000B9
:101E90005C09002070B500241E20FFF719FAFFF737
:101EA000E7FF43F20A0000F09DF84FF6FF7101EAE8
:101EB000002643F20B0000F095F840EA060529469B
:101EC00024A016F025FEA5F5AC40403803D0FFF75E
:101ED000C5FF601E70BD112143F2031000F0DEF853
:101EE000822143F2080000F0D9F80A20FFF7F0F948
:101EF0001D4D05EB8400817835F8240000F0CEF804
:101F0000641CA4B2CF2CF4D3FFF7A8FF3220FFF754
:101F1000DFF90120FFF722FF3220FFF7D9F9002077
:101F2000FFF71CFF00F048F8FFF734FF002000F037
:101F30001DF80320FFF796FE0420FFF764FE032040
:101F4000FFF7D2FE212000F069F8FFF711FE002014
:101F500070BD00006F7635363430207265616420C4
:101F600069643A25780D0A0038BA010870B505464B
:101F7000FFF77EFF43F212260321304600F08EF871
:101F800000240C49C5EBC500451804F55050295DE7
:101F900000F084F8641CE4B2072CF6D31321304619
:101FA00000F07CF8A321304600F078F8BDE87040DE
:101FB000FFF754BF8BCD010870B50024FFF758FF21
:101FC000074D05EB8400817835F8240000F066F8B1
:101FD000641CA4B22D2CF4D3BDE87040FFF73EBFC3
:101FE00084B901081CB5010A8DF804108DF80500AC
:101FF000094C0220009001AB00223C21206803F034
:102000006FFE01200246009001AB3C21206803F0E6
:1020100067FE9DF804001CBD5C09002070B50446F5
:10202000FFF726FF45F20830851F212C07D26521D6
:1020300000F034F82146284600F030F829E0252148
:1020400000F02CF808214FF4A64000F027F83021CA
:1020500045F2013000F022F81021284600F01EF869
:10206000002145F2033000F019F8082145F209304B
:1020700000F014F8302145F20A3000F00FF8042186
:1020800045F20B3000F00AF8062145F20C3000F062
:1020900005F8BDE87040FFF7E1BE00001CB5020A7C
:1020A0008DF804208DF805008DF8061003200090AF
:1020B000044801AB00223C21006803F011FEC0B2CD
:1020C0001CBD00005C090020014908627047000047
:1020D00000000E4270B505460E46002409E02007B8
:1020E00002D107A016F014FD295D06A016F010FD20
:1020F000641CB442F3DBBDE8704001A016F008BDDB
:102100000D0A00002530327820000000054A002921
:1021100003D0116801431160704711688143116059
:102120007047000030380240054A002903D011688A
:1021300001431160704711688143116070470000CE
:1021400038380240054A002903D011680143116064
:1021500070471168814311607047000040380240A9
:10216000054A002903D011680143116070471168C6
:10217000814311607047000020380240054A002961
:1021800003D01168014311607047116881431160E9
:102190007047000044380240054A002903D0116806
:1021A000014311607047116881431160704700005E
:1021B000243802400149C8647047000000004742CB
:1021C00070B5244B196801F00C01234C00291ED076
:1021D000661004291DD008291DD00460196801F07B
:1021E000F00109091D4A545C0168E14041601C6826
:1021F00004F4E054A40A145D21FA04F484601B681A
:1022000003F460435B0BD25CD140C16070BD0460DD
:10221000E4E70660E2E70F4A121F1168C1F3805538
:10222000116801F03F0135B1B6FBF1F11468C4F358
:102230008814614305E0B4FBF1F11468C4F3881419
:1022400061431268C2F30142521C5200B1FBF2F129
:102250000160C3E7083802400024F40014000020A5
:1022600002460020510901290BD002290DD009494D
:10227000096802F01F02012393400B4200D00120A5
:102280007047044974390968F3E70249091F09686E
:10229000EFE7000074380240064900220A700A7015
:1022A000012804D0042801D10520087070470120BE
:1022B0000870704770380240034B1A6822F0EC62D5
:1022C000084310431860704708380240014908600D
:1022D000704700003C0E4742C0F30121032907D19B
:1022E000074B196821F4F81206490140114319609F
:1022F000034A68321168C0F30B0001431160704754
:1023000008380240FFFCFF0F010901EB8101490081
:1023100000F00F000844C0B27047002103E0491CE0
:10232000C9B20A38C0B20A28F9D2090740EA1160D6
:102330007047000008B5002000900E49086840066C
:1023400015D44FF0FF3008608B13086800F0400090
:10235000009A521C0092009A9A4201D00028F4D0B0
:102360000868400601D5012008BD002008BD0120F5
:1023700008BD00000C2800400248016821F08001DF
:10238000016070470C28004070B504460025114ECE
:10239000CA20306053203060FFF7CCFFA8B10D4851
:1023A0001C38016821F04001016001682268114376
:1023B00001600848A168143801600168A28841EAF8
:1023C00002410160FFF7D8FF0125FF203060284659
:1023D00070BD00002428004008B5034901EB8000CF
:1023E00000900098006808BD5028004070B5054670
:1023F0000C460026002D06D16078C10603D520F0DA
:1024000010000A3060702DB16078FFF77DFFA07872
:10241000FFF77AFF55B1A078E17840EA014560788E
:102420002178000240EA413005430FE0E078FFF7F1
:1024300074FF05046078FFF770FF45EA0025A07877
:10244000FFF76BFF0543207845EA40350E4CCA2064
:10245000206053202060FFF76DFF88B10B480540D6
:10246000094820380560FFF787FF07481C380068D7
:10247000800604D400F060F810B1012600E00126C7
:10248000FF202060304670BD242800403FFFFF0041
:102490002DE9F04105460C4600260020244F002D72
:1024A00006D03968490608D52078FFF72DFF05E0EA
:1024B0003968490602D4E07000E0E07055B1A078B8
:1024C000217840EA01456078E178000240EA014065
:1024D00005430FE02078FFF720FF05046078FFF741
:1024E0001CFF45EA0025A078FFF717FF0543E078B9
:1024F00045EA00450E4CCA201C3420605320206061
:10250000FFF718FF78B10B48054009480838056007
:10251000FFF732FF3868800604D400F00DF810B1E0
:10252000012600E00126FF2020603046BDE8F08152
:10253000082800407F7F7F0018B500200090104BD6
:10254000CA201860532018600D491839086820F017
:10255000A00008604FF40034086800F02000009AE2
:10256000521C0092009AA24201D00028F4D00868C0
:10257000800601D5012000E00020FF21196018BD70
:102580002428004008B5034A02EB80000090009820
:10259000016008BD502800402DE9FC470646002494
:1025A00000940194002000F0C5F8800102D50E20AF
:1025B000BDE8FC872E4D6946288980B2FFF770F888
:1025C0000028F5D137202B4F4FF0060A4FF0400975
:1025D0004FF48068012E22D00199C90345D529897D
:1025E000090439607860C7F80890FC60C7F810806B
:1025F000384600F0D5F83720FEF74EFB0028D7D13B
:102600003C60C7F804A0C7F80890FC60C7F81080C9
:10261000384600F0C5F80620FEF73EFBC8E70199F2
:10262000490320D52989090439607860C7F80890E2
:10263000FC60C7F810800F4800F0B2F83720FEF7B2
:102640002BFB0028B4D102203860C7F804A0C7F8DB
:102650000890FC60C7F81080064800F0A1F806203A
:10266000FEF71AFBA4E72520A2E72520A0E700003B
:10267000F8000020280F0020014908607047000082
:10268000382C01400149086070470000382C014097
:102690000149086070470000A08025420149086098
:1026A000704700008C85254210B50A4A0168116008
:1026B000121D41681160141D216821F0F701D0E955
:1026C00002231A43D0E9043003431A430A43226029
:1026D00010BD0000242C014010B50121CC02204681
:1026E000FFF75AFD2046BDE810400021FFF754BD1A
:1026F00001480068C0B27047102C0140014600201C
:10270000024A12680A4200D001207047342C01406E
:1027100001460020024A12680A4200D00120704798
:10272000342C01400248006800F0030070470000AC
:10273000002C014008B50349084400900098006847
:1027400008BD0000142C014000F090BC054A00298F
:1027500003D0116801431160704711688143116013
:10276000704700003C2C014030B5094B196847F612
:10277000FF629143027D8468C568224344682C430C
:10278000224304680069224302430A431A6030BDB1
:10279000042C01400148006870470000802C014073
:1027A00010B5084A01681160141D21686FF30A0111
:1027B000D0E901231A43D0E9033003431A430A4303
:1027C000226010BD082C01400149086070470000DC
:1027D000002C014008B50120009041030448FFF798
:1027E000BEF808B1002000909DF8000008BD000070
:1027F000000802402DE9F041014600241C484068D1
:10280000032805D038B1012805D0022803D02DE0D7
:102810002720BDE8F081B1F5805F0CD04FF4006750
:102820000026144DB94212D10120FFF7B5FE04462F
:10283000200002D01AE02720EBE72E752E606E6094
:10284000AE60EF602E610B48FFF78EFF0EE00020B8
:10285000FFF7A2FE0446200008D12E752E606E60A0
:10286000AE60EE602E610348FFF77EFF2046D0E7A2
:10287000F8000020100F00202DE9F04397494E6822
:1028800080F856600989A0F85410DFF854C2DCF8CB
:1028900000100A0E93090370C2F38303437002F021
:1028A000030282700A0CC2700A0A02714171DCF8DC
:1028B0000420110E0901C180C2F30741C38843EA15
:1028C0001113C38001F00F010172C2F30721CB097C
:1028D0004372C1F380138372C1F34013C372C1F317
:1028E000001303730023437364460127D4F8088060
:1028F000002E4FEA1864C8F30745C8F3072904D02F
:10290000012E02D0022E3AD051E08907090D016153
:10291000D1B2026942EA81010161016941EA94117F
:102920000161C4F3C201017504F007014175690931
:102930008175C5F38201C175A907490F0176494622
:10294000027E42EAD11202760269521C047EA41C65
:1029500007FA04F6A2FB0649F51703FB069602FBED
:102960000565027A07FA02F9C0F85090A4FB09261F
:1029700005FB096504FB0354C0E9122417E0910626
:10298000890A0161016941EA042101610169294360
:10299000016149460269521C43F10004E40444EA1F
:1029A0005234D204C0E912244FF4007202651C3084
:1029B000C1F3801200F8032C8906490E00F8021CAE
:1029C00008F0FF0110F8022C42EAD11200F8022CA4
:1029D00001F07F0100F8011CDCF80C20110ECC097D
:1029E0000470C1F341144470C1F3820484708907F8
:1029F000090FC170C2F30741C47844EA9114C4704E
:102A0000C1F340140471437101F001018171C2F3FB
:102A10000721CC09C471C1F380140472C1F34014BE
:102A20004472C1F300148472C1F38104C47201F0D2
:102A300003010173D1B2490841738773284A1032E8
:102A400011680C0E04740C0C24024482C1F3072498
:102A5000458A254345820906416151680C0E456946
:102A600045EA04444461C1F30744456945EA042446
:102A70004461C1F3072445692543456101769168A6
:102A80000C0E44760C0C2406C461C1F30724C569FE
:102A900045EA0444C461C9B2C46944EA0121C16180
:102AA000D1680A0EC4691443C461C1F3074290F8A7
:102AB000204044EA121480F820401207120D42848C
:102AC000C1F30722448C14434484C9B2490880F8F6
:102AD000241080F825701846BDE8F083F800002027
:102AE000880E002008B500200090FFF773FE012833
:102AF00001D0FF2008BD684600F080FB08B1FF2030
:102B000008BD0098C0F3432008BD10B5FFF7EAFFE9
:102B1000042803D0FF2803D0012010BD002010BDE1
:102B2000022010BD38B50024009400F0AFF900F089
:102B30004FF9FFF7D1FD00F0C3F900909DF80000B8
:102B400010B19DF8000038BD00F02EF800909DF8FF
:102B5000000010B19DF8000038BD124804750460F3
:102B600044608460C4600461FFF7FEFD0D4858387E
:102B7000FFF782FE00909DF8000040B9094800214F
:102B80005838B0F85400000400F022FB00909DF883
:102B9000000020B94FF40060FFF72CFE00909DF874
:102BA000000038BD100F00202DE9F84F002401204F
:102BB0000090FFF7B7FDE0B1DFF8FC8000263F4D45
:102BC000D8F804004FF0C0094FF4806704282AD0D9
:102BD0002E6002206860C5F80890EE602F612846DC
:102BE000FFF7DEFDFEF7D6F80446200003D0BDE86F
:102BF000F88F2520FBE70020FFF79CFDDFF8BCA045
:102C0000AAF1900ACAF800000420FFF793FDCAF861
:102C100004000820FFF78EFDCAF808000C20FFF71B
:102C200089FDCAF80C00D8F8040028B1012803D0A7
:102C3000062801D0022811D12E60032068604020B0
:102C4000A860EE602F611D48FFF7AAFD69460320CA
:102C5000FEF7DCF80446200000D0C8E7D8F80400EE
:102C6000042826D0BDF80000C8F808000004286039
:102C700009206860C5F80890EE602F610F48FFF7E3
:102C80008FFDFEF787F80446200000D0AFE7002054
:102C9000FFF750FD094DA03D28600420FFF74AFDD5
:102CA00068600820FFF746FDA8600C20FFF742FD92
:102CB000E86020469BE70000F8000020280F002075
:102CC00070B590B005460C461D4E4FF0FA51304697
:102CD000FEF78EF900213046FEF7B6F93046FEF7D2
:102CE000BFF94FF000600190164802900395002054
:102CF0000490059406903115079189000891099078
:102D00000A904FF440300B9004200C9003200D905B
:102D1000C8020E9080100F9001A93046FEF7A0FA6D
:102D2000012210213046FEF781FA20213046FEF7BD
:102D30002DFA01213046FEF787F910B070BD000072
:102D400058640240802C014070B590B004460D4696
:102D50001D4E4FF0FA513046FEF74AF90021304639
:102D6000FEF772F93046FEF77BF94FF000600190F4
:102D70001648029003944020049005950020069088
:102D8000311507918900089109900A904FF440305D
:102D90000B9004200C9003200D90C8020E90801020
:102DA0000F9001A93046FEF75BFA01221021304650
:102DB000FEF73CFA20213046FEF7E8F901213046C3
:102DC000FEF742F910B070BD58640240802C0140FB
:102DD0002DE9FC4101210C20FFF798F9294E0C2226
:102DE00008213046FEF7ABFD0C2209213046FEF7E4
:102DF000A6FD0C220A213046FEF7A1FD0C220B2174
:102E00003046FEF79CFD0C2211463046FEF797FD3A
:102E10001D4F0C2202213846FEF791FD4FF47060E1
:102E2000009002218DF805108DF8041000248DF813
:102E3000064001258DF8075069463046FEF741FDF2
:102E40000420009069463846FEF73BFD28030090B9
:102E50008DF8074069463046FEF733FD6803009061
:102E60008DF804408DF8075069463046FEF729FD7D
:102E70000121C802FFF782F901218805FFF746F911
:102E8000BDE8FC8100080240000C024038B531204A
:102E90008DF8000000248DF801408DF802400125D6
:102EA0008DF803506846FEF7A9FD3B208DF8000021
:102EB0008DF801508DF802406846FEF79FFD38BD41
:102EC0002DE9F84F00270097BB460024A2460025B5
:102ED000594876210175076047608760C7600761C0
:102EE000FFF742FC0320FFF76FFC0120FFF7D0FB48
:102EF000514E183637607760B760F7604FF48069DD
:102F0000C6F810903046FFF74BFCFDF7B0FE00907E
:102F10009DF8000018B19DF80000BDE8F88F4FF44F
:102F2000D5703060082070604FF04008C6F8088007
:102F3000F760C6F8109040481830FFF731FCFDF7F5
:102F4000A5FF00909DF8000018B33760372070602F
:102F5000C6F80880F760C6F8109037481830FFF7B9
:102F60001FFC3720FDF798FE009037603720706017
:102F7000C6F80880F760C6F810902F481830FFF7A1
:102F80000FFC3720FDF788FE00909DF8000090B3FD
:102F90004FE02A48012141608D07E6E7376037207E
:102FA0007060C6F80880F760C6F8109022481830A4
:102FB000FFF7F6FB3720FDF76FFE00909DF800004D
:102FC00010B19DF80000A8E71D4828433060292073
:102FD0007060C6F80880F760C6F810901648183080
:102FE000FFF7DEFBFDF7F8FE00909DF8000018B13A
:102FF0009DF8000091E706E00020FFF79BFB834669
:103000004FEADB7A641CBAF1000F03D14FF6FF7070
:103010008442C3D34FF6FF70844204D31B20009038
:103020009DF8000079E71BF0804F02D00348022191
:1030300041609DF8000070E7100F0020F8000020AC
:10304000000010800748006810F0C05F08D00649F3
:103050000120486103484FF0C2515830FDF7C8BF06
:103060007047000000640240F800002070B54FF483
:1030700080752846FFF74CFB1F4C30B100202070B4
:103080002846FFF7FFFA012020610220FFF740FBEE
:1030900020B10220FFF7F6FA022020700820FFF787
:1030A00037FB20B10820FFF7EDFA04202070202024
:1030B000FFF72EFB20B12020FFF7E4FA0620207056
:1030C0001020FFF725FB20B11020FFF7DBFA0520C9
:1030D00020704FF400752846FFF71AFB20B12846F0
:1030E000FFF7D0FA0720207000214CF23A30FFF7AA
:1030F0002DFB207870BD0000F80000202DE9F05F66
:103100008346DDE90A6714461D46DFF8B8A04FF094
:1031100000088AF80080CAF810804FF00109CAF848
:103120000C902948C0F80080012140F22A30FFF7B6
:103130000DFB07FB06F15846FFF7C2FD0120FFF724
:10314000ADFADAF80400022803D10602640A44EA60
:10315000C5541E4D2E60102068604FF0400AC5F81F
:1031600008A0C5F80C804FF4806BC5F810B0284655
:10317000FFF716FB1020FDF78FFD002820D1411E20
:1031800005F11400016077434760902181600221BE
:10319000C160C0F81080C0F81490FFF785FA2C6069
:1031A00012206860C5F808A0C5F80C80C5F810B0FA
:1031B0002846FFF7F5FABDE8F05F1220FDF76CBD79
:1031C000BDE8F09FF80000202C2C0140280F0020C3
:1031D00010B5094A10600720506040209060002020
:1031E000D0604FF4806010611046FFF7D9FABDE857
:1031F00010400720FDF750BD280F002070B5054690
:10320000002D16D00F48008901040F4801600D21E0
:103210004160402181600021C1604FF48061016103
:10322000FFF7BEFA0D20FDF737FD04461CB120461E
:1032300070BD262070BD0020FFF77CFA2860204674
:1032400070BD0000F8000020280F002010B50848CD
:10325000002101600C22426040228260C1601101A5
:103260000161FFF79DFABDE810400C20FDF714BD89
:10327000280F00202DE9F04100256C1E2146154E37
:1032800000E0491E706928B9306918B9307808B96A
:103290000029F6D1002777610F4800E0641E01681D
:1032A000890401D5002CF9D1F068012803D1FFF77A
:1032B000CDFF0546F7602C4300D1042540F2FF50B6
:1032C000FFF7DAF9307810B13078BDE8F0812846A0
:1032D000FBE70000F8000020342C01402DE9F0410C
:1032E00000256C1E2146154E00E0491E706928B964
:1032F000306918B9307808B90029F6D1002777610C
:103300000F4800E0641E0168C90401D5002CF9D102
:10331000F068012803D1FFF799FF0546F7602C43B9
:1033200000D1042540F2FF50FFF7A6F9307810B124
:103330003078BDE8F0812846FBE70000F800002067
:10334000342C01402DE9F05F8246DDE90A6714461E
:103350001D46DFF804914FF0000889F80080C9F895
:1033600010800120C9F80C003C48C0F80080012101
:1033700040F22A30FFF7EAF907FB06F15046FFF763
:10338000E3FC0120FFF78AF9D9F80400022803D1F1
:103390000602640A44EAC554314D2E60102068606C
:1033A0004FF0400BC5F808B0C5F80C804FF4806AA8
:1033B000C5F810A02846FFF7F3F91020FDF76CFCC4
:1033C000002847D1B9F80800000428603720686059
:1033D000C5F808B0C5F80C80C5F810A02846FFF75E
:1033E000DFF93720FDF758FC002833D12F60172074
:1033F0006860C5F808B0C5F80C80C5F810A028466C
:10340000FFF7CEF91720FDF747FC002822D12C60EA
:1034100019206860C5F808B0C5F80C80C5F810A080
:103420002846FFF7BDF91920FDF736FC002811D119
:1034300005F11402401E10607743576090209060A1
:10344000C2F80C80C2F81080012050611046FFF7CE
:103450002BF94046BDE8F09FF80000202C2C0140DD
:10346000280F002010B5FFF75DFB08B1012010BD4B
:10347000002010BD002908D00C48012907D00229DE
:103480000AD003290DD00420704700207047806CBB
:10349000400A1060002070474FF400701080002038
:1034A0007047006D1060002070470000B80E0020CB
:1034B0001CB508464FF40074CDE9004352020023C6
:1034C000FFF71CFE044634B9FFF7D4FE0446FFF7AD
:1034D0001CFB0028FBD10CB101201CBD00201CBD31
:1034E000002070471CB508464FF40074CDE9004336
:1034F00052020023FFF726FF044634B9FFF7EEFE21
:103500000446FFF702FB0028FBD10CB101201CBDD3
:1035100000201CBD002904D0018841F04001018039
:103520007047018821F040010180704710B52A4999
:1035300088420AD1841401212046FEF72DFE204640
:10354000BDE810400021FEF727BE244988420AD179
:10355000041401212046FEF703FE2046BDE810407A
:103560000021FEF7FDBD1E4988420AD1C413012186
:103570002046FEF7F5FD2046BDE810400021FEF78D
:10358000EFBD184988420AD1441401212046FEF7B4
:1035900003FE2046BDE810400021FEF7FDBD1249A4
:1035A00088420AD101210C052046FEF7F5FD204690
:1035B000BDE810400021FEF7EFBD0C4988420AD15A
:1035C00001214C052046FEF7E7FD2046BDE81040EE
:1035D0000021FEF7E1BD10BD003001400038004081
:1035E000003C0040003401400050014000540140C4
:1035F0000246002012890A4200D0012070478089CB
:1036000070478181704730B5028802F441530A88BF
:103610004C88CD8822438C882C4322430C8922433A
:103620004C8922438C892243CC8922431A4302804D
:10363000828B22F400628283098A018230BD0000FD
:103640000CB50022019200922749086840F48030AE
:1036500008604FF4A043086800F40030009001981F
:10366000401C0190009810B901989842F3D1086865
:10367000800302D50120009000E00092009801280C
:1036800031D119484030026842F080520260174838
:10369000026842F440420260134808300268026047
:1036A000026842F400420260026842F4A0520260E2
:1036B000021F0F4B13600A6842F080720A600A68AA
:1036C0009201FCD50B4A40F205711160016821F0AE
:1036D00003010160016841F0020101600168C1F36A
:1036E00081010229FAD10CBD00380240007000406F
:1036F00008544007003C0240014800687047000041
:103700001C0A002010B500F091FABDE8104012F03C
:10371000E6BE000010B51248016841F47001016076
:103720001048016841F0010101600E4A0021083291
:10373000116002680C4B1A400260031D0B4A1A60AC
:10374000026822F48022026006480C300160FFF714
:1037500077FF03494FF000608039086010BD00001A
:1037600088ED00E000380240FFFFF6FE1030002434
:1037700070B5048C24F001040484058B048C25F0BE
:10378000F3054FF6FF7606EA031313432B4324F0A9
:103790000A020A4342F001010383018470BD70B53F
:1037A000048C24F010040484058B068C4FF6FF74FF
:1037B00004EA011125F4734504EA03332B4304EAB8
:1037C00002221A4326F0A0030B4343F010010283A8
:1037D000018470BDF0B5048C24F480740484868B5D
:1037E000058C4FF6FF7707EA012426F0F30607EA77
:1037F00003111143314325F42062224342F48072C5
:1038000081830284F0BD70B5048C24F48054048458
:10381000858B068C4FF6FF7404EA013125F473455D
:1038200004EA02222A4304EA0333134326F4204223
:103830000A4342F480518383018470BD11F07CBF40
:1038400011F09ABF11F0BABF002904D0018841F0ED
:10385000800101807047018821F08001018070475C
:10386000C94301827047C94301827047002904D0CF
:10387000018841F0010101807047018821F00101B8
:1038800001807047406B7047806B7047C06B70471A
:10389000006C7047406A704702460020128A0A4254
:1038A00000D00120704702460020138A0B40928905
:1038B0000A40002B02D0002A00D00120704770B5CA
:1038C00006460C4625886188A2882389002D0CD0E5
:1038D000042D13D0082D1AD03046FFF794FFE1884D
:1038E0003046BDE8704000F057B93046FFF740FF62
:1038F000E1883046BDE8704000F032B93046FFF74D
:103900004EFFE1883046BDE8704000F031B93046E6
:10391000FFF760FFE1883046BDE8704000F034B941
:10392000002A03D082890A438281704782898A43B0
:103930008281704730B5028C22F001020284058C2E
:103940008388028B22F0700222F003020C88144359
:1039500025F002028D8915434A882A430D4DA8425D
:1039600002D00D4DA8420FD122F00805CA892A4382
:1039700022F004058A882A4323F4807323F4007319
:103980000D8A1D434B8A2B438380048389684163DE
:10399000028430BD0000014000040140028B22F08F
:1039A00008020A430283704770B5028C22F01002AD
:1039B0000284028C8388048B24F4E04424F440764F
:1039C0000D884FF6FF7404EA0525354322F02002E6
:1039D0008E8904EA061616434A8804EA0212324324
:1039E000114EB04202D0114EB04217D122F08002E7
:1039F000CE8904EA0616164326F040068A8804EAB1
:103A00000212324323F4806323F400630E8A04EA33
:103A100086061E434B8A04EA83033343838005836F
:103A200089688163028470BD000001400004014088
:103A3000028B22F400624FF6FF7303EA0121114367
:103A40000183704770B5028C22F480720284028C6C
:103A50008388848B24F0700424F003040D882543AC
:103A600022F400728E894FF6FF7404EA062616438C
:103A70004A8804EA02223243114EB04202D0114E6B
:103A8000B04217D122F40066CA8904EA0222324306
:103A900022F480668A8804EA0222324323F48053A7
:103AA00023F400530E8A04EA06161E434B8A04EAE6
:103AB00003133343838085838968C163028470BDA7
:103AC0000000014000040140828B22F008020A43FA
:103AD0008283704770B5028C22F480520284058C78
:103AE0008288838B23F4E04323F440760C884FF6DE
:103AF000FF7303EA0424344325F400558E8903EA56
:103B000006362E434D8803EA05353543084EB0424C
:103B100002D0084EB04205D122F480460A8A03EA58
:103B2000821232438280848389680164058470BD77
:103B30000000014000040140828B22F400624FF635
:103B4000FF7303EA0121114381837047416370478A
:103B500081637047C1637047016470474162704779
:103B6000028B22F00C020283028B0A43028370470D
:103B7000028B22F440620283028B4FF6FF7303EA4A
:103B800001210A4302837047828B22F00C02828358
:103B9000828B0A4382837047828B22F44062828345
:103BA000828B4FF6FF7303EA01210A438283704739
:103BB00030B50288164C174DA0420DD0A8420BD04C
:103BC000B0F1804F08D0144B984205D0134B984267
:103BD00002D0134B984203D122F070034A881A4353
:103BE000104B984206D0104B984203D022F44073F9
:103BF0000A891A4302804A68C2620A880285A04282
:103C000001D0A84201D1897A01860121818230BD8B
:103C10000000014000040140000400400008004092
:103C2000000C0040001000400014004002480168F1
:103C3000491C0160704700001C0A002011F0F0BF11
:103C400012F034B812F078B88A05C9430180704781
:103C500040F66A120A0A01219140C9430180704767
:103C6000002904D0818941F4005181817047818904
:103C700021F40051818170470246002012880A42D7
:103C800000D00120704770B5002440F66A12C1F3DD
:103C9000421301F01F05012606FA05F2012B0CD094
:103CA000022B0DD0838A1340090A8E4000883040D1
:103CB0000BB100B10124204670BD83891340F3E7A6
:103CC000038A1340F0E710B540F66A13C1F34213BC
:103CD00001F01F040121A140012B07D0022B07D0C6
:103CE00014303AB102680A43026010BD0C30F8E7A4
:103CF0001030F6E702688A43026010BD7FB50446C3
:103D00000D46208A20F44051E88808432082A0898B
:103D100041F20C618843A9882A8911436A890243C8
:103D20001143A181A08A20F44071A8890843A08290
:103D30006846FEF745FA1E48844202D01D48844278
:103D400001D1039800E00298A189090408D500EB8D
:103D5000C00101EB001029684900B0FBF1F007E059
:103D600000EBC00101EB001029688900B0FBF1F005
:103D70006422B0FBF2F109010B096FF018056B43E7
:103D800000EB8300A3891D044FF0320307D503EB3A
:103D9000C000B0FBF2F000F00700084306E003EBC0
:103DA0000010B0FBF2F000F00F00084320817FBD4F
:103DB00000100140001401408088C0F308007047E3
:103DC000C1F308018180704702A1012015F050FF66
:103DD000FEE7000055736167654661756C745F4866
:103DE000616E646C65720D0A000000000FB4054B33
:103DF00010B503A9044A029800F05CFD10BC5DF800
:103E000014FB000065030108800D00200FB4084B6F
:103E100010B504A902AA039800F04CFD044602A9BB
:103E2000002001F0CAF8204610BC5DF814FB000029
:103E3000BB4F000837B514460846064B6A46214674
:103E400000F038FD04466946002001F0B6F820462F
:103E50003EBD0000BB4F00084FF0553202EA500251
:103E6000801A4FF0333100F0333201EA90001044F1
:103E700000EB101000F00F3000EB102000EB1040B2
:103E800000F03F00704702E008C8121F08C1002A76
:103E9000FAD170477047002001E001C1121F002ACB
:103EA000FBD170472DE9F043ADF2044D0546DDF836
:103EB0002094DDF824840F460026B9F1010F01D0CB
:103EC00001244FE000200DF1040803E048F82050E1
:103ED0001C35401CB842F9DB7D1E1CE00026002486
:103EE00015E004F1010958F82900016858F8240088
:103EF0000068FCF724FA002808DD58F8240058F878
:103F0000291048F8241048F82900761C641CAC429B
:103F1000E7DB16B16D1E002DE0DC002409E058F847
:103F20002400036923B10268102110A003F076FA7F
:103F3000641CBC42F3DB00200DF2044DBDE8F083AD
:103F400058F824003A4629460BF030FD18B103F02A
:103F50007FFA064305E058F82410084803F05EFA9B
:103F60000126641C4C45EBDB3046E5E72020202091
:103F7000252D2A732D2025730D0A00008CC40608F8
:103F80002DE9F04F89B083460C4617460025A04620
:103F90000DF1040A1CE004F12009B94501D22026E4
:103FA00000E03E1B334601AA2146584600F029F89E
:103FB00000200AE0FF2D05D01AF80010FF2901D1DA
:103FC00004EB00081AF80050401CB042F2D34C46F3
:103FD000BC42E0D3FF2D03D0384609B0BDE8F08FD6
:103FE0004046FAE710B50024437D002B01D00120A4
:103FF00010BD80680AF0D0FF002800DA01242046B6
:1040000010BD70B50024457D002D01D0022070BD8B
:1040100080680AF0C9FF002800DA0224204670BD3B
:1040200070B50024457D002D01D0022070BD806850
:104030000AF0BCFF002800DA0324204670BDF0B56A
:104040000022491E0D46802609E000EBD10301F055
:1040500007071C7826FA07F31C4203D0521C491E9E
:104060004B1CF2D1A81AF0BD70B504460498154651
:10407000002C08D000291AD0002D2CD0227D002A37
:104080003DD0002070BD59A014F042FD5AA014F09C
:104090003FFD1A2259A163A014F03AFD644A65A1BC
:1040A00065A014F035FD6CA014F032FDFEE74FA0C2
:1040B00014F02EFD50A014F02BFD1B224FA159A08F
:1040C00014F026FD5A4A65A15BA014F021FD62A000
:1040D00014F01EFDFEE745A014F01AFD46A014F0F2
:1040E00017FD1C2245A14FA014F012FD504A5DA1FE
:1040F00051A014F00DFD58A014F00AFDFEE7216058
:1041000023712062607D00283AD10AF043FF2846DF
:104110000AF044FFA06000281ED00AF041FFE168C9
:10412000002928D0B1FBF0F200FB1210002823D0A8
:104130002EA014F0EDFC30A014F0EAFC44222FA1D4
:1041400038A014F0E5FC3A4A48A13BA014F0E0FC8A
:1041500041A014F0DDFCFEE724A014F0D9FC26A059
:1041600014F0D6FC294649A014F0D2FC3AA014F071
:10417000CFFC042070BDE060A0680AF013FF20614E
:10418000D4E90310B0FBF1F201FB1202002A13D0B4
:1041900016A014F0BDFC18A014F0BAFC4C2217A114
:1041A00020A014F0B5FC224A41A123A014F0B0FCD9
:1041B00029A014F0ADFCFEE7B0FBF1F0022813D209
:1041C0000AA014F0A5FC0CA014F0A2FC4E220BA136
:1041D00014A014F09DFC164A3EA117A014F098FC00
:1041E0001DA014F095FCFEE7002070BD5B466C61DD
:1041F000736844425D000000200000002E2E5C2EFB
:104200002E5C2E2E5C636F6D706F6E656E74735CCA
:10421000466C61736844425C7372635C6664622ED0
:10422000630000002825733A25642920000000005F
:1042300022940608646200002825732920686173AF
:1042400020617373657274206661696C65642061B6
:10425000742025732E0A00000D0A00006E616D6542
:1042600000000000706174680000000064622D3E70
:104270007365635F73697A65202520626C6F636B79
:104280005F73697A65203D3D203000004572726F92
:10429000723A20506172746974696F6E20282573B8
:1042A00029206E6F7420666F756E642E0A00000000
:1042B00064622D3E6D61785F73697A6520252064A4
:1042C000622D3E7365635F73697A65203D3D2030E2
:1042D0000000000064622D3E6D61785F73697A654D
:1042E000202F2064622D3E7365635F73697A6520B9
:1042F0003E3D20320000000070B504460D46002D02
:1043000016D0A07D002833D11BA014F001FC1DA005
:1043100014F0FEFB2079226800282AD01AA12B462F
:104320001BA014F0F5FBBDE8704024A014F0F0BB16
:1043300001252575224C2078002819D10EA014F0F3
:10434000E7FB10A014F0E4FB1EA120A014F0E0FB9A
:104350001AA014F0DDFB08A014F0DAFB09A014F099
:10436000D7FB234814F0D4FB14A014F0D1FB257024
:1043700070BD20A1D3E700005B466C6173684442C6
:104380005D00000020000000545344420000000083
:104390004572726F723A202573202825732920698F
:1043A0007320696E697469616C697A6520666169F8
:1043B0006C20282564292E0A000000000D0A000048
:1043C000B40C0020312E312E32000000466C617397
:1043D0006844422056257320697320696E697469A8
:1043E000616C697A6520737563636573732E0A0067
:1043F000F4B706084B56444200000000F0B5A1B0E7
:104400000446002600270497012084F82D00264842
:10441000CDE9010704AB002205A90094204613F062
:10442000D3FFA07D18B1049808B1022635E0D4E985
:104430000310B0FBF1F0049988420FD11BA014F0D7
:1044400067FB1EA0216814F063FB1EA014F060FB44
:1044500029A014F05DFB20460BF052F8A16909B1C8
:104460002046884725482346CDE90070002205A94B
:104470002046029713F0A8FF214D002322460BA9E6
:10448000204600950CF006FB94F82C0018B120464D
:104490000CF01AF8F1E784F82D70E16909B12046B3
:1044A000884721B03046F0BD856C00085B466C61E2
:1044B000736844425D5B6B765D0000005B25735D55
:1044C00020000000416C6C20736563746F7220687B
:1044D000656164657220697320696E636F727265CD
:1044E00063742E2053657420697420746F20646592
:1044F0006661756C742E0A000D0A0000AB6A000834
:10450000CD6A000870B5064615461C46002D0BD036
:10451000E01DC3082A463046FFF773FD21462846B2
:10452000BDE87040FFF78BBD09A014F0F1FA0DA0B3
:1045300014F0EEFAA4220CA116A014F0E9FA184A1D
:1045400018A11CA014F0E4FA22A014F0E1FAFEE78E
:104550005B466C61736844425D5B7574696C735D46
:1045600000000000200000002E2E5C2E2E5C2E2E5F
:104570005C636F6D706F6E656E74735C466C6173B7
:104580006844425C7372635C6664625F7574696CF4
:10459000732E63002825733A25642920000000004B
:1045A000969806087374617475735F7461626C65C4
:1045B000000000002825732920686173206173734F
:1045C000657274206661696C65642061742025736E
:1045D0002E0A00000D0A000070B5064615464FF081
:1045E000FF34C91DC908FF223046FBF779FE45B1EB
:1045F000681EC40805F00702305DFF21D140084065
:104600003055204670BD0000F8B51446DDE9062798
:104610000E46054619468A4213D31CA014F078FAB8
:104620001FA014F075FA8D221EA129A014F070FAB3
:104630002A4A2BA131A014F06BFA38A014F068FAC2
:10464000FEE764B12046FFF7C7FF411C1BD02218CC
:104650003118012328460097FFF7E2FCF8BD0BA0B4
:1046600014F056FA0EA014F053FA8E220DA118A0E1
:1046700014F04EFA194A2AA120A014F049FA27A0F2
:1046800014F046FAFEE70020F8BD00005B466C61BE
:10469000736844425D5B7574696C735D0000000073
:1046A000200000002E2E5C2E2E5C2E2E5C636F6D83
:1046B000706F6E656E74735C466C61736844425CC7
:1046C0007372635C6664625F7574696C732E6300F9
:1046D0002825733A256429200000000084980608E4
:1046E0007374617475735F696E646578203C2073C0
:1046F00074617475735F6E756D00000028257329F1
:104700002068617320617373657274206661696CDF
:1047100065642061742025732E0A00000D0A0000D4
:104720007374617475735F7461626C65000000007E
:104730002DE9FF5F82B00021DDE90430020DDDF8D4
:1047400040B0034318D044F61050A2F2FF32424367
:104750001514119801281FD0A5EB0B00401C5FEA2F
:10476000000A4FF000064E4FDFF83891B046504631
:1047700015D5CAF1000413E0119801244AA30128B9
:1047800001D16FEA0B010298119AC0E90031C0E92A
:10479000024206B0BDE8F09FCBF10000DFE704461F
:1047A0000021404A491842EB0450CDE9001012E0C4
:1047B000E00707D032463B4640464946FBF77DFFBF
:1047C0008046894632463B4610461946FBF775FF40
:1047D00006460F466410002CEAD1DDE90401DDE94C
:1047E0000023BAF1000F06DAFBF767FF42464B469B
:1047F000FBF763FF05E0FBF7D2FF42464B46FBF7B2
:10480000CEFF04460E460022284BFCF74FF803D893
:104810004FF0FF30014607E00022254B204631468D
:10482000FBF7DFFDFCF72AF8102409E0002C0ADB77
:104830000A220023FBF792FE039B30321A55641EB6
:1048400050EA0102F2D1641C039AC4F1110314442A
:10485000119A012A03D0012208430DD10AE008432E
:1048600004D000204FF0110B119072E7A3EB0B0561
:104870006D1E0DE05B4504DD4FF0000205F1010502
:1048800004E003DA4FF00002A5F10105002AECD0A4
:1048900002981199C0E90231C0E9004579E70000AA
:1048A000000014400000F03F300000000000F04322
:1048B0000000E03F2DE9FF4F95B09A468846064636
:1048C0000025EEE1252877D100242746F94A012169
:1048D000039400E0044316F8013F203B01FA03F083
:1048E0001042F7D130782A2811D06FF02F0330789A
:1048F000A0F13002092A16D8039A44F0020402EB10
:10490000820203EB42021044761C0390EFE758F852
:10491000042B0392002A03DA504244F4005403901B
:1049200044F00204761C30782E2816D116F8010FB8
:1049300044F004042A280DD06FF02F023078A0F143
:104940003003092B09D807EB870302EB4303C71891
:10495000761CF3E758F8047B761C30786C280FD06F
:1049600006DC4C2817D068280DD06A2814D104E042
:10497000742810D07A280FD10DE044F400140AE016
:1049800044F4801401E044F440147278824202D16D
:1049900004F58014761C761C307866280BD013DC66
:1049A000582877D009DC002875D04528F6D046284D
:1049B000F4D047281AD193E118E0632835D0642851
:1049C00079D0652812D18BE1702873D008DC672874
:1049D000F1D069286FD06E280DD06F2806D1ACE0D9
:1049E00073282CD0752874D0782853D05246179944
:1049F00090476D1C54E1C4F30250022809D00328EB
:104A00000DD0D8F8001004280DD00D6008F104086E
:104A100046E1D8F80010EA17C1E90052F6E7D8F8E5
:104A200000100D80F2E70D70F0E718F8041B8DF808
:104A3000001000208DF80100EB46012003E058F83B
:104A400004BB4FF0FF3061074FF0000102D40DE0CE
:104A500009F101018946B9420FDA8145F8DB1BF8FB
:104A600009100029F4D108E009F1010189468142C9
:104A7000FADB1BF809100029F6D103985346A0EB86
:104A8000090721463846179A00F080FA284400EBBF
:104A9000090507E044E008E10DE01BF8010B524670
:104AA00017999047B9F10109F7D253462146384684
:104AB000179AF2E039E00A21C4F302524FF0000BDA
:104AC0000091022A06D058F8040BC117032A09D016
:104AD0000AE023E008F1070020F00702F2E80201F3
:104AE000904605E000B2C117042A01D140B2C117B7
:104AF000002906DA0A460021404261EB02012D221C
:104B000002E0220504D52B228DF80420012203E0C7
:104B1000E20701D02022F7E7914657E00A2100E0A2
:104B200010214FF0000B00910BE010214FF0000B13
:104B300044F004040827009103E008204FF0000B24
:104B40000090C4F30252022A05D058F8040B002149
:104B5000032A08D008E008F1070020F00702F2E875
:104B60000201904603E080B2042A00D1C0B24FF0A7
:104B7000000922072AD53278702A07D0DDF800C054
:104B80008CF0100C5CEA0B0C05D00EE040228DF886
:104B90000420012208E050EA010306D030238DF8FA
:104BA00004308DF8052002229146009B83F0080313
:104BB00053EA0B030AD150EA010201D1620705D57D
:104BC00030228DF804204FF001097F1E3278582AD8
:104BD00004D039A20C920CAA02920BE03BA2F9E796
:104BE0005B46009AFBF7BAFC0C9B9B5C029A521E38
:104BF0000292137050EA0102F2D1029804A9081A35
:104C000000F1200B600702D524F4803400E0012776
:104C10005F4502DDA7EB0B0000E0002000EB0B017D
:104C2000009003984944401A0390E00306D4534689
:104C30002146179A039800F0A9F90544002706E0D9
:104C400001A85246C05D179990476D1C7F1C4F45C7
:104C5000F6DBE0030CD553462146179A039800F083
:104C600095F9054404E030205246179990476D1C91
:104C70000099481E00900029F5DC08E0029802998E
:104C800052460078491C0291179990476D1CBBF160
:104C90000001ABF1010BF1DC5BE100F065F90544CB
:104CA000761C307800287FF40DAE19B02846BDE898
:104CB000F08F0000092801003031323334353637A7
:104CC0003839616263646566000000003031323358
:104CD00034353637383941424344454600000000F8
:104CE000600700D4062708F1070020F00700F0E86D
:104CF0000223804603F0004C5FEA0C0001D097A02D
:104D000009E0200501D596A005E0E00701D095A0B7
:104D100001E0AFF24C001390307823F00043652897
:104D20000CD006DC452809D046281DD047287FD165
:104D30003BE0662818D067287AD136E00021112F91
:104D400001DB112000E0781CCDE9000104A90CA8CA
:104D5000FFF7EEFCDDE90D010C9A4FF0000B07F1B7
:104D60000109109200914EE04FF000400097CDE90C
:104D7000011004A90CA8FFF7DBFCDDE90D020C9B78
:104D80000F994FF0000B91461093009211B9791CC6
:104D900000EB0109B7EB090003D4C0F1FF3B07F1B9
:104DA0000109A9EB0700019042E0012F00DA012779
:104DB0000021112F01DD112000E03846CDE900016E
:104DC00004A90CA8FFF7B4FCDDE90D010C9A0091D1
:104DD0004FF0000BB946109221070FD4009A4A45B4
:104DE00003DA914601E0A9F10109B9F1010F05DDEE
:104DF000109AA9F10101515C3029F4D0B84202DACD
:104E000010F1040F03DA0121CDE9011010E00028B0
:104E100003DC8344A9EB000102E0411C494500DDAD
:104E20008946A0EB0B00401C01904FF0004002901F
:104E3000200705D40198484502DB4FF0FF30019070
:104E400000208DF84B0002980DF14B07B0F1004F98
:104E500025D002200C902B200D90029800280CDA0F
:104E6000404202902D200D9007E00A210298FBF7A6
:104E70005FFB3031029007F8011D0C99481E0C9021
:104E80000029F2DC02980028EFD1791E0D980870F5
:104E9000307800F0200040F0450007F8020D11A81E
:104EA000C01BC01D02901398007800B1012000EBD8
:104EB0000901019801EBE071029801440398401A3E
:104EC000401E0390E00306D453462146179A0398E8
:104ED00000F05CF805441398007818B15246179911
:104EE00090476D1CE00323D553462146179A03983B
:104EF00000F04CF805441BE0BBF1000F07DB009805
:104F0000584504DD1098179910F80B0001E0179927
:104F100030205246904701980BF1010B401E05F1DD
:104F20000105019004D12E205246179990476D1C1F
:104F3000B9F10001A9F10109DEDC05E017F8010B68
:104F40005246179990476D1C0299481E02900029FD
:104F5000F4DC53462146179A03989EE62D00000084
:104F60002B000000200000002DE9F0410446002540
:104F70001E461746880404D405E039462020B04771
:104F80006D1C641EF9D52846BDE8F0812DE9F0417D
:104F9000044600251E469046C80301D5302700E090
:104FA0002027880404D505E041463846B0476D1CEB
:104FB000641EF9D52846BDE8F0810A68531C0B60D1
:104FC0001070704710B50024002808D000F00DF8CC
:104FD000B0F1804F03D20C2800D80C2004462046A4
:104FE00010BD491E0140401A70470844401E491E2A
:104FF000884370472DE9FC4104460D4616461F467E
:1050000001A80121FF22FBF76BF9002000903B462D
:10501000324629462046FFF703F8BDE8FC81000030
:105020002DE9F0418AB004460F464FF0FF30099059
:105030000025089507950494059209A80690234831
:10504000CDE9010507A9009108AB002239462046A9
:1050500013F0BAF9DFF878800798012640B1CDE95E
:10506000018604AB022239462046009513F0ACF9C4
:105070000898002826D00999491C23D1012802D874
:1050800094F82C0048B1CDE9018604AB01223946E1
:105090002046009513F098F914E00EA013F038FDA7
:1050A00010A0216813F034FD4FF452720FA11AA022
:1050B00013F02EFD1BA013F02BFD25A013F028FDEF
:1050C00084F82C6009980AB0BDE8F08121840108B9
:1050D000555100085B466C61736844425D5B6B76BA
:1050E0005D0000005B25735D200000002E2E5C2E0D
:1050F0002E5C2E2E5C636F6D706F6E656E74735CCC
:10510000466C61736844425C7372635C6664625FA0
:105110006B7664622E6300002825733A256429208B
:105120000000000054726967676572206120474380
:1051300020636865636B20616674657220616C6CC6
:105140006F63204B56206661696C65642E0A00000F
:105150000D0A00000278002A0CD002694B689A42BE
:1051600008D98278012A07D0022A03D10A6892F866
:105170002C200AB10020704789684069086001202E
:10518000704700000B490028096802D0012806D0AA
:105190000DE0486AC861886A4010088407E0D1E9D8
:1051A000092020F001031A44CA614010088400203D
:1051B00070470000EC09002010B505A1FBF7BFF80F
:1051C000002803D1BDE8104010F048B910BD000020
:1051D000776D3839373800002DE9F04707460E461D
:1051E0000024DE2252A1A42014F06CFD0546280004
:1051F00077D00121384614F057FC2860002873D07E
:1052000005F1100180220F4614F0C0FC214654A085
:1052100013F07EFC394655A013F07AFC05F13001FD
:1052200052A013F075FC53A013F072FC54A0296D2A
:1052300013F06EFC56A0696D13F06AFC58A0A96DBE
:1052400013F066FC5AA0E96D13F062FC5DA0296EB4
:1052500013F05EFC60A0696E13F05AFCFA2234A1D0
:105260001C2014F02FFD0446200042D05E48206030
:105270005E48606026810C2E40D0102E43D060899D
:10528000182845D006EB860040000C21B0FBF1F059
:105290006081701E6073002727730120A073DFF800
:1052A0005091C4F81490F01DC00870431FFA80F8A4
:1052B0004FF48D721EA1404614F004FDA860C5F89D
:1052C0000480052028736873AF73C5F8907025615A
:1052D0000C2E22D0102E23D0182E21D022E000E058
:1052E00002E00020BDE8F087284614F0B5FC00205D
:1052F000F8E7284614F0B0FC0020F3E70A206081AC
:105300000B206073C7E70E2060810F206073C2E737
:105310001420608117206073BDE7C4F8149001E089
:105320003448606134A1042014F0A2FC2046D9E77F
:105330002E2E5C2E2E5C2E2E5C636F6D706F6E6554
:105340006E74735C506574697465666F6E745C66C8
:105350006F6E745F756E69636F64652E6300000025
:10536000726C656E3A25640D0A00000025730D0A03
:105370000000000073686966743A0D0A00000000BE
:105380000920706978656C773A25640D0A00000081
:105390000920706978656C683A25640D0A00000080
:1053A0000920746F74616C3A25640D0A00000000D6
:1053B0000920756E69636F64655F7461623A256484
:1053C0000D0A000009206269746D61705F68656193
:1053D000643A25640D0A000009206269746D6170E9
:1053E0003A25640D0A00000079550008DD540008D4
:1053F000600D0020340D0020776A7120666F6E7496
:1054000020637265617465207375636365737321CE
:105410000D0A00002DE9F84305468846D5F89000AE
:10542000254F404502D13888BDE8F8830024B5F8FF
:105430005800401E86B2414620A013F069FB36E0BA
:10544000301B00EBD07004EB600080B23880E96D57
:10545000002201EB4001286814F04CFA0222694650
:10546000286814F093FBBDF80000404515D1398839
:1054700016A013F04DFB3988286E002200EB0111B5
:10548000286814F037FA102205F19401286814F006
:105490007DFBC5F890803888C6E704D93888A0F12C
:1054A000010086B203E0388800F1010084B2B44202
:1054B000C6D94FF0FF30B7E77C0D0020756E6963E9
:1054C0006F64653A20253034780D0A00696E646592
:1054D000783A2025640D0A0D0A0000002DE9F041FC
:1054E000802904D240694268BDE8F0411047046950
:1054F00089B22046FFF78EFF401C22D004F19405AC
:10550000E8886988484386B26068B04209D2A068DA
:1055100014F0A2FBC6220CA1304614F0D3FBA0600D
:105520006660A768606EE96800220144206814F094
:10553000E1F932463946206814F028FB3846BDE8C8
:10554000F0810020FBE700002E2E5C2E2E5C2E2E1C
:105550005C636F6D706F6E656E74735C50657469BB
:105560007465666F6E745C666F6E745F756E69638A
:105570006F64652E6300000070B506460C46802AF5
:105580000DD2706921460568A847002806D07269C7
:1055900071895289891AA2891144A18170BD356926
:1055A00091B22846FFF736FF401C13D09435288867
:1055B000A080A888E080688820812889608170891F
:1055C0006989401AA081A07B20F00F00401CA073C5
:1055D000012070BD002070BD10B50446084600F0E3
:1055E000E7F86168001D08446060204600F028F874
:1055F000204610BD10B50C4600F0DAF81034A04279
:1056000001D3012010BD002010BD083870477CB5C3
:1056100005460C46204600F0CBF86A4601A90FF07B
:1056200010FCDDE90032214628460BF001FA7CBD72
:10563000007900F001007047007900F00200704727
:1056400010B50446204600F065F8046010BD7CB536
:1056500005460846002101910091002400280CD045
:105660006A4601A90FF004FC0198182805DA6A4679
:1056700001A9284612F07EFE04462CB1DDE9003275
:105680002146284612F038FD20467CBD10B5044660
:105690002046FFF7D5FF00F076F82046BDE8104021
:1056A00000F06CB810B50446204600F033F800F066
:1056B0006FF82046BDE8104000F075B870B505469B
:1056C0000C46204600F026F806463046FFF7B0FFAD
:1056D00040B13146284600F040F831462046FFF7F9
:1056E0007BFF0446204670BD70B506460D46284631
:1056F000FFF7A2FF60B1284600F02DF804462146CE
:10570000304600F02AF829462046FFF765FF054697
:10571000284670BD70B50546284600F049F8041FBC
:10572000284600F064F82146BDE8704010F018BE2D
:1057300010B503460C460020002C0BD0214618461D
:1057400000F057F82046FFF7ADFF2046BDE81040B7
:1057500000F04DB810BD006870477CB505460C469A
:10576000204600F025F86A4601A90FF06AFBDDE942
:1057700000322146284612F0BFFC7CBD416841F052
:10578000010141607047416841F00201416070478A
:10579000416821F0020141607047027902F0030282
:1057A0000A4342607047416821F00101416070473F
:1057B000406820F00300704770B506460C4630463E
:1057C00000F015F8211F10F0CBFD05463046FFF71D
:1057D000EFFF011B091F2846FFF7DFFF2146304678
:1057E000FFF7DBFF2846FFF751FF284670BD083062
:1057F000704770B506460D46144621462846FFF709
:10580000F9FE002810D021462846FFF7D5FF0446B0
:105810002846FFF715FF2046FFF7B5FF2146304623
:10582000BDE87040FFF7F3BE70BD70B506460C468C
:10583000154629462046FFF7DDFE002811D02946EF
:105840002046FFF7B9FF04462046FFF7A1FF214697
:105850003046FFF733FF01463046BDE87040FFF7A2
:10586000D6BE70BD10B5094A0021094810F041FEAE
:105870000849886020B108A1032014F0F9F903E079
:105880000DA1032014F0F4F9002010BDD4930608F4
:10589000D9580008040C00205B202020205F617094
:1058A000705D206672656572746F732053636865FE
:1058B00064756C65720D0A005B202020205F6170AA
:1058C000705D20785461736B437265617465206606
:1058D00061696C0D0A00000008B517A1042014F0DE
:1058E000C7F912F0EDFC0AF09FFA05211CA014F094
:1058F000DBF80446002C1BDD0020009004226946E2
:10590000204614F043F91AA10320009A14F0B0F9CC
:105910000098401C009000221146204613F0EAFF38
:1059200004226946204614F05BF9204613F0A8FED5
:1059300014F012FAFEE700005B202020626F617213
:10594000645D2072756E20617070207461736B21CC
:1059500020323032302E31302E3135200D0A000009
:105960002F6D7464302F626F6F74636E740000006B
:10597000626F6F7420636E743A25640D0A00000034
:1059800010B518A1042014F073F90FF059FB1F484B
:1059900011F002F81E4811F003F902F0D5FC1D4881
:1059A00002F05EFC02F08EFC1B4813F08FF802F050
:1059B0003FFF0FF0BBFAFBF795F800F007F9FBF794
:1059C000A7FA01F005F815A002F00CFF1148801DA0
:1059D00002F068FC0FF048FD02F0B6FFFFF742FF4F
:1059E000002010BD5B202020626F6172645D207713
:1059F000756A69717565206F746865722064657673
:105A000020696E6974212A2A2A0D0A00E00A002002
:105A1000180B0020100C0020F0CD0108564932432D
:105A20003100000010B502F055FC0648006800B1D6
:105A3000804702F0C3FC0AF0EBFCBDE8104002F026
:105A40005DBF00000800001010B500214FF000609D
:105A5000FCF708F81948FCF7B3FB0FF0A7FD00F0BE
:105A600083FC174917A000F089FC184908600FF063
:105A7000BFF917A1032014F0FBF822A1032014F0B2
:105A8000F7F829A1032014F0F3F80C4C32A10320FD
:105A9000226814F0EDF837A10320626814F0E8F8EA
:105AA0003BA10320A26814F0E3F840A10320E268C0
:105AB00014F0DEF80FF0CAFD002010BD048C0120A8
:105AC000647E04087561727433000000E00B0020EE
:105AD0000D0A0D0A0D0A2A2A2A2A2A2A2A2A2A2ADD
