:020000040800F2
:10000000F0AF012061020008F91C0008291B00085C
:10001000D91C0008790D0008C54200080000000046
:10002000000000000000000000000000A101000826
:100030003515000800000000FD010008013C000823
:100040007B0200087B0200087B0200087B0200089C
:100050007B0200087B0200087B0200087B0200088C
:100060007B0200087B0200087B0200087B0200087C
:100070007B0200087B020008B5110008E1110008AE
:100080007B0200087B0200089F0A00087B02000830
:10009000990D00087B0200087B0200087B02000823
:1000A0007B0200087B0200087B0200087B0200083C
:1000B0007B020008393D00087B0200087B02000833
:1000C0007B0200087B0200087B0200087B0200081C
:1000D0007B020008394100083D4100084141000809
:1000E0007B0200087B0200087B0200087B020008FC
:1000F0007B0200087B0200087B0200087B020008EC
:100100007B0200083D2C00083D3D00087B020008F2
:100110007B0200087B0200087B020008413D0008CA
:100120007B0200080D1200087B020008391200084B
:100130007B0200087B0200087B0200087B020008AB
:100140007B0200087B0200087B0200087B0200089B
:100150007B0200087B0200087B0200087B0200088B
:100160007B0200087B0200087B0200087B0200087B
:100170007B0200087B020008E51000087B020008F3
:100180007B0200087B020008DFF810D000F0FAFBC9
:10019000004800475BD10008AFF30080F0AF0120BA
:1001A0002C4B19680868B0E8F04F80F30988BFF35A
:1001B0006F8F4FF0000080F311887047000000003F
:1001C00008480068006880F308884FF0000080F35A
:1001D000148862B661B6BFF34F8FBFF36F8F00DF35
:1001E00000BF00BF08ED00E0DFF80C00016841F43B
:1001F00070010160704700BF88ED00E0EFF30980F7
:10020000BFF36F8F134B1A681EF0100F08BF20ED5D
:10021000108A20E9F04F106009B44FF0500080F3CD
:100220001188BFF34F8FBFF36F8F11F071FE4FF046
:10023000000080F3118809BC19680868B0E8F04F25
:100240001EF0100F08BFB0EC108A80F30988BFF3CE
:100250006F8F7047F8090020EFF3058070470000AA
:100260000648804706480047FEE7FEE7FEE7FEE750
:10027000FEE7FEE7FEE7FEE7FEE7FEE7113C0008CB
:10028000890100082DE9FE43994615468846074630
:1002900001AC022942D3002D40D000200290A8F1E9
:1002A00001004FF0FF36009022E000FB057201FBD9
:1002B000057011464A469047002805DC54F8260090
:1002C000304444F8260013E060682A4600FB0571BC
:1002D00054F8040C00FB057007E00B7890F800C0A0
:1002E00001F801CB00F8013B521E002AF5D17642FD
:1002F00054F8040C61688842D7DC4B462A463846DD
:10030000FFF7C0FF54F8040C4B46A8EB0001401C5B
:1003100000FB05702A46491EFFF7B4FFBDE8FE83C7
:1003200040EA01039B0703D009E008C9121F08C077
:10033000042AFAD203E011F8013B00F8013B521EF7
:10034000F9D27047D2B201E000F8012B491EFBD26E
:1003500070470022F6E710B513460A4604461946D0
:10036000FFF7F0FF204610BD421E12F8013F002BA0
:10037000FBD111F8013B02F8013B002BF9D170478A
:10038000421C10F8011B0029FBD1801A704710B5E0
:10039000002200E0521C835C8C5CA34201D1002B44
:1003A000F8D1D8B2E1B2401A10BD034611F8012BC2
:1003B00000F8012B002AF9D1184670472DE9FE4FAD
:1003C000804681EA0300C00F0C46009021F00041F6
:1003D00023F00045B8EB0200A94105D24046214672
:1003E00090461C460B46024623F00040104347D07F
:1003F000270DC7F30A00C3F30A510290401A019077
:1004000040286BDAC3F3130040F4801B0098924637
:1004100020B10023D2EB030A63EB0B0B0198594682
:10042000C0F14002504600F0E6F806460D46504640
:100430005946019A00F0EEF810EB080061410024E3
:1004400087EA115284EAE7731A4340D0009A62B3F4
:10045000019A012A4FEA075215DC001B61EB0201E9
:100460004FF0004202EA0752CDE90042001C41F57C
:10047000801132462B4600F025F903B0BDE8F08F1D
:1004800040462146F9E7001B61EB0201001C41F5E3
:10049000801300185B412018A2F5001747EB0301F9
:1004A00040EAD570B6196D4111E06D084FEA360685
:1004B00045EAC0754FEA0752001B61EB0201001CC0
:1004C00041F5801149084FEA300000195141324688
:1004D0002B4603B0BDE8F04F00F0E5B800980122CC
:1004E00040000023D0EB020263EBE073009821464A
:1004F0004FEAE074B8EB000061EB0401E9E783F038
:1005000000435BE781F0004158E700F0004230F023
:1005100000400AD0C10D01F56071C0F3160042EA37
:100520000151C2084007114370470020014670473F
:1005300001F0004330B421F0004150EA010206D03E
:100540000A0DA2F56072C1F31301002A02DC30BC6F
:1005500000207047440F44EAC104C100E01830BCD9
:1005600000EBC25000F068B830B50B4601460020E1
:100570002022012409E021FA02F59D4205D303FA65
:1005800002F5491B04FA02F52844151EA2F10102E6
:10059000F1DC30BD2DE9F05F0546002092469B4618
:1005A00088460646814640241BE028464146474689
:1005B000224600F0F9F953465A46C01A914110D329
:1005C00011461846224600F016F82D1A67EB01086E
:1005D0004F4622460120002100F00DF817EB0009DC
:1005E0004E41201EA4F10104DFDC484631462A4674
:1005F0004346BDE8F09F202A04DB203A00FA02F1CE
:10060000002070479140C2F1200320FA03F3194300
:1006100090407047202A06DBCB17203A41FA02F0BF
:1006200043EAE07306E041FA02F3D040C2F120024F
:1006300091400843194670470029A8BF7047401CE5
:10064000490008BF20F00100704710B4B0FA80FCE8
:1006500000FA0CF050EA010404BF10BC704749B125
:10066000CCF1200421FA04F411FA0CF118BF012195
:1006700021430843A3EB0C01CB1D4FEA00614FEA75
:10068000102042BF002010BC704700EBC350104444
:100690000029A4BF10BC7047401C490008BF20F0CF
:1006A000010010BC704710B5141E73F1000408DA85
:1006B000401C41F1000192185B411A4301D120F026
:1006C000010010BD2DE9F04D92469B4611B1B1FAE3
:1006D00081F202E0B0FA80F220329046FFF78BFF01
:1006E00004460F4640EA0A0041EA0B0153465A46C7
:1006F000084313D0114653EA010019D0C8F1400253
:10070000504600F051F905460E46504659464246BD
:10071000FFF771FF084305D0012004E02046394669
:10072000BDE8F08D0020054346EAE0762C433743D0
:100730000A986305E40AA0EB08000022FD0A44EAD7
:1007400047540A3002D500200146E9E70105101997
:100750006941DDE9084500196941BDE8F04DA2E7AE
:100760002DE9FE4F81EA030404F0004421F000412A
:1007700000944FF0000B23F0004350EA01045ED0D8
:1007800052EA03045BD0C3F30A54C1F30A552C4464
:10079000A4F2F3340194A0FB0254C1F3130141F419
:1007A0008011C3F3130343F4801301FB024400FBE5
:1007B000034E840A970A44EA815447EA8357A4FB0C
:1007C000076802958D0A05FB07854FEA932C04FB09
:1007D0000C542705029D4FEA065847EA1637B5EB39
:1007E00008056EEB070C870E920E47EA811742EA66
:1007F0008312A7FB0201B6EB0B0164EB00042B0D87
:1008000043EA0C335E1844EB1C50DA465146E7FBD2
:100810000201C5F313044FEA0B3343EA14534FEAC2
:100820000432019C43EA0603A4F10C040294009CE8
:10083000CDE900B4FFF746FF03B0BDE8F08F00201C
:100840000146F9E72DE9F04D81EA030404F0004B7D
:1008500021F0004514464FF0000A23F0004150EA11
:10086000050220D054EA01021DD0C5F30A57024602
:10087000C5F31303C1F31300C1F30A5640F4801506
:1008800043F48013A7EB0608101BD64608F2FD3888
:1008900073EB050002D308F1010801E092185B41F7
:1008A000B8F1000F03DA00200146BDE8F08D00200A
:1008B0004FF48011064684460EE0171B73EB0507C4
:1008C00005D3121B63EB050306434CEA010C4908F0
:1008D0004FEA300092185B4150EA0107EDD152EA2D
:1008E000030012D082EA040083EA0501084305D020
:1008F000101BAB4106D20122002306E000224FF07C
:10090000004302E06FF0010253101AEB06004CEBBB
:10091000085110EB0A0041EB0B01BDE8F04DFFF769
:10092000C2BEC1F30A52C1F3130140F2FF3341F4D6
:1009300080119A4202DA00200146704740F23343A8
:100940009A42A2F2334202DC524200F02DB8FFF785
:1009500052BE000030B5041E71F1000404DB4FF0FC
:100960000044404264EB0101141E73F1000405DBF6
:100970001C464FF00043524263EB0403994208BF08
:10098000904230BD064C074D06E0E06840F00103A0
:1009900094E8070098471034AC42F6D3FFF7F8FB11
:1009A0000053060840530608202A04DB203A21FAA7
:1009B00002F00021704721FA02F3D040C2F1200278
:1009C000914008431946704770B58C1810F8015BC8
:1009D00015F0070301D110F8013B2A1106D110F8D8
:1009E000012B03E010F8016B01F8016B5B1EF9D1DC
:1009F0002B0705D40023521E0DD401F8013BFAE762
:100A000010F8013BCB1A921C03E013F8015B01F8CC
:100A1000015B521EF9D5A142D8D3002070BDC94355
:100A200001607047090AC94301607047002904D07A
:100A3000816841F0010181607047816821F0010106
:100A40008160704710B5074C226807490A40D0E919
:100A500000131943D0E902300343194311432160C5
:100A600010BD000004230140E030FCFFC06C80B2E8
:100A700070470246002012680A4200D001207047E9
:100A800030B5024600200B0A546801258D402C40E9
:100A90001168194202D0002C00D0012030BD0CF0AA
:100AA00069BB000030B542680F4B1A400C790B68E7
:100AB00042EA04221343436083680C4A1340D1E99D
:100AC000034222434D798C6844EA450422431A4389
:100AD0008260C26A22F47002097D491EC9B242EAEC
:100AE0000151C16230BD0000FFFEFFFCFDF7FFC0F9
:100AF00070B5072609290AD9C568A1F10A0404EBD3
:100B00004404A640B543A3401D43C56007E0056902
:100B100001EB4104A640B543A3401D4305611F23DB
:100B2000072A09D2446B521E02EB820293409C4377
:100B300091400C43446370BD0D2A09D2046BD21F4F
:100B400002EB820293409C4391400C43046370BDCE
:100B5000C46A0D3A02EB820293409C4391400C43DD
:100B6000C46270BD0849002806D0D1F8040340F4DF
:100B70000000C1F804037047D1F8040320F400001A
:100B8000C1F80403704700000020014070B586B032
:100B900004460D4616460121084601F025FD0223B4
:100BA000ADF808300023ADF80A30ADF80C40ADF8D0
:100BB0000E50ADF81060ADF81230ADF8143002A848
:100BC00000F0AEFA0121084600F09AFA4E208DF8A6
:100BD000040001208DF805008DF806008DF807004F
:100BE00001A801F097F806B070BD00002DE9F041B2
:100BF00090B080460F4616461C46244D284600F00D
:100C000055FB04B901244FF0007001902048029078
:100C100003970023049305940693012C01D80793AE
:100C200002E04FF4806007904FF48050089040003D
:100C30000990B8F1000F25D00A934FF400300B90C3
:100C400004200C9003200D900E930F9301A92846C9
:100C500000F046FC76B100223946284600F0C8FB79
:100C60004FF400223146284600F0C2FB01212846FD
:100C700000F0B2FB01221021284600F017FC10B052
:100C8000BDE8F0814FF480700A90D6E728640240F6
:100C9000280005502DE9FC4100F0F8FF0121172044
:100CA00001F094FC304C0D220421204600F020FF7E
:100CB0000D220621204600F01BFF0D2209212046AF
:100CC00000F016FF294D0D220621284600F010FFE6
:100CD0000D220721284600F00BFF254E0D2207218B
:100CE000304600F005FF234F0D220021384600F06A
:100CF000FFFE0D220121384600F0FAFE0D220421EC
:100D0000384600F0F5FE0D220521384600F0F0FED1
:100D10000D220621384600F0EBFE4FF414710091CD
:100D200002218DF8041003218DF8051000218DF8A3
:100D3000061001208DF807006946204600F09AFE53
:100D4000C02000906946284600F094FE8020009064
:100D50006946304600F08EFE7320009069463846A2
:100D600000F088FEBDE8FC81000002400004024063
:100D7000000802400010024002A1012011F07AFB9D
:100D8000FEE700004275734661756C745F48616EE2
:100D9000646C65720D0A00000CF078BA10B500EBB7
:100DA0000113D3F8B04104F004041472002C2CD0C9
:100DB000D3F8B041E408546003F5D8731C6804F01C
:100DC000020454725C6804F00F0494725C68240A94
:100DD000D4749C68D4729C68240A14739C68240C94
:100DE00054739C68240E9473DC68D473DC68240A02
:100DF0001474DC68240C5474DB681B0E937449B1C2
:100E0000016941F02001016110BDD3F8B041640DCA
:100E10001460D1E7C16841F02001C16010BD70B518
:100E200000254FF4803400E0641E24B1802001F0DE
:100E3000DFFE0028F8D02CB140F2FF5001F096FE02
:100E4000284670BD032070BD70B5054600243B499F
:100E5000086800E0086810F0450FFBD0410705D591
:100E60000324042001F082FE204670BDC00705D097
:100E70000124012001F07AFE204670BD01F0B2FE8F
:100E8000A84201D0102070BD40F2FF5001F06EFE6C
:100E9000002001F0C9FE2A49084201D1204670BD58
:100EA000002801DA1C2070BD410001D5092070BD69
:100EB000810001D50A2070BDC10001D50B2070BD95
:100EC000010101D50C2070BD410101D50D2070BD7F
:100ED000C10101D50E2070BD010201D50F2070BDEA
:100EE000410201D5102070BD810201D5112070BDD5
:100EF000C10201D5122070BD010301D5132070BDC0
:100F0000410301D5142070BD810301D5152070BDAA
:100F1000C10301D5162070BD010401D5172070BD95
:100F2000410401D5182070BD810401D5192070BD80
:100F3000000701D51A2070BD204670BD342C014039
:100F400008E0FFFD10B500240E4A116800E01168AA
:100F500011F0450FFBD0480705D50324042001F00C
:100F600005FE204610BDC80705D00124012001F070
:100F7000FDFD204610BD40F2FF5001F0F7FD204678
:100F800010BD0000342C014010B500240A4A11683D
:100F900000E0116811F0450FFBD0480705D5032488
:100FA000042001F0E3FD204610BD40F2FF5001F0A7
:100FB000DDFD204610BD0000342C014070B5064612
:100FC0000C4600251C4A106800E0106810F0450F20
:100FD000FBD0410705D50324042001F0C7FD2046BE
:100FE00070BDC00705D00124012001F0BFFD2046DF
:100FF00070BD01F0F7FDB04201D0102070BD40F28D
:10100000FF5001F0B3FD002001F00EFE10F4604F20
:1010100003D0810405D5132070BD000C2080284624
:1010200070BD410401D5102070BD000401D50F2012
:1010300070BD284670BD0000342C014010B5002062
:101040004FF480310D4B1A6801E0491E1A6812F006
:10105000450F01D10029F8D109B1510705D5032465
:10106000042001F083FD204610BD5106FCD500246C
:10107000402001F07BFD204610BD0000342C0140D3
:101080000649002804D0086840F001000860704755
:10109000086820F00100086070470000000005505B
:1010A00001494861704700000000055006490028CA
:1010B00004D0086840F4804008607047086820F455
:1010C0008040086070470000000005500246002084
:1010D000034909691140002900D001207047000030
:1010E0000000055010B50120FFF7F0FF012805D1E1
:1010F000FFF7D6FFBDE810400CF010B910BD00009E
:10110000064A002903D0D1680143D1607047D168F5
:10111000C04380B20140D16070470000000005501C
:1011200030B50D490A6844F201039A430A600A681F
:1011300040F6F2739A4303884488C5882343848821
:101140002C43234304892343448980892343034355
:1011500013430B6030BD0000000005501CB5012199
:10116000102001F033FA0C20009002208DF80500C9
:1011700001208DF8040000218DF806108DF807007D
:101180000B4C6946204600F075FC0421204600F017
:10119000C6FC0A2000F0DCF90821204600F0BFFC64
:1011A0000A2000F0D5F90821204600F0BAFC1CBD49
:1011B0000010024070B5084C084D2146284600F04A
:1011C0004BF9012807D12146284600F04DF8BDE82B
:1011D00070400CF01BBC70BD0080001858600240CD
:1011E00070B5084C084D2146284600F035F9012815
:1011F00007D12146284600F037F8BDE870400CF0D2
:1012000093BB70BD208000207060024070B5084C18
:10121000084D2146284600F005F9012807D121464E
:10122000284600F00BF8BDE870400CF063B870BDC4
:10123000000800102864024002F07EB9074A90427C
:1012400001D2074801E005481038064A8B0001EA40
:10125000020101D5C160704781607047106402408F
:10126000006002407D0F7D0F074A904201D207487F
:1012700001E005481038064A8B0001EA020101D559
:10128000C160704781607047106402400060024096
:101290007D0F7D0F002904D0016841F0010101603C
:1012A0007047016821F00101016070472DE9F043AA
:1012B000016821F00101016000210160416081604D
:1012C000C1600161212141613E493E4A10394FF020
:1012D0003D08904203D1C1F80880BDE8F083394A47
:1012E0004FF474651832904201D18D60F5E7354AAC
:1012F0004FF474163032904201D18E60EDE7314ADE
:101300004FF074674832904201D18F60E5E72D4B72
:101310002D4A6033984201D1CA60DEE7294C2B4B3D
:101320007834A04201D1CB60D7E7DFF898C0284CD1
:101330000CF1900C604501D1CC60CEE7DFF88490D1
:101340004FF03D5C09F1A809484502D1C1F80CC035
:10135000C3E72049DFF87C900839484502D1C1F83D
:101360000080BAE7DFF86C8008F11808404501D129
:101370000D60B2E7174D3035A84201D10E60ACE7E1
:10138000144D4835A84201D10F60A6E7114D11490F
:101390006035091FA84201D10A609EE70D4A7832E4
:1013A000904201D10B6098E70A4A9032904201D1F5
:1013B0000C6092E7074AA83290428ED1C1F800C073
:1013C0008BE70000106002403D000020400F00202D
:1013D00000003D2010640240002904D0016841F45F
:1013E000802101607047016821F48021016070470D
:1013F000002A04D0026842F40022026003E002687E
:1014000022F40022026001617047002904D00168C3
:1014100041F0200101607047016821F02001016066
:101420007047000002460020084B9A4201D2084A49
:1014300001E0064A103A8B0001D5526800E01268BC
:10144000044B1A400A4200D0012070471064024049
:10145000006002407D0F7D0F30B500240F4A90429E
:1014600001D20F4A01E00D4A103A0E4B194205D045
:101470001E2303EAD12503682B4002E0406900F0F7
:101480008003880001D5506800E01068064A1040CB
:10149000084201D003B10124204630BD106402404F
:1014A000006002403C0F3C0F7D0F7D0F0B0609D5FD
:1014B00022B1436943F08003436103E0436923F0B1
:1014C00080034361802905D001F01E011AB1026832
:1014D0000A430260704702688A4302607047000056
:1014E00030B50368124A1340CC680A682243D1E938
:1014F00005452C432243CC6922430C6A22434C6AA3
:1015000022438C6A22434C6B22438C6B22431A4346
:101510000260426922F00703D1E90B2422431A43F7
:1015200042610A6942604A6882608968C16030BD70
:101530003F801CF001A1012010F09CBF4465627542
:10154000674D6F6E5F48616E646C65720D0A0000D6
:1015500003490A68104448600A689042FCD8704702
:1015600084090020002200F001B8000010B50346F5
:10157000012009783039C9B2032908D2044800246F
:10158000445400EB8104636008440274002010BDE1
:101590004C9B01208000A0F1C040002904D00168CC
:1015A00041F00101016070470168024A1140016089
:1015B00070470000FEFF0F0070B501688900A1F1BF
:1015C000C0410B68344A1340D0E901242243D0E9DA
:1015D00003452C4322434469224384692243C4695E
:1015E0002243046A2243446A2243846A2243C46A2F
:1015F0002243046B22431A430A608168082907D1F9
:1016000001688900A1F1C0410A6842F040020A6005
:101610000168491C8A00A2F1C042116801F04044EF
:10162000416BD1E9003543EA05138D688E892D029F
:1016300045EA06452B430D8A43EA05530D7D89692A
:1016400043EA05630B4323431360C16AB1F5804F3E
:1016500008D000686FF070418000A0F1C040C0F871
:10166000041170BD01688900A1F1C041D1F80421C5
:101670000A4B1A40806BD0E9003443EA04138468B3
:101680008589240244EA05448069234303431343C4
:10169000C1F8043170BD00008000F7FF0000F0CFFA
:1016A000F8B5002441A00FF01DFF0A224CA15148BB
:1016B0000AF040F9504F3870661E38B14FA00FF055
:1016C00011FF4C4809F022FD3046F8BD4DA00FF047
:1016D00009FF4948401DFEF753FE474902466B4645
:1016E000491D44480AF0FBFA387038B143A00FF0A6
:1016F000F9FE404809F00AFD3046F8BD45A00FF05C
:10170000F1FE3D4945A0491D0FF0ECFE394809F0B6
:10171000FDFC44A00FF0E6FE3748401DFEF730FE0A
:1017200085B201222EA133480AF004F938703149FC
:101730006B462A4620392F480AF0D7F9387038B15D
:101740002EA00FF0CFFE2B4809F0E0FC3046F8BD8C
:101750003FA00FF0C7FE27482946203800F01AFFA7
:10176000254A2448521D20380DE0115D035D994241
:1017700007D022A00FF0B6FE1E4809F0C7FC304685
:10178000F8BD641CE4B2AC42EFD335A00FF0AAFE62
:10179000184922A020390FF0A5FE164809F0B6FC22
:1017A00031A00FF09FFE0020F8BD00002D2D2D2D43
:1017B0002D2D2D2D2D2D2D2D2D4661744673206F31
:1017C00070656E20262077726974652D2D2D2D2D64
:1017D0002D2D2D2D2D2D2D2D2D2D0D0A0000000030
:1017E000313A46617446735F546573742E7478742D
:1017F00000000000C49D0120840D0020657272214C
:101800000D0A00006F6B2C77726974652E2E2E0DF9
:101810000A0000006F6B200D0A00000025730D0AFE
:10182000000000002D2D2D2D2D2D2D2D2D2D2D2D9C
:101830002D466174467320726561642D2D2D2D2D0A
:101840002D2D2D2D2D2D2D2D2D2D0D0A00000000BF
:101850006F6B2C207665726966792E2E2E0D0A002C
:101860006F6B0D0A0000000073646D6D6320616E84
:101870006420666174667320746573742066696E93
:10188000697368210D0A00007CB501AA69460C48FD
:1018900009F04CFC019881694089891E4143009AF6
:1018A0005043CC0AC50A07A00FF01CFE214610A029
:1018B0000FF018FE29460EA00FF014FE7CBD0000AC
:1018C000850D00202D2D2D2D2D2D2D2D2D2D2D2D4A
:1018D0002D2D2D2D2D2D2D7072612D2D2D2D2D2D7C
:1018E0002D2D2D2D2D2D2D2D2D2D2D0D0A000000F2
:1018F00053442025644D420D0A0000002DE9FC47A9
:101900000E460024002700970197574D4FF0080A14
:10191000C5F800A0102068604FF04009C5F8089095
:10192000EF604FF48068C5F81080284601F0B2F9E6
:101930001020FFF789FA002832D14C4800890004B2
:10194000286037206860C5F80890EF60C5F81080FF
:10195000284601F09FF93720FFF776FA00281FD1BB
:10196000411E05F114000160C0F804A0302181601F
:101970000221C16007610121416101F00FF92F606F
:1019800033206860C5F80890EF60C5F810802846DD
:1019900001F080F93320FFF757FA0546280001D0FF
:1019A000BDE8FC874FF4001A6F46DFF8C48040F2B0
:1019B0002A6908E0504601F01BF920B101F064F9F2
:1019C00047F82400641CD8F8000010EA090FF1D091
:1019D000082001F00DF920B1082001F0C7F804201B
:1019E000DEE7022001F004F920B1022001F0BEF888
:1019F0000220D5E7202001F0FBF820B1202001F0E3
:101A0000B5F80620CCE74FF40074204601F0F0F85A
:101A100020B1204601F0AAF80720C1E740F2FF50AC
:101A200001F0A4F800980099000601F47F4140EA13
:101A30000120009901F47F0140EA1120009940EA59
:101A40001160706001980199000601F47F4140EA3D
:101A50000120019901F47F0140EA1120019940EA37
:101A60001160306028469BE7500F002030010020B5
:101A7000342C01402DE9F041002201274FF0030CE6
:101A800007FA02F50B682B40AB422CD106685300D5
:101A90000CFA03F4A64306600E79D0F800809E404D
:101AA00046EA080606600E79012E01D0022E12D1F8
:101AB0008668A64386604E79D0F808809E4046EA44
:101AC000080686604668AE43466045688E79964053
:101AD000B6B235434560C568A543C560CC799C4026
:101AE000C3681C43C460521C102AC9D3BDE8F081EE
:101AF00010B54B07DB0E9A40C90800EB8100016A64
:101B00000F249C40A1430162016A1143016210BD90
:101B10000246002012690A4200D00120704741832A
:101B2000704701837047000002A1012010F0A2FC61
:101B3000FEE70000486172644661756C745F48613D
:101B40006E646C65720D0A00002904D0818B41F42B
:101B5000806181837047818B21F48061818370472C
:101B600030B50023828B4FF2400422408283022250
:101B70000284848B0A884FF48075B2F5007F00D010
:101B800002B92B464A888D8889892A4319430A431A
:101B9000224342F40061818330BD0000F0B502228F
:101BA00000230124858B4FF24006354085830225B2
:101BB0000584868B8D68022D42D08A8802B102246A
:101BC0002F4A13681B0203D5136823F40003136024
:101BD0002B4A7C321368C3F388131268C2F3027570
:101BE000274F3F1F3A6802F03F023F687F0206D549
:101BF000244FB7FBF2F25A43B2FBF5F205E0224F55
:101C0000B7FBF2F25A43B2FBF5F2CB88B3F5007F93
:101C10002BD06301B2FBF3F202EB82028B6852001D
:101C2000B2FBF3F2521D92B20A23B2FBF3F202F0BE
:101C30000103D21AC2F34F024FF6FF7404EA0323E2
:101C4000941EFE2C01D302220023CC881A43144395
:101C500004840A884B881A438B8889890B431A436A
:101C6000324342F400618183F0BD120A02EB82022A
:101C70008B685200B2FBF3F2521D92B2D4E700001F
:101C80000838024000127A000024F4001CB501203C
:101C900000F0FEFC0121084600F098FC0D4C0022EB
:101CA00008212046FFF724FFA115009102218DF89D
:101CB00005108DF8041000218DF8061001218DF813
:101CC000071069462046FFF7D5FE0021084600F0C0
:101CD00067FD1CBD0000024002A1012010F0CAFBFC
:101CE000FEE700004D656D4D616E6167655F48619F
:101CF0006E646C65720D0A0002A1012010F0BAFB3F
:101D0000FEE700004E4D495F48616E646C65720DE0
:101D10000A00000030B50F23C27801250178002A9F
:101D20001FD0154A126802F4E062C2F5E062C2F305
:101D30000722C2F10404D3404278A24084781C40B8
:101D40001443220101F1E02181F80024007800F021
:101D50001F018D404009800000F1E020C0F80051D3
:101D600030BD01F01F0085404809800000F1E020EF
:101D7000C0F8805130BD00000CED00E0024A114077
:101D8000014302480160704780FFFF1F08ED00E03B
:101D9000062808D2DFE800F007030505050500F076
:101DA000C7B800F023B800F0A9B8000010B5084883
:101DB00000F0D6F806488278262A02D04FF0FF308D
:101DC00010BD04A1042010F055FB002010BD000040
:101DD000D40800204F56323634302043616D65728E
:101DE0006120494420307825780D0A0070B50546F9
:101DF00000F0F2F8C820FFF7ABFB00243C4E06EBE6
:101E00004400417816F8140000F0F2F8641CBE2C6F
:101E1000F5D30024374E06EB4400417816F8140041
:101E200000F0E6F8641C092CF5D30121FF2000F036
:101E3000DFF80021152000F0DBF800242D4E1236CB
:101E400006EB4400417816F8140000F0D1F8641C49
:101E5000082CF5D36420FFF77BFB264E2236022D9B
:101E600011D0032D1BD0042D27D0052D33D00024F5
:101E700006EB4400417816F8140000F0B9F8641C31
:101E8000272CF5D370BD002406EB4400417816F8EA
:101E9000140000F0ADF8641C272CF5D370BD0024AD
:101EA000144D703505EB4400417815F8140000F02E
:101EB0009FF8641C272CF5D370BD00240D4DBE3552
:101EC00005EB4400417815F8140000F091F8641C0B
:101ED000272CF5D370BD0024074D05EB4400417855
:101EE00015F8140000F084F8641C272CF5D370BD9D
:101EF0008E4301080A4501081646010870B500F036
:101F00006BF8C820FFF724FB0024084D4FF4A4769B
:101F100005EB4400417815F8140000F069F8022040
:101F2000FFF716FB641CB442F2D370BD463F0108B4
:101F300070B500F051F8C820FFF70AFB0024074DE8
:101F400005EB4400417815F8140000F051F8022028
:101F5000FFF7FEFA641CDC2CF2D370BDD6410108F9
:101F600010B504460121FF2000F042F81C2000F0CB
:101F70000FF820701D2000F00BF860700A2000F0B0
:101F800007F8A0700B2000F003F8E07010BD00000F
:101F90007CB50446C8224FF0FF310DA003F0FCFBD6
:101FA00005468DF80440012401AB0022302128466B
:101FB000009403F06FFC01AB01223021284600940D
:101FC00003F068FC284603F0DBFB9DF804007CBDB1
:101FD000564932433000000010B50121FF2000F0C7
:101FE00007F88021BDE81040122000F001B8000081
:101FF0007CB504460D46C8224FF0FF310AA003F01D
:10200000CBFB06468DF804408DF805500220009069
:1020100001AB00223021304603F03CFCC4B2304614
:1020200003F0AEFB20467CBD564932433000000031
:102030002DE9F041002400F07BF943F22307012150
:10204000384600F08BFA43F222080821404600F09F
:1020500085FA00F063F94FF47A7600F069F93846B2
:1020600000F020FA054600F059F9641CA4B2B4420D
:1020700002D90220BDE8F0810520FFF769FA002DA2
:10208000EBD100F055F90121384600F067FA042140
:10209000404600F063FA00F041F9002400F048F9EE
:1020A000384600F0FFF9054600F038F9641CA4B288
:1020B000B44201D90220DDE70520FFF749FA002DDF
:1020C000ECD10020D6E770B50446042C03D2C4F14D
:1020D0000400C5B201E0201FC5B200F029F943F2A7
:1020E00012260321304600F039FA2807010E45F286
:1020F000875000F033FA45F28850042C03D20921AE
:1021000000F02CFA02E0012100F028FA13213046F9
:1021100000F024FAA321304600F020FABDE8704018
:1021200000F0FCB82DE9F041054600F001F943F25A
:1021300012270321384600F011FA1C2145F28130A4
:1021400000F00CFA5A2145F2823000F007FA06211D
:1021500045F2833000F002FA002405EB45001149F6
:1021600045F2843501EB40066019315D00F0F6F967
:10217000641CE4B2062CF7D3982145F28B3000F0B2
:10218000EDF9012145F28A3000F0E8F913213846D3
:1021900000F0E4F9A321384600F0E0F9BDE8F04191
:1021A00000F0BCB8B45C010870B5002420250728F5
:1021B00016D2DFE800F004070A150D1013001424EE
:1021C00025460DE0182425460AE01C24254607E094
:1021D0001024242504E01824282501E01C242C25A3
:1021E00000F0A6F843F212260321304600F0B6F9BB
:1021F000214645F2855000F0B1F9294645F2865056
:1022000000F0ACF91321304600F0A8F9A3213046C4
:1022100000F0A4F9BDE8704000F080B810B50446A5
:1022200000F086F8022143F2160000F097F902212F
:1022300043F21C0000F092F943F219001CB1022194
:1022400000F08CF902E0002100F088F9BDE81040B0
:1022500000F064B82DE9F0414FF4004500F068F853
:102260004FF440582021404600F078F900242A4ECF
:1022700040F6ED772846315D00F070F96D1CADB287
:10228000641CA4B2BC42F5D3002143F2220000F04A
:1022900065F9002143F2230000F060F9002143F2C8
:1022A000240000F05BF9002143F2250000F056F90C
:1022B000002143F2260000F051F9002143F22700EB
:1022C00000F04CF9002143F2280000F047F943F2F6
:1022D00029067F21304600F041F90021404600F0F8
:1022E0003DF900F01BF800244FF47A7500F020F857
:1022F000304600F0D7F8074600F010F80520FFF749
:1023000027F9641CA4B2AC4202D90120BDE8F081D7
:10231000702FEBD10020F9E77A4C010810B5034883
:10232000006803F02DFA002010BD0000D80800203E
:1023300010B5C8224FF0FF3103A003F02DFA044975
:102340000860002010BD00005649324330000000F4
:10235000D808002070B500241E20FFF7F9F8FFF719
:10236000E7FF43F20A0000F09DF84FF6FF7101EA23
:10237000002643F20B0000F095F840EA06052946D6
:1023800024A00FF0AFF8A5F5AC40403803D0FFF71C
:10239000C5FF601E70BD112143F2031000F0DEF88E
:1023A000822143F2080000F0D9F80A20FFF7D0F8A4
:1023B0001D4D05EB8400817835F8240000F0CEF83F
:1023C000641CA4B2CF2CF4D3FFF7A8FF3220FFF790
:1023D000BFF80120FFF722FF3220FFF7B9F80020F5
:1023E000FFF71CFF00F048F8FFF734FF002000F073
:1023F0001DF80320FFF796FE0420FFF764FE03207C
:10240000FFF7D2FE212000F069F8FFF711FE00204F
:1024100070BD00006F7635363430207265616420FF
:1024200069643A25780D0A003E49010870B50546F1
:10243000FFF77EFF43F212260321304600F08EF8AC
:1024400000240C49C5EBC500451804F55050295D22
:1024500000F084F8641CE4B2072CF6D31321304654
:1024600000F07CF8A321304600F078F8BDE8704019
:10247000FFF754BF915C010870B50024FFF758FFC7
:10248000074D05EB8400817835F8240000F066F8EC
:10249000641CA4B22D2CF4D3BDE87040FFF73EBFFE
:1024A0008A4801081CB5010A8DF804108DF8050052
:1024B000094C0220009001AB00223C21206803F06F
:1024C000E9F901200246009001AB3C21206803F0AD
:1024D000E1F99DF804001CBDD808002070B5044641
:1024E000FFF726FF45F20830851F212C07D2652112
:1024F00000F034F82146284600F030F829E0252184
:1025000000F02CF808214FF4A64000F027F8302105
:1025100045F2013000F022F81021284600F01EF8A4
:10252000002145F2033000F019F8082145F2093086
:1025300000F014F8302145F20A3000F00FF80421C1
:1025400045F20B3000F00AF8062145F20C3000F09D
:1025500005F8BDE87040FFF7E1BE00001CB5020AB7
:102560008DF804208DF805008DF8061003200090EA
:10257000044801AB00223C21006803F08BF9C0B293
:102580001CBD0000D8080020014908627047000007
:1025900000000E4270B505460E46002409E02007F3
:1025A00002D107A00EF09EFF295D06A00EF09AFF53
:1025B000641CB442F3DBBDE8704001A00EF092BF92
:1025C0000D0A00002530327820000000054A00295D
:1025D00003D0116801431160704711688143116095
:1025E0007047000030380240054A002903D01168C6
:1025F000014311607047116881431160704700000A
:1026000034380240054A002903D0116801431160A3
:1026100070471168814311607047000038380240EC
:10262000054A002903D01168014311607047116801
:10263000814311607047000040380240054A00297C
:1026400003D0116801431160704711688143116024
:102650007047000020380240054A002903D0116865
:102660000143116070471168814311607047000099
:1026700044380240054A002903D011680143116023
:102680007047116881431160704700002438024090
:102690000149C864704700000000474270B5244BF0
:1026A000196801F00C01234C00291ED06610042982
:1026B0001DD008291DD00460196801F0F001090936
:1026C0001D4A545C0168E14041601C6804F4E05418
:1026D000A40A145D21FA04F484601B6803F46043C7
:1026E0005B0BD25CD140C16070BD0460E4E7066062
:1026F000E2E70F4A121F1168C1F38055116801F01B
:102700003F0135B1B6FBF1F11468C4F3881461439D
:1027100005E0B4FBF1F11468C4F388146143126856
:10272000C2F30142521C5200B1FBF2F10160C3E757
:10273000083802400024F400140000200246002063
:10274000510901290BD002290DD00949096802F06D
:102750001F02012393400B4200D00120704704491F
:1027600074390968F3E70249091F0968EFE70000B7
:102770007438024001490860704700005C0147421C
:10278000064900220A700A70012804D0042801D1E9
:1027900005200870704701200870704770380240AB
:1027A000034B1A6822F0EC6208431043186070472C
:1027B000083802400149886670470000000047421F
:1027C00001490860704700003C0E4742C0F30121F8
:1027D000032907D1074B196821F4F8120649014073
:1027E00011431960034A68321168C0F30B000143BA
:1027F0001160704708380240FFFCFF0F010901EB30
:102800008101490000F00F000844C0B27047002168
:1028100003E0491CC9B20A38C0B20A28F9D2090734
:1028200040EA11607047000008B5002000900E4992
:102830000868400615D44FF0FF3008608B13086815
:1028400000F04000009A521C0092009A9A4201D077
:102850000028F4D00868400601D5012008BD0020FA
:1028600008BD012008BD00000C2800400248016896
:1028700021F08001016070470C28004070B50446CB
:102880000025114ECA20306053203060FFF7CCFF86
:10289000A8B10D481C38016821F0400101600168B1
:1028A0002268114301600848A1681438016001687A
:1028B000A28841EA02410160FFF7D8FF0125FF200D
:1028C0003060284670BD00002428004008B5034948
:1028D00001EB800000900098006808BD502800407F
:1028E00070B505460C460026002D06D16078C1065D
:1028F00003D520F010000A3060702DB16078FFF72A
:102900007DFFA078FFF77AFF55B1A078E17840EA23
:10291000014560782178000240EA413005430FE02C
:10292000E078FFF774FF05046078FFF770FF45EA71
:102930000025A078FFF76BFF0543207845EA403576
:102940000E4CCA20206053202060FFF76DFF88B135
:102950000B480540094820380560FFF787FF074806
:102960001C380068800604D400F060F810B101261D
:1029700000E00126FF202060304670BD2428004082
:102980003FFFFF002DE9F04105460C4600260020E0
:10299000244F002D06D03968490608D52078FFF766
:1029A0002DFF05E03968490602D4E07000E0E070D0
:1029B00055B1A078217840EA01456078E1780002BD
:1029C00040EA014005430FE02078FFF720FF0504AF
:1029D0006078FFF71CFF45EA0025A078FFF717FF96
:1029E0000543E07845EA00450E4CCA201C342060BF
:1029F00053202060FFF718FF78B10B4805400948C5
:102A000008380560FFF732FF3868800604D400F00C
:102A10000DF810B1012600E00126FF2020603046AD
:102A2000BDE8F081082800407F7F7F0018B50020B6
:102A30000090104BCA201860532018600D491839B7
:102A4000086820F0A00008604FF40034086800F027
:102A50002000009A521C0092009AA24201D0002845
:102A6000F4D00868800601D5012000E00020FF2195
:102A7000196018BD2428004008B5034A02EB800005
:102A800000900098016008BD502800402DE9FC47E7
:102A90000646002400940194002000F0C5F880014F
:102AA00002D50E20BDE8FC872E4D6946288980B2EC
:102AB000FEF724FF0028F5D137202B4F4FF0060AF0
:102AC0004FF040094FF48068012E22D00199C903CC
:102AD00045D52989090439607860C7F80890FC60F9
:102AE000C7F81080384600F0D5F83720FEF7ACF96B
:102AF0000028D7D13C60C7F804A0C7F80890FC6054
:102B0000C7F81080384600F0C5F80620FEF79CF99B
:102B1000C8E70199490320D52989090439607860FB
:102B2000C7F80890FC60C7F810800F4800F0B2F8B2
:102B30003720FEF789F90028B4D102203860C7F8A1
:102B400004A0C7F80890FC60C7F81080064800F0A1
:102B5000A1F80620FEF778F9A4E72520A2E72520B2
:102B6000A0E7000030010020500F0020014908605C
:102B700070470000382C0140014908607047000090
:102B8000382C01400149086070470000A0802542B0
:102B900001490860704700008C85254210B50A4A3B
:102BA00001681160121D41681160141D216821F037
:102BB000F701D0E902231A43D0E9043003431A4352
:102BC0000A43226010BD0000242C014010B50121F1
:102BD000CC022046FFF74EFD2046BDE81040002104
:102BE000FFF748BD01480068C0B27047102C014093
:102BF00001460020024A12680A4200D001207047B4
:102C0000342C014001460020024A12680A4200D0DA
:102C100001207047342C01400248006800F0030096
:102C200070470000002C014008B50349084400909B
:102C30000098006808BD0000142C014000F090BC12
:102C4000054A002903D011680143116070471168DB
:102C500081431160704700003C2C014030B5094BA6
:102C6000196847F6FF629143027D8468C568224374
:102C700044682C43224304680069224302430A4308
:102C80001A6030BD042C0140014800687047000004
:102C9000802C014010B5084A01681160141D21689C
:102CA0006FF30A01D0E901231A43D0E9033003434B
:102CB0001A430A43226010BD082C014001490860F4
:102CC00070470000002C014008B50120009041032E
:102CD0000448FEF71DFF08B1002000909DF8000099
:102CE00008BD0000000802402DE9F0410146002423
:102CF0001C484068032805D038B1012805D00228B7
:102D000003D02DE02720BDE8F081B1F5805F0CD025
:102D10004FF400670026144DB94212D10120FFF78D
:102D2000B5FE0446200002D01AE02720EBE72E75FE
:102D30002E606E60AE60EF602E610B48FFF78EFF75
:102D40000EE00020FFF7A2FE0446200008D12E75F9
:102D50002E606E60AE60EE602E610348FFF77EFF6E
:102D60002046D0E730010020380F00202DE9F04345
:102D700097494E6880F856600989A0F85410DFF82A
:102D800054C2DCF800100A0E93090370C2F38303E7
:102D9000437002F0030282700A0CC2700A0A0271C8
:102DA0004171DCF80420110E0901C180C2F3074112
:102DB000C38843EA1113C38001F00F010172C2F30B
:102DC0000721CB094372C1F380138372C1F340130F
:102DD000C372C1F3001303730023437364460127D6
:102DE000D4F80880002E4FEA1864C8F30745C8F3EA
:102DF000072904D0012E02D0022E3AD051E08907D3
:102E0000090D0161D1B2026942EA810101610169E2
:102E100041EA94110161C4F3C201017504F0070194
:102E2000417569098175C5F38201C175A907490F0B
:102E300001764946027E42EAD11202760269521CAC
:102E4000047EA41C07FA04F6A2FB0649F51703FB4F
:102E5000069602FB0565027A07FA02F9C0F850905F
:102E6000A4FB092605FB096504FB0354C0E91224F1
:102E700017E09106890A0161016941EA04210161B3
:102E800001692943016149460269521C43F100046A
:102E9000E40444EA5234D204C0E912244FF400722C
:102EA00002651C30C1F3801200F8032C8906490E1C
:102EB00000F8021C08F0FF0110F8022C42EAD112BF
:102EC00000F8022C01F07F0100F8011CDCF80C2056
:102ED000110ECC090470C1F341144470C1F3820493
:102EE00084708907090FC170C2F30741C47844EAAE
:102EF0009114C470C1F340140471437101F00101D5
:102F00008171C2F30721CC09C471C1F3801404722A
:102F1000C1F340144472C1F300148472C1F38104FC
:102F2000C47201F003010173D1B249084173877380
:102F3000284A103211680C0E04740C0C24024482CE
:102F4000C1F30724458A254345820906416151683A
:102F50000C0E456945EA04444461C1F307444569E0
:102F600045EA04244461C1F30724456925434561CA
:102F7000017691680C0E44760C0C2406C461C1F3F2
:102F80000724C56945EA0444C461C9B2C46944EA76
:102F90000121C161D1680A0EC4691443C461C1F33F
:102FA000074290F8204044EA121480F820401207AB
:102FB000120D4284C1F30722448C14434484C9B2E5
:102FC000490880F8241080F825701846BDE8F08381
:102FD00030010020B00E002008B500200090FFF75F
:102FE00073FE012801D0FF2008BD684600F080FB79
:102FF00008B1FF2008BD0098C0F3432008BD10B5FC
:10300000FFF7EAFF042803D0FF2803D0012010BDFA
:10301000002010BD022010BD38B50024009400F03F
:10302000AFF900F04FF9FFF7D1FD00F0C3F90090C0
:103030009DF8000010B19DF8000038BD00F02EF89A
:1030400000909DF8000010B19DF8000038BD1248B6
:103050000475046044608460C4600461FFF7FEFD91
:103060000D485838FFF782FE00909DF8000040B9E7
:10307000094800215838B0F85400000400F022FB41
:1030800000909DF8000020B94FF40060FFF72CFE7F
:1030900000909DF8000038BD380F00202DE9F84F52
:1030A000002401200090FFF7B7FDE0B1DFF8FC80BD
:1030B00000263F4DD8F804004FF0C0094FF4806758
:1030C00004282AD02E6002206860C5F80890EE60BF
:1030D0002F612846FFF7DEFDFDF734FF0446200090
:1030E00003D0BDE8F88F2520FBE70020FFF79CFD0B
:1030F000DFF8BCA0AAF1900ACAF800000420FFF78C
:1031000093FDCAF804000820FFF78EFDCAF80800F6
:103110000C20FFF789FDCAF80C00D8F8040028B18C
:10312000012803D0062801D0022811D12E600320E7
:1031300068604020A860EE602F611D48FFF7AAFD7F
:1031400069460320FDF73AFF0446200000D0C8E797
:10315000D8F80400042826D0BDF80000C8F80800FC
:103160000004286009206860C5F80890EE602F61AF
:103170000F48FFF78FFDFDF7E5FE0446200000D065
:10318000AFE70020FFF750FD094DA03D2860042067
:10319000FFF74AFD68600820FFF746FDA8600C2095
:1031A000FFF742FDE86020469BE700003001002069
:1031B000500F002070B590B005460C461D4E4FF0E4
:1031C000FA513046FEF73AF800213046FEF762F831
:1031D0003046FEF76BF84FF0006001901648029001
:1031E00003950020049005940690311507918900FD
:1031F000089109900A904FF440300B9004200C90F5
:1032000003200D90C8020E9080100F9001A9304647
:10321000FEF766F9012210213046FEF747F920211A
:103220003046FEF7F2F801213046FEF733F810B0D1
:1032300070BD000058640240802C014070B590B011
:1032400004460D461D4E4FF0FA513046FDF7F6FF8D
:1032500000213046FEF71EF83046FEF727F84FF003
:103260000060019016480290039440200490059558
:1032700000200690311507918900089109900A9065
:103280004FF440300B9004200C9003200D90C802A6
:103290000E9080100F9001A93046FEF721F901220F
:1032A00010213046FEF702F920213046FEF7ADF836
:1032B00001213046FDF7EEFF10B070BD58640240AA
:1032C000802C01402DE9FC4101210C20FFF77EF903
:1032D000294E0C2208213046FEF70AFC0C22092157
:1032E0003046FEF705FC0C220A213046FEF700FCB2
:1032F0000C220B213046FEF7FBFB0C221146304618
:10330000FEF7F6FB1D4F0C2202213846FEF7F0FBBC
:103310004FF47060009002218DF805108DF80410B4
:1033200000248DF8064001258DF807506946304687
:10333000FEF7A0FB0420009069463846FEF79AFB92
:10334000280300908DF8074069463046FEF792FB4F
:10335000680300908DF804408DF8075069463046A8
:10336000FEF788FB0121C802FFF776F901218805E5
:10337000FFF72CF9BDE8FC8100080240000C024078
:1033800038B531208DF8000000248DF801408DF80B
:10339000024001258DF803506846FEF7BBFC3B2038
:1033A0008DF800008DF801508DF802406846FEF758
:1033B000B1FC38BD2DE9F84F00270097BB4600242B
:1033C000A24600255948762101750760476087604D
:1033D000C7600761FFF742FC0320FFF76FFC012085
:1033E000FFF7D0FB514E183637607760B760F76053
:1033F0004FF48069C6F810903046FFF74BFCFDF79C
:103400000EFD00909DF8000018B19DF80000BDE889
:10341000F88F4FF4D5703060082070604FF040088E
:10342000C6F80880F760C6F8109040481830FFF7DB
:1034300031FCFDF703FE00909DF8000018B33760E3
:1034400037207060C6F80880F760C6F810903748DB
:103450001830FFF71FFC3720FDF7F6FC00903760AF
:1034600037207060C6F80880F760C6F810902F48C3
:103470001830FFF70FFC3720FDF7E6FC00909DF8B1
:10348000000090B34FE02A48012141608D07E6E734
:10349000376037207060C6F80880F760C6F8109073
:1034A00022481830FFF7F6FB3720FDF7CDFC0090DF
:1034B0009DF8000010B19DF80000A8E71D482843C2
:1034C000306029207060C6F80880F760C6F8109058
:1034D00016481830FFF7DEFBFDF756FD00909DF80B
:1034E000000018B19DF8000091E706E00020FFF70A
:1034F0009BFB83464FEADB7A641CBAF1000F03D1D1
:103500004FF6FF708442C3D34FF6FF70844204D35A
:103510001B2000909DF8000079E71BF0804F02D03F
:103520000348022141609DF8000070E7380F002039
:1035300030010020000010800748006810F0C05FD4
:1035400008D006490120486103484FF0C251583065
:10355000FDF774BE70470000006402403001002097
:1035600070B54FF480752846FFF74CFB1F4C30B107
:10357000002020702846FFF7FFFA0120206102207A
:10358000FFF740FB20B10220FFF7F6FA022020707F
:103590000820FFF737FB20B10820FFF7EDFA0420E1
:1035A00020702020FFF72EFB20B12020FFF7E4FA47
:1035B000062020701020FFF725FB20B11020FFF718
:1035C000DBFA052020704FF400752846FFF71AFB40
:1035D00020B12846FFF7D0FA0720207000214CF2D6
:1035E0003A30FFF72DFB207870BD0000300100203D
:1035F0002DE9F05F8346DDE90A6714461D46DFF8D2
:10360000B8A04FF000088AF80080CAF810804FF088
:103610000109CAF80C902948C0F80080012140F245
:103620002A30FFF70DFB07FB06F15846FFF7C2FDF6
:103630000120FFF7ADFADAF80400022803D10602F0
:10364000640A44EAC5541E4D2E60102068604FF095
:10365000400AC5F808A0C5F80C804FF4806BC5F887
:1036600010B02846FFF716FB1020FDF7EDFB0028F1
:1036700020D1411E05F1140001607743476090217D
:1036800081600221C160C0F81080C0F81490FFF77B
:1036900085FA2C6012206860C5F808A0C5F80C8077
:1036A000C5F810B02846FFF7F5FABDE8F05F122024
:1036B000FDF7CABBBDE8F09F300100202C2C014073
:1036C000500F002010B5094A1060072050604020BC
:1036D00090600020D0604FF4806010611046FFF7CA
:1036E000D9FABDE810400720FDF7AEBB500F00200F
:1036F00070B50546002D16D00F48008901040F480B
:1037000001600D214160402181600021C1604FF4C2
:1037100080610161FFF7BEFA0D20FDF795FB0446BD
:103720001CB1204670BD262070BD0020FFF77CFA3A
:103730002860204670BD000030010020500F00209E
:1037400010B50848002101600C22426040228260CE
:10375000C16011010161FFF79DFABDE810400C2026
:10376000FDF772BB500F00202DE9F04100256C1EC3
:103770002146154E00E0491E706928B9306918B914
:10378000307808B90029F6D1002777610F4800E0AA
:10379000641E0168890401D5002CF9D1F068012864
:1037A00003D1FFF7CDFF0546F7602C4300D1042578
:1037B00040F2FF50FFF7DAF9307810B13078BDE809
:1037C000F0812846FBE7000030010020342C014046
:1037D0002DE9F04100256C1E2146154E00E0491EE2
:1037E000706928B9306918B9307808B90029F6D15C
:1037F000002777610F4800E0641E0168C90401D505
:10380000002CF9D1F068012803D1FFF799FF054694
:10381000F7602C4300D1042540F2FF50FFF7A6F9D2
:10382000307810B13078BDE8F0812846FBE7000021
:1038300030010020342C01402DE9F05F8246DDE9A3
:103840000A6714461D46DFF804914FF0000889F816
:103850000080C9F810800120C9F80C003C48C0F86D
:103860000080012140F22A30FFF7EAF907FB06F158
:103870005046FFF7E3FC0120FFF78AF9D9F804006E
:10388000022803D10602640A44EAC554314D2E6071
:10389000102068604FF0400BC5F808B0C5F80C80E8
:1038A0004FF4806AC5F810A02846FFF7F3F91020FE
:1038B000FDF7CAFA002847D1B9F8080000042860CB
:1038C00037206860C5F808B0C5F80C80C5F810A0AE
:1038D0002846FFF7DFF93720FDF7B6FA002833D185
:1038E0002F6017206860C5F808B0C5F80C80C5F8CF
:1038F00010A02846FFF7CEF91720FDF7A5FA0028FB
:1039000022D12C6019206860C5F808B0C5F80C8079
:10391000C5F810A02846FFF7BDF91920FDF794FA65
:10392000002811D105F11402401E10607743576042
:1039300090209060C2F80C80C2F810800120506185
:103940001046FFF72BF94046BDE8F09F30010020FC
:103950002C2C0140500F002010B5FFF75DFB08B183
:10396000012010BD002010BD002908D00C480129FD
:1039700007D002290AD003290DD004207047002067
:103980007047806C400A1060002070474FF4007050
:10399000108000207047006D10600020704700000C
:1039A000E00E00201CB508464FF40074CDE900433A
:1039B00052020023FFF71CFE044634B9FFF7D4FE81
:1039C0000446FFF71CFB0028FBD10CB101201CBDF5
:1039D00000201CBD002070471CB508464FF4007441
:1039E000CDE9004352020023FFF726FF044634B915
:1039F000FFF7EEFE0446FFF702FB0028FBD10CB1F7
:103A000001201CBD00201CBD002904D0018841F00C
:103A1000400101807047018821F04001018070471A
:103A2000002A03D082880A438280704782888A43B2
:103A30008280704710B52A4988420AD18414012136
:103A40002046FEF717FE2046BDE810400021FEF795
:103A500011BE244988420AD1041401212046FEF7F0
:103A6000EDFD2046BDE810400021FEF7E7BD1E49F0
:103A700088420AD1C41301212046FEF7DFFD20460B
:103A8000BDE810400021FEF7D9BD184988420AD18F
:103A9000441401212046FEF7EDFD2046BDE810400C
:103AA0000021FEF7E7BD124988420AD101210C0529
:103AB0002046FEF7DFFD2046BDE810400021FEF75E
:103AC000D9BD0C4988420AD101214C052046FEF798
:103AD000D1FD2046BDE810400021FEF7CBBD10BD52
:103AE0000030014000380040003C004000340140FC
:103AF00000500140005401400246002012890A4251
:103B000000D001207047808970478181704730B5AF
:103B1000028802F441530A884C88CD8822438C885D
:103B20002C4322430C8922434C8922438C89224313
:103B3000CC8922431A430280828B22F40062828362
:103B4000098A018230BD00000CB50022019200926A
:103B50002749086840F4803008604FF4A0430868A3
:103B600000F4003000900198401C0190009810B9BA
:103B700001989842F3D10868800302D50120009093
:103B800000E000920098012831D1194840300268C5
:103B900042F0805202601748026842F440420260DC
:103BA0001348083002680260026842F40042026072
:103BB000026842F4A0520260021F0F4B13600A68B1
:103BC00042F080720A600A689201FCD50B4A40F20A
:103BD00005711160016821F003010160016841F085
:103BE000020101600168C1F381010229FAD10CBD13
:103BF000003802400070004008544007003C02407A
:103C000010B500F091FABDE810400AF0F6BD0000D2
:103C100010B51248016841F4700101601048016854
:103C200041F0010101600E4A002108321160026872
:103C30000C4B1A400260031D0B4A1A60026822F402
:103C40008022026006480C300160FFF77DFF0349C7
:103C50004FF000608039086010BD000088ED00E082
:103C600000380240FFFFF6FE1030002470B5048CCF
:103C700024F001040484058B048C25F0F3054FF631
:103C8000FF7606EA031313432B4324F00A020A4388
:103C900042F001010383018470BD70B5048C24F0EF
:103CA00010040484058B068C4FF6FF7404EA01119E
:103CB00025F4734504EA03332B4304EA02221A4332
:103CC00026F0A0030B4343F010010283018470BD72
:103CD000F0B5048C24F480740484868B058C4FF634
:103CE000FF7707EA012426F0F30607EA03111143E0
:103CF000314325F42062224342F48072818302849E
:103D0000F0BD70B5048C24F480540484858B068C3B
:103D10004FF6FF7404EA013125F4734504EA0222E8
:103D20002A4304EA0333134326F420420A4342F4AD
:103D300080518383018470BD09F092BF09F0B0BF48
:103D400009F0D0BF002904D0018841F08001018032
:103D50007047018821F0800101807047C9430182CA
:103D60007047C94301827047002904D0018841F09F
:103D7000010101807047018821F001010180704735
:103D8000406B7047806B7047C06B7047006C70472A
:103D9000406A704702460020128A0A4200D0012081
:103DA000704702460020138A0B4092890A40002B7C
:103DB00002D0002A00D00120704770B506460C469C
:103DC00025886188A2882389002D0CD0042D13D06A
:103DD000082D1AD03046FFF794FFE1883046BDE841
:103DE000704000F057B93046FFF740FFE188304699
:103DF000BDE8704000F032B93046FFF74EFFE18871
:103E00003046BDE8704000F031B93046FFF760FF42
:103E1000E1883046BDE8704000F034B9002A03D094
:103E200082890A438281704782898A4382817047EE
:103E300030B5028C22F001020284058C8388028B4B
:103E400022F0700222F003020C88144325F00202D3
:103E50008D8915434A882A430D4DA84202D00D4D45
:103E6000A8420FD122F00805CA892A4322F004058E
:103E70008A882A4323F4807323F400730D8A1D4338
:103E80004B8A2B438380048389684163028430BD5D
:103E90000000014000040140028B22F008020A43A6
:103EA0000283704770B5028C22F010020284028CEB
:103EB0008388048B24F4E04424F440760D884FF684
:103EC000FF7404EA0525354322F020028E8904EAB6
:103ED000061616434A8804EA02123243114EB042D3
:103EE00002D0114EB04217D122F08002CE8904EAEE
:103EF0000616164326F040068A8804EA0212324368
:103F000023F4806323F400630E8A04EA86061E43CA
:103F10004B8A04EA83033343838005838968816382
:103F2000028470BD0000014000040140028B22F4B5
:103F300000624FF6FF7303EA0121114301837047CA
:103F400070B5028C22F480720284028C8388848B88
:103F500024F0700424F003040D88254322F4007239
:103F60008E894FF6FF7404EA062616434A8804EA4F
:103F700002223243114EB04202D0114EB04217D14C
:103F800022F40066CA8904EA0222324322F48066DF
:103F90008A8804EA0222324323F4805323F4005334
:103FA0000E8A04EA06161E434B8A04EA03133343BF
:103FB000838085838968C163028470BD00000140ED
:103FC00000040140828B22F008020A43828370477A
:103FD00070B5028C22F480520284058C8288838B17
:103FE00023F4E04323F440760C884FF6FF7303EA92
:103FF0000424344325F400558E8903EA06362E4303
:104000004D8803EA05353543084EB04202D0084ECC
:10401000B04205D122F480460A8A03EA8212324372
:104020008280848389680164058470BD000001403A
:1040300000040140828B22F400624FF6FF7303EA12
:104040000121114381837047416370478163704749
:10405000C16370470164704741627047028B22F070
:104060000C020283028B0A4302837047028B22F404
:1040700040620283028B4FF6FF7303EA01210A4379
:1040800002837047828B22F00C028283828B0A4368
:1040900082837047828B22F440628283828B4FF648
:1040A000FF7303EA01210A438283704730B5028817
:1040B000164C174DA0420DD0A8420BD0B0F1804F46
:1040C00008D0144B984205D0134B984202D0134BA2
:1040D000984203D122F070034A881A43104B984249
:1040E00006D0104B984203D022F440730A891A4339
:1040F00002804A68C2620A880285A04201D0A842B2
:1041000001D1897A01860121818230BD0000014000
:10411000000401400004004000080040000C004082
:10412000001000400014004002480168491C016072
:1041300070470000840900200AF006B80AF04AB867
:104140000AF08EB88A05C9430180704740F66A12AA
:104150000A0A01219140C94301807047002904D017
:10416000818941F4005181817047818921F4005196
:10417000818170470246002012880A4200D0012047
:10418000704770B5002440F66A12C1F3421301F083
:104190001F05012606FA05F2012B0CD0022B0DD0CB
:1041A000838A1340090A8E40008830400BB100B169
:1041B0000124204670BD83891340F3E7038A13402E
:1041C000F0E710B540F66A13C1F3421301F01F0483
:1041D0000121A140012B07D0022B07D014303AB1A6
:1041E00002680A43026010BD0C30F8E71030F6E7B1
:1041F00002688A43026010BD7FB504460D46208ADE
:1042000020F44051E88808432082A08941F20C61E3
:104210008843A9882A8911436A8902431143A181ED
:10422000A08A20F44071A8890843A0826846FEF75E
:1042300035FA1E48844202D01D48844201D10398B9
:1042400000E00298A189090408D500EBC00101EB48
:10425000001029684900B0FBF1F007E000EBC00155
:1042600001EB001029688900B0FBF1F06422B0FB7B
:10427000F2F109010B096FF018056B4300EB8300A5
:10428000A3891D044FF0320307D503EBC000B0FB38
:10429000F2F000F00700084306E003EB0010B0FB6B
:1042A000F2F000F00F00084320817FBD00100140B4
:1042B000001401408088C0F308007047C1F3080172
:1042C0008180704702A101200EF0D4F8FEE70000C3
:1042D00055736167654661756C745F48616E646CA7
:1042E00065720D0A000000000FB4084B10B504A958
:1042F00002AA039800F0F0F8044602A9002000F09A
:104300006EFC204610BC5DF814FB0000DF4B00087B
:1043100037B514460846064B6A46214600F0DCF8DD
:1043200004466946002000F05AFC20463EBD0000CD
:10433000DF4B000802E008C8121F08C1002AFAD1AA
:1043400070477047002001E001C1121F002AFBD115
:10435000704700002DE9FF5F82B00021DDE90430E5
:10436000020DDDF840B0034318D044F61050A2F21D
:10437000FF3242431514119801281FD0A5EB0B0002
:10438000401C5FEA000A4FF000064E4FDFF83891FC
:10439000B046504615D5CAF1000413E01198012427
:1043A0004AA3012801D16FEA0B010298119AC0E9D2
:1043B0000031C0E9024206B0BDE8F09FCBF1000039
:1043C000DFE704460021404A491842EB0450CDE99A
:1043D000001012E0E00707D032463B46404649460F
:1043E000FCF7BEF98046894632463B4610461946E0
:1043F000FCF7B6F906460F466410002CEAD1DDE959
:104400000401DDE90023BAF1000F06DAFCF7A8F990
:1044100042464B46FCF7A4F905E0FCF713FA424686
:104420004B46FCF70FFA04460E460022284BFCF7D9
:1044300091FA03D84FF0FF30014607E00022254BE8
:1044400020463146FBF7BAFFFCF76BFA102409E06F
:10445000002C0ADB0A220023FCF79CF8039B303275
:104460001A55641E50EA0102F2D1641C039AC4F189
:1044700011031444119A012A03D0012208430DD1DB
:104480000AE0084304D000204FF0110B119072E7AE
:10449000A3EB0B056D1E0DE05B4504DD4FF0000244
:1044A00005F1010504E003DA4FF00002A5F1010572
:1044B000002AECD002981199C0E90231C0E9004508
:1044C00079E70000000014400000F03F30000000D9
:1044D0000000F0430000E03F2DE9FF4F95B09A4601
:1044E000884606460025EEE1252877D10024274698
:1044F000F94A0121039400E0044316F8013F203BF0
:1045000001FA03F01042F7D130782A2811D06FF069
:104510002F033078A0F13002092A16D8039A44F00C
:10452000020402EB820203EB42021044761C039069
:10453000EFE758F8042B0392002A03DA504244F4C0
:104540000054039044F00204761C30782E2816D1D3
:1045500016F8010F44F004042A280DD06FF02F0242
:104560003078A0F13003092B09D807EB870302EB61
:104570004303C718761CF3E758F8047B761C3078A1
:104580006C280FD006DC4C2817D068280DD06A287C
:1045900014D104E0742810D07A280FD10DE044F42F
:1045A00000140AE044F4801401E044F440147278EA
:1045B000824202D104F58014761C761C307866287D
:1045C0000BD013DC582877D009DC002875D045289B
:1045D000F6D04628F4D047281AD193E118E0632892
:1045E00035D0642879D0652812D18BE1702873D03A
:1045F00008DC6728F1D069286FD06E280DD06F28AD
:1046000006D1ACE073282CD0752874D0782853D00C
:104610005246179990476D1C54E1C4F3025002288A
:1046200009D003280DD0D8F8001004280DD00D6053
:1046300008F1040846E1D8F80010EA17C1E9005271
:10464000F6E7D8F800100D80F2E70D70F0E718F8E3
:10465000041B8DF8001000208DF80100EB460120AE
:1046600003E058F804BB4FF0FF3061074FF0000142
:1046700002D40DE009F101018946B9420FDA814502
:10468000F8DB1BF809100029F4D108E009F1010159
:1046900089468142FADB1BF809100029F6D10398FC
:1046A0005346A0EB090721463846179A00F080FAD6
:1046B000284400EB090507E044E008E10DE01BF8A1
:1046C000010B524617999047B9F10109F7D25346A9
:1046D00021463846179AF2E039E00A21C4F3025223
:1046E0004FF0000B0091022A06D058F8040BC117B6
:1046F000032A09D00AE023E008F1070020F00702AE
:10470000F2E80201904605E000B2C117042A01D187
:1047100040B2C117002906DA0A460021404261EB87
:1047200002012D2202E0220504D52B228DF804205F
:10473000012203E0E20701D02022F7E7914657E08B
:104740000A2100E010214FF0000B00910BE0102136
:104750004FF0000B44F004040827009103E0082008
:104760004FF0000B0090C4F30252022A05D058F813
:10477000040B0021032A08D008E008F1070020F00C
:104780000702F2E80201904603E080B2042A00D159
:10479000C0B24FF0000922072AD53278702A07D01C
:1047A000DDF800C08CF0100C5CEA0B0C05D00EE0BC
:1047B00040228DF80420012208E050EA010306D0CF
:1047C00030238DF804308DF8052002229146009B9D
:1047D00083F0080353EA0B030AD150EA010201D126
:1047E000620705D530228DF804204FF001097F1EA5
:1047F0003278582A04D039A20C920CAA02920BE00B
:104800003BA2F9E75B46009AFBF7C4FE0C9B9B5C5E
:10481000029A521E0292137050EA0102F2D10298DB
:1048200004A9081A00F1200B600702D524F4803493
:1048300000E001275F4502DDA7EB0B0000E0002050
:1048400000EB0B01009003984944401A0390E003E9
:1048500006D453462146179A039800F0A9F9054457
:10486000002706E001A85246C05D179990476D1CCD
:104870007F1C4F45F6DBE0030CD553462146179AC3
:10488000039800F095F9054404E03020524617994A
:1048900090476D1C0099481E00900029F5DC08E047
:1048A0000298029952460078491C02911799904744
:1048B0006D1CBBF10001ABF1010BF1DC5BE100F021
:1048C00065F90544761C307800287FF40DAE19B0E8
:1048D0002846BDE8F08F000009280100303132334E
:1048E000343536373839616263646566000000002C
:1048F0003031323334353637383941424344454616
:1049000000000000600700D4062708F1070020F02F
:104910000700F0E80223804603F0004C5FEA0C0039
:1049200001D097A009E0200501D596A005E0E00799
:1049300001D095A001E0AFF24C001390307823F045
:10494000004365280CD006DC452809D046281DD038
:1049500047287FD13BE0662818D067287AD136E017
:104960000021112F01DB112000E0781CCDE90001AE
:1049700004A90CA8FFF7EEFCDDE90D010C9A4FF03D
:10498000000B07F10109109200914EE04FF000403A
:104990000097CDE9011004A90CA8FFF7DBFCDDE9C5
:1049A0000D020C9B0F994FF0000B91461093009253
:1049B00011B9791C00EB0109B7EB090003D4C0F170
:1049C000FF3B07F10109A9EB0700019042E0012F2D
:1049D00000DA01270021112F01DD112000E0384607
:1049E000CDE9000104A90CA8FFF7B4FCDDE90D0135
:1049F0000C9A00914FF0000BB946109221070FD48A
:104A0000009A4A4503DA914601E0A9F10109B9F19A
:104A1000010F05DD109AA9F10101515C3029F4D094
:104A2000B84202DA10F1040F03DA0121CDE90110D6
:104A300010E0002803DC8344A9EB000102E0411CE4
:104A4000494500DD8946A0EB0B00401C01904FF06A
:104A500000400290200705D40198484502DB4FF042
:104A6000FF30019000208DF84B0002980DF14B07AC
:104A7000B0F1004F25D002200C902B200D90029811
:104A800000280CDA404202902D200D9007E00A2108
:104A90000298FBF769FD3031029007F8011D0C996F
:104AA000481E0C900029F2DC02980028EFD1791EF4
:104AB0000D980870307800F0200040F0450007F8AD
:104AC000020D11A8C01BC01D02901398007800B100
:104AD000012000EB0901019801EBE071029801440B
:104AE0000398401A401E0390E00306D45346214623
:104AF000179A039800F05CF805441398007818B1F1
:104B00005246179990476D1CE00323D55346214622
:104B1000179A039800F04CF805441BE0BBF1000F16
:104B200007DB0098584504DD1098179910F80B0022
:104B300001E0179930205246904701980BF1010B84
:104B4000401E05F10105019004D12E20524617990F
:104B500090476D1CB9F10001A9F10109DEDC05E007
:104B600017F8010B5246179990476D1C0299481E81
:104B700002900029F4DC53462146179A03989EE6DA
:104B80002D0000002B000000200000002DE9F04166
:104B9000044600251E461746880404D405E039461D
:104BA0002020B0476D1C641EF9D52846BDE8F08171
:104BB0002DE9F041044600251E469046C80301D564
:104BC000302700E02027880404D505E04146384618
:104BD000B0476D1C641EF9D52846BDE8F0810A680F
:104BE000531C0B60107070470B490028096802D0F5
:104BF000012806D00DE0486AC861886A4010088420
:104C000007E0D1E9092020F001031A44CA614010ED
:104C100008840020704700006809002010B505A135
:104C2000FBF7B5FB002803D1BDE8104008F08EBEAD
:104C300010BD0000776D38393738000010B50446D4
:104C4000B4F91000B0F57A5F03DC4FF48050A06235
:104C500002E04FF40050A062A06A422240000DA181
:104C60000DF028FC6062024614A104200DF002FC45
:104C7000606A40B1E061A26A228412A104200DF0B2
:104C8000F9FB002010BD13A104200DF0F3FB4FF041
:104C9000FF3010BD2E2E5C2E2E5C2E2E5C647269B1
:104CA0007665725C736F756E645C617564696F5F65
:104CB000706970656C696E652E6300002530387808
:104CC0000D0A0000627566206C656E3A2025640D41
:104CD0000A000000736F756E64206D616C6C6F6309
:104CE000206572720D0A000010B5044624A120460A
:104CF000FBF74DFB28B324A12046FBF748FB002817
:104D00003CD123A104200DF0B5FB02F044FE0321A9
:104D1000382002F03FFEB4F91010022002F03DFEF0
:104D2000B4F910200221606908F06EFDD4E9090190
:104D300008F09AFD1AA00CF0D5FBBDE8104008F071
:104D4000FFBD1BA104200DF095FB02F02CFF0321F9
:104D5000382002F028FEB4F91010022002F04DFFB6
:104D6000B4F910200221606908F04EFDD4E9090170
:104D700008F07AFDBDE8104008F0E2BD10BD00006B
:104D8000776D383937380000776D383936300000A4
:104D9000776D383936302072756E0D0A00000000CC
:104DA00069327320646D612073746172742E2E00F9
:104DB000776D383937382072756E0D0A00000000A3
:104DC0002DE9F0474369002500260027D0F8109010
:104DD000154CA9F1020202EB82021444002215E0F4
:104DE00003EB430C00EB8C0814F802C0D8F818A0B1
:104DF0000AFB0C55D8F81CA00AFB0C66D8F82080DA
:104E000008FB0C775B1E03F00303521C9145E7DCA3
:104E1000207905410D60207906414E602079C74018
:104E20008F60BDE8F0870000185D010840F216228F
:104E300001A14C200DF03EBB2E2E5C2E2E5C2E2EA2
:104E40005C70616E656C5C646973706C61792E6313
:104E50000000000010B50446A06B0DF073F9606C03
:104E60000DF0CDFA0020606420460DF0C8FA002055
:104E700010BD000030B597B004460D462A4675A116
:104E800004200DF0F7FA012128460DF031FAA06355
:104E9000002873D00E2203A90DF09AFABDF80C2059
:104EA0002280BDF810006060BDF80E1001EB0040DC
:104EB0006060BDF812002081BDF814006081BDF86B
:104EC0001800E060BDF8161001EB0040E06066A13C
:104ED00004200DF0CFFA68A1042062680DF0CAFA30
:104EE00069A10420E2680DF0C5FA282203A9A06B8D
:104EF0000DF06EFABDF80C202261BDF81000606163
:104F0000BDF81400A061BDF81800A083BDF81A0018
:104F1000E083BDF81C002062BDF820006062BDF88F
:104F20002400A062BDF82800E062BDF82C002063D8
:104F3000BDF83000606359A104200DF09BFA5BA11D
:104F4000042062690DF096FA5CA10420A2690DF0BC
:104F500091FAA28B5EA104200DF08CFAE28B61A184
:104F600004200DF087FA64A10420226A0DF082FA71
:104F700067A10420626A0DF07DFA00E02FE069A1CC
:104F80000420A26A0DF076FA6CA10420E26A0DF00A
:104F900071FA70A10420226B0DF06CFA72A104204A
:104FA000626B0DF067FA6069E18B024648431F307F
:104FB000C31700EBD3604FF6FC7303EAE000A08751
:104FC000A36900FB03F52564CDE900106CA1042062
:104FD0000DF050FA206B002148B1E08720E073A16A
:104FE00004200DF047FA4FF0FF3017B030BDE08BD2
:104FF00001280AD004280BD008280CD018280ED07D
:10500000A06B0DF09FF80220EFE70220E08707E099
:105010001020E08704E04FF48070E08700E0E18733
:10502000E08F70B180004FF41B7265A10DF042FA61
:105030006064E18FA36B8A00014618460DF0C8F941
:1050400000E06164E08F362101EB8000A064002065
:10505000CBE70000626D70206F70656E2066696C32
:10506000653A25730D0A000062662E6266547970F7
:10507000653A25780D0A000062662E626653697AE9
:10508000653A25640D0A000062662E62664F666608
:10509000426974733A25640D0A00000062692E6249
:1050A0006953697A653A25640D0A000062692E62C7
:1050B0006957696474683A25640D0A0062692E6252
:1050C000694865696768743A25640D0A0000000044
:1050D00062692E6269506C616E65733A25640D0ACF
:1050E0000000000062692E6269426974436F756E48
:1050F000743A25640D0A000062692E6269436F6D7F
:105100007072657373696F6E3A25640D0A00000052
:1051100062692E626953697A65496D6167653A25EE
:10512000640D0A0062692E62695850656C7350659F
:10513000724D657465723A25640D0A0062692E62CB
:10514000695950656C735065724D657465723A2586
:10515000640D0A0062692E6269436C72557365645E
:105160003A25640D0A00000062692E6269436C7280
:10517000496D706F7274616E743A25640D0A000097
:10518000626D7020773A25642C683A25642C206281
:105190006974636F756E743A25642C206C696E6552
:1051A00062797465733A25640D0A0000626D70209F
:1051B0006F70656E2066696C65206572720D0A00FD
:1051C0002E2E5C2E2E5C2E2E5C70616E656C5C64E7
:1051D0006973706C61792E63000000002DE9F05F47
:1051E0000446884617461E46A08F40F28622784322
:1051F00072A10DF05FF90546A18FA06C002208FB9B
:105200000101A06B0DF036F8A28F29467A43A06BFE
:105210000DF0DEF8002803DC4FF0FF30BDE8F09F12
:10522000E08B102833D006DC012807D004282FD0CB
:1052300008282CD164E0182829D190E0002124E02E
:10524000B4F83CC00CFB01FC00204FF080084FF686
:10525000FF79824615E00CEBD00300F0070BEB5C06
:1052600028FA0BFB03EA0B032BB14A4306EB42027D
:1052700022F8109004E04A4306EB420222F810A004
:10528000401C62698242E6D8491CB942D8D390E0FA
:1052900000222FE0B4F83C8008FB02F8002024E054
:1052A00005EB080101EB50010978C30725D001F097
:1052B0000F018900636C01F1020913F809904FEAAC
:1052C000D90901F1010A13F80AA04FEA9A0A595CB8
:1052D000C9084FEAC92343EA4A130B430CFB02FCFB
:1052E00006EB4C0121F81030401CD4F814C0844562
:1052F000D6D8521CBA42CDD35BE0C1F30311D8E734
:10530000002229E0A38F5343002020E0E95C5B1CCE
:105310008900D4F844C001F102091CF809904FEA51
:10532000D90901F1010A1CF80AA04FEA9A0A1CF8EF
:105330000110C9084FEAC92C4CEA4A1C4CEA010C7E
:1053400008FB02F806EB480121F810C0401CD4F815
:1053500014808045DAD8521CBA42D3D329E0002108
:1053600025E0A28F4A4300201CE015F80290531C50
:1053700003F1010CEB5C0CF1010215F80CC04FF4C9
:10538000784A0AEA0C2C4FF4FC6A0AEAC3034FEA93
:10539000D909634408FB01F806EB480C4B442CF890
:1053A0001030401CD4F814808045DED8491CB94226
:1053B000D7D328460DF023F800202FE72E2E5C2EA1
:1053C0002E5C2E2E5C70616E656C5C646973706C13
:1053D00061792E630000000010B5094A00210948D8
:1053E00009F015FA0849886020B108A103200DF0E2
:1053F00041F803E00DA103200DF03CF8002010BDA2
:10540000E83E06084D540008680D00205B2020206F
:10541000205F6170705D206672656572746F7320C5
:105420005363686564756C65720D0A005B2020200B
:10543000205F6170705D20785461736B43726561A9
:105440007465206661696C0D0A00000005A10420E6
:105450000DF010F80AF00AFD0C480CF057FE0DF0A4
:10546000CFF8FEE75B202020626F6172645D2072DE
:10547000756E20617070207461736B212032303240
:10548000302E31302E3135200D0A0000B03E060896
:105490001CB5064618A00CF025F81C4C00256580AC
:1054A000012121700022304607F076FDF020012313
:1054B00000904FF4A0721946304607F059FD0022C3
:1054C00011462020FBF762FB2078FCF761FC0422E8
:1054D0000F49002007F0FAFE01A807F029FF9DF808
:1054E00004004007F8D562880AA104200CF0C2FF2E
:1054F000658007F029FFEFE7626F6172645F6361A7
:105500006D6572615F73686F770D0A00680D00202A
:105510000000016C2D662D25642D200010B517A10B
:1055200004200CF0A7FF07F01DFF1E4809F098FCAF
:1055300001F0CCFB1C4801F007FB01F05DFB1B48B0
:105540000BF08CFD02F06AF907F054FEFBF7A2FBAA
:1055500000F002F9FBF702FE00F0C8FF14A002F011
:1055600005F91148801D01F02FFB08F0F5F902F054
:1055700015FAFFF731FF002010BD00005B2020204E
:10558000626F6172645D2077756A69717565206FFD
:10559000746865722064657620696E6974212A2AB0
:1055A0002A0D0A00700A0020740D0020F45C010826
:1055B000564932433100000010B501F04DFB06485A
:1055C000006800B1804701F0EDFB07F067F9BDE826
:1055D000104002F0B9B900000800001010B5002119
:1055E0004FF00060FCF7CAFB1848FDF757F808F0C9
:1055F00071FA00F04DFC164916A000F053FC07F0BC
:10560000ABFD16A103200CF035FF21A103200CF007
:1056100031FF28A103200CF02DFF0C4C31A10320F9
:1056200022680CF027FF36A1032062680CF022FFED
:105630003AA10320A2680CF01DFF3FA10320E268FD
:105640000CF018FF08F096FA002010BD609B0120B6
:105650005429040875617274330000000D0A0D0AA4
:105660000D0A2A2A2A2A2A2A2A2A2A2A2A2A2A2AD7
:105670002A2A2A2A2A2A2A2A2A2A2A2A2A2A2A2A8A
:105680002A2A2A2A2A2A2A2A2A2A0D0A000000005F
:105690002020202020202020426F61726420777516
:1056A0006A697175652073746D3332663430370DF5
:1056B0000A0000002A2A2A2A2A2A2A2A2A2A2A2AE8
:1056C0002A2A2A2A2A2A2A2A2A2A2A2A2A2A2A2A3A
:1056D0002A2A2A2A2A2A2A2A2A2A2A2A0D0A0D0AA4
:1056E00000000000535953434C4B5F46726571757F
:1056F000656E63793A256420487A0D0A000000003F
:1057000048434C4B5F4672657175656E63793A200C
:1057100020256420487A0D0A0000000050434C4BBD
:10572000315F4672657175656E63793A2025642034
:10573000487A0D0A0000000050434C4B325F46721D
:10574000657175656E63793A20256420487A0D0A83
:10575000000000007047704708B501218805FCF77C
:1057600035FF39208DF8000001208DF8010000215F
:105770008DF802108DF803006846FCF7CBFA08BDDF
:1057800010B5002804D0406809F019F8002010BDB9
:105790004FF0FF3010BD00002DE9F04780468946EC
:1057A00017460D4E35680024B54209D0A5F12404F2
:1057B00004F10A014046FAF7EAFD08B12D68F3E763
:1057C0003CB14946606808F099FF08B1002400E048
:1057D00027812046BDE8F087C80900202DE9F04167
:1057E00006461E4F3C684FF0FF35BC421ED1492291
:1057F0001BA12C200CF05EFE0446184904F1240085
:105800000A6850600260416008601A381822314608
:105810000746FAF785FD2560002008F090FF6060DC
:10582000307C122812D0112815D012E0A4F12401E6
:105830000A313046FAF7ABFD08B12468D5E710A16C
:1058400003200CF017FE2846BDE8F081384600F032
:105850000CFC0020F8E72846F6E70000C809002005
:105860002E2E5C2E2E5C2E2E5C5065746974655C49
:105870006275735C6275735F6932632E630000004A
:1058800069326320646576206E616D652065727291
:10589000210D0A00F8B5069D4FF0FF3600280AD00A
:1058A000847E112C09D0122C09D007A104200CF001
:1058B000E1FD3046F8BD3046F8BD0020F8BD00954A
:1058C00000F07EFCF8BD000069326320646576203C
:1058D00074797065206572720D0A000010B5044677
:1058E000207C022823D094F8210038B1618C08F084
:1058F000A9F8618C94F8210008F032F994F824009A
:1059000038B1E18C08F09EF8E18C94F8240008F09E
:1059100027F994F82800002809D0618D08F092F842
:10592000618D94F82800BDE8104008F019B910BD49
:1059300010B5C0690129428D90F8280004D01146A5
:1059400008F004F9002010BD114608F009F9F9E744
:1059500010B5C169097C012904D0022906D00329A8
:1059600008D009E0406B00F05BF905E0406BFFF701
:1059700007FF01E000214163002010BD70B504461F
:10598000E569287C11354FF0FF33012804D0022847
:105990000AD0032810D011E0206A428801782846F6
:1059A00000F074F9606309E0206A428819462846CD
:1059B000FFF7F2FE606301E001206063606B18B9DD
:1059C00002A103200CF056FD204670BD6C636420DC
:1059D000627573206F70656E2062617365206275F9
:1059E0007320657272210D0A0000000070B5C36952
:1059F0001C7C012C04D0022C13D0032C11D106E006
:105A000013460A46406B002100F02CFA09E0002002
:105A1000054C04E025682D8821F81050401C904268
:105A2000F8D3002070BD00007000002010B5C069E0
:105A30000129C28C90F8240004D0114608F086F8A1
:105A4000002010BD114608F08BF8F9E7C069007C12
:105A5000032806D12AB1044800680180521E002A9A
:105A6000FBD1002070470000700000207CB5054687
:105A7000EC69207CCEB2012804D0022815D003287E
:105A800025D121E0618C94F8210008F05FF88DF8B1
:105A900004600123002201A9686B00F0E3F9618C26
:105AA00094F8210008F05CF811E000208DF8040063
:105AB0008DF80560286A01780220009001AB002271
:105AC000686BFFF7E7FE02E00248006801800020F3
:105AD0007CBD00006C00002030B5C1B00546144606
